{
	"contracts/Twitter-Inheritance.sol": {
		"Twitter": {
			"abi": [
				{
					"inputs": [],
					"stateMutability": "nonpayable",
					"type": "constructor"
				},
				{
					"anonymous": false,
					"inputs": [
						{
							"indexed": false,
							"internalType": "uint256",
							"name": "id",
							"type": "uint256"
						},
						{
							"indexed": false,
							"internalType": "address",
							"name": "author",
							"type": "address"
						},
						{
							"indexed": false,
							"internalType": "string",
							"name": "content",
							"type": "string"
						},
						{
							"indexed": false,
							"internalType": "uint256",
							"name": "timestamp",
							"type": "uint256"
						}
					],
					"name": "TweetCreated",
					"type": "event"
				},
				{
					"anonymous": false,
					"inputs": [
						{
							"indexed": false,
							"internalType": "address",
							"name": "liker",
							"type": "address"
						},
						{
							"indexed": false,
							"internalType": "address",
							"name": "tweetAuthor",
							"type": "address"
						},
						{
							"indexed": false,
							"internalType": "uint256",
							"name": "tweetId",
							"type": "uint256"
						},
						{
							"indexed": false,
							"internalType": "uint256",
							"name": "newLikeCount",
							"type": "uint256"
						}
					],
					"name": "TweetLiked",
					"type": "event"
				},
				{
					"anonymous": false,
					"inputs": [
						{
							"indexed": false,
							"internalType": "address",
							"name": "unliker",
							"type": "address"
						},
						{
							"indexed": false,
							"internalType": "address",
							"name": "tweetAuthor",
							"type": "address"
						},
						{
							"indexed": false,
							"internalType": "uint256",
							"name": "tweetId",
							"type": "uint256"
						},
						{
							"indexed": false,
							"internalType": "uint256",
							"name": "newLikeCount",
							"type": "uint256"
						}
					],
					"name": "TweetUnliked",
					"type": "event"
				},
				{
					"inputs": [],
					"name": "MAX_TWEET_LENGTH",
					"outputs": [
						{
							"internalType": "uint16",
							"name": "",
							"type": "uint16"
						}
					],
					"stateMutability": "view",
					"type": "function"
				},
				{
					"inputs": [
						{
							"internalType": "uint16",
							"name": "newTweetLength",
							"type": "uint16"
						}
					],
					"name": "changeTweetLength",
					"outputs": [],
					"stateMutability": "nonpayable",
					"type": "function"
				},
				{
					"inputs": [
						{
							"internalType": "string",
							"name": "_tweet",
							"type": "string"
						}
					],
					"name": "createTweet",
					"outputs": [],
					"stateMutability": "nonpayable",
					"type": "function"
				},
				{
					"inputs": [
						{
							"internalType": "address",
							"name": "_owner",
							"type": "address"
						}
					],
					"name": "getAllTweets",
					"outputs": [
						{
							"components": [
								{
									"internalType": "uint256",
									"name": "id",
									"type": "uint256"
								},
								{
									"internalType": "address",
									"name": "author",
									"type": "address"
								},
								{
									"internalType": "string",
									"name": "content",
									"type": "string"
								},
								{
									"internalType": "uint256",
									"name": "timestamp",
									"type": "uint256"
								},
								{
									"internalType": "uint256",
									"name": "likes",
									"type": "uint256"
								}
							],
							"internalType": "struct Twitter.Tweet[]",
							"name": "",
							"type": "tuple[]"
						}
					],
					"stateMutability": "view",
					"type": "function"
				},
				{
					"inputs": [
						{
							"internalType": "address",
							"name": "_author",
							"type": "address"
						}
					],
					"name": "getTotalLikes",
					"outputs": [
						{
							"internalType": "uint256",
							"name": "",
							"type": "uint256"
						}
					],
					"stateMutability": "view",
					"type": "function"
				},
				{
					"inputs": [
						{
							"internalType": "uint256",
							"name": "_i",
							"type": "uint256"
						}
					],
					"name": "getTweet",
					"outputs": [
						{
							"components": [
								{
									"internalType": "uint256",
									"name": "id",
									"type": "uint256"
								},
								{
									"internalType": "address",
									"name": "author",
									"type": "address"
								},
								{
									"internalType": "string",
									"name": "content",
									"type": "string"
								},
								{
									"internalType": "uint256",
									"name": "timestamp",
									"type": "uint256"
								},
								{
									"internalType": "uint256",
									"name": "likes",
									"type": "uint256"
								}
							],
							"internalType": "struct Twitter.Tweet",
							"name": "",
							"type": "tuple"
						}
					],
					"stateMutability": "view",
					"type": "function"
				},
				{
					"inputs": [
						{
							"internalType": "address",
							"name": "author",
							"type": "address"
						},
						{
							"internalType": "uint256",
							"name": "id",
							"type": "uint256"
						}
					],
					"name": "likeTweet",
					"outputs": [],
					"stateMutability": "nonpayable",
					"type": "function"
				},
				{
					"inputs": [],
					"name": "owner",
					"outputs": [
						{
							"internalType": "address",
							"name": "",
							"type": "address"
						}
					],
					"stateMutability": "view",
					"type": "function"
				},
				{
					"inputs": [
						{
							"internalType": "address",
							"name": "",
							"type": "address"
						},
						{
							"internalType": "uint256",
							"name": "",
							"type": "uint256"
						}
					],
					"name": "tweets",
					"outputs": [
						{
							"internalType": "uint256",
							"name": "id",
							"type": "uint256"
						},
						{
							"internalType": "address",
							"name": "author",
							"type": "address"
						},
						{
							"internalType": "string",
							"name": "content",
							"type": "string"
						},
						{
							"internalType": "uint256",
							"name": "timestamp",
							"type": "uint256"
						},
						{
							"internalType": "uint256",
							"name": "likes",
							"type": "uint256"
						}
					],
					"stateMutability": "view",
					"type": "function"
				},
				{
					"inputs": [
						{
							"internalType": "address",
							"name": "author",
							"type": "address"
						},
						{
							"internalType": "uint256",
							"name": "id",
							"type": "uint256"
						}
					],
					"name": "unlikeTweet",
					"outputs": [],
					"stateMutability": "nonpayable",
					"type": "function"
				}
			],
			"devdoc": {
				"kind": "dev",
				"methods": {},
				"version": 1
			},
			"evm": {
				"assembly": "    /* \"contracts/Twitter-Inheritance.sol\":244:2785  contract Twitter {... */\n  mstore(0x40, 0x80)\n    /* \"contracts/Twitter-Inheritance.sol\":301:304  280 */\n  0x0118\n    /* \"contracts/Twitter-Inheritance.sol\":268:304  uint16 public MAX_TWEET_LENGTH = 280 */\n  0x00\n  dup1\n  0x0100\n  exp\n  dup2\n  sload\n  dup2\n  0xffff\n  mul\n  not\n  and\n  swap1\n  dup4\n  0xffff\n  and\n  mul\n  or\n  swap1\n  sstore\n  pop\n    /* \"contracts/Twitter-Inheritance.sol\":840:889  constructor() {... */\n  callvalue\n  dup1\n  iszero\n  tag_1\n  jumpi\n  0x00\n  dup1\n  revert\ntag_1:\n  pop\n    /* \"contracts/Twitter-Inheritance.sol\":872:882  msg.sender */\n  caller\n    /* \"contracts/Twitter-Inheritance.sol\":864:869  owner */\n  0x02\n  0x00\n    /* \"contracts/Twitter-Inheritance.sol\":864:882  owner = msg.sender */\n  0x0100\n  exp\n  dup2\n  sload\n  dup2\n  0xffffffffffffffffffffffffffffffffffffffff\n  mul\n  not\n  and\n  swap1\n  dup4\n  0xffffffffffffffffffffffffffffffffffffffff\n  and\n  mul\n  or\n  swap1\n  sstore\n  pop\n    /* \"contracts/Twitter-Inheritance.sol\":244:2785  contract Twitter {... */\n  dataSize(sub_0)\n  dup1\n  dataOffset(sub_0)\n  0x00\n  codecopy\n  0x00\n  return\nstop\n\nsub_0: assembly {\n        /* \"contracts/Twitter-Inheritance.sol\":244:2785  contract Twitter {... */\n      mstore(0x40, 0x80)\n      callvalue\n      dup1\n      iszero\n      tag_1\n      jumpi\n      0x00\n      dup1\n      revert\n    tag_1:\n      pop\n      jumpi(tag_2, lt(calldatasize, 0x04))\n      shr(0xe0, calldataload(0x00))\n      dup1\n      0x6eb10797\n      gt\n      tag_13\n      jumpi\n      dup1\n      0x6eb10797\n      eq\n      tag_8\n      jumpi\n      dup1\n      0x7c9cd2bc\n      eq\n      tag_9\n      jumpi\n      dup1\n      0x820785cc\n      eq\n      tag_10\n      jumpi\n      dup1\n      0x8da5cb5b\n      eq\n      tag_11\n      jumpi\n      dup1\n      0xc3ad5ecb\n      eq\n      tag_12\n      jumpi\n      jump(tag_2)\n    tag_13:\n      dup1\n      0x05a1b4a9\n      eq\n      tag_3\n      jumpi\n      dup1\n      0x12e7ee1c\n      eq\n      tag_4\n      jumpi\n      dup1\n      0x3d9b569f\n      eq\n      tag_5\n      jumpi\n      dup1\n      0x58bfa4ab\n      eq\n      tag_6\n      jumpi\n      dup1\n      0x63378216\n      eq\n      tag_7\n      jumpi\n    tag_2:\n      0x00\n      dup1\n      revert\n        /* \"contracts/Twitter-Inheritance.sol\":454:496  mapping(address => Tweet[] ) public tweets */\n    tag_3:\n      tag_14\n      0x04\n      dup1\n      calldatasize\n      sub\n      dup2\n      add\n      swap1\n      tag_15\n      swap2\n      swap1\n      tag_16\n      jump\t// in\n    tag_15:\n      tag_17\n      jump\t// in\n    tag_14:\n      mload(0x40)\n      tag_18\n      swap6\n      swap5\n      swap4\n      swap3\n      swap2\n      swap1\n      tag_19\n      jump\t// in\n    tag_18:\n      mload(0x40)\n      dup1\n      swap2\n      sub\n      swap1\n      return\n        /* \"contracts/Twitter-Inheritance.sol\":2669:2782  function getAllTweets(address _owner) public view returns (Tweet[] memory ){... */\n    tag_4:\n      tag_20\n      0x04\n      dup1\n      calldatasize\n      sub\n      dup2\n      add\n      swap1\n      tag_21\n      swap2\n      swap1\n      tag_22\n      jump\t// in\n    tag_21:\n      tag_23\n      jump\t// in\n    tag_20:\n      mload(0x40)\n      tag_24\n      swap2\n      swap1\n      tag_25\n      jump\t// in\n    tag_24:\n      mload(0x40)\n      dup1\n      swap2\n      sub\n      swap1\n      return\n        /* \"contracts/Twitter-Inheritance.sol\":2220:2548  function unlikeTweet(address author, uint256 id) external {... */\n    tag_5:\n      tag_26\n      0x04\n      dup1\n      calldatasize\n      sub\n      dup2\n      add\n      swap1\n      tag_27\n      swap2\n      swap1\n      tag_16\n      jump\t// in\n    tag_27:\n      tag_28\n      jump\t// in\n    tag_26:\n      stop\n        /* \"contracts/Twitter-Inheritance.sol\":1004:1121  function changeTweetLength(uint16 newTweetLength) public onlyOwner {... */\n    tag_6:\n      tag_29\n      0x04\n      dup1\n      calldatasize\n      sub\n      dup2\n      add\n      swap1\n      tag_30\n      swap2\n      swap1\n      tag_31\n      jump\t// in\n    tag_30:\n      tag_32\n      jump\t// in\n    tag_29:\n      stop\n        /* \"contracts/Twitter-Inheritance.sol\":1929:2214  function likeTweet(address author, uint256 id) external {  ... */\n    tag_7:\n      tag_33\n      0x04\n      dup1\n      calldatasize\n      sub\n      dup2\n      add\n      swap1\n      tag_34\n      swap2\n      swap1\n      tag_16\n      jump\t// in\n    tag_34:\n      tag_35\n      jump\t// in\n    tag_33:\n      stop\n        /* \"contracts/Twitter-Inheritance.sol\":268:304  uint16 public MAX_TWEET_LENGTH = 280 */\n    tag_8:\n      tag_36\n      tag_37\n      jump\t// in\n    tag_36:\n      mload(0x40)\n      tag_38\n      swap2\n      swap1\n      tag_39\n      jump\t// in\n    tag_38:\n      mload(0x40)\n      dup1\n      swap2\n      sub\n      swap1\n      return\n        /* \"contracts/Twitter-Inheritance.sol\":1383:1923  function createTweet(string memory _tweet) public {... */\n    tag_9:\n      tag_40\n      0x04\n      dup1\n      calldatasize\n      sub\n      dup2\n      add\n      swap1\n      tag_41\n      swap2\n      swap1\n      tag_42\n      jump\t// in\n    tag_41:\n      tag_43\n      jump\t// in\n    tag_40:\n      stop\n        /* \"contracts/Twitter-Inheritance.sol\":1127:1377  function getTotalLikes(address _author) external view returns(uint) {... */\n    tag_10:\n      tag_44\n      0x04\n      dup1\n      calldatasize\n      sub\n      dup2\n      add\n      swap1\n      tag_45\n      swap2\n      swap1\n      tag_22\n      jump\t// in\n    tag_45:\n      tag_46\n      jump\t// in\n    tag_44:\n      mload(0x40)\n      tag_47\n      swap2\n      swap1\n      tag_48\n      jump\t// in\n    tag_47:\n      mload(0x40)\n      dup1\n      swap2\n      sub\n      swap1\n      return\n        /* \"contracts/Twitter-Inheritance.sol\":502:522  address public owner */\n    tag_11:\n      tag_49\n      tag_50\n      jump\t// in\n    tag_49:\n      mload(0x40)\n      tag_51\n      swap2\n      swap1\n      tag_52\n      jump\t// in\n    tag_51:\n      mload(0x40)\n      dup1\n      swap2\n      sub\n      swap1\n      return\n        /* \"contracts/Twitter-Inheritance.sol\":2554:2663  function getTweet( uint _i) public view returns (Tweet memory) {... */\n    tag_12:\n      tag_53\n      0x04\n      dup1\n      calldatasize\n      sub\n      dup2\n      add\n      swap1\n      tag_54\n      swap2\n      swap1\n      tag_55\n      jump\t// in\n    tag_54:\n      tag_56\n      jump\t// in\n    tag_53:\n      mload(0x40)\n      tag_57\n      swap2\n      swap1\n      tag_58\n      jump\t// in\n    tag_57:\n      mload(0x40)\n      dup1\n      swap2\n      sub\n      swap1\n      return\n        /* \"contracts/Twitter-Inheritance.sol\":454:496  mapping(address => Tweet[] ) public tweets */\n    tag_17:\n      mstore(0x20, 0x01)\n      dup2\n      0x00\n      mstore\n      keccak256(0x00, 0x40)\n      dup2\n      dup2\n      sload\n      dup2\n      lt\n      tag_59\n      jumpi\n      0x00\n      dup1\n      revert\n    tag_59:\n      swap1\n      0x00\n      mstore\n      keccak256(0x00, 0x20)\n      swap1\n      0x05\n      mul\n      add\n      0x00\n      swap2\n      pop\n      swap2\n      pop\n      pop\n      dup1\n      0x00\n      add\n      sload\n      swap1\n      dup1\n      0x01\n      add\n      0x00\n      swap1\n      sload\n      swap1\n      0x0100\n      exp\n      swap1\n      div\n      0xffffffffffffffffffffffffffffffffffffffff\n      and\n      swap1\n      dup1\n      0x02\n      add\n      dup1\n      sload\n      tag_61\n      swap1\n      tag_62\n      jump\t// in\n    tag_61:\n      dup1\n      0x1f\n      add\n      0x20\n      dup1\n      swap2\n      div\n      mul\n      0x20\n      add\n      mload(0x40)\n      swap1\n      dup2\n      add\n      0x40\n      mstore\n      dup1\n      swap3\n      swap2\n      swap1\n      dup2\n      dup2\n      mstore\n      0x20\n      add\n      dup3\n      dup1\n      sload\n      tag_63\n      swap1\n      tag_62\n      jump\t// in\n    tag_63:\n      dup1\n      iszero\n      tag_64\n      jumpi\n      dup1\n      0x1f\n      lt\n      tag_65\n      jumpi\n      0x0100\n      dup1\n      dup4\n      sload\n      div\n      mul\n      dup4\n      mstore\n      swap2\n      0x20\n      add\n      swap2\n      jump(tag_64)\n    tag_65:\n      dup3\n      add\n      swap2\n      swap1\n      0x00\n      mstore\n      keccak256(0x00, 0x20)\n      swap1\n    tag_66:\n      dup2\n      sload\n      dup2\n      mstore\n      swap1\n      0x01\n      add\n      swap1\n      0x20\n      add\n      dup1\n      dup4\n      gt\n      tag_66\n      jumpi\n      dup3\n      swap1\n      sub\n      0x1f\n      and\n      dup3\n      add\n      swap2\n    tag_64:\n      pop\n      pop\n      pop\n      pop\n      pop\n      swap1\n      dup1\n      0x03\n      add\n      sload\n      swap1\n      dup1\n      0x04\n      add\n      sload\n      swap1\n      pop\n      dup6\n      jump\t// out\n        /* \"contracts/Twitter-Inheritance.sol\":2669:2782  function getAllTweets(address _owner) public view returns (Tweet[] memory ){... */\n    tag_23:\n        /* \"contracts/Twitter-Inheritance.sol\":2728:2742  Tweet[] memory */\n      0x60\n        /* \"contracts/Twitter-Inheritance.sol\":2761:2767  tweets */\n      0x01\n        /* \"contracts/Twitter-Inheritance.sol\":2761:2775  tweets[_owner] */\n      0x00\n        /* \"contracts/Twitter-Inheritance.sol\":2768:2774  _owner */\n      dup4\n        /* \"contracts/Twitter-Inheritance.sol\":2761:2775  tweets[_owner] */\n      0xffffffffffffffffffffffffffffffffffffffff\n      and\n      0xffffffffffffffffffffffffffffffffffffffff\n      and\n      dup2\n      mstore\n      0x20\n      add\n      swap1\n      dup2\n      mstore\n      0x20\n      add\n      0x00\n      keccak256\n        /* \"contracts/Twitter-Inheritance.sol\":2754:2775  return tweets[_owner] */\n      dup1\n      sload\n      dup1\n      0x20\n      mul\n      0x20\n      add\n      mload(0x40)\n      swap1\n      dup2\n      add\n      0x40\n      mstore\n      dup1\n      swap3\n      swap2\n      swap1\n      dup2\n      dup2\n      mstore\n      0x20\n      add\n      0x00\n      swap1\n    tag_68:\n      dup3\n      dup3\n      lt\n      iszero\n      tag_69\n      jumpi\n      dup4\n      dup3\n      swap1\n      0x00\n      mstore\n      keccak256(0x00, 0x20)\n      swap1\n      0x05\n      mul\n      add\n      mload(0x40)\n      dup1\n      0xa0\n      add\n      0x40\n      mstore\n      swap1\n      dup2\n      0x00\n      dup3\n      add\n      sload\n      dup2\n      mstore\n      0x20\n      add\n      0x01\n      dup3\n      add\n      0x00\n      swap1\n      sload\n      swap1\n      0x0100\n      exp\n      swap1\n      div\n      0xffffffffffffffffffffffffffffffffffffffff\n      and\n      0xffffffffffffffffffffffffffffffffffffffff\n      and\n      0xffffffffffffffffffffffffffffffffffffffff\n      and\n      dup2\n      mstore\n      0x20\n      add\n      0x02\n      dup3\n      add\n      dup1\n      sload\n      tag_71\n      swap1\n      tag_62\n      jump\t// in\n    tag_71:\n      dup1\n      0x1f\n      add\n      0x20\n      dup1\n      swap2\n      div\n      mul\n      0x20\n      add\n      mload(0x40)\n      swap1\n      dup2\n      add\n      0x40\n      mstore\n      dup1\n      swap3\n      swap2\n      swap1\n      dup2\n      dup2\n      mstore\n      0x20\n      add\n      dup3\n      dup1\n      sload\n      tag_72\n      swap1\n      tag_62\n      jump\t// in\n    tag_72:\n      dup1\n      iszero\n      tag_73\n      jumpi\n      dup1\n      0x1f\n      lt\n      tag_74\n      jumpi\n      0x0100\n      dup1\n      dup4\n      sload\n      div\n      mul\n      dup4\n      mstore\n      swap2\n      0x20\n      add\n      swap2\n      jump(tag_73)\n    tag_74:\n      dup3\n      add\n      swap2\n      swap1\n      0x00\n      mstore\n      keccak256(0x00, 0x20)\n      swap1\n    tag_75:\n      dup2\n      sload\n      dup2\n      mstore\n      swap1\n      0x01\n      add\n      swap1\n      0x20\n      add\n      dup1\n      dup4\n      gt\n      tag_75\n      jumpi\n      dup3\n      swap1\n      sub\n      0x1f\n      and\n      dup3\n      add\n      swap2\n    tag_73:\n      pop\n      pop\n      pop\n      pop\n      pop\n      dup2\n      mstore\n      0x20\n      add\n      0x03\n      dup3\n      add\n      sload\n      dup2\n      mstore\n      0x20\n      add\n      0x04\n      dup3\n      add\n      sload\n      dup2\n      mstore\n      pop\n      pop\n      dup2\n      mstore\n      0x20\n      add\n      swap1\n      0x01\n      add\n      swap1\n      jump(tag_68)\n    tag_69:\n      pop\n      pop\n      pop\n      pop\n      swap1\n      pop\n        /* \"contracts/Twitter-Inheritance.sol\":2669:2782  function getAllTweets(address _owner) public view returns (Tweet[] memory ){... */\n      swap2\n      swap1\n      pop\n      jump\t// out\n        /* \"contracts/Twitter-Inheritance.sol\":2220:2548  function unlikeTweet(address author, uint256 id) external {... */\n    tag_28:\n        /* \"contracts/Twitter-Inheritance.sol\":2321:2323  id */\n      dup1\n        /* \"contracts/Twitter-Inheritance.sol\":2296:2302  tweets */\n      0x01\n        /* \"contracts/Twitter-Inheritance.sol\":2296:2310  tweets[author] */\n      0x00\n        /* \"contracts/Twitter-Inheritance.sol\":2303:2309  author */\n      dup5\n        /* \"contracts/Twitter-Inheritance.sol\":2296:2310  tweets[author] */\n      0xffffffffffffffffffffffffffffffffffffffff\n      and\n      0xffffffffffffffffffffffffffffffffffffffff\n      and\n      dup2\n      mstore\n      0x20\n      add\n      swap1\n      dup2\n      mstore\n      0x20\n      add\n      0x00\n      keccak256\n        /* \"contracts/Twitter-Inheritance.sol\":2311:2313  id */\n      dup3\n        /* \"contracts/Twitter-Inheritance.sol\":2296:2314  tweets[author][id] */\n      dup2\n      sload\n      dup2\n      lt\n      tag_77\n      jumpi\n      tag_78\n      tag_79\n      jump\t// in\n    tag_78:\n    tag_77:\n      swap1\n      0x00\n      mstore\n      keccak256(0x00, 0x20)\n      swap1\n      0x05\n      mul\n      add\n        /* \"contracts/Twitter-Inheritance.sol\":2296:2317  tweets[author][id].id */\n      0x00\n      add\n      sload\n        /* \"contracts/Twitter-Inheritance.sol\":2296:2323  tweets[author][id].id == id */\n      eq\n        /* \"contracts/Twitter-Inheritance.sol\":2288:2348  require(tweets[author][id].id == id, \"TWEET DOES NOT EXIST\") */\n      tag_81\n      jumpi\n      mload(0x40)\n      0x08c379a000000000000000000000000000000000000000000000000000000000\n      dup2\n      mstore\n      0x04\n      add\n      tag_82\n      swap1\n      tag_83\n      jump\t// in\n    tag_82:\n      mload(0x40)\n      dup1\n      swap2\n      sub\n      swap1\n      revert\n    tag_81:\n        /* \"contracts/Twitter-Inheritance.sol\":2393:2394  0 */\n      0x00\n        /* \"contracts/Twitter-Inheritance.sol\":2366:2372  tweets */\n      0x01\n        /* \"contracts/Twitter-Inheritance.sol\":2366:2380  tweets[author] */\n      0x00\n        /* \"contracts/Twitter-Inheritance.sol\":2373:2379  author */\n      dup5\n        /* \"contracts/Twitter-Inheritance.sol\":2366:2380  tweets[author] */\n      0xffffffffffffffffffffffffffffffffffffffff\n      and\n      0xffffffffffffffffffffffffffffffffffffffff\n      and\n      dup2\n      mstore\n      0x20\n      add\n      swap1\n      dup2\n      mstore\n      0x20\n      add\n      0x00\n      keccak256\n        /* \"contracts/Twitter-Inheritance.sol\":2381:2383  id */\n      dup3\n        /* \"contracts/Twitter-Inheritance.sol\":2366:2384  tweets[author][id] */\n      dup2\n      sload\n      dup2\n      lt\n      tag_84\n      jumpi\n      tag_85\n      tag_79\n      jump\t// in\n    tag_85:\n    tag_84:\n      swap1\n      0x00\n      mstore\n      keccak256(0x00, 0x20)\n      swap1\n      0x05\n      mul\n      add\n        /* \"contracts/Twitter-Inheritance.sol\":2366:2390  tweets[author][id].likes */\n      0x04\n      add\n      sload\n        /* \"contracts/Twitter-Inheritance.sol\":2366:2394  tweets[author][id].likes > 0 */\n      gt\n        /* \"contracts/Twitter-Inheritance.sol\":2358:2417  require(tweets[author][id].likes > 0, \"TWEET HAS NO LIKES\") */\n      tag_87\n      jumpi\n      mload(0x40)\n      0x08c379a000000000000000000000000000000000000000000000000000000000\n      dup2\n      mstore\n      0x04\n      add\n      tag_88\n      swap1\n      tag_89\n      jump\t// in\n    tag_88:\n      mload(0x40)\n      dup1\n      swap2\n      sub\n      swap1\n      revert\n    tag_87:\n        /* \"contracts/Twitter-Inheritance.sol\":2436:2442  tweets */\n      0x01\n        /* \"contracts/Twitter-Inheritance.sol\":2436:2450  tweets[author] */\n      0x00\n        /* \"contracts/Twitter-Inheritance.sol\":2443:2449  author */\n      dup4\n        /* \"contracts/Twitter-Inheritance.sol\":2436:2450  tweets[author] */\n      0xffffffffffffffffffffffffffffffffffffffff\n      and\n      0xffffffffffffffffffffffffffffffffffffffff\n      and\n      dup2\n      mstore\n      0x20\n      add\n      swap1\n      dup2\n      mstore\n      0x20\n      add\n      0x00\n      keccak256\n        /* \"contracts/Twitter-Inheritance.sol\":2451:2453  id */\n      dup2\n        /* \"contracts/Twitter-Inheritance.sol\":2436:2454  tweets[author][id] */\n      dup2\n      sload\n      dup2\n      lt\n      tag_90\n      jumpi\n      tag_91\n      tag_79\n      jump\t// in\n    tag_91:\n    tag_90:\n      swap1\n      0x00\n      mstore\n      keccak256(0x00, 0x20)\n      swap1\n      0x05\n      mul\n      add\n        /* \"contracts/Twitter-Inheritance.sol\":2436:2460  tweets[author][id].likes */\n      0x04\n      add\n      0x00\n        /* \"contracts/Twitter-Inheritance.sol\":2436:2462  tweets[author][id].likes-- */\n      dup2\n      sload\n      dup1\n      swap3\n      swap2\n      swap1\n      tag_93\n      swap1\n      tag_94\n      jump\t// in\n    tag_93:\n      swap2\n      swap1\n      pop\n      sstore\n      pop\n        /* \"contracts/Twitter-Inheritance.sol\":2478:2541  TweetUnliked(msg.sender, author, id, tweets[author][id].likes ) */\n      0x762c2616349603ac16eba0de8e6141b79129a07ab63bd99e0a80b3a471716943\n        /* \"contracts/Twitter-Inheritance.sol\":2491:2501  msg.sender */\n      caller\n        /* \"contracts/Twitter-Inheritance.sol\":2503:2509  author */\n      dup4\n        /* \"contracts/Twitter-Inheritance.sol\":2511:2513  id */\n      dup4\n        /* \"contracts/Twitter-Inheritance.sol\":2515:2521  tweets */\n      0x01\n        /* \"contracts/Twitter-Inheritance.sol\":2515:2529  tweets[author] */\n      0x00\n        /* \"contracts/Twitter-Inheritance.sol\":2522:2528  author */\n      dup8\n        /* \"contracts/Twitter-Inheritance.sol\":2515:2529  tweets[author] */\n      0xffffffffffffffffffffffffffffffffffffffff\n      and\n      0xffffffffffffffffffffffffffffffffffffffff\n      and\n      dup2\n      mstore\n      0x20\n      add\n      swap1\n      dup2\n      mstore\n      0x20\n      add\n      0x00\n      keccak256\n        /* \"contracts/Twitter-Inheritance.sol\":2530:2532  id */\n      dup6\n        /* \"contracts/Twitter-Inheritance.sol\":2515:2533  tweets[author][id] */\n      dup2\n      sload\n      dup2\n      lt\n      tag_95\n      jumpi\n      tag_96\n      tag_79\n      jump\t// in\n    tag_96:\n    tag_95:\n      swap1\n      0x00\n      mstore\n      keccak256(0x00, 0x20)\n      swap1\n      0x05\n      mul\n      add\n        /* \"contracts/Twitter-Inheritance.sol\":2515:2539  tweets[author][id].likes */\n      0x04\n      add\n      sload\n        /* \"contracts/Twitter-Inheritance.sol\":2478:2541  TweetUnliked(msg.sender, author, id, tweets[author][id].likes ) */\n      mload(0x40)\n      tag_98\n      swap5\n      swap4\n      swap3\n      swap2\n      swap1\n      tag_99\n      jump\t// in\n    tag_98:\n      mload(0x40)\n      dup1\n      swap2\n      sub\n      swap1\n      log1\n        /* \"contracts/Twitter-Inheritance.sol\":2220:2548  function unlikeTweet(address author, uint256 id) external {... */\n      pop\n      pop\n      jump\t// out\n        /* \"contracts/Twitter-Inheritance.sol\":1004:1121  function changeTweetLength(uint16 newTweetLength) public onlyOwner {... */\n    tag_32:\n        /* \"contracts/Twitter-Inheritance.sol\":948:953  owner */\n      0x02\n      0x00\n      swap1\n      sload\n      swap1\n      0x0100\n      exp\n      swap1\n      div\n      0xffffffffffffffffffffffffffffffffffffffff\n      and\n        /* \"contracts/Twitter-Inheritance.sol\":934:953  msg.sender == owner */\n      0xffffffffffffffffffffffffffffffffffffffff\n      and\n        /* \"contracts/Twitter-Inheritance.sol\":934:944  msg.sender */\n      caller\n        /* \"contracts/Twitter-Inheritance.sol\":934:953  msg.sender == owner */\n      0xffffffffffffffffffffffffffffffffffffffff\n      and\n      eq\n        /* \"contracts/Twitter-Inheritance.sol\":926:980  require(msg.sender == owner, \"YOU ARE NOT THE OWNER!\") */\n      tag_101\n      jumpi\n      mload(0x40)\n      0x08c379a000000000000000000000000000000000000000000000000000000000\n      dup2\n      mstore\n      0x04\n      add\n      tag_102\n      swap1\n      tag_103\n      jump\t// in\n    tag_102:\n      mload(0x40)\n      dup1\n      swap2\n      sub\n      swap1\n      revert\n    tag_101:\n        /* \"contracts/Twitter-Inheritance.sol\":1100:1114  newTweetLength */\n      dup1\n        /* \"contracts/Twitter-Inheritance.sol\":1081:1097  MAX_TWEET_LENGTH */\n      0x00\n      dup1\n        /* \"contracts/Twitter-Inheritance.sol\":1081:1114  MAX_TWEET_LENGTH = newTweetLength */\n      0x0100\n      exp\n      dup2\n      sload\n      dup2\n      0xffff\n      mul\n      not\n      and\n      swap1\n      dup4\n      0xffff\n      and\n      mul\n      or\n      swap1\n      sstore\n      pop\n        /* \"contracts/Twitter-Inheritance.sol\":1004:1121  function changeTweetLength(uint16 newTweetLength) public onlyOwner {... */\n      pop\n      jump\t// out\n        /* \"contracts/Twitter-Inheritance.sol\":1929:2214  function likeTweet(address author, uint256 id) external {  ... */\n    tag_35:\n        /* \"contracts/Twitter-Inheritance.sol\":2030:2032  id */\n      dup1\n        /* \"contracts/Twitter-Inheritance.sol\":2005:2011  tweets */\n      0x01\n        /* \"contracts/Twitter-Inheritance.sol\":2005:2019  tweets[author] */\n      0x00\n        /* \"contracts/Twitter-Inheritance.sol\":2012:2018  author */\n      dup5\n        /* \"contracts/Twitter-Inheritance.sol\":2005:2019  tweets[author] */\n      0xffffffffffffffffffffffffffffffffffffffff\n      and\n      0xffffffffffffffffffffffffffffffffffffffff\n      and\n      dup2\n      mstore\n      0x20\n      add\n      swap1\n      dup2\n      mstore\n      0x20\n      add\n      0x00\n      keccak256\n        /* \"contracts/Twitter-Inheritance.sol\":2020:2022  id */\n      dup3\n        /* \"contracts/Twitter-Inheritance.sol\":2005:2023  tweets[author][id] */\n      dup2\n      sload\n      dup2\n      lt\n      tag_106\n      jumpi\n      tag_107\n      tag_79\n      jump\t// in\n    tag_107:\n    tag_106:\n      swap1\n      0x00\n      mstore\n      keccak256(0x00, 0x20)\n      swap1\n      0x05\n      mul\n      add\n        /* \"contracts/Twitter-Inheritance.sol\":2005:2026  tweets[author][id].id */\n      0x00\n      add\n      sload\n        /* \"contracts/Twitter-Inheritance.sol\":2005:2032  tweets[author][id].id == id */\n      eq\n        /* \"contracts/Twitter-Inheritance.sol\":1997:2057  require(tweets[author][id].id == id, \"TWEET DOES NOT EXIST\") */\n      tag_109\n      jumpi\n      mload(0x40)\n      0x08c379a000000000000000000000000000000000000000000000000000000000\n      dup2\n      mstore\n      0x04\n      add\n      tag_110\n      swap1\n      tag_83\n      jump\t// in\n    tag_110:\n      mload(0x40)\n      dup1\n      swap2\n      sub\n      swap1\n      revert\n    tag_109:\n        /* \"contracts/Twitter-Inheritance.sol\":2068:2074  tweets */\n      0x01\n        /* \"contracts/Twitter-Inheritance.sol\":2068:2082  tweets[author] */\n      0x00\n        /* \"contracts/Twitter-Inheritance.sol\":2075:2081  author */\n      dup4\n        /* \"contracts/Twitter-Inheritance.sol\":2068:2082  tweets[author] */\n      0xffffffffffffffffffffffffffffffffffffffff\n      and\n      0xffffffffffffffffffffffffffffffffffffffff\n      and\n      dup2\n      mstore\n      0x20\n      add\n      swap1\n      dup2\n      mstore\n      0x20\n      add\n      0x00\n      keccak256\n        /* \"contracts/Twitter-Inheritance.sol\":2083:2085  id */\n      dup2\n        /* \"contracts/Twitter-Inheritance.sol\":2068:2086  tweets[author][id] */\n      dup2\n      sload\n      dup2\n      lt\n      tag_111\n      jumpi\n      tag_112\n      tag_79\n      jump\t// in\n    tag_112:\n    tag_111:\n      swap1\n      0x00\n      mstore\n      keccak256(0x00, 0x20)\n      swap1\n      0x05\n      mul\n      add\n        /* \"contracts/Twitter-Inheritance.sol\":2068:2092  tweets[author][id].likes */\n      0x04\n      add\n      0x00\n        /* \"contracts/Twitter-Inheritance.sol\":2068:2094  tweets[author][id].likes++ */\n      dup2\n      sload\n      dup1\n      swap3\n      swap2\n      swap1\n      tag_114\n      swap1\n      tag_115\n      jump\t// in\n    tag_114:\n      swap2\n      swap1\n      pop\n      sstore\n      pop\n        /* \"contracts/Twitter-Inheritance.sol\":2147:2207  TweetLiked(msg.sender, author, id, tweets[author][id].likes) */\n      0xe8a76fc0f16d11a00d1e93b689b63d76cf60af914dd3d915375dc41d01a0c3c8\n        /* \"contracts/Twitter-Inheritance.sol\":2158:2168  msg.sender */\n      caller\n        /* \"contracts/Twitter-Inheritance.sol\":2170:2176  author */\n      dup4\n        /* \"contracts/Twitter-Inheritance.sol\":2178:2180  id */\n      dup4\n        /* \"contracts/Twitter-Inheritance.sol\":2182:2188  tweets */\n      0x01\n        /* \"contracts/Twitter-Inheritance.sol\":2182:2196  tweets[author] */\n      0x00\n        /* \"contracts/Twitter-Inheritance.sol\":2189:2195  author */\n      dup8\n        /* \"contracts/Twitter-Inheritance.sol\":2182:2196  tweets[author] */\n      0xffffffffffffffffffffffffffffffffffffffff\n      and\n      0xffffffffffffffffffffffffffffffffffffffff\n      and\n      dup2\n      mstore\n      0x20\n      add\n      swap1\n      dup2\n      mstore\n      0x20\n      add\n      0x00\n      keccak256\n        /* \"contracts/Twitter-Inheritance.sol\":2197:2199  id */\n      dup6\n        /* \"contracts/Twitter-Inheritance.sol\":2182:2200  tweets[author][id] */\n      dup2\n      sload\n      dup2\n      lt\n      tag_116\n      jumpi\n      tag_117\n      tag_79\n      jump\t// in\n    tag_117:\n    tag_116:\n      swap1\n      0x00\n      mstore\n      keccak256(0x00, 0x20)\n      swap1\n      0x05\n      mul\n      add\n        /* \"contracts/Twitter-Inheritance.sol\":2182:2206  tweets[author][id].likes */\n      0x04\n      add\n      sload\n        /* \"contracts/Twitter-Inheritance.sol\":2147:2207  TweetLiked(msg.sender, author, id, tweets[author][id].likes) */\n      mload(0x40)\n      tag_119\n      swap5\n      swap4\n      swap3\n      swap2\n      swap1\n      tag_99\n      jump\t// in\n    tag_119:\n      mload(0x40)\n      dup1\n      swap2\n      sub\n      swap1\n      log1\n        /* \"contracts/Twitter-Inheritance.sol\":1929:2214  function likeTweet(address author, uint256 id) external {  ... */\n      pop\n      pop\n      jump\t// out\n        /* \"contracts/Twitter-Inheritance.sol\":268:304  uint16 public MAX_TWEET_LENGTH = 280 */\n    tag_37:\n      0x00\n      dup1\n      sload\n      swap1\n      0x0100\n      exp\n      swap1\n      div\n      0xffff\n      and\n      dup2\n      jump\t// out\n        /* \"contracts/Twitter-Inheritance.sol\":1383:1923  function createTweet(string memory _tweet) public {... */\n    tag_43:\n        /* \"contracts/Twitter-Inheritance.sol\":1475:1491  MAX_TWEET_LENGTH */\n      0x00\n      dup1\n      sload\n      swap1\n      0x0100\n      exp\n      swap1\n      div\n      0xffff\n      and\n        /* \"contracts/Twitter-Inheritance.sol\":1451:1491  bytes(_tweet).length <= MAX_TWEET_LENGTH */\n      0xffff\n      and\n        /* \"contracts/Twitter-Inheritance.sol\":1457:1463  _tweet */\n      dup2\n        /* \"contracts/Twitter-Inheritance.sol\":1451:1471  bytes(_tweet).length */\n      mload\n        /* \"contracts/Twitter-Inheritance.sol\":1451:1491  bytes(_tweet).length <= MAX_TWEET_LENGTH */\n      gt\n      iszero\n        /* \"contracts/Twitter-Inheritance.sol\":1443:1519  require(bytes(_tweet).length <= MAX_TWEET_LENGTH, \"Tweet is too long bro!\" ) */\n      tag_121\n      jumpi\n      mload(0x40)\n      0x08c379a000000000000000000000000000000000000000000000000000000000\n      dup2\n      mstore\n      0x04\n      add\n      tag_122\n      swap1\n      tag_123\n      jump\t// in\n    tag_122:\n      mload(0x40)\n      dup1\n      swap2\n      sub\n      swap1\n      revert\n    tag_121:\n        /* \"contracts/Twitter-Inheritance.sol\":1530:1551  Tweet memory newTweet */\n      0x00\n        /* \"contracts/Twitter-Inheritance.sol\":1554:1737  Tweet({... */\n      mload(0x40)\n      dup1\n      0xa0\n      add\n      0x40\n      mstore\n      dup1\n        /* \"contracts/Twitter-Inheritance.sol\":1578:1584  tweets */\n      0x01\n        /* \"contracts/Twitter-Inheritance.sol\":1578:1596  tweets[msg.sender] */\n      0x00\n        /* \"contracts/Twitter-Inheritance.sol\":1585:1595  msg.sender */\n      caller\n        /* \"contracts/Twitter-Inheritance.sol\":1578:1596  tweets[msg.sender] */\n      0xffffffffffffffffffffffffffffffffffffffff\n      and\n      0xffffffffffffffffffffffffffffffffffffffff\n      and\n      dup2\n      mstore\n      0x20\n      add\n      swap1\n      dup2\n      mstore\n      0x20\n      add\n      0x00\n      keccak256\n        /* \"contracts/Twitter-Inheritance.sol\":1578:1603  tweets[msg.sender].length */\n      dup1\n      sload\n      swap1\n      pop\n        /* \"contracts/Twitter-Inheritance.sol\":1554:1737  Tweet({... */\n      dup2\n      mstore\n      0x20\n      add\n        /* \"contracts/Twitter-Inheritance.sol\":1625:1635  msg.sender */\n      caller\n        /* \"contracts/Twitter-Inheritance.sol\":1554:1737  Tweet({... */\n      0xffffffffffffffffffffffffffffffffffffffff\n      and\n      dup2\n      mstore\n      0x20\n      add\n        /* \"contracts/Twitter-Inheritance.sol\":1658:1664  _tweet */\n      dup4\n        /* \"contracts/Twitter-Inheritance.sol\":1554:1737  Tweet({... */\n      dup2\n      mstore\n      0x20\n      add\n        /* \"contracts/Twitter-Inheritance.sol\":1689:1704  block.timestamp */\n      timestamp\n        /* \"contracts/Twitter-Inheritance.sol\":1554:1737  Tweet({... */\n      dup2\n      mstore\n      0x20\n      add\n        /* \"contracts/Twitter-Inheritance.sol\":1725:1726  0 */\n      0x00\n        /* \"contracts/Twitter-Inheritance.sol\":1554:1737  Tweet({... */\n      dup2\n      mstore\n      pop\n        /* \"contracts/Twitter-Inheritance.sol\":1530:1737  Tweet memory newTweet = Tweet({... */\n      swap1\n      pop\n        /* \"contracts/Twitter-Inheritance.sol\":1748:1754  tweets */\n      0x01\n        /* \"contracts/Twitter-Inheritance.sol\":1748:1766  tweets[msg.sender] */\n      0x00\n        /* \"contracts/Twitter-Inheritance.sol\":1755:1765  msg.sender */\n      caller\n        /* \"contracts/Twitter-Inheritance.sol\":1748:1766  tweets[msg.sender] */\n      0xffffffffffffffffffffffffffffffffffffffff\n      and\n      0xffffffffffffffffffffffffffffffffffffffff\n      and\n      dup2\n      mstore\n      0x20\n      add\n      swap1\n      dup2\n      mstore\n      0x20\n      add\n      0x00\n      keccak256\n        /* \"contracts/Twitter-Inheritance.sol\":1772:1780  newTweet */\n      dup2\n        /* \"contracts/Twitter-Inheritance.sol\":1748:1781  tweets[msg.sender].push(newTweet) */\n      swap1\n      dup1\n      0x01\n      dup2\n      sload\n      add\n      dup1\n      dup3\n      sstore\n      dup1\n      swap2\n      pop\n      pop\n      0x01\n      swap1\n      sub\n      swap1\n      0x00\n      mstore\n      keccak256(0x00, 0x20)\n      swap1\n      0x05\n      mul\n      add\n      0x00\n      swap1\n      swap2\n      swap1\n      swap2\n      swap1\n      swap2\n      pop\n      0x00\n      dup3\n      add\n      mload\n      dup2\n      0x00\n      add\n      sstore\n      0x20\n      dup3\n      add\n      mload\n      dup2\n      0x01\n      add\n      exp(0x0100, 0x00)\n      dup2\n      sload\n      dup2\n      0xffffffffffffffffffffffffffffffffffffffff\n      mul\n      not\n      and\n      swap1\n      dup4\n      0xffffffffffffffffffffffffffffffffffffffff\n      and\n      mul\n      or\n      swap1\n      sstore\n      pop\n      0x40\n      dup3\n      add\n      mload\n      dup2\n      0x02\n      add\n      swap1\n      dup2\n      tag_125\n      swap2\n      swap1\n      tag_126\n      jump\t// in\n    tag_125:\n      pop\n      0x60\n      dup3\n      add\n      mload\n      dup2\n      0x03\n      add\n      sstore\n      0x80\n      dup3\n      add\n      mload\n      dup2\n      0x04\n      add\n      sstore\n      pop\n      pop\n        /* \"contracts/Twitter-Inheritance.sol\":1836:1916  TweetCreated(newTweet.id, newTweet.author, newTweet.content, newTweet.timestamp) */\n      0x16fd3c13e9d46923e0a8bce11c7b473ec508a72e6c96cd2404b29ce972afc29e\n        /* \"contracts/Twitter-Inheritance.sol\":1849:1857  newTweet */\n      dup2\n        /* \"contracts/Twitter-Inheritance.sol\":1849:1860  newTweet.id */\n      0x00\n      add\n      mload\n        /* \"contracts/Twitter-Inheritance.sol\":1862:1870  newTweet */\n      dup3\n        /* \"contracts/Twitter-Inheritance.sol\":1862:1877  newTweet.author */\n      0x20\n      add\n      mload\n        /* \"contracts/Twitter-Inheritance.sol\":1879:1887  newTweet */\n      dup4\n        /* \"contracts/Twitter-Inheritance.sol\":1879:1895  newTweet.content */\n      0x40\n      add\n      mload\n        /* \"contracts/Twitter-Inheritance.sol\":1897:1905  newTweet */\n      dup5\n        /* \"contracts/Twitter-Inheritance.sol\":1897:1915  newTweet.timestamp */\n      0x60\n      add\n      mload\n        /* \"contracts/Twitter-Inheritance.sol\":1836:1916  TweetCreated(newTweet.id, newTweet.author, newTweet.content, newTweet.timestamp) */\n      mload(0x40)\n      tag_127\n      swap5\n      swap4\n      swap3\n      swap2\n      swap1\n      tag_128\n      jump\t// in\n    tag_127:\n      mload(0x40)\n      dup1\n      swap2\n      sub\n      swap1\n      log1\n        /* \"contracts/Twitter-Inheritance.sol\":1433:1923  {... */\n      pop\n        /* \"contracts/Twitter-Inheritance.sol\":1383:1923  function createTweet(string memory _tweet) public {... */\n      pop\n      jump\t// out\n        /* \"contracts/Twitter-Inheritance.sol\":1127:1377  function getTotalLikes(address _author) external view returns(uint) {... */\n    tag_46:\n        /* \"contracts/Twitter-Inheritance.sol\":1189:1193  uint */\n      0x00\n        /* \"contracts/Twitter-Inheritance.sol\":1205:1220  uint totalLikes */\n      dup1\n        /* \"contracts/Twitter-Inheritance.sol\":1236:1242  uint i */\n      0x00\n        /* \"contracts/Twitter-Inheritance.sol\":1231:1343  for( uint i = 0; i < tweets[_author].length; i++){... */\n    tag_130:\n        /* \"contracts/Twitter-Inheritance.sol\":1252:1258  tweets */\n      0x01\n        /* \"contracts/Twitter-Inheritance.sol\":1252:1267  tweets[_author] */\n      0x00\n        /* \"contracts/Twitter-Inheritance.sol\":1259:1266  _author */\n      dup6\n        /* \"contracts/Twitter-Inheritance.sol\":1252:1267  tweets[_author] */\n      0xffffffffffffffffffffffffffffffffffffffff\n      and\n      0xffffffffffffffffffffffffffffffffffffffff\n      and\n      dup2\n      mstore\n      0x20\n      add\n      swap1\n      dup2\n      mstore\n      0x20\n      add\n      0x00\n      keccak256\n        /* \"contracts/Twitter-Inheritance.sol\":1252:1274  tweets[_author].length */\n      dup1\n      sload\n      swap1\n      pop\n        /* \"contracts/Twitter-Inheritance.sol\":1248:1249  i */\n      dup2\n        /* \"contracts/Twitter-Inheritance.sol\":1248:1274  i < tweets[_author].length */\n      lt\n        /* \"contracts/Twitter-Inheritance.sol\":1231:1343  for( uint i = 0; i < tweets[_author].length; i++){... */\n      iszero\n      tag_131\n      jumpi\n        /* \"contracts/Twitter-Inheritance.sol\":1308:1314  tweets */\n      0x01\n        /* \"contracts/Twitter-Inheritance.sol\":1308:1323  tweets[_author] */\n      0x00\n        /* \"contracts/Twitter-Inheritance.sol\":1315:1322  _author */\n      dup6\n        /* \"contracts/Twitter-Inheritance.sol\":1308:1323  tweets[_author] */\n      0xffffffffffffffffffffffffffffffffffffffff\n      and\n      0xffffffffffffffffffffffffffffffffffffffff\n      and\n      dup2\n      mstore\n      0x20\n      add\n      swap1\n      dup2\n      mstore\n      0x20\n      add\n      0x00\n      keccak256\n        /* \"contracts/Twitter-Inheritance.sol\":1324:1325  i */\n      dup2\n        /* \"contracts/Twitter-Inheritance.sol\":1308:1326  tweets[_author][i] */\n      dup2\n      sload\n      dup2\n      lt\n      tag_133\n      jumpi\n      tag_134\n      tag_79\n      jump\t// in\n    tag_134:\n    tag_133:\n      swap1\n      0x00\n      mstore\n      keccak256(0x00, 0x20)\n      swap1\n      0x05\n      mul\n      add\n        /* \"contracts/Twitter-Inheritance.sol\":1308:1332  tweets[_author][i].likes */\n      0x04\n      add\n      sload\n        /* \"contracts/Twitter-Inheritance.sol\":1294:1332  totalLikes += tweets[_author][i].likes */\n      dup3\n      tag_136\n      swap2\n      swap1\n      tag_137\n      jump\t// in\n    tag_136:\n      swap2\n      pop\n        /* \"contracts/Twitter-Inheritance.sol\":1276:1279  i++ */\n      dup1\n      dup1\n      0x01\n      add\n      swap2\n      pop\n      pop\n        /* \"contracts/Twitter-Inheritance.sol\":1231:1343  for( uint i = 0; i < tweets[_author].length; i++){... */\n      jump(tag_130)\n    tag_131:\n      pop\n        /* \"contracts/Twitter-Inheritance.sol\":1360:1370  totalLikes */\n      dup1\n        /* \"contracts/Twitter-Inheritance.sol\":1353:1370  return totalLikes */\n      swap2\n      pop\n      pop\n        /* \"contracts/Twitter-Inheritance.sol\":1127:1377  function getTotalLikes(address _author) external view returns(uint) {... */\n      swap2\n      swap1\n      pop\n      jump\t// out\n        /* \"contracts/Twitter-Inheritance.sol\":502:522  address public owner */\n    tag_50:\n      0x02\n      0x00\n      swap1\n      sload\n      swap1\n      0x0100\n      exp\n      swap1\n      div\n      0xffffffffffffffffffffffffffffffffffffffff\n      and\n      dup2\n      jump\t// out\n        /* \"contracts/Twitter-Inheritance.sol\":2554:2663  function getTweet( uint _i) public view returns (Tweet memory) {... */\n    tag_56:\n        /* \"contracts/Twitter-Inheritance.sol\":2603:2615  Tweet memory */\n      tag_138\n      tag_139\n      jump\t// in\n    tag_138:\n        /* \"contracts/Twitter-Inheritance.sol\":2634:2640  tweets */\n      0x01\n        /* \"contracts/Twitter-Inheritance.sol\":2634:2652  tweets[msg.sender] */\n      0x00\n        /* \"contracts/Twitter-Inheritance.sol\":2641:2651  msg.sender */\n      caller\n        /* \"contracts/Twitter-Inheritance.sol\":2634:2652  tweets[msg.sender] */\n      0xffffffffffffffffffffffffffffffffffffffff\n      and\n      0xffffffffffffffffffffffffffffffffffffffff\n      and\n      dup2\n      mstore\n      0x20\n      add\n      swap1\n      dup2\n      mstore\n      0x20\n      add\n      0x00\n      keccak256\n        /* \"contracts/Twitter-Inheritance.sol\":2653:2655  _i */\n      dup3\n        /* \"contracts/Twitter-Inheritance.sol\":2634:2656  tweets[msg.sender][_i] */\n      dup2\n      sload\n      dup2\n      lt\n      tag_141\n      jumpi\n      tag_142\n      tag_79\n      jump\t// in\n    tag_142:\n    tag_141:\n      swap1\n      0x00\n      mstore\n      keccak256(0x00, 0x20)\n      swap1\n      0x05\n      mul\n      add\n        /* \"contracts/Twitter-Inheritance.sol\":2627:2656  return tweets[msg.sender][_i] */\n      mload(0x40)\n      dup1\n      0xa0\n      add\n      0x40\n      mstore\n      swap1\n      dup2\n      0x00\n      dup3\n      add\n      sload\n      dup2\n      mstore\n      0x20\n      add\n      0x01\n      dup3\n      add\n      0x00\n      swap1\n      sload\n      swap1\n      0x0100\n      exp\n      swap1\n      div\n      0xffffffffffffffffffffffffffffffffffffffff\n      and\n      0xffffffffffffffffffffffffffffffffffffffff\n      and\n      0xffffffffffffffffffffffffffffffffffffffff\n      and\n      dup2\n      mstore\n      0x20\n      add\n      0x02\n      dup3\n      add\n      dup1\n      sload\n      tag_144\n      swap1\n      tag_62\n      jump\t// in\n    tag_144:\n      dup1\n      0x1f\n      add\n      0x20\n      dup1\n      swap2\n      div\n      mul\n      0x20\n      add\n      mload(0x40)\n      swap1\n      dup2\n      add\n      0x40\n      mstore\n      dup1\n      swap3\n      swap2\n      swap1\n      dup2\n      dup2\n      mstore\n      0x20\n      add\n      dup3\n      dup1\n      sload\n      tag_145\n      swap1\n      tag_62\n      jump\t// in\n    tag_145:\n      dup1\n      iszero\n      tag_146\n      jumpi\n      dup1\n      0x1f\n      lt\n      tag_147\n      jumpi\n      0x0100\n      dup1\n      dup4\n      sload\n      div\n      mul\n      dup4\n      mstore\n      swap2\n      0x20\n      add\n      swap2\n      jump(tag_146)\n    tag_147:\n      dup3\n      add\n      swap2\n      swap1\n      0x00\n      mstore\n      keccak256(0x00, 0x20)\n      swap1\n    tag_148:\n      dup2\n      sload\n      dup2\n      mstore\n      swap1\n      0x01\n      add\n      swap1\n      0x20\n      add\n      dup1\n      dup4\n      gt\n      tag_148\n      jumpi\n      dup3\n      swap1\n      sub\n      0x1f\n      and\n      dup3\n      add\n      swap2\n    tag_146:\n      pop\n      pop\n      pop\n      pop\n      pop\n      dup2\n      mstore\n      0x20\n      add\n      0x03\n      dup3\n      add\n      sload\n      dup2\n      mstore\n      0x20\n      add\n      0x04\n      dup3\n      add\n      sload\n      dup2\n      mstore\n      pop\n      pop\n      swap1\n      pop\n        /* \"contracts/Twitter-Inheritance.sol\":2554:2663  function getTweet( uint _i) public view returns (Tweet memory) {... */\n      swap2\n      swap1\n      pop\n      jump\t// out\n    tag_139:\n      mload(0x40)\n      dup1\n      0xa0\n      add\n      0x40\n      mstore\n      dup1\n      0x00\n      dup2\n      mstore\n      0x20\n      add\n      and(0xffffffffffffffffffffffffffffffffffffffff, 0x00)\n      dup2\n      mstore\n      0x20\n      add\n      0x60\n      dup2\n      mstore\n      0x20\n      add\n      0x00\n      dup2\n      mstore\n      0x20\n      add\n      0x00\n      dup2\n      mstore\n      pop\n      swap1\n      jump\t// out\n        /* \"#utility.yul\":7:82   */\n    tag_149:\n        /* \"#utility.yul\":40:46   */\n      0x00\n        /* \"#utility.yul\":73:75   */\n      0x40\n        /* \"#utility.yul\":67:76   */\n      mload\n        /* \"#utility.yul\":57:76   */\n      swap1\n      pop\n        /* \"#utility.yul\":7:82   */\n      swap1\n      jump\t// out\n        /* \"#utility.yul\":88:205   */\n    tag_150:\n        /* \"#utility.yul\":197:198   */\n      0x00\n        /* \"#utility.yul\":194:195   */\n      dup1\n        /* \"#utility.yul\":187:199   */\n      revert\n        /* \"#utility.yul\":211:328   */\n    tag_151:\n        /* \"#utility.yul\":320:321   */\n      0x00\n        /* \"#utility.yul\":317:318   */\n      dup1\n        /* \"#utility.yul\":310:322   */\n      revert\n        /* \"#utility.yul\":334:460   */\n    tag_152:\n        /* \"#utility.yul\":371:378   */\n      0x00\n        /* \"#utility.yul\":411:453   */\n      0xffffffffffffffffffffffffffffffffffffffff\n        /* \"#utility.yul\":404:409   */\n      dup3\n        /* \"#utility.yul\":400:454   */\n      and\n        /* \"#utility.yul\":389:454   */\n      swap1\n      pop\n        /* \"#utility.yul\":334:460   */\n      swap2\n      swap1\n      pop\n      jump\t// out\n        /* \"#utility.yul\":466:562   */\n    tag_153:\n        /* \"#utility.yul\":503:510   */\n      0x00\n        /* \"#utility.yul\":532:556   */\n      tag_222\n        /* \"#utility.yul\":550:555   */\n      dup3\n        /* \"#utility.yul\":532:556   */\n      tag_152\n      jump\t// in\n    tag_222:\n        /* \"#utility.yul\":521:556   */\n      swap1\n      pop\n        /* \"#utility.yul\":466:562   */\n      swap2\n      swap1\n      pop\n      jump\t// out\n        /* \"#utility.yul\":568:690   */\n    tag_154:\n        /* \"#utility.yul\":641:665   */\n      tag_224\n        /* \"#utility.yul\":659:664   */\n      dup2\n        /* \"#utility.yul\":641:665   */\n      tag_153\n      jump\t// in\n    tag_224:\n        /* \"#utility.yul\":634:639   */\n      dup2\n        /* \"#utility.yul\":631:666   */\n      eq\n        /* \"#utility.yul\":621:684   */\n      tag_225\n      jumpi\n        /* \"#utility.yul\":680:681   */\n      0x00\n        /* \"#utility.yul\":677:678   */\n      dup1\n        /* \"#utility.yul\":670:682   */\n      revert\n        /* \"#utility.yul\":621:684   */\n    tag_225:\n        /* \"#utility.yul\":568:690   */\n      pop\n      jump\t// out\n        /* \"#utility.yul\":696:835   */\n    tag_155:\n        /* \"#utility.yul\":742:747   */\n      0x00\n        /* \"#utility.yul\":780:786   */\n      dup2\n        /* \"#utility.yul\":767:787   */\n      calldataload\n        /* \"#utility.yul\":758:787   */\n      swap1\n      pop\n        /* \"#utility.yul\":796:829   */\n      tag_227\n        /* \"#utility.yul\":823:828   */\n      dup2\n        /* \"#utility.yul\":796:829   */\n      tag_154\n      jump\t// in\n    tag_227:\n        /* \"#utility.yul\":696:835   */\n      swap3\n      swap2\n      pop\n      pop\n      jump\t// out\n        /* \"#utility.yul\":841:918   */\n    tag_156:\n        /* \"#utility.yul\":878:885   */\n      0x00\n        /* \"#utility.yul\":907:912   */\n      dup2\n        /* \"#utility.yul\":896:912   */\n      swap1\n      pop\n        /* \"#utility.yul\":841:918   */\n      swap2\n      swap1\n      pop\n      jump\t// out\n        /* \"#utility.yul\":924:1046   */\n    tag_157:\n        /* \"#utility.yul\":997:1021   */\n      tag_230\n        /* \"#utility.yul\":1015:1020   */\n      dup2\n        /* \"#utility.yul\":997:1021   */\n      tag_156\n      jump\t// in\n    tag_230:\n        /* \"#utility.yul\":990:995   */\n      dup2\n        /* \"#utility.yul\":987:1022   */\n      eq\n        /* \"#utility.yul\":977:1040   */\n      tag_231\n      jumpi\n        /* \"#utility.yul\":1036:1037   */\n      0x00\n        /* \"#utility.yul\":1033:1034   */\n      dup1\n        /* \"#utility.yul\":1026:1038   */\n      revert\n        /* \"#utility.yul\":977:1040   */\n    tag_231:\n        /* \"#utility.yul\":924:1046   */\n      pop\n      jump\t// out\n        /* \"#utility.yul\":1052:1191   */\n    tag_158:\n        /* \"#utility.yul\":1098:1103   */\n      0x00\n        /* \"#utility.yul\":1136:1142   */\n      dup2\n        /* \"#utility.yul\":1123:1143   */\n      calldataload\n        /* \"#utility.yul\":1114:1143   */\n      swap1\n      pop\n        /* \"#utility.yul\":1152:1185   */\n      tag_233\n        /* \"#utility.yul\":1179:1184   */\n      dup2\n        /* \"#utility.yul\":1152:1185   */\n      tag_157\n      jump\t// in\n    tag_233:\n        /* \"#utility.yul\":1052:1191   */\n      swap3\n      swap2\n      pop\n      pop\n      jump\t// out\n        /* \"#utility.yul\":1197:1671   */\n    tag_16:\n        /* \"#utility.yul\":1265:1271   */\n      0x00\n        /* \"#utility.yul\":1273:1279   */\n      dup1\n        /* \"#utility.yul\":1322:1324   */\n      0x40\n        /* \"#utility.yul\":1310:1319   */\n      dup4\n        /* \"#utility.yul\":1301:1308   */\n      dup6\n        /* \"#utility.yul\":1297:1320   */\n      sub\n        /* \"#utility.yul\":1293:1325   */\n      slt\n        /* \"#utility.yul\":1290:1409   */\n      iszero\n      tag_235\n      jumpi\n        /* \"#utility.yul\":1328:1407   */\n      tag_236\n      tag_150\n      jump\t// in\n    tag_236:\n        /* \"#utility.yul\":1290:1409   */\n    tag_235:\n        /* \"#utility.yul\":1448:1449   */\n      0x00\n        /* \"#utility.yul\":1473:1526   */\n      tag_237\n        /* \"#utility.yul\":1518:1525   */\n      dup6\n        /* \"#utility.yul\":1509:1515   */\n      dup3\n        /* \"#utility.yul\":1498:1507   */\n      dup7\n        /* \"#utility.yul\":1494:1516   */\n      add\n        /* \"#utility.yul\":1473:1526   */\n      tag_155\n      jump\t// in\n    tag_237:\n        /* \"#utility.yul\":1463:1526   */\n      swap3\n      pop\n        /* \"#utility.yul\":1419:1536   */\n      pop\n        /* \"#utility.yul\":1575:1577   */\n      0x20\n        /* \"#utility.yul\":1601:1654   */\n      tag_238\n        /* \"#utility.yul\":1646:1653   */\n      dup6\n        /* \"#utility.yul\":1637:1643   */\n      dup3\n        /* \"#utility.yul\":1626:1635   */\n      dup7\n        /* \"#utility.yul\":1622:1644   */\n      add\n        /* \"#utility.yul\":1601:1654   */\n      tag_158\n      jump\t// in\n    tag_238:\n        /* \"#utility.yul\":1591:1654   */\n      swap2\n      pop\n        /* \"#utility.yul\":1546:1664   */\n      pop\n        /* \"#utility.yul\":1197:1671   */\n      swap3\n      pop\n      swap3\n      swap1\n      pop\n      jump\t// out\n        /* \"#utility.yul\":1677:1795   */\n    tag_159:\n        /* \"#utility.yul\":1764:1788   */\n      tag_240\n        /* \"#utility.yul\":1782:1787   */\n      dup2\n        /* \"#utility.yul\":1764:1788   */\n      tag_156\n      jump\t// in\n    tag_240:\n        /* \"#utility.yul\":1759:1762   */\n      dup3\n        /* \"#utility.yul\":1752:1789   */\n      mstore\n        /* \"#utility.yul\":1677:1795   */\n      pop\n      pop\n      jump\t// out\n        /* \"#utility.yul\":1801:1919   */\n    tag_160:\n        /* \"#utility.yul\":1888:1912   */\n      tag_242\n        /* \"#utility.yul\":1906:1911   */\n      dup2\n        /* \"#utility.yul\":1888:1912   */\n      tag_153\n      jump\t// in\n    tag_242:\n        /* \"#utility.yul\":1883:1886   */\n      dup3\n        /* \"#utility.yul\":1876:1913   */\n      mstore\n        /* \"#utility.yul\":1801:1919   */\n      pop\n      pop\n      jump\t// out\n        /* \"#utility.yul\":1925:2024   */\n    tag_161:\n        /* \"#utility.yul\":1977:1983   */\n      0x00\n        /* \"#utility.yul\":2011:2016   */\n      dup2\n        /* \"#utility.yul\":2005:2017   */\n      mload\n        /* \"#utility.yul\":1995:2017   */\n      swap1\n      pop\n        /* \"#utility.yul\":1925:2024   */\n      swap2\n      swap1\n      pop\n      jump\t// out\n        /* \"#utility.yul\":2030:2199   */\n    tag_162:\n        /* \"#utility.yul\":2114:2125   */\n      0x00\n        /* \"#utility.yul\":2148:2154   */\n      dup3\n        /* \"#utility.yul\":2143:2146   */\n      dup3\n        /* \"#utility.yul\":2136:2155   */\n      mstore\n        /* \"#utility.yul\":2188:2192   */\n      0x20\n        /* \"#utility.yul\":2183:2186   */\n      dup3\n        /* \"#utility.yul\":2179:2193   */\n      add\n        /* \"#utility.yul\":2164:2193   */\n      swap1\n      pop\n        /* \"#utility.yul\":2030:2199   */\n      swap3\n      swap2\n      pop\n      pop\n      jump\t// out\n        /* \"#utility.yul\":2205:2344   */\n    tag_163:\n        /* \"#utility.yul\":2294:2300   */\n      dup3\n        /* \"#utility.yul\":2289:2292   */\n      dup2\n        /* \"#utility.yul\":2284:2287   */\n      dup4\n        /* \"#utility.yul\":2278:2301   */\n      mcopy\n        /* \"#utility.yul\":2335:2336   */\n      0x00\n        /* \"#utility.yul\":2326:2332   */\n      dup4\n        /* \"#utility.yul\":2321:2324   */\n      dup4\n        /* \"#utility.yul\":2317:2333   */\n      add\n        /* \"#utility.yul\":2310:2337   */\n      mstore\n        /* \"#utility.yul\":2205:2344   */\n      pop\n      pop\n      pop\n      jump\t// out\n        /* \"#utility.yul\":2350:2452   */\n    tag_164:\n        /* \"#utility.yul\":2391:2397   */\n      0x00\n        /* \"#utility.yul\":2442:2444   */\n      0x1f\n        /* \"#utility.yul\":2438:2445   */\n      not\n        /* \"#utility.yul\":2433:2435   */\n      0x1f\n        /* \"#utility.yul\":2426:2431   */\n      dup4\n        /* \"#utility.yul\":2422:2436   */\n      add\n        /* \"#utility.yul\":2418:2446   */\n      and\n        /* \"#utility.yul\":2408:2446   */\n      swap1\n      pop\n        /* \"#utility.yul\":2350:2452   */\n      swap2\n      swap1\n      pop\n      jump\t// out\n        /* \"#utility.yul\":2458:2835   */\n    tag_165:\n        /* \"#utility.yul\":2546:2549   */\n      0x00\n        /* \"#utility.yul\":2574:2613   */\n      tag_248\n        /* \"#utility.yul\":2607:2612   */\n      dup3\n        /* \"#utility.yul\":2574:2613   */\n      tag_161\n      jump\t// in\n    tag_248:\n        /* \"#utility.yul\":2629:2700   */\n      tag_249\n        /* \"#utility.yul\":2693:2699   */\n      dup2\n        /* \"#utility.yul\":2688:2691   */\n      dup6\n        /* \"#utility.yul\":2629:2700   */\n      tag_162\n      jump\t// in\n    tag_249:\n        /* \"#utility.yul\":2622:2700   */\n      swap4\n      pop\n        /* \"#utility.yul\":2709:2774   */\n      tag_250\n        /* \"#utility.yul\":2767:2773   */\n      dup2\n        /* \"#utility.yul\":2762:2765   */\n      dup6\n        /* \"#utility.yul\":2755:2759   */\n      0x20\n        /* \"#utility.yul\":2748:2753   */\n      dup7\n        /* \"#utility.yul\":2744:2760   */\n      add\n        /* \"#utility.yul\":2709:2774   */\n      tag_163\n      jump\t// in\n    tag_250:\n        /* \"#utility.yul\":2799:2828   */\n      tag_251\n        /* \"#utility.yul\":2821:2827   */\n      dup2\n        /* \"#utility.yul\":2799:2828   */\n      tag_164\n      jump\t// in\n    tag_251:\n        /* \"#utility.yul\":2794:2797   */\n      dup5\n        /* \"#utility.yul\":2790:2829   */\n      add\n        /* \"#utility.yul\":2783:2829   */\n      swap2\n      pop\n        /* \"#utility.yul\":2550:2835   */\n      pop\n        /* \"#utility.yul\":2458:2835   */\n      swap3\n      swap2\n      pop\n      pop\n      jump\t// out\n        /* \"#utility.yul\":2841:3596   */\n    tag_19:\n        /* \"#utility.yul\":3066:3070   */\n      0x00\n        /* \"#utility.yul\":3104:3107   */\n      0xa0\n        /* \"#utility.yul\":3093:3102   */\n      dup3\n        /* \"#utility.yul\":3089:3108   */\n      add\n        /* \"#utility.yul\":3081:3108   */\n      swap1\n      pop\n        /* \"#utility.yul\":3118:3189   */\n      tag_253\n        /* \"#utility.yul\":3186:3187   */\n      0x00\n        /* \"#utility.yul\":3175:3184   */\n      dup4\n        /* \"#utility.yul\":3171:3188   */\n      add\n        /* \"#utility.yul\":3162:3168   */\n      dup9\n        /* \"#utility.yul\":3118:3189   */\n      tag_159\n      jump\t// in\n    tag_253:\n        /* \"#utility.yul\":3199:3271   */\n      tag_254\n        /* \"#utility.yul\":3267:3269   */\n      0x20\n        /* \"#utility.yul\":3256:3265   */\n      dup4\n        /* \"#utility.yul\":3252:3270   */\n      add\n        /* \"#utility.yul\":3243:3249   */\n      dup8\n        /* \"#utility.yul\":3199:3271   */\n      tag_160\n      jump\t// in\n    tag_254:\n        /* \"#utility.yul\":3318:3327   */\n      dup2\n        /* \"#utility.yul\":3312:3316   */\n      dup2\n        /* \"#utility.yul\":3308:3328   */\n      sub\n        /* \"#utility.yul\":3303:3305   */\n      0x40\n        /* \"#utility.yul\":3292:3301   */\n      dup4\n        /* \"#utility.yul\":3288:3306   */\n      add\n        /* \"#utility.yul\":3281:3329   */\n      mstore\n        /* \"#utility.yul\":3346:3424   */\n      tag_255\n        /* \"#utility.yul\":3419:3423   */\n      dup2\n        /* \"#utility.yul\":3410:3416   */\n      dup7\n        /* \"#utility.yul\":3346:3424   */\n      tag_165\n      jump\t// in\n    tag_255:\n        /* \"#utility.yul\":3338:3424   */\n      swap1\n      pop\n        /* \"#utility.yul\":3434:3506   */\n      tag_256\n        /* \"#utility.yul\":3502:3504   */\n      0x60\n        /* \"#utility.yul\":3491:3500   */\n      dup4\n        /* \"#utility.yul\":3487:3505   */\n      add\n        /* \"#utility.yul\":3478:3484   */\n      dup6\n        /* \"#utility.yul\":3434:3506   */\n      tag_159\n      jump\t// in\n    tag_256:\n        /* \"#utility.yul\":3516:3589   */\n      tag_257\n        /* \"#utility.yul\":3584:3587   */\n      0x80\n        /* \"#utility.yul\":3573:3582   */\n      dup4\n        /* \"#utility.yul\":3569:3588   */\n      add\n        /* \"#utility.yul\":3560:3566   */\n      dup5\n        /* \"#utility.yul\":3516:3589   */\n      tag_159\n      jump\t// in\n    tag_257:\n        /* \"#utility.yul\":2841:3596   */\n      swap7\n      swap6\n      pop\n      pop\n      pop\n      pop\n      pop\n      pop\n      jump\t// out\n        /* \"#utility.yul\":3602:3931   */\n    tag_22:\n        /* \"#utility.yul\":3661:3667   */\n      0x00\n        /* \"#utility.yul\":3710:3712   */\n      0x20\n        /* \"#utility.yul\":3698:3707   */\n      dup3\n        /* \"#utility.yul\":3689:3696   */\n      dup5\n        /* \"#utility.yul\":3685:3708   */\n      sub\n        /* \"#utility.yul\":3681:3713   */\n      slt\n        /* \"#utility.yul\":3678:3797   */\n      iszero\n      tag_259\n      jumpi\n        /* \"#utility.yul\":3716:3795   */\n      tag_260\n      tag_150\n      jump\t// in\n    tag_260:\n        /* \"#utility.yul\":3678:3797   */\n    tag_259:\n        /* \"#utility.yul\":3836:3837   */\n      0x00\n        /* \"#utility.yul\":3861:3914   */\n      tag_261\n        /* \"#utility.yul\":3906:3913   */\n      dup5\n        /* \"#utility.yul\":3897:3903   */\n      dup3\n        /* \"#utility.yul\":3886:3895   */\n      dup6\n        /* \"#utility.yul\":3882:3904   */\n      add\n        /* \"#utility.yul\":3861:3914   */\n      tag_155\n      jump\t// in\n    tag_261:\n        /* \"#utility.yul\":3851:3914   */\n      swap2\n      pop\n        /* \"#utility.yul\":3807:3924   */\n      pop\n        /* \"#utility.yul\":3602:3931   */\n      swap3\n      swap2\n      pop\n      pop\n      jump\t// out\n        /* \"#utility.yul\":3937:4073   */\n    tag_166:\n        /* \"#utility.yul\":4026:4032   */\n      0x00\n        /* \"#utility.yul\":4060:4065   */\n      dup2\n        /* \"#utility.yul\":4054:4066   */\n      mload\n        /* \"#utility.yul\":4044:4066   */\n      swap1\n      pop\n        /* \"#utility.yul\":3937:4073   */\n      swap2\n      swap1\n      pop\n      jump\t// out\n        /* \"#utility.yul\":4079:4285   */\n    tag_167:\n        /* \"#utility.yul\":4200:4211   */\n      0x00\n        /* \"#utility.yul\":4234:4240   */\n      dup3\n        /* \"#utility.yul\":4229:4232   */\n      dup3\n        /* \"#utility.yul\":4222:4241   */\n      mstore\n        /* \"#utility.yul\":4274:4278   */\n      0x20\n        /* \"#utility.yul\":4269:4272   */\n      dup3\n        /* \"#utility.yul\":4265:4279   */\n      add\n        /* \"#utility.yul\":4250:4279   */\n      swap1\n      pop\n        /* \"#utility.yul\":4079:4285   */\n      swap3\n      swap2\n      pop\n      pop\n      jump\t// out\n        /* \"#utility.yul\":4291:4445   */\n    tag_168:\n        /* \"#utility.yul\":4380:4384   */\n      0x00\n        /* \"#utility.yul\":4403:4406   */\n      dup2\n        /* \"#utility.yul\":4395:4406   */\n      swap1\n      pop\n        /* \"#utility.yul\":4433:4437   */\n      0x20\n        /* \"#utility.yul\":4428:4431   */\n      dup3\n        /* \"#utility.yul\":4424:4438   */\n      add\n        /* \"#utility.yul\":4416:4438   */\n      swap1\n      pop\n        /* \"#utility.yul\":4291:4445   */\n      swap2\n      swap1\n      pop\n      jump\t// out\n        /* \"#utility.yul\":4451:4559   */\n    tag_169:\n        /* \"#utility.yul\":4528:4552   */\n      tag_266\n        /* \"#utility.yul\":4546:4551   */\n      dup2\n        /* \"#utility.yul\":4528:4552   */\n      tag_156\n      jump\t// in\n    tag_266:\n        /* \"#utility.yul\":4523:4526   */\n      dup3\n        /* \"#utility.yul\":4516:4553   */\n      mstore\n        /* \"#utility.yul\":4451:4559   */\n      pop\n      pop\n      jump\t// out\n        /* \"#utility.yul\":4565:4673   */\n    tag_170:\n        /* \"#utility.yul\":4642:4666   */\n      tag_268\n        /* \"#utility.yul\":4660:4665   */\n      dup2\n        /* \"#utility.yul\":4642:4666   */\n      tag_153\n      jump\t// in\n    tag_268:\n        /* \"#utility.yul\":4637:4640   */\n      dup3\n        /* \"#utility.yul\":4630:4667   */\n      mstore\n        /* \"#utility.yul\":4565:4673   */\n      pop\n      pop\n      jump\t// out\n        /* \"#utility.yul\":4679:4838   */\n    tag_171:\n        /* \"#utility.yul\":4753:4764   */\n      0x00\n        /* \"#utility.yul\":4787:4793   */\n      dup3\n        /* \"#utility.yul\":4782:4785   */\n      dup3\n        /* \"#utility.yul\":4775:4794   */\n      mstore\n        /* \"#utility.yul\":4827:4831   */\n      0x20\n        /* \"#utility.yul\":4822:4825   */\n      dup3\n        /* \"#utility.yul\":4818:4832   */\n      add\n        /* \"#utility.yul\":4803:4832   */\n      swap1\n      pop\n        /* \"#utility.yul\":4679:4838   */\n      swap3\n      swap2\n      pop\n      pop\n      jump\t// out\n        /* \"#utility.yul\":4844:5201   */\n    tag_172:\n        /* \"#utility.yul\":4922:4925   */\n      0x00\n        /* \"#utility.yul\":4950:4989   */\n      tag_271\n        /* \"#utility.yul\":4983:4988   */\n      dup3\n        /* \"#utility.yul\":4950:4989   */\n      tag_161\n      jump\t// in\n    tag_271:\n        /* \"#utility.yul\":5005:5066   */\n      tag_272\n        /* \"#utility.yul\":5059:5065   */\n      dup2\n        /* \"#utility.yul\":5054:5057   */\n      dup6\n        /* \"#utility.yul\":5005:5066   */\n      tag_171\n      jump\t// in\n    tag_272:\n        /* \"#utility.yul\":4998:5066   */\n      swap4\n      pop\n        /* \"#utility.yul\":5075:5140   */\n      tag_273\n        /* \"#utility.yul\":5133:5139   */\n      dup2\n        /* \"#utility.yul\":5128:5131   */\n      dup6\n        /* \"#utility.yul\":5121:5125   */\n      0x20\n        /* \"#utility.yul\":5114:5119   */\n      dup7\n        /* \"#utility.yul\":5110:5126   */\n      add\n        /* \"#utility.yul\":5075:5140   */\n      tag_163\n      jump\t// in\n    tag_273:\n        /* \"#utility.yul\":5165:5194   */\n      tag_274\n        /* \"#utility.yul\":5187:5193   */\n      dup2\n        /* \"#utility.yul\":5165:5194   */\n      tag_164\n      jump\t// in\n    tag_274:\n        /* \"#utility.yul\":5160:5163   */\n      dup5\n        /* \"#utility.yul\":5156:5195   */\n      add\n        /* \"#utility.yul\":5149:5195   */\n      swap2\n      pop\n        /* \"#utility.yul\":4926:5201   */\n      pop\n        /* \"#utility.yul\":4844:5201   */\n      swap3\n      swap2\n      pop\n      pop\n      jump\t// out\n        /* \"#utility.yul\":5259:6380   */\n    tag_173:\n        /* \"#utility.yul\":5362:5365   */\n      0x00\n        /* \"#utility.yul\":5398:5402   */\n      0xa0\n        /* \"#utility.yul\":5393:5396   */\n      dup4\n        /* \"#utility.yul\":5389:5403   */\n      add\n        /* \"#utility.yul\":5483:5487   */\n      0x00\n        /* \"#utility.yul\":5476:5481   */\n      dup4\n        /* \"#utility.yul\":5472:5488   */\n      add\n        /* \"#utility.yul\":5466:5489   */\n      mload\n        /* \"#utility.yul\":5502:5565   */\n      tag_276\n        /* \"#utility.yul\":5559:5563   */\n      0x00\n        /* \"#utility.yul\":5554:5557   */\n      dup7\n        /* \"#utility.yul\":5550:5564   */\n      add\n        /* \"#utility.yul\":5536:5548   */\n      dup3\n        /* \"#utility.yul\":5502:5565   */\n      tag_169\n      jump\t// in\n    tag_276:\n        /* \"#utility.yul\":5413:5575   */\n      pop\n        /* \"#utility.yul\":5659:5663   */\n      0x20\n        /* \"#utility.yul\":5652:5657   */\n      dup4\n        /* \"#utility.yul\":5648:5664   */\n      add\n        /* \"#utility.yul\":5642:5665   */\n      mload\n        /* \"#utility.yul\":5678:5741   */\n      tag_277\n        /* \"#utility.yul\":5735:5739   */\n      0x20\n        /* \"#utility.yul\":5730:5733   */\n      dup7\n        /* \"#utility.yul\":5726:5740   */\n      add\n        /* \"#utility.yul\":5712:5724   */\n      dup3\n        /* \"#utility.yul\":5678:5741   */\n      tag_170\n      jump\t// in\n    tag_277:\n        /* \"#utility.yul\":5585:5751   */\n      pop\n        /* \"#utility.yul\":5836:5840   */\n      0x40\n        /* \"#utility.yul\":5829:5834   */\n      dup4\n        /* \"#utility.yul\":5825:5841   */\n      add\n        /* \"#utility.yul\":5819:5842   */\n      mload\n        /* \"#utility.yul\":5889:5892   */\n      dup5\n        /* \"#utility.yul\":5883:5887   */\n      dup3\n        /* \"#utility.yul\":5879:5893   */\n      sub\n        /* \"#utility.yul\":5872:5876   */\n      0x40\n        /* \"#utility.yul\":5867:5870   */\n      dup7\n        /* \"#utility.yul\":5863:5877   */\n      add\n        /* \"#utility.yul\":5856:5894   */\n      mstore\n        /* \"#utility.yul\":5915:5988   */\n      tag_278\n        /* \"#utility.yul\":5983:5987   */\n      dup3\n        /* \"#utility.yul\":5969:5981   */\n      dup3\n        /* \"#utility.yul\":5915:5988   */\n      tag_172\n      jump\t// in\n    tag_278:\n        /* \"#utility.yul\":5907:5988   */\n      swap2\n      pop\n        /* \"#utility.yul\":5761:5999   */\n      pop\n        /* \"#utility.yul\":6086:6090   */\n      0x60\n        /* \"#utility.yul\":6079:6084   */\n      dup4\n        /* \"#utility.yul\":6075:6091   */\n      add\n        /* \"#utility.yul\":6069:6092   */\n      mload\n        /* \"#utility.yul\":6105:6168   */\n      tag_279\n        /* \"#utility.yul\":6162:6166   */\n      0x60\n        /* \"#utility.yul\":6157:6160   */\n      dup7\n        /* \"#utility.yul\":6153:6167   */\n      add\n        /* \"#utility.yul\":6139:6151   */\n      dup3\n        /* \"#utility.yul\":6105:6168   */\n      tag_169\n      jump\t// in\n    tag_279:\n        /* \"#utility.yul\":6009:6178   */\n      pop\n        /* \"#utility.yul\":6261:6265   */\n      0x80\n        /* \"#utility.yul\":6254:6259   */\n      dup4\n        /* \"#utility.yul\":6250:6266   */\n      add\n        /* \"#utility.yul\":6244:6267   */\n      mload\n        /* \"#utility.yul\":6280:6343   */\n      tag_280\n        /* \"#utility.yul\":6337:6341   */\n      0x80\n        /* \"#utility.yul\":6332:6335   */\n      dup7\n        /* \"#utility.yul\":6328:6342   */\n      add\n        /* \"#utility.yul\":6314:6326   */\n      dup3\n        /* \"#utility.yul\":6280:6343   */\n      tag_169\n      jump\t// in\n    tag_280:\n        /* \"#utility.yul\":6188:6353   */\n      pop\n        /* \"#utility.yul\":6370:6374   */\n      dup1\n        /* \"#utility.yul\":6363:6374   */\n      swap2\n      pop\n        /* \"#utility.yul\":5367:6380   */\n      pop\n        /* \"#utility.yul\":5259:6380   */\n      swap3\n      swap2\n      pop\n      pop\n      jump\t// out\n        /* \"#utility.yul\":6386:6630   */\n    tag_174:\n        /* \"#utility.yul\":6499:6509   */\n      0x00\n        /* \"#utility.yul\":6534:6624   */\n      tag_282\n        /* \"#utility.yul\":6620:6623   */\n      dup4\n        /* \"#utility.yul\":6612:6618   */\n      dup4\n        /* \"#utility.yul\":6534:6624   */\n      tag_173\n      jump\t// in\n    tag_282:\n        /* \"#utility.yul\":6520:6624   */\n      swap1\n      pop\n        /* \"#utility.yul\":6386:6630   */\n      swap3\n      swap2\n      pop\n      pop\n      jump\t// out\n        /* \"#utility.yul\":6636:6771   */\n    tag_175:\n        /* \"#utility.yul\":6728:6732   */\n      0x00\n        /* \"#utility.yul\":6760:6764   */\n      0x20\n        /* \"#utility.yul\":6755:6758   */\n      dup3\n        /* \"#utility.yul\":6751:6765   */\n      add\n        /* \"#utility.yul\":6743:6765   */\n      swap1\n      pop\n        /* \"#utility.yul\":6636:6771   */\n      swap2\n      swap1\n      pop\n      jump\t// out\n        /* \"#utility.yul\":6833:7920   */\n    tag_176:\n        /* \"#utility.yul\":6996:6999   */\n      0x00\n        /* \"#utility.yul\":7025:7101   */\n      tag_285\n        /* \"#utility.yul\":7095:7100   */\n      dup3\n        /* \"#utility.yul\":7025:7101   */\n      tag_166\n      jump\t// in\n    tag_285:\n        /* \"#utility.yul\":7117:7225   */\n      tag_286\n        /* \"#utility.yul\":7218:7224   */\n      dup2\n        /* \"#utility.yul\":7213:7216   */\n      dup6\n        /* \"#utility.yul\":7117:7225   */\n      tag_167\n      jump\t// in\n    tag_286:\n        /* \"#utility.yul\":7110:7225   */\n      swap4\n      pop\n        /* \"#utility.yul\":7251:7254   */\n      dup4\n        /* \"#utility.yul\":7296:7300   */\n      0x20\n        /* \"#utility.yul\":7288:7294   */\n      dup3\n        /* \"#utility.yul\":7284:7301   */\n      mul\n        /* \"#utility.yul\":7279:7282   */\n      dup6\n        /* \"#utility.yul\":7275:7302   */\n      add\n        /* \"#utility.yul\":7326:7404   */\n      tag_287\n        /* \"#utility.yul\":7398:7403   */\n      dup6\n        /* \"#utility.yul\":7326:7404   */\n      tag_168\n      jump\t// in\n    tag_287:\n        /* \"#utility.yul\":7427:7434   */\n      dup1\n        /* \"#utility.yul\":7458:7459   */\n      0x00\n        /* \"#utility.yul\":7443:7875   */\n    tag_288:\n        /* \"#utility.yul\":7468:7474   */\n      dup6\n        /* \"#utility.yul\":7465:7466   */\n      dup2\n        /* \"#utility.yul\":7462:7475   */\n      lt\n        /* \"#utility.yul\":7443:7875   */\n      iszero\n      tag_290\n      jumpi\n        /* \"#utility.yul\":7539:7548   */\n      dup5\n        /* \"#utility.yul\":7533:7537   */\n      dup5\n        /* \"#utility.yul\":7529:7549   */\n      sub\n        /* \"#utility.yul\":7524:7527   */\n      dup10\n        /* \"#utility.yul\":7517:7550   */\n      mstore\n        /* \"#utility.yul\":7590:7596   */\n      dup2\n        /* \"#utility.yul\":7584:7597   */\n      mload\n        /* \"#utility.yul\":7618:7726   */\n      tag_291\n        /* \"#utility.yul\":7721:7725   */\n      dup6\n        /* \"#utility.yul\":7706:7719   */\n      dup3\n        /* \"#utility.yul\":7618:7726   */\n      tag_174\n      jump\t// in\n    tag_291:\n        /* \"#utility.yul\":7610:7726   */\n      swap5\n      pop\n        /* \"#utility.yul\":7749:7831   */\n      tag_292\n        /* \"#utility.yul\":7824:7830   */\n      dup4\n        /* \"#utility.yul\":7749:7831   */\n      tag_175\n      jump\t// in\n    tag_292:\n        /* \"#utility.yul\":7739:7831   */\n      swap3\n      pop\n        /* \"#utility.yul\":7860:7864   */\n      0x20\n        /* \"#utility.yul\":7855:7858   */\n      dup11\n        /* \"#utility.yul\":7851:7865   */\n      add\n        /* \"#utility.yul\":7844:7865   */\n      swap10\n      pop\n        /* \"#utility.yul\":7503:7875   */\n      pop\n        /* \"#utility.yul\":7490:7491   */\n      0x01\n        /* \"#utility.yul\":7487:7488   */\n      dup2\n        /* \"#utility.yul\":7483:7492   */\n      add\n        /* \"#utility.yul\":7478:7492   */\n      swap1\n      pop\n        /* \"#utility.yul\":7443:7875   */\n      jump(tag_288)\n    tag_290:\n        /* \"#utility.yul\":7447:7461   */\n      pop\n        /* \"#utility.yul\":7891:7895   */\n      dup3\n        /* \"#utility.yul\":7884:7895   */\n      swap8\n      pop\n        /* \"#utility.yul\":7911:7914   */\n      dup8\n        /* \"#utility.yul\":7904:7914   */\n      swap6\n      pop\n        /* \"#utility.yul\":7001:7920   */\n      pop\n      pop\n      pop\n      pop\n      pop\n        /* \"#utility.yul\":6833:7920   */\n      swap3\n      swap2\n      pop\n      pop\n      jump\t// out\n        /* \"#utility.yul\":7926:8387   */\n    tag_25:\n        /* \"#utility.yul\":8113:8117   */\n      0x00\n        /* \"#utility.yul\":8151:8153   */\n      0x20\n        /* \"#utility.yul\":8140:8149   */\n      dup3\n        /* \"#utility.yul\":8136:8154   */\n      add\n        /* \"#utility.yul\":8128:8154   */\n      swap1\n      pop\n        /* \"#utility.yul\":8200:8209   */\n      dup2\n        /* \"#utility.yul\":8194:8198   */\n      dup2\n        /* \"#utility.yul\":8190:8210   */\n      sub\n        /* \"#utility.yul\":8186:8187   */\n      0x00\n        /* \"#utility.yul\":8175:8184   */\n      dup4\n        /* \"#utility.yul\":8171:8188   */\n      add\n        /* \"#utility.yul\":8164:8211   */\n      mstore\n        /* \"#utility.yul\":8228:8380   */\n      tag_294\n        /* \"#utility.yul\":8375:8379   */\n      dup2\n        /* \"#utility.yul\":8366:8372   */\n      dup5\n        /* \"#utility.yul\":8228:8380   */\n      tag_176\n      jump\t// in\n    tag_294:\n        /* \"#utility.yul\":8220:8380   */\n      swap1\n      pop\n        /* \"#utility.yul\":7926:8387   */\n      swap3\n      swap2\n      pop\n      pop\n      jump\t// out\n        /* \"#utility.yul\":8393:8482   */\n    tag_177:\n        /* \"#utility.yul\":8429:8436   */\n      0x00\n        /* \"#utility.yul\":8469:8475   */\n      0xffff\n        /* \"#utility.yul\":8462:8467   */\n      dup3\n        /* \"#utility.yul\":8458:8476   */\n      and\n        /* \"#utility.yul\":8447:8476   */\n      swap1\n      pop\n        /* \"#utility.yul\":8393:8482   */\n      swap2\n      swap1\n      pop\n      jump\t// out\n        /* \"#utility.yul\":8488:8608   */\n    tag_178:\n        /* \"#utility.yul\":8560:8583   */\n      tag_297\n        /* \"#utility.yul\":8577:8582   */\n      dup2\n        /* \"#utility.yul\":8560:8583   */\n      tag_177\n      jump\t// in\n    tag_297:\n        /* \"#utility.yul\":8553:8558   */\n      dup2\n        /* \"#utility.yul\":8550:8584   */\n      eq\n        /* \"#utility.yul\":8540:8602   */\n      tag_298\n      jumpi\n        /* \"#utility.yul\":8598:8599   */\n      0x00\n        /* \"#utility.yul\":8595:8596   */\n      dup1\n        /* \"#utility.yul\":8588:8600   */\n      revert\n        /* \"#utility.yul\":8540:8602   */\n    tag_298:\n        /* \"#utility.yul\":8488:8608   */\n      pop\n      jump\t// out\n        /* \"#utility.yul\":8614:8751   */\n    tag_179:\n        /* \"#utility.yul\":8659:8664   */\n      0x00\n        /* \"#utility.yul\":8697:8703   */\n      dup2\n        /* \"#utility.yul\":8684:8704   */\n      calldataload\n        /* \"#utility.yul\":8675:8704   */\n      swap1\n      pop\n        /* \"#utility.yul\":8713:8745   */\n      tag_300\n        /* \"#utility.yul\":8739:8744   */\n      dup2\n        /* \"#utility.yul\":8713:8745   */\n      tag_178\n      jump\t// in\n    tag_300:\n        /* \"#utility.yul\":8614:8751   */\n      swap3\n      swap2\n      pop\n      pop\n      jump\t// out\n        /* \"#utility.yul\":8757:9084   */\n    tag_31:\n        /* \"#utility.yul\":8815:8821   */\n      0x00\n        /* \"#utility.yul\":8864:8866   */\n      0x20\n        /* \"#utility.yul\":8852:8861   */\n      dup3\n        /* \"#utility.yul\":8843:8850   */\n      dup5\n        /* \"#utility.yul\":8839:8862   */\n      sub\n        /* \"#utility.yul\":8835:8867   */\n      slt\n        /* \"#utility.yul\":8832:8951   */\n      iszero\n      tag_302\n      jumpi\n        /* \"#utility.yul\":8870:8949   */\n      tag_303\n      tag_150\n      jump\t// in\n    tag_303:\n        /* \"#utility.yul\":8832:8951   */\n    tag_302:\n        /* \"#utility.yul\":8990:8991   */\n      0x00\n        /* \"#utility.yul\":9015:9067   */\n      tag_304\n        /* \"#utility.yul\":9059:9066   */\n      dup5\n        /* \"#utility.yul\":9050:9056   */\n      dup3\n        /* \"#utility.yul\":9039:9048   */\n      dup6\n        /* \"#utility.yul\":9035:9057   */\n      add\n        /* \"#utility.yul\":9015:9067   */\n      tag_179\n      jump\t// in\n    tag_304:\n        /* \"#utility.yul\":9005:9067   */\n      swap2\n      pop\n        /* \"#utility.yul\":8961:9077   */\n      pop\n        /* \"#utility.yul\":8757:9084   */\n      swap3\n      swap2\n      pop\n      pop\n      jump\t// out\n        /* \"#utility.yul\":9090:9205   */\n    tag_180:\n        /* \"#utility.yul\":9175:9198   */\n      tag_306\n        /* \"#utility.yul\":9192:9197   */\n      dup2\n        /* \"#utility.yul\":9175:9198   */\n      tag_177\n      jump\t// in\n    tag_306:\n        /* \"#utility.yul\":9170:9173   */\n      dup3\n        /* \"#utility.yul\":9163:9199   */\n      mstore\n        /* \"#utility.yul\":9090:9205   */\n      pop\n      pop\n      jump\t// out\n        /* \"#utility.yul\":9211:9429   */\n    tag_39:\n        /* \"#utility.yul\":9302:9306   */\n      0x00\n        /* \"#utility.yul\":9340:9342   */\n      0x20\n        /* \"#utility.yul\":9329:9338   */\n      dup3\n        /* \"#utility.yul\":9325:9343   */\n      add\n        /* \"#utility.yul\":9317:9343   */\n      swap1\n      pop\n        /* \"#utility.yul\":9353:9422   */\n      tag_308\n        /* \"#utility.yul\":9419:9420   */\n      0x00\n        /* \"#utility.yul\":9408:9417   */\n      dup4\n        /* \"#utility.yul\":9404:9421   */\n      add\n        /* \"#utility.yul\":9395:9401   */\n      dup5\n        /* \"#utility.yul\":9353:9422   */\n      tag_180\n      jump\t// in\n    tag_308:\n        /* \"#utility.yul\":9211:9429   */\n      swap3\n      swap2\n      pop\n      pop\n      jump\t// out\n        /* \"#utility.yul\":9435:9552   */\n    tag_181:\n        /* \"#utility.yul\":9544:9545   */\n      0x00\n        /* \"#utility.yul\":9541:9542   */\n      dup1\n        /* \"#utility.yul\":9534:9546   */\n      revert\n        /* \"#utility.yul\":9558:9675   */\n    tag_182:\n        /* \"#utility.yul\":9667:9668   */\n      0x00\n        /* \"#utility.yul\":9664:9665   */\n      dup1\n        /* \"#utility.yul\":9657:9669   */\n      revert\n        /* \"#utility.yul\":9681:9861   */\n    tag_183:\n        /* \"#utility.yul\":9729:9806   */\n      0x4e487b7100000000000000000000000000000000000000000000000000000000\n        /* \"#utility.yul\":9726:9727   */\n      0x00\n        /* \"#utility.yul\":9719:9807   */\n      mstore\n        /* \"#utility.yul\":9826:9830   */\n      0x41\n        /* \"#utility.yul\":9823:9824   */\n      0x04\n        /* \"#utility.yul\":9816:9831   */\n      mstore\n        /* \"#utility.yul\":9850:9854   */\n      0x24\n        /* \"#utility.yul\":9847:9848   */\n      0x00\n        /* \"#utility.yul\":9840:9855   */\n      revert\n        /* \"#utility.yul\":9867:10148   */\n    tag_184:\n        /* \"#utility.yul\":9950:9977   */\n      tag_313\n        /* \"#utility.yul\":9972:9976   */\n      dup3\n        /* \"#utility.yul\":9950:9977   */\n      tag_164\n      jump\t// in\n    tag_313:\n        /* \"#utility.yul\":9942:9948   */\n      dup2\n        /* \"#utility.yul\":9938:9978   */\n      add\n        /* \"#utility.yul\":10080:10086   */\n      dup2\n        /* \"#utility.yul\":10068:10078   */\n      dup2\n        /* \"#utility.yul\":10065:10087   */\n      lt\n        /* \"#utility.yul\":10044:10062   */\n      0xffffffffffffffff\n        /* \"#utility.yul\":10032:10042   */\n      dup3\n        /* \"#utility.yul\":10029:10063   */\n      gt\n        /* \"#utility.yul\":10026:10088   */\n      or\n        /* \"#utility.yul\":10023:10111   */\n      iszero\n      tag_314\n      jumpi\n        /* \"#utility.yul\":10091:10109   */\n      tag_315\n      tag_183\n      jump\t// in\n    tag_315:\n        /* \"#utility.yul\":10023:10111   */\n    tag_314:\n        /* \"#utility.yul\":10131:10141   */\n      dup1\n        /* \"#utility.yul\":10127:10129   */\n      0x40\n        /* \"#utility.yul\":10120:10142   */\n      mstore\n        /* \"#utility.yul\":9910:10148   */\n      pop\n        /* \"#utility.yul\":9867:10148   */\n      pop\n      pop\n      jump\t// out\n        /* \"#utility.yul\":10154:10283   */\n    tag_185:\n        /* \"#utility.yul\":10188:10194   */\n      0x00\n        /* \"#utility.yul\":10215:10235   */\n      tag_317\n      tag_149\n      jump\t// in\n    tag_317:\n        /* \"#utility.yul\":10205:10235   */\n      swap1\n      pop\n        /* \"#utility.yul\":10244:10277   */\n      tag_318\n        /* \"#utility.yul\":10272:10276   */\n      dup3\n        /* \"#utility.yul\":10264:10270   */\n      dup3\n        /* \"#utility.yul\":10244:10277   */\n      tag_184\n      jump\t// in\n    tag_318:\n        /* \"#utility.yul\":10154:10283   */\n      swap2\n      swap1\n      pop\n      jump\t// out\n        /* \"#utility.yul\":10289:10597   */\n    tag_186:\n        /* \"#utility.yul\":10351:10355   */\n      0x00\n        /* \"#utility.yul\":10441:10459   */\n      0xffffffffffffffff\n        /* \"#utility.yul\":10433:10439   */\n      dup3\n        /* \"#utility.yul\":10430:10460   */\n      gt\n        /* \"#utility.yul\":10427:10483   */\n      iszero\n      tag_320\n      jumpi\n        /* \"#utility.yul\":10463:10481   */\n      tag_321\n      tag_183\n      jump\t// in\n    tag_321:\n        /* \"#utility.yul\":10427:10483   */\n    tag_320:\n        /* \"#utility.yul\":10501:10530   */\n      tag_322\n        /* \"#utility.yul\":10523:10529   */\n      dup3\n        /* \"#utility.yul\":10501:10530   */\n      tag_164\n      jump\t// in\n    tag_322:\n        /* \"#utility.yul\":10493:10530   */\n      swap1\n      pop\n        /* \"#utility.yul\":10585:10589   */\n      0x20\n        /* \"#utility.yul\":10579:10583   */\n      dup2\n        /* \"#utility.yul\":10575:10590   */\n      add\n        /* \"#utility.yul\":10567:10590   */\n      swap1\n      pop\n        /* \"#utility.yul\":10289:10597   */\n      swap2\n      swap1\n      pop\n      jump\t// out\n        /* \"#utility.yul\":10603:10751   */\n    tag_187:\n        /* \"#utility.yul\":10701:10707   */\n      dup3\n        /* \"#utility.yul\":10696:10699   */\n      dup2\n        /* \"#utility.yul\":10691:10694   */\n      dup4\n        /* \"#utility.yul\":10678:10708   */\n      calldatacopy\n        /* \"#utility.yul\":10742:10743   */\n      0x00\n        /* \"#utility.yul\":10733:10739   */\n      dup4\n        /* \"#utility.yul\":10728:10731   */\n      dup4\n        /* \"#utility.yul\":10724:10740   */\n      add\n        /* \"#utility.yul\":10717:10744   */\n      mstore\n        /* \"#utility.yul\":10603:10751   */\n      pop\n      pop\n      pop\n      jump\t// out\n        /* \"#utility.yul\":10757:11182   */\n    tag_188:\n        /* \"#utility.yul\":10835:10840   */\n      0x00\n        /* \"#utility.yul\":10860:10926   */\n      tag_325\n        /* \"#utility.yul\":10876:10925   */\n      tag_326\n        /* \"#utility.yul\":10918:10924   */\n      dup5\n        /* \"#utility.yul\":10876:10925   */\n      tag_186\n      jump\t// in\n    tag_326:\n        /* \"#utility.yul\":10860:10926   */\n      tag_185\n      jump\t// in\n    tag_325:\n        /* \"#utility.yul\":10851:10926   */\n      swap1\n      pop\n        /* \"#utility.yul\":10949:10955   */\n      dup3\n        /* \"#utility.yul\":10942:10947   */\n      dup2\n        /* \"#utility.yul\":10935:10956   */\n      mstore\n        /* \"#utility.yul\":10987:10991   */\n      0x20\n        /* \"#utility.yul\":10980:10985   */\n      dup2\n        /* \"#utility.yul\":10976:10992   */\n      add\n        /* \"#utility.yul\":11025:11028   */\n      dup5\n        /* \"#utility.yul\":11016:11022   */\n      dup5\n        /* \"#utility.yul\":11011:11014   */\n      dup5\n        /* \"#utility.yul\":11007:11023   */\n      add\n        /* \"#utility.yul\":11004:11029   */\n      gt\n        /* \"#utility.yul\":11001:11113   */\n      iszero\n      tag_327\n      jumpi\n        /* \"#utility.yul\":11032:11111   */\n      tag_328\n      tag_182\n      jump\t// in\n    tag_328:\n        /* \"#utility.yul\":11001:11113   */\n    tag_327:\n        /* \"#utility.yul\":11122:11176   */\n      tag_329\n        /* \"#utility.yul\":11169:11175   */\n      dup5\n        /* \"#utility.yul\":11164:11167   */\n      dup3\n        /* \"#utility.yul\":11159:11162   */\n      dup6\n        /* \"#utility.yul\":11122:11176   */\n      tag_187\n      jump\t// in\n    tag_329:\n        /* \"#utility.yul\":10841:11182   */\n      pop\n        /* \"#utility.yul\":10757:11182   */\n      swap4\n      swap3\n      pop\n      pop\n      pop\n      jump\t// out\n        /* \"#utility.yul\":11202:11542   */\n    tag_189:\n        /* \"#utility.yul\":11258:11263   */\n      0x00\n        /* \"#utility.yul\":11307:11310   */\n      dup3\n        /* \"#utility.yul\":11300:11304   */\n      0x1f\n        /* \"#utility.yul\":11292:11298   */\n      dup4\n        /* \"#utility.yul\":11288:11305   */\n      add\n        /* \"#utility.yul\":11284:11311   */\n      slt\n        /* \"#utility.yul\":11274:11396   */\n      tag_331\n      jumpi\n        /* \"#utility.yul\":11315:11394   */\n      tag_332\n      tag_181\n      jump\t// in\n    tag_332:\n        /* \"#utility.yul\":11274:11396   */\n    tag_331:\n        /* \"#utility.yul\":11432:11438   */\n      dup2\n        /* \"#utility.yul\":11419:11439   */\n      calldataload\n        /* \"#utility.yul\":11457:11536   */\n      tag_333\n        /* \"#utility.yul\":11532:11535   */\n      dup5\n        /* \"#utility.yul\":11524:11530   */\n      dup3\n        /* \"#utility.yul\":11517:11521   */\n      0x20\n        /* \"#utility.yul\":11509:11515   */\n      dup7\n        /* \"#utility.yul\":11505:11522   */\n      add\n        /* \"#utility.yul\":11457:11536   */\n      tag_188\n      jump\t// in\n    tag_333:\n        /* \"#utility.yul\":11448:11536   */\n      swap2\n      pop\n        /* \"#utility.yul\":11264:11542   */\n      pop\n        /* \"#utility.yul\":11202:11542   */\n      swap3\n      swap2\n      pop\n      pop\n      jump\t// out\n        /* \"#utility.yul\":11548:12057   */\n    tag_42:\n        /* \"#utility.yul\":11617:11623   */\n      0x00\n        /* \"#utility.yul\":11666:11668   */\n      0x20\n        /* \"#utility.yul\":11654:11663   */\n      dup3\n        /* \"#utility.yul\":11645:11652   */\n      dup5\n        /* \"#utility.yul\":11641:11664   */\n      sub\n        /* \"#utility.yul\":11637:11669   */\n      slt\n        /* \"#utility.yul\":11634:11753   */\n      iszero\n      tag_335\n      jumpi\n        /* \"#utility.yul\":11672:11751   */\n      tag_336\n      tag_150\n      jump\t// in\n    tag_336:\n        /* \"#utility.yul\":11634:11753   */\n    tag_335:\n        /* \"#utility.yul\":11820:11821   */\n      0x00\n        /* \"#utility.yul\":11809:11818   */\n      dup3\n        /* \"#utility.yul\":11805:11822   */\n      add\n        /* \"#utility.yul\":11792:11823   */\n      calldataload\n        /* \"#utility.yul\":11850:11868   */\n      0xffffffffffffffff\n        /* \"#utility.yul\":11842:11848   */\n      dup2\n        /* \"#utility.yul\":11839:11869   */\n      gt\n        /* \"#utility.yul\":11836:11953   */\n      iszero\n      tag_337\n      jumpi\n        /* \"#utility.yul\":11872:11951   */\n      tag_338\n      tag_151\n      jump\t// in\n    tag_338:\n        /* \"#utility.yul\":11836:11953   */\n    tag_337:\n        /* \"#utility.yul\":11977:12040   */\n      tag_339\n        /* \"#utility.yul\":12032:12039   */\n      dup5\n        /* \"#utility.yul\":12023:12029   */\n      dup3\n        /* \"#utility.yul\":12012:12021   */\n      dup6\n        /* \"#utility.yul\":12008:12030   */\n      add\n        /* \"#utility.yul\":11977:12040   */\n      tag_189\n      jump\t// in\n    tag_339:\n        /* \"#utility.yul\":11967:12040   */\n      swap2\n      pop\n        /* \"#utility.yul\":11763:12050   */\n      pop\n        /* \"#utility.yul\":11548:12057   */\n      swap3\n      swap2\n      pop\n      pop\n      jump\t// out\n        /* \"#utility.yul\":12063:12285   */\n    tag_48:\n        /* \"#utility.yul\":12156:12160   */\n      0x00\n        /* \"#utility.yul\":12194:12196   */\n      0x20\n        /* \"#utility.yul\":12183:12192   */\n      dup3\n        /* \"#utility.yul\":12179:12197   */\n      add\n        /* \"#utility.yul\":12171:12197   */\n      swap1\n      pop\n        /* \"#utility.yul\":12207:12278   */\n      tag_341\n        /* \"#utility.yul\":12275:12276   */\n      0x00\n        /* \"#utility.yul\":12264:12273   */\n      dup4\n        /* \"#utility.yul\":12260:12277   */\n      add\n        /* \"#utility.yul\":12251:12257   */\n      dup5\n        /* \"#utility.yul\":12207:12278   */\n      tag_159\n      jump\t// in\n    tag_341:\n        /* \"#utility.yul\":12063:12285   */\n      swap3\n      swap2\n      pop\n      pop\n      jump\t// out\n        /* \"#utility.yul\":12291:12513   */\n    tag_52:\n        /* \"#utility.yul\":12384:12388   */\n      0x00\n        /* \"#utility.yul\":12422:12424   */\n      0x20\n        /* \"#utility.yul\":12411:12420   */\n      dup3\n        /* \"#utility.yul\":12407:12425   */\n      add\n        /* \"#utility.yul\":12399:12425   */\n      swap1\n      pop\n        /* \"#utility.yul\":12435:12506   */\n      tag_343\n        /* \"#utility.yul\":12503:12504   */\n      0x00\n        /* \"#utility.yul\":12492:12501   */\n      dup4\n        /* \"#utility.yul\":12488:12505   */\n      add\n        /* \"#utility.yul\":12479:12485   */\n      dup5\n        /* \"#utility.yul\":12435:12506   */\n      tag_160\n      jump\t// in\n    tag_343:\n        /* \"#utility.yul\":12291:12513   */\n      swap3\n      swap2\n      pop\n      pop\n      jump\t// out\n        /* \"#utility.yul\":12519:12848   */\n    tag_55:\n        /* \"#utility.yul\":12578:12584   */\n      0x00\n        /* \"#utility.yul\":12627:12629   */\n      0x20\n        /* \"#utility.yul\":12615:12624   */\n      dup3\n        /* \"#utility.yul\":12606:12613   */\n      dup5\n        /* \"#utility.yul\":12602:12625   */\n      sub\n        /* \"#utility.yul\":12598:12630   */\n      slt\n        /* \"#utility.yul\":12595:12714   */\n      iszero\n      tag_345\n      jumpi\n        /* \"#utility.yul\":12633:12712   */\n      tag_346\n      tag_150\n      jump\t// in\n    tag_346:\n        /* \"#utility.yul\":12595:12714   */\n    tag_345:\n        /* \"#utility.yul\":12753:12754   */\n      0x00\n        /* \"#utility.yul\":12778:12831   */\n      tag_347\n        /* \"#utility.yul\":12823:12830   */\n      dup5\n        /* \"#utility.yul\":12814:12820   */\n      dup3\n        /* \"#utility.yul\":12803:12812   */\n      dup6\n        /* \"#utility.yul\":12799:12821   */\n      add\n        /* \"#utility.yul\":12778:12831   */\n      tag_158\n      jump\t// in\n    tag_347:\n        /* \"#utility.yul\":12768:12831   */\n      swap2\n      pop\n        /* \"#utility.yul\":12724:12841   */\n      pop\n        /* \"#utility.yul\":12519:12848   */\n      swap3\n      swap2\n      pop\n      pop\n      jump\t// out\n        /* \"#utility.yul\":12906:14037   */\n    tag_190:\n        /* \"#utility.yul\":13019:13022   */\n      0x00\n        /* \"#utility.yul\":13055:13059   */\n      0xa0\n        /* \"#utility.yul\":13050:13053   */\n      dup4\n        /* \"#utility.yul\":13046:13060   */\n      add\n        /* \"#utility.yul\":13140:13144   */\n      0x00\n        /* \"#utility.yul\":13133:13138   */\n      dup4\n        /* \"#utility.yul\":13129:13145   */\n      add\n        /* \"#utility.yul\":13123:13146   */\n      mload\n        /* \"#utility.yul\":13159:13222   */\n      tag_349\n        /* \"#utility.yul\":13216:13220   */\n      0x00\n        /* \"#utility.yul\":13211:13214   */\n      dup7\n        /* \"#utility.yul\":13207:13221   */\n      add\n        /* \"#utility.yul\":13193:13205   */\n      dup3\n        /* \"#utility.yul\":13159:13222   */\n      tag_169\n      jump\t// in\n    tag_349:\n        /* \"#utility.yul\":13070:13232   */\n      pop\n        /* \"#utility.yul\":13316:13320   */\n      0x20\n        /* \"#utility.yul\":13309:13314   */\n      dup4\n        /* \"#utility.yul\":13305:13321   */\n      add\n        /* \"#utility.yul\":13299:13322   */\n      mload\n        /* \"#utility.yul\":13335:13398   */\n      tag_350\n        /* \"#utility.yul\":13392:13396   */\n      0x20\n        /* \"#utility.yul\":13387:13390   */\n      dup7\n        /* \"#utility.yul\":13383:13397   */\n      add\n        /* \"#utility.yul\":13369:13381   */\n      dup3\n        /* \"#utility.yul\":13335:13398   */\n      tag_170\n      jump\t// in\n    tag_350:\n        /* \"#utility.yul\":13242:13408   */\n      pop\n        /* \"#utility.yul\":13493:13497   */\n      0x40\n        /* \"#utility.yul\":13486:13491   */\n      dup4\n        /* \"#utility.yul\":13482:13498   */\n      add\n        /* \"#utility.yul\":13476:13499   */\n      mload\n        /* \"#utility.yul\":13546:13549   */\n      dup5\n        /* \"#utility.yul\":13540:13544   */\n      dup3\n        /* \"#utility.yul\":13536:13550   */\n      sub\n        /* \"#utility.yul\":13529:13533   */\n      0x40\n        /* \"#utility.yul\":13524:13527   */\n      dup7\n        /* \"#utility.yul\":13520:13534   */\n      add\n        /* \"#utility.yul\":13513:13551   */\n      mstore\n        /* \"#utility.yul\":13572:13645   */\n      tag_351\n        /* \"#utility.yul\":13640:13644   */\n      dup3\n        /* \"#utility.yul\":13626:13638   */\n      dup3\n        /* \"#utility.yul\":13572:13645   */\n      tag_172\n      jump\t// in\n    tag_351:\n        /* \"#utility.yul\":13564:13645   */\n      swap2\n      pop\n        /* \"#utility.yul\":13418:13656   */\n      pop\n        /* \"#utility.yul\":13743:13747   */\n      0x60\n        /* \"#utility.yul\":13736:13741   */\n      dup4\n        /* \"#utility.yul\":13732:13748   */\n      add\n        /* \"#utility.yul\":13726:13749   */\n      mload\n        /* \"#utility.yul\":13762:13825   */\n      tag_352\n        /* \"#utility.yul\":13819:13823   */\n      0x60\n        /* \"#utility.yul\":13814:13817   */\n      dup7\n        /* \"#utility.yul\":13810:13824   */\n      add\n        /* \"#utility.yul\":13796:13808   */\n      dup3\n        /* \"#utility.yul\":13762:13825   */\n      tag_169\n      jump\t// in\n    tag_352:\n        /* \"#utility.yul\":13666:13835   */\n      pop\n        /* \"#utility.yul\":13918:13922   */\n      0x80\n        /* \"#utility.yul\":13911:13916   */\n      dup4\n        /* \"#utility.yul\":13907:13923   */\n      add\n        /* \"#utility.yul\":13901:13924   */\n      mload\n        /* \"#utility.yul\":13937:14000   */\n      tag_353\n        /* \"#utility.yul\":13994:13998   */\n      0x80\n        /* \"#utility.yul\":13989:13992   */\n      dup7\n        /* \"#utility.yul\":13985:13999   */\n      add\n        /* \"#utility.yul\":13971:13983   */\n      dup3\n        /* \"#utility.yul\":13937:14000   */\n      tag_169\n      jump\t// in\n    tag_353:\n        /* \"#utility.yul\":13845:14010   */\n      pop\n        /* \"#utility.yul\":14027:14031   */\n      dup1\n        /* \"#utility.yul\":14020:14031   */\n      swap2\n      pop\n        /* \"#utility.yul\":13024:14037   */\n      pop\n        /* \"#utility.yul\":12906:14037   */\n      swap3\n      swap2\n      pop\n      pop\n      jump\t// out\n        /* \"#utility.yul\":14043:14404   */\n    tag_58:\n        /* \"#utility.yul\":14180:14184   */\n      0x00\n        /* \"#utility.yul\":14218:14220   */\n      0x20\n        /* \"#utility.yul\":14207:14216   */\n      dup3\n        /* \"#utility.yul\":14203:14221   */\n      add\n        /* \"#utility.yul\":14195:14221   */\n      swap1\n      pop\n        /* \"#utility.yul\":14267:14276   */\n      dup2\n        /* \"#utility.yul\":14261:14265   */\n      dup2\n        /* \"#utility.yul\":14257:14277   */\n      sub\n        /* \"#utility.yul\":14253:14254   */\n      0x00\n        /* \"#utility.yul\":14242:14251   */\n      dup4\n        /* \"#utility.yul\":14238:14255   */\n      add\n        /* \"#utility.yul\":14231:14278   */\n      mstore\n        /* \"#utility.yul\":14295:14397   */\n      tag_355\n        /* \"#utility.yul\":14392:14396   */\n      dup2\n        /* \"#utility.yul\":14383:14389   */\n      dup5\n        /* \"#utility.yul\":14295:14397   */\n      tag_190\n      jump\t// in\n    tag_355:\n        /* \"#utility.yul\":14287:14397   */\n      swap1\n      pop\n        /* \"#utility.yul\":14043:14404   */\n      swap3\n      swap2\n      pop\n      pop\n      jump\t// out\n        /* \"#utility.yul\":14410:14590   */\n    tag_191:\n        /* \"#utility.yul\":14458:14535   */\n      0x4e487b7100000000000000000000000000000000000000000000000000000000\n        /* \"#utility.yul\":14455:14456   */\n      0x00\n        /* \"#utility.yul\":14448:14536   */\n      mstore\n        /* \"#utility.yul\":14555:14559   */\n      0x22\n        /* \"#utility.yul\":14552:14553   */\n      0x04\n        /* \"#utility.yul\":14545:14560   */\n      mstore\n        /* \"#utility.yul\":14579:14583   */\n      0x24\n        /* \"#utility.yul\":14576:14577   */\n      0x00\n        /* \"#utility.yul\":14569:14584   */\n      revert\n        /* \"#utility.yul\":14596:14916   */\n    tag_62:\n        /* \"#utility.yul\":14640:14646   */\n      0x00\n        /* \"#utility.yul\":14677:14678   */\n      0x02\n        /* \"#utility.yul\":14671:14675   */\n      dup3\n        /* \"#utility.yul\":14667:14679   */\n      div\n        /* \"#utility.yul\":14657:14679   */\n      swap1\n      pop\n        /* \"#utility.yul\":14724:14725   */\n      0x01\n        /* \"#utility.yul\":14718:14722   */\n      dup3\n        /* \"#utility.yul\":14714:14726   */\n      and\n        /* \"#utility.yul\":14745:14763   */\n      dup1\n        /* \"#utility.yul\":14735:14816   */\n      tag_358\n      jumpi\n        /* \"#utility.yul\":14801:14805   */\n      0x7f\n        /* \"#utility.yul\":14793:14799   */\n      dup3\n        /* \"#utility.yul\":14789:14806   */\n      and\n        /* \"#utility.yul\":14779:14806   */\n      swap2\n      pop\n        /* \"#utility.yul\":14735:14816   */\n    tag_358:\n        /* \"#utility.yul\":14863:14865   */\n      0x20\n        /* \"#utility.yul\":14855:14861   */\n      dup3\n        /* \"#utility.yul\":14852:14866   */\n      lt\n        /* \"#utility.yul\":14832:14850   */\n      dup2\n        /* \"#utility.yul\":14829:14867   */\n      sub\n        /* \"#utility.yul\":14826:14910   */\n      tag_359\n      jumpi\n        /* \"#utility.yul\":14882:14900   */\n      tag_360\n      tag_191\n      jump\t// in\n    tag_360:\n        /* \"#utility.yul\":14826:14910   */\n    tag_359:\n        /* \"#utility.yul\":14647:14916   */\n      pop\n        /* \"#utility.yul\":14596:14916   */\n      swap2\n      swap1\n      pop\n      jump\t// out\n        /* \"#utility.yul\":14922:15102   */\n    tag_79:\n        /* \"#utility.yul\":14970:15047   */\n      0x4e487b7100000000000000000000000000000000000000000000000000000000\n        /* \"#utility.yul\":14967:14968   */\n      0x00\n        /* \"#utility.yul\":14960:15048   */\n      mstore\n        /* \"#utility.yul\":15067:15071   */\n      0x32\n        /* \"#utility.yul\":15064:15065   */\n      0x04\n        /* \"#utility.yul\":15057:15072   */\n      mstore\n        /* \"#utility.yul\":15091:15095   */\n      0x24\n        /* \"#utility.yul\":15088:15089   */\n      0x00\n        /* \"#utility.yul\":15081:15096   */\n      revert\n        /* \"#utility.yul\":15108:15278   */\n    tag_192:\n        /* \"#utility.yul\":15248:15270   */\n      0x545745455420444f4553204e4f54204558495354000000000000000000000000\n        /* \"#utility.yul\":15244:15245   */\n      0x00\n        /* \"#utility.yul\":15236:15242   */\n      dup3\n        /* \"#utility.yul\":15232:15246   */\n      add\n        /* \"#utility.yul\":15225:15271   */\n      mstore\n        /* \"#utility.yul\":15108:15278   */\n      pop\n      jump\t// out\n        /* \"#utility.yul\":15284:15650   */\n    tag_193:\n        /* \"#utility.yul\":15426:15429   */\n      0x00\n        /* \"#utility.yul\":15447:15514   */\n      tag_364\n        /* \"#utility.yul\":15511:15513   */\n      0x14\n        /* \"#utility.yul\":15506:15509   */\n      dup4\n        /* \"#utility.yul\":15447:15514   */\n      tag_162\n      jump\t// in\n    tag_364:\n        /* \"#utility.yul\":15440:15514   */\n      swap2\n      pop\n        /* \"#utility.yul\":15523:15616   */\n      tag_365\n        /* \"#utility.yul\":15612:15615   */\n      dup3\n        /* \"#utility.yul\":15523:15616   */\n      tag_192\n      jump\t// in\n    tag_365:\n        /* \"#utility.yul\":15641:15643   */\n      0x20\n        /* \"#utility.yul\":15636:15639   */\n      dup3\n        /* \"#utility.yul\":15632:15644   */\n      add\n        /* \"#utility.yul\":15625:15644   */\n      swap1\n      pop\n        /* \"#utility.yul\":15284:15650   */\n      swap2\n      swap1\n      pop\n      jump\t// out\n        /* \"#utility.yul\":15656:16075   */\n    tag_83:\n        /* \"#utility.yul\":15822:15826   */\n      0x00\n        /* \"#utility.yul\":15860:15862   */\n      0x20\n        /* \"#utility.yul\":15849:15858   */\n      dup3\n        /* \"#utility.yul\":15845:15863   */\n      add\n        /* \"#utility.yul\":15837:15863   */\n      swap1\n      pop\n        /* \"#utility.yul\":15909:15918   */\n      dup2\n        /* \"#utility.yul\":15903:15907   */\n      dup2\n        /* \"#utility.yul\":15899:15919   */\n      sub\n        /* \"#utility.yul\":15895:15896   */\n      0x00\n        /* \"#utility.yul\":15884:15893   */\n      dup4\n        /* \"#utility.yul\":15880:15897   */\n      add\n        /* \"#utility.yul\":15873:15920   */\n      mstore\n        /* \"#utility.yul\":15937:16068   */\n      tag_367\n        /* \"#utility.yul\":16063:16067   */\n      dup2\n        /* \"#utility.yul\":15937:16068   */\n      tag_193\n      jump\t// in\n    tag_367:\n        /* \"#utility.yul\":15929:16068   */\n      swap1\n      pop\n        /* \"#utility.yul\":15656:16075   */\n      swap2\n      swap1\n      pop\n      jump\t// out\n        /* \"#utility.yul\":16081:16249   */\n    tag_194:\n        /* \"#utility.yul\":16221:16241   */\n      0x545745455420484153204e4f204c494b45530000000000000000000000000000\n        /* \"#utility.yul\":16217:16218   */\n      0x00\n        /* \"#utility.yul\":16209:16215   */\n      dup3\n        /* \"#utility.yul\":16205:16219   */\n      add\n        /* \"#utility.yul\":16198:16242   */\n      mstore\n        /* \"#utility.yul\":16081:16249   */\n      pop\n      jump\t// out\n        /* \"#utility.yul\":16255:16621   */\n    tag_195:\n        /* \"#utility.yul\":16397:16400   */\n      0x00\n        /* \"#utility.yul\":16418:16485   */\n      tag_370\n        /* \"#utility.yul\":16482:16484   */\n      0x12\n        /* \"#utility.yul\":16477:16480   */\n      dup4\n        /* \"#utility.yul\":16418:16485   */\n      tag_162\n      jump\t// in\n    tag_370:\n        /* \"#utility.yul\":16411:16485   */\n      swap2\n      pop\n        /* \"#utility.yul\":16494:16587   */\n      tag_371\n        /* \"#utility.yul\":16583:16586   */\n      dup3\n        /* \"#utility.yul\":16494:16587   */\n      tag_194\n      jump\t// in\n    tag_371:\n        /* \"#utility.yul\":16612:16614   */\n      0x20\n        /* \"#utility.yul\":16607:16610   */\n      dup3\n        /* \"#utility.yul\":16603:16615   */\n      add\n        /* \"#utility.yul\":16596:16615   */\n      swap1\n      pop\n        /* \"#utility.yul\":16255:16621   */\n      swap2\n      swap1\n      pop\n      jump\t// out\n        /* \"#utility.yul\":16627:17046   */\n    tag_89:\n        /* \"#utility.yul\":16793:16797   */\n      0x00\n        /* \"#utility.yul\":16831:16833   */\n      0x20\n        /* \"#utility.yul\":16820:16829   */\n      dup3\n        /* \"#utility.yul\":16816:16834   */\n      add\n        /* \"#utility.yul\":16808:16834   */\n      swap1\n      pop\n        /* \"#utility.yul\":16880:16889   */\n      dup2\n        /* \"#utility.yul\":16874:16878   */\n      dup2\n        /* \"#utility.yul\":16870:16890   */\n      sub\n        /* \"#utility.yul\":16866:16867   */\n      0x00\n        /* \"#utility.yul\":16855:16864   */\n      dup4\n        /* \"#utility.yul\":16851:16868   */\n      add\n        /* \"#utility.yul\":16844:16891   */\n      mstore\n        /* \"#utility.yul\":16908:17039   */\n      tag_373\n        /* \"#utility.yul\":17034:17038   */\n      dup2\n        /* \"#utility.yul\":16908:17039   */\n      tag_195\n      jump\t// in\n    tag_373:\n        /* \"#utility.yul\":16900:17039   */\n      swap1\n      pop\n        /* \"#utility.yul\":16627:17046   */\n      swap2\n      swap1\n      pop\n      jump\t// out\n        /* \"#utility.yul\":17052:17232   */\n    tag_196:\n        /* \"#utility.yul\":17100:17177   */\n      0x4e487b7100000000000000000000000000000000000000000000000000000000\n        /* \"#utility.yul\":17097:17098   */\n      0x00\n        /* \"#utility.yul\":17090:17178   */\n      mstore\n        /* \"#utility.yul\":17197:17201   */\n      0x11\n        /* \"#utility.yul\":17194:17195   */\n      0x04\n        /* \"#utility.yul\":17187:17202   */\n      mstore\n        /* \"#utility.yul\":17221:17225   */\n      0x24\n        /* \"#utility.yul\":17218:17219   */\n      0x00\n        /* \"#utility.yul\":17211:17226   */\n      revert\n        /* \"#utility.yul\":17238:17409   */\n    tag_94:\n        /* \"#utility.yul\":17277:17280   */\n      0x00\n        /* \"#utility.yul\":17300:17324   */\n      tag_376\n        /* \"#utility.yul\":17318:17323   */\n      dup3\n        /* \"#utility.yul\":17300:17324   */\n      tag_156\n      jump\t// in\n    tag_376:\n        /* \"#utility.yul\":17291:17324   */\n      swap2\n      pop\n        /* \"#utility.yul\":17346:17350   */\n      0x00\n        /* \"#utility.yul\":17339:17344   */\n      dup3\n        /* \"#utility.yul\":17336:17351   */\n      sub\n        /* \"#utility.yul\":17333:17374   */\n      tag_377\n      jumpi\n        /* \"#utility.yul\":17354:17372   */\n      tag_378\n      tag_196\n      jump\t// in\n    tag_378:\n        /* \"#utility.yul\":17333:17374   */\n    tag_377:\n        /* \"#utility.yul\":17401:17402   */\n      0x01\n        /* \"#utility.yul\":17394:17399   */\n      dup3\n        /* \"#utility.yul\":17390:17403   */\n      sub\n        /* \"#utility.yul\":17383:17403   */\n      swap1\n      pop\n        /* \"#utility.yul\":17238:17409   */\n      swap2\n      swap1\n      pop\n      jump\t// out\n        /* \"#utility.yul\":17415:17968   */\n    tag_99:\n        /* \"#utility.yul\":17592:17596   */\n      0x00\n        /* \"#utility.yul\":17630:17633   */\n      0x80\n        /* \"#utility.yul\":17619:17628   */\n      dup3\n        /* \"#utility.yul\":17615:17634   */\n      add\n        /* \"#utility.yul\":17607:17634   */\n      swap1\n      pop\n        /* \"#utility.yul\":17644:17715   */\n      tag_380\n        /* \"#utility.yul\":17712:17713   */\n      0x00\n        /* \"#utility.yul\":17701:17710   */\n      dup4\n        /* \"#utility.yul\":17697:17714   */\n      add\n        /* \"#utility.yul\":17688:17694   */\n      dup8\n        /* \"#utility.yul\":17644:17715   */\n      tag_160\n      jump\t// in\n    tag_380:\n        /* \"#utility.yul\":17725:17797   */\n      tag_381\n        /* \"#utility.yul\":17793:17795   */\n      0x20\n        /* \"#utility.yul\":17782:17791   */\n      dup4\n        /* \"#utility.yul\":17778:17796   */\n      add\n        /* \"#utility.yul\":17769:17775   */\n      dup7\n        /* \"#utility.yul\":17725:17797   */\n      tag_160\n      jump\t// in\n    tag_381:\n        /* \"#utility.yul\":17807:17879   */\n      tag_382\n        /* \"#utility.yul\":17875:17877   */\n      0x40\n        /* \"#utility.yul\":17864:17873   */\n      dup4\n        /* \"#utility.yul\":17860:17878   */\n      add\n        /* \"#utility.yul\":17851:17857   */\n      dup6\n        /* \"#utility.yul\":17807:17879   */\n      tag_159\n      jump\t// in\n    tag_382:\n        /* \"#utility.yul\":17889:17961   */\n      tag_383\n        /* \"#utility.yul\":17957:17959   */\n      0x60\n        /* \"#utility.yul\":17946:17955   */\n      dup4\n        /* \"#utility.yul\":17942:17960   */\n      add\n        /* \"#utility.yul\":17933:17939   */\n      dup5\n        /* \"#utility.yul\":17889:17961   */\n      tag_159\n      jump\t// in\n    tag_383:\n        /* \"#utility.yul\":17415:17968   */\n      swap6\n      swap5\n      pop\n      pop\n      pop\n      pop\n      pop\n      jump\t// out\n        /* \"#utility.yul\":17974:18146   */\n    tag_197:\n        /* \"#utility.yul\":18114:18138   */\n      0x594f5520415245204e4f5420544845204f574e45522100000000000000000000\n        /* \"#utility.yul\":18110:18111   */\n      0x00\n        /* \"#utility.yul\":18102:18108   */\n      dup3\n        /* \"#utility.yul\":18098:18112   */\n      add\n        /* \"#utility.yul\":18091:18139   */\n      mstore\n        /* \"#utility.yul\":17974:18146   */\n      pop\n      jump\t// out\n        /* \"#utility.yul\":18152:18518   */\n    tag_198:\n        /* \"#utility.yul\":18294:18297   */\n      0x00\n        /* \"#utility.yul\":18315:18382   */\n      tag_386\n        /* \"#utility.yul\":18379:18381   */\n      0x16\n        /* \"#utility.yul\":18374:18377   */\n      dup4\n        /* \"#utility.yul\":18315:18382   */\n      tag_162\n      jump\t// in\n    tag_386:\n        /* \"#utility.yul\":18308:18382   */\n      swap2\n      pop\n        /* \"#utility.yul\":18391:18484   */\n      tag_387\n        /* \"#utility.yul\":18480:18483   */\n      dup3\n        /* \"#utility.yul\":18391:18484   */\n      tag_197\n      jump\t// in\n    tag_387:\n        /* \"#utility.yul\":18509:18511   */\n      0x20\n        /* \"#utility.yul\":18504:18507   */\n      dup3\n        /* \"#utility.yul\":18500:18512   */\n      add\n        /* \"#utility.yul\":18493:18512   */\n      swap1\n      pop\n        /* \"#utility.yul\":18152:18518   */\n      swap2\n      swap1\n      pop\n      jump\t// out\n        /* \"#utility.yul\":18524:18943   */\n    tag_103:\n        /* \"#utility.yul\":18690:18694   */\n      0x00\n        /* \"#utility.yul\":18728:18730   */\n      0x20\n        /* \"#utility.yul\":18717:18726   */\n      dup3\n        /* \"#utility.yul\":18713:18731   */\n      add\n        /* \"#utility.yul\":18705:18731   */\n      swap1\n      pop\n        /* \"#utility.yul\":18777:18786   */\n      dup2\n        /* \"#utility.yul\":18771:18775   */\n      dup2\n        /* \"#utility.yul\":18767:18787   */\n      sub\n        /* \"#utility.yul\":18763:18764   */\n      0x00\n        /* \"#utility.yul\":18752:18761   */\n      dup4\n        /* \"#utility.yul\":18748:18765   */\n      add\n        /* \"#utility.yul\":18741:18788   */\n      mstore\n        /* \"#utility.yul\":18805:18936   */\n      tag_389\n        /* \"#utility.yul\":18931:18935   */\n      dup2\n        /* \"#utility.yul\":18805:18936   */\n      tag_198\n      jump\t// in\n    tag_389:\n        /* \"#utility.yul\":18797:18936   */\n      swap1\n      pop\n        /* \"#utility.yul\":18524:18943   */\n      swap2\n      swap1\n      pop\n      jump\t// out\n        /* \"#utility.yul\":18949:19182   */\n    tag_115:\n        /* \"#utility.yul\":18988:18991   */\n      0x00\n        /* \"#utility.yul\":19011:19035   */\n      tag_391\n        /* \"#utility.yul\":19029:19034   */\n      dup3\n        /* \"#utility.yul\":19011:19035   */\n      tag_156\n      jump\t// in\n    tag_391:\n        /* \"#utility.yul\":19002:19035   */\n      swap2\n      pop\n        /* \"#utility.yul\":19057:19123   */\n      0xffffffffffffffffffffffffffffffffffffffffffffffffffffffffffffffff\n        /* \"#utility.yul\":19050:19055   */\n      dup3\n        /* \"#utility.yul\":19047:19124   */\n      sub\n        /* \"#utility.yul\":19044:19147   */\n      tag_392\n      jumpi\n        /* \"#utility.yul\":19127:19145   */\n      tag_393\n      tag_196\n      jump\t// in\n    tag_393:\n        /* \"#utility.yul\":19044:19147   */\n    tag_392:\n        /* \"#utility.yul\":19174:19175   */\n      0x01\n        /* \"#utility.yul\":19167:19172   */\n      dup3\n        /* \"#utility.yul\":19163:19176   */\n      add\n        /* \"#utility.yul\":19156:19176   */\n      swap1\n      pop\n        /* \"#utility.yul\":18949:19182   */\n      swap2\n      swap1\n      pop\n      jump\t// out\n        /* \"#utility.yul\":19188:19360   */\n    tag_199:\n        /* \"#utility.yul\":19328:19352   */\n      0x547765657420697320746f6f206c6f6e672062726f2100000000000000000000\n        /* \"#utility.yul\":19324:19325   */\n      0x00\n        /* \"#utility.yul\":19316:19322   */\n      dup3\n        /* \"#utility.yul\":19312:19326   */\n      add\n        /* \"#utility.yul\":19305:19353   */\n      mstore\n        /* \"#utility.yul\":19188:19360   */\n      pop\n      jump\t// out\n        /* \"#utility.yul\":19366:19732   */\n    tag_200:\n        /* \"#utility.yul\":19508:19511   */\n      0x00\n        /* \"#utility.yul\":19529:19596   */\n      tag_396\n        /* \"#utility.yul\":19593:19595   */\n      0x16\n        /* \"#utility.yul\":19588:19591   */\n      dup4\n        /* \"#utility.yul\":19529:19596   */\n      tag_162\n      jump\t// in\n    tag_396:\n        /* \"#utility.yul\":19522:19596   */\n      swap2\n      pop\n        /* \"#utility.yul\":19605:19698   */\n      tag_397\n        /* \"#utility.yul\":19694:19697   */\n      dup3\n        /* \"#utility.yul\":19605:19698   */\n      tag_199\n      jump\t// in\n    tag_397:\n        /* \"#utility.yul\":19723:19725   */\n      0x20\n        /* \"#utility.yul\":19718:19721   */\n      dup3\n        /* \"#utility.yul\":19714:19726   */\n      add\n        /* \"#utility.yul\":19707:19726   */\n      swap1\n      pop\n        /* \"#utility.yul\":19366:19732   */\n      swap2\n      swap1\n      pop\n      jump\t// out\n        /* \"#utility.yul\":19738:20157   */\n    tag_123:\n        /* \"#utility.yul\":19904:19908   */\n      0x00\n        /* \"#utility.yul\":19942:19944   */\n      0x20\n        /* \"#utility.yul\":19931:19940   */\n      dup3\n        /* \"#utility.yul\":19927:19945   */\n      add\n        /* \"#utility.yul\":19919:19945   */\n      swap1\n      pop\n        /* \"#utility.yul\":19991:20000   */\n      dup2\n        /* \"#utility.yul\":19985:19989   */\n      dup2\n        /* \"#utility.yul\":19981:20001   */\n      sub\n        /* \"#utility.yul\":19977:19978   */\n      0x00\n        /* \"#utility.yul\":19966:19975   */\n      dup4\n        /* \"#utility.yul\":19962:19979   */\n      add\n        /* \"#utility.yul\":19955:20002   */\n      mstore\n        /* \"#utility.yul\":20019:20150   */\n      tag_399\n        /* \"#utility.yul\":20145:20149   */\n      dup2\n        /* \"#utility.yul\":20019:20150   */\n      tag_200\n      jump\t// in\n    tag_399:\n        /* \"#utility.yul\":20011:20150   */\n      swap1\n      pop\n        /* \"#utility.yul\":19738:20157   */\n      swap2\n      swap1\n      pop\n      jump\t// out\n        /* \"#utility.yul\":20163:20304   */\n    tag_201:\n        /* \"#utility.yul\":20212:20216   */\n      0x00\n        /* \"#utility.yul\":20235:20238   */\n      dup2\n        /* \"#utility.yul\":20227:20238   */\n      swap1\n      pop\n        /* \"#utility.yul\":20258:20261   */\n      dup2\n        /* \"#utility.yul\":20255:20256   */\n      0x00\n        /* \"#utility.yul\":20248:20262   */\n      mstore\n        /* \"#utility.yul\":20292:20296   */\n      0x20\n        /* \"#utility.yul\":20289:20290   */\n      0x00\n        /* \"#utility.yul\":20279:20297   */\n      keccak256\n        /* \"#utility.yul\":20271:20297   */\n      swap1\n      pop\n        /* \"#utility.yul\":20163:20304   */\n      swap2\n      swap1\n      pop\n      jump\t// out\n        /* \"#utility.yul\":20310:20403   */\n    tag_202:\n        /* \"#utility.yul\":20347:20353   */\n      0x00\n        /* \"#utility.yul\":20394:20396   */\n      0x20\n        /* \"#utility.yul\":20389:20391   */\n      0x1f\n        /* \"#utility.yul\":20382:20387   */\n      dup4\n        /* \"#utility.yul\":20378:20392   */\n      add\n        /* \"#utility.yul\":20374:20397   */\n      div\n        /* \"#utility.yul\":20364:20397   */\n      swap1\n      pop\n        /* \"#utility.yul\":20310:20403   */\n      swap2\n      swap1\n      pop\n      jump\t// out\n        /* \"#utility.yul\":20409:20516   */\n    tag_203:\n        /* \"#utility.yul\":20453:20461   */\n      0x00\n        /* \"#utility.yul\":20503:20508   */\n      dup3\n        /* \"#utility.yul\":20497:20501   */\n      dup3\n        /* \"#utility.yul\":20493:20509   */\n      shl\n        /* \"#utility.yul\":20472:20509   */\n      swap1\n      pop\n        /* \"#utility.yul\":20409:20516   */\n      swap3\n      swap2\n      pop\n      pop\n      jump\t// out\n        /* \"#utility.yul\":20522:20915   */\n    tag_204:\n        /* \"#utility.yul\":20591:20597   */\n      0x00\n        /* \"#utility.yul\":20641:20642   */\n      0x08\n        /* \"#utility.yul\":20629:20639   */\n      dup4\n        /* \"#utility.yul\":20625:20643   */\n      mul\n        /* \"#utility.yul\":20664:20761   */\n      tag_404\n        /* \"#utility.yul\":20694:20760   */\n      0xffffffffffffffffffffffffffffffffffffffffffffffffffffffffffffffff\n        /* \"#utility.yul\":20683:20692   */\n      dup3\n        /* \"#utility.yul\":20664:20761   */\n      tag_203\n      jump\t// in\n    tag_404:\n        /* \"#utility.yul\":20782:20821   */\n      tag_405\n        /* \"#utility.yul\":20812:20820   */\n      dup7\n        /* \"#utility.yul\":20801:20810   */\n      dup4\n        /* \"#utility.yul\":20782:20821   */\n      tag_203\n      jump\t// in\n    tag_405:\n        /* \"#utility.yul\":20770:20821   */\n      swap6\n      pop\n        /* \"#utility.yul\":20854:20858   */\n      dup1\n        /* \"#utility.yul\":20850:20859   */\n      not\n        /* \"#utility.yul\":20843:20848   */\n      dup5\n        /* \"#utility.yul\":20839:20860   */\n      and\n        /* \"#utility.yul\":20830:20860   */\n      swap4\n      pop\n        /* \"#utility.yul\":20903:20907   */\n      dup1\n        /* \"#utility.yul\":20893:20901   */\n      dup7\n        /* \"#utility.yul\":20889:20908   */\n      and\n        /* \"#utility.yul\":20882:20887   */\n      dup5\n        /* \"#utility.yul\":20879:20909   */\n      or\n        /* \"#utility.yul\":20869:20909   */\n      swap3\n      pop\n        /* \"#utility.yul\":20598:20915   */\n      pop\n      pop\n        /* \"#utility.yul\":20522:20915   */\n      swap4\n      swap3\n      pop\n      pop\n      pop\n      jump\t// out\n        /* \"#utility.yul\":20921:20981   */\n    tag_205:\n        /* \"#utility.yul\":20949:20952   */\n      0x00\n        /* \"#utility.yul\":20970:20975   */\n      dup2\n        /* \"#utility.yul\":20963:20975   */\n      swap1\n      pop\n        /* \"#utility.yul\":20921:20981   */\n      swap2\n      swap1\n      pop\n      jump\t// out\n        /* \"#utility.yul\":20987:21129   */\n    tag_206:\n        /* \"#utility.yul\":21037:21046   */\n      0x00\n        /* \"#utility.yul\":21070:21123   */\n      tag_408\n        /* \"#utility.yul\":21088:21122   */\n      tag_409\n        /* \"#utility.yul\":21097:21121   */\n      tag_410\n        /* \"#utility.yul\":21115:21120   */\n      dup5\n        /* \"#utility.yul\":21097:21121   */\n      tag_156\n      jump\t// in\n    tag_410:\n        /* \"#utility.yul\":21088:21122   */\n      tag_205\n      jump\t// in\n    tag_409:\n        /* \"#utility.yul\":21070:21123   */\n      tag_156\n      jump\t// in\n    tag_408:\n        /* \"#utility.yul\":21057:21123   */\n      swap1\n      pop\n        /* \"#utility.yul\":20987:21129   */\n      swap2\n      swap1\n      pop\n      jump\t// out\n        /* \"#utility.yul\":21135:21210   */\n    tag_207:\n        /* \"#utility.yul\":21178:21181   */\n      0x00\n        /* \"#utility.yul\":21199:21204   */\n      dup2\n        /* \"#utility.yul\":21192:21204   */\n      swap1\n      pop\n        /* \"#utility.yul\":21135:21210   */\n      swap2\n      swap1\n      pop\n      jump\t// out\n        /* \"#utility.yul\":21216:21485   */\n    tag_208:\n        /* \"#utility.yul\":21326:21365   */\n      tag_413\n        /* \"#utility.yul\":21357:21364   */\n      dup4\n        /* \"#utility.yul\":21326:21365   */\n      tag_206\n      jump\t// in\n    tag_413:\n        /* \"#utility.yul\":21387:21478   */\n      tag_414\n        /* \"#utility.yul\":21436:21477   */\n      tag_415\n        /* \"#utility.yul\":21460:21476   */\n      dup3\n        /* \"#utility.yul\":21436:21477   */\n      tag_207\n      jump\t// in\n    tag_415:\n        /* \"#utility.yul\":21428:21434   */\n      dup5\n        /* \"#utility.yul\":21421:21425   */\n      dup5\n        /* \"#utility.yul\":21415:21426   */\n      sload\n        /* \"#utility.yul\":21387:21478   */\n      tag_204\n      jump\t// in\n    tag_414:\n        /* \"#utility.yul\":21381:21385   */\n      dup3\n        /* \"#utility.yul\":21374:21479   */\n      sstore\n        /* \"#utility.yul\":21292:21485   */\n      pop\n        /* \"#utility.yul\":21216:21485   */\n      pop\n      pop\n      pop\n      jump\t// out\n        /* \"#utility.yul\":21491:21564   */\n    tag_209:\n        /* \"#utility.yul\":21536:21539   */\n      0x00\n        /* \"#utility.yul\":21491:21564   */\n      swap1\n      jump\t// out\n        /* \"#utility.yul\":21570:21759   */\n    tag_210:\n        /* \"#utility.yul\":21647:21679   */\n      tag_418\n      tag_209\n      jump\t// in\n    tag_418:\n        /* \"#utility.yul\":21688:21753   */\n      tag_419\n        /* \"#utility.yul\":21746:21752   */\n      dup2\n        /* \"#utility.yul\":21738:21744   */\n      dup5\n        /* \"#utility.yul\":21732:21736   */\n      dup5\n        /* \"#utility.yul\":21688:21753   */\n      tag_208\n      jump\t// in\n    tag_419:\n        /* \"#utility.yul\":21623:21759   */\n      pop\n        /* \"#utility.yul\":21570:21759   */\n      pop\n      pop\n      jump\t// out\n        /* \"#utility.yul\":21765:21951   */\n    tag_211:\n        /* \"#utility.yul\":21825:21945   */\n    tag_421:\n        /* \"#utility.yul\":21842:21845   */\n      dup2\n        /* \"#utility.yul\":21835:21840   */\n      dup2\n        /* \"#utility.yul\":21832:21846   */\n      lt\n        /* \"#utility.yul\":21825:21945   */\n      iszero\n      tag_423\n      jumpi\n        /* \"#utility.yul\":21896:21935   */\n      tag_424\n        /* \"#utility.yul\":21933:21934   */\n      0x00\n        /* \"#utility.yul\":21926:21931   */\n      dup3\n        /* \"#utility.yul\":21896:21935   */\n      tag_210\n      jump\t// in\n    tag_424:\n        /* \"#utility.yul\":21869:21870   */\n      0x01\n        /* \"#utility.yul\":21862:21867   */\n      dup2\n        /* \"#utility.yul\":21858:21871   */\n      add\n        /* \"#utility.yul\":21849:21871   */\n      swap1\n      pop\n        /* \"#utility.yul\":21825:21945   */\n      jump(tag_421)\n    tag_423:\n        /* \"#utility.yul\":21765:21951   */\n      pop\n      pop\n      jump\t// out\n        /* \"#utility.yul\":21957:22500   */\n    tag_212:\n        /* \"#utility.yul\":22058:22060   */\n      0x1f\n        /* \"#utility.yul\":22053:22056   */\n      dup3\n        /* \"#utility.yul\":22050:22061   */\n      gt\n        /* \"#utility.yul\":22047:22493   */\n      iszero\n      tag_426\n      jumpi\n        /* \"#utility.yul\":22092:22130   */\n      tag_427\n        /* \"#utility.yul\":22124:22129   */\n      dup2\n        /* \"#utility.yul\":22092:22130   */\n      tag_201\n      jump\t// in\n    tag_427:\n        /* \"#utility.yul\":22176:22205   */\n      tag_428\n        /* \"#utility.yul\":22194:22204   */\n      dup5\n        /* \"#utility.yul\":22176:22205   */\n      tag_202\n      jump\t// in\n    tag_428:\n        /* \"#utility.yul\":22166:22174   */\n      dup2\n        /* \"#utility.yul\":22162:22206   */\n      add\n        /* \"#utility.yul\":22359:22361   */\n      0x20\n        /* \"#utility.yul\":22347:22357   */\n      dup6\n        /* \"#utility.yul\":22344:22362   */\n      lt\n        /* \"#utility.yul\":22341:22390   */\n      iszero\n      tag_429\n      jumpi\n        /* \"#utility.yul\":22380:22388   */\n      dup2\n        /* \"#utility.yul\":22365:22388   */\n      swap1\n      pop\n        /* \"#utility.yul\":22341:22390   */\n    tag_429:\n        /* \"#utility.yul\":22403:22483   */\n      tag_430\n        /* \"#utility.yul\":22459:22481   */\n      tag_431\n        /* \"#utility.yul\":22477:22480   */\n      dup6\n        /* \"#utility.yul\":22459:22481   */\n      tag_202\n      jump\t// in\n    tag_431:\n        /* \"#utility.yul\":22449:22457   */\n      dup4\n        /* \"#utility.yul\":22445:22482   */\n      add\n        /* \"#utility.yul\":22432:22443   */\n      dup3\n        /* \"#utility.yul\":22403:22483   */\n      tag_211\n      jump\t// in\n    tag_430:\n        /* \"#utility.yul\":22062:22493   */\n      pop\n      pop\n        /* \"#utility.yul\":22047:22493   */\n    tag_426:\n        /* \"#utility.yul\":21957:22500   */\n      pop\n      pop\n      pop\n      jump\t// out\n        /* \"#utility.yul\":22506:22623   */\n    tag_213:\n        /* \"#utility.yul\":22560:22568   */\n      0x00\n        /* \"#utility.yul\":22610:22615   */\n      dup3\n        /* \"#utility.yul\":22604:22608   */\n      dup3\n        /* \"#utility.yul\":22600:22616   */\n      shr\n        /* \"#utility.yul\":22579:22616   */\n      swap1\n      pop\n        /* \"#utility.yul\":22506:22623   */\n      swap3\n      swap2\n      pop\n      pop\n      jump\t// out\n        /* \"#utility.yul\":22629:22798   */\n    tag_214:\n        /* \"#utility.yul\":22673:22679   */\n      0x00\n        /* \"#utility.yul\":22706:22757   */\n      tag_434\n        /* \"#utility.yul\":22754:22755   */\n      0x00\n        /* \"#utility.yul\":22750:22756   */\n      not\n        /* \"#utility.yul\":22742:22747   */\n      dup5\n        /* \"#utility.yul\":22739:22740   */\n      0x08\n        /* \"#utility.yul\":22735:22748   */\n      mul\n        /* \"#utility.yul\":22706:22757   */\n      tag_213\n      jump\t// in\n    tag_434:\n        /* \"#utility.yul\":22702:22758   */\n      not\n        /* \"#utility.yul\":22787:22791   */\n      dup1\n        /* \"#utility.yul\":22781:22785   */\n      dup4\n        /* \"#utility.yul\":22777:22792   */\n      and\n        /* \"#utility.yul\":22767:22792   */\n      swap2\n      pop\n        /* \"#utility.yul\":22680:22798   */\n      pop\n        /* \"#utility.yul\":22629:22798   */\n      swap3\n      swap2\n      pop\n      pop\n      jump\t// out\n        /* \"#utility.yul\":22803:23098   */\n    tag_215:\n        /* \"#utility.yul\":22879:22883   */\n      0x00\n        /* \"#utility.yul\":23025:23054   */\n      tag_436\n        /* \"#utility.yul\":23050:23053   */\n      dup4\n        /* \"#utility.yul\":23044:23048   */\n      dup4\n        /* \"#utility.yul\":23025:23054   */\n      tag_214\n      jump\t// in\n    tag_436:\n        /* \"#utility.yul\":23017:23054   */\n      swap2\n      pop\n        /* \"#utility.yul\":23087:23090   */\n      dup3\n        /* \"#utility.yul\":23084:23085   */\n      0x02\n        /* \"#utility.yul\":23080:23091   */\n      mul\n        /* \"#utility.yul\":23074:23078   */\n      dup3\n        /* \"#utility.yul\":23071:23092   */\n      or\n        /* \"#utility.yul\":23063:23092   */\n      swap1\n      pop\n        /* \"#utility.yul\":22803:23098   */\n      swap3\n      swap2\n      pop\n      pop\n      jump\t// out\n        /* \"#utility.yul\":23103:24498   */\n    tag_126:\n        /* \"#utility.yul\":23220:23257   */\n      tag_438\n        /* \"#utility.yul\":23253:23256   */\n      dup3\n        /* \"#utility.yul\":23220:23257   */\n      tag_161\n      jump\t// in\n    tag_438:\n        /* \"#utility.yul\":23322:23340   */\n      0xffffffffffffffff\n        /* \"#utility.yul\":23314:23320   */\n      dup2\n        /* \"#utility.yul\":23311:23341   */\n      gt\n        /* \"#utility.yul\":23308:23364   */\n      iszero\n      tag_439\n      jumpi\n        /* \"#utility.yul\":23344:23362   */\n      tag_440\n      tag_183\n      jump\t// in\n    tag_440:\n        /* \"#utility.yul\":23308:23364   */\n    tag_439:\n        /* \"#utility.yul\":23388:23426   */\n      tag_441\n        /* \"#utility.yul\":23420:23424   */\n      dup3\n        /* \"#utility.yul\":23414:23425   */\n      sload\n        /* \"#utility.yul\":23388:23426   */\n      tag_62\n      jump\t// in\n    tag_441:\n        /* \"#utility.yul\":23473:23540   */\n      tag_442\n        /* \"#utility.yul\":23533:23539   */\n      dup3\n        /* \"#utility.yul\":23525:23531   */\n      dup3\n        /* \"#utility.yul\":23519:23523   */\n      dup6\n        /* \"#utility.yul\":23473:23540   */\n      tag_212\n      jump\t// in\n    tag_442:\n        /* \"#utility.yul\":23567:23568   */\n      0x00\n        /* \"#utility.yul\":23591:23595   */\n      0x20\n        /* \"#utility.yul\":23578:23595   */\n      swap1\n      pop\n        /* \"#utility.yul\":23623:23625   */\n      0x1f\n        /* \"#utility.yul\":23615:23621   */\n      dup4\n        /* \"#utility.yul\":23612:23626   */\n      gt\n        /* \"#utility.yul\":23640:23641   */\n      0x01\n        /* \"#utility.yul\":23635:24253   */\n      dup2\n      eq\n      tag_444\n      jumpi\n        /* \"#utility.yul\":24297:24298   */\n      0x00\n        /* \"#utility.yul\":24314:24320   */\n      dup5\n        /* \"#utility.yul\":24311:24388   */\n      iszero\n      tag_445\n      jumpi\n        /* \"#utility.yul\":24363:24372   */\n      dup3\n        /* \"#utility.yul\":24358:24361   */\n      dup8\n        /* \"#utility.yul\":24354:24373   */\n      add\n        /* \"#utility.yul\":24348:24374   */\n      mload\n        /* \"#utility.yul\":24339:24374   */\n      swap1\n      pop\n        /* \"#utility.yul\":24311:24388   */\n    tag_445:\n        /* \"#utility.yul\":24414:24481   */\n      tag_446\n        /* \"#utility.yul\":24474:24480   */\n      dup6\n        /* \"#utility.yul\":24467:24472   */\n      dup3\n        /* \"#utility.yul\":24414:24481   */\n      tag_215\n      jump\t// in\n    tag_446:\n        /* \"#utility.yul\":24408:24412   */\n      dup7\n        /* \"#utility.yul\":24401:24482   */\n      sstore\n        /* \"#utility.yul\":24270:24492   */\n      pop\n        /* \"#utility.yul\":23605:24492   */\n      jump(tag_443)\n        /* \"#utility.yul\":23635:24253   */\n    tag_444:\n        /* \"#utility.yul\":23687:23691   */\n      0x1f\n        /* \"#utility.yul\":23683:23692   */\n      not\n        /* \"#utility.yul\":23675:23681   */\n      dup5\n        /* \"#utility.yul\":23671:23693   */\n      and\n        /* \"#utility.yul\":23721:23758   */\n      tag_447\n        /* \"#utility.yul\":23753:23757   */\n      dup7\n        /* \"#utility.yul\":23721:23758   */\n      tag_201\n      jump\t// in\n    tag_447:\n        /* \"#utility.yul\":23780:23781   */\n      0x00\n        /* \"#utility.yul\":23794:24002   */\n    tag_448:\n        /* \"#utility.yul\":23808:23815   */\n      dup3\n        /* \"#utility.yul\":23805:23806   */\n      dup2\n        /* \"#utility.yul\":23802:23816   */\n      lt\n        /* \"#utility.yul\":23794:24002   */\n      iszero\n      tag_450\n      jumpi\n        /* \"#utility.yul\":23887:23896   */\n      dup5\n        /* \"#utility.yul\":23882:23885   */\n      dup10\n        /* \"#utility.yul\":23878:23897   */\n      add\n        /* \"#utility.yul\":23872:23898   */\n      mload\n        /* \"#utility.yul\":23864:23870   */\n      dup3\n        /* \"#utility.yul\":23857:23899   */\n      sstore\n        /* \"#utility.yul\":23938:23939   */\n      0x01\n        /* \"#utility.yul\":23930:23936   */\n      dup3\n        /* \"#utility.yul\":23926:23940   */\n      add\n        /* \"#utility.yul\":23916:23940   */\n      swap2\n      pop\n        /* \"#utility.yul\":23985:23987   */\n      0x20\n        /* \"#utility.yul\":23974:23983   */\n      dup6\n        /* \"#utility.yul\":23970:23988   */\n      add\n        /* \"#utility.yul\":23957:23988   */\n      swap5\n      pop\n        /* \"#utility.yul\":23831:23835   */\n      0x20\n        /* \"#utility.yul\":23828:23829   */\n      dup2\n        /* \"#utility.yul\":23824:23836   */\n      add\n        /* \"#utility.yul\":23819:23836   */\n      swap1\n      pop\n        /* \"#utility.yul\":23794:24002   */\n      jump(tag_448)\n    tag_450:\n        /* \"#utility.yul\":24030:24036   */\n      dup7\n        /* \"#utility.yul\":24021:24028   */\n      dup4\n        /* \"#utility.yul\":24018:24037   */\n      lt\n        /* \"#utility.yul\":24015:24194   */\n      iszero\n      tag_451\n      jumpi\n        /* \"#utility.yul\":24088:24097   */\n      dup5\n        /* \"#utility.yul\":24083:24086   */\n      dup10\n        /* \"#utility.yul\":24079:24098   */\n      add\n        /* \"#utility.yul\":24073:24099   */\n      mload\n        /* \"#utility.yul\":24131:24179   */\n      tag_452\n        /* \"#utility.yul\":24173:24177   */\n      0x1f\n        /* \"#utility.yul\":24165:24171   */\n      dup10\n        /* \"#utility.yul\":24161:24178   */\n      and\n        /* \"#utility.yul\":24150:24159   */\n      dup3\n        /* \"#utility.yul\":24131:24179   */\n      tag_214\n      jump\t// in\n    tag_452:\n        /* \"#utility.yul\":24123:24129   */\n      dup4\n        /* \"#utility.yul\":24116:24180   */\n      sstore\n        /* \"#utility.yul\":24038:24194   */\n      pop\n        /* \"#utility.yul\":24015:24194   */\n    tag_451:\n        /* \"#utility.yul\":24240:24241   */\n      0x01\n        /* \"#utility.yul\":24236:24237   */\n      0x02\n        /* \"#utility.yul\":24228:24234   */\n      dup9\n        /* \"#utility.yul\":24224:24238   */\n      mul\n        /* \"#utility.yul\":24220:24242   */\n      add\n        /* \"#utility.yul\":24214:24218   */\n      dup9\n        /* \"#utility.yul\":24207:24243   */\n      sstore\n        /* \"#utility.yul\":23642:24253   */\n      pop\n      pop\n      pop\n        /* \"#utility.yul\":23605:24492   */\n    tag_443:\n      pop\n        /* \"#utility.yul\":23195:24498   */\n      pop\n      pop\n      pop\n        /* \"#utility.yul\":23103:24498   */\n      pop\n      pop\n      jump\t// out\n        /* \"#utility.yul\":24504:25148   */\n    tag_128:\n        /* \"#utility.yul\":24701:24705   */\n      0x00\n        /* \"#utility.yul\":24739:24742   */\n      0x80\n        /* \"#utility.yul\":24728:24737   */\n      dup3\n        /* \"#utility.yul\":24724:24743   */\n      add\n        /* \"#utility.yul\":24716:24743   */\n      swap1\n      pop\n        /* \"#utility.yul\":24753:24824   */\n      tag_454\n        /* \"#utility.yul\":24821:24822   */\n      0x00\n        /* \"#utility.yul\":24810:24819   */\n      dup4\n        /* \"#utility.yul\":24806:24823   */\n      add\n        /* \"#utility.yul\":24797:24803   */\n      dup8\n        /* \"#utility.yul\":24753:24824   */\n      tag_159\n      jump\t// in\n    tag_454:\n        /* \"#utility.yul\":24834:24906   */\n      tag_455\n        /* \"#utility.yul\":24902:24904   */\n      0x20\n        /* \"#utility.yul\":24891:24900   */\n      dup4\n        /* \"#utility.yul\":24887:24905   */\n      add\n        /* \"#utility.yul\":24878:24884   */\n      dup7\n        /* \"#utility.yul\":24834:24906   */\n      tag_160\n      jump\t// in\n    tag_455:\n        /* \"#utility.yul\":24953:24962   */\n      dup2\n        /* \"#utility.yul\":24947:24951   */\n      dup2\n        /* \"#utility.yul\":24943:24963   */\n      sub\n        /* \"#utility.yul\":24938:24940   */\n      0x40\n        /* \"#utility.yul\":24927:24936   */\n      dup4\n        /* \"#utility.yul\":24923:24941   */\n      add\n        /* \"#utility.yul\":24916:24964   */\n      mstore\n        /* \"#utility.yul\":24981:25059   */\n      tag_456\n        /* \"#utility.yul\":25054:25058   */\n      dup2\n        /* \"#utility.yul\":25045:25051   */\n      dup6\n        /* \"#utility.yul\":24981:25059   */\n      tag_165\n      jump\t// in\n    tag_456:\n        /* \"#utility.yul\":24973:25059   */\n      swap1\n      pop\n        /* \"#utility.yul\":25069:25141   */\n      tag_457\n        /* \"#utility.yul\":25137:25139   */\n      0x60\n        /* \"#utility.yul\":25126:25135   */\n      dup4\n        /* \"#utility.yul\":25122:25140   */\n      add\n        /* \"#utility.yul\":25113:25119   */\n      dup5\n        /* \"#utility.yul\":25069:25141   */\n      tag_159\n      jump\t// in\n    tag_457:\n        /* \"#utility.yul\":24504:25148   */\n      swap6\n      swap5\n      pop\n      pop\n      pop\n      pop\n      pop\n      jump\t// out\n        /* \"#utility.yul\":25154:25345   */\n    tag_137:\n        /* \"#utility.yul\":25194:25197   */\n      0x00\n        /* \"#utility.yul\":25213:25233   */\n      tag_459\n        /* \"#utility.yul\":25231:25232   */\n      dup3\n        /* \"#utility.yul\":25213:25233   */\n      tag_156\n      jump\t// in\n    tag_459:\n        /* \"#utility.yul\":25208:25233   */\n      swap2\n      pop\n        /* \"#utility.yul\":25247:25267   */\n      tag_460\n        /* \"#utility.yul\":25265:25266   */\n      dup4\n        /* \"#utility.yul\":25247:25267   */\n      tag_156\n      jump\t// in\n    tag_460:\n        /* \"#utility.yul\":25242:25267   */\n      swap3\n      pop\n        /* \"#utility.yul\":25290:25291   */\n      dup3\n        /* \"#utility.yul\":25287:25288   */\n      dup3\n        /* \"#utility.yul\":25283:25292   */\n      add\n        /* \"#utility.yul\":25276:25292   */\n      swap1\n      pop\n        /* \"#utility.yul\":25311:25314   */\n      dup1\n        /* \"#utility.yul\":25308:25309   */\n      dup3\n        /* \"#utility.yul\":25305:25315   */\n      gt\n        /* \"#utility.yul\":25302:25338   */\n      iszero\n      tag_461\n      jumpi\n        /* \"#utility.yul\":25318:25336   */\n      tag_462\n      tag_196\n      jump\t// in\n    tag_462:\n        /* \"#utility.yul\":25302:25338   */\n    tag_461:\n        /* \"#utility.yul\":25154:25345   */\n      swap3\n      swap2\n      pop\n      pop\n      jump\t// out\n\n    auxdata: 0xa264697066735822122084cdc501d3d6a46569f3734eeb98dca14f0ce4acb8f45effe0bbe9567138178e64736f6c634300081a0033\n}\n",
				"bytecode": {
					"linkReferences": {},
					"object": "60806040526101185f806101000a81548161ffff021916908361ffff160217905550348015602b575f80fd5b503360025f6101000a81548173ffffffffffffffffffffffffffffffffffffffff021916908373ffffffffffffffffffffffffffffffffffffffff160217905550611ac0806100795f395ff3fe608060405234801561000f575f80fd5b506004361061009c575f3560e01c80636eb10797116100645780636eb10797146101585780637c9cd2bc14610176578063820785cc146101925780638da5cb5b146101c2578063c3ad5ecb146101e05761009c565b806305a1b4a9146100a057806312e7ee1c146100d45780633d9b569f1461010457806358bfa4ab14610120578063633782161461013c575b5f80fd5b6100ba60048036038101906100b59190610ea9565b610210565b6040516100cb959493929190610f75565b60405180910390f35b6100ee60048036038101906100e99190610fcd565b610301565b6040516100fb919061118c565b60405180910390f35b61011e60048036038101906101199190610ea9565b61049c565b005b61013a600480360381019061013591906111e3565b6106ed565b005b61015660048036038101906101519190610ea9565b61079a565b005b61016061094b565b60405161016d919061121d565b60405180910390f35b610190600480360381019061018b9190611362565b61095c565b005b6101ac60048036038101906101a79190610fcd565b610b5f565b6040516101b991906113a9565b60405180910390f35b6101ca610c2e565b6040516101d791906113c2565b60405180910390f35b6101fa60048036038101906101f591906113db565b610c53565b6040516102079190611479565b60405180910390f35b6001602052815f5260405f208181548110610229575f80fd5b905f5260205f2090600502015f9150915050805f015490806001015f9054906101000a900473ffffffffffffffffffffffffffffffffffffffff1690806002018054610274906114c6565b80601f01602080910402602001604051908101604052809291908181526020018280546102a0906114c6565b80156102eb5780601f106102c2576101008083540402835291602001916102eb565b820191905f5260205f20905b8154815290600101906020018083116102ce57829003601f168201915b5050505050908060030154908060040154905085565b606060015f8373ffffffffffffffffffffffffffffffffffffffff1673ffffffffffffffffffffffffffffffffffffffff1681526020019081526020015f20805480602002602001604051908101604052809291908181526020015f905b82821015610491578382905f5260205f2090600502016040518060a00160405290815f8201548152602001600182015f9054906101000a900473ffffffffffffffffffffffffffffffffffffffff1673ffffffffffffffffffffffffffffffffffffffff1673ffffffffffffffffffffffffffffffffffffffff1681526020016002820180546103ee906114c6565b80601f016020809104026020016040519081016040528092919081815260200182805461041a906114c6565b80156104655780601f1061043c57610100808354040283529160200191610465565b820191905f5260205f20905b81548152906001019060200180831161044857829003601f168201915b50505050508152602001600382015481526020016004820154815250508152602001906001019061035f565b505050509050919050565b8060015f8473ffffffffffffffffffffffffffffffffffffffff1673ffffffffffffffffffffffffffffffffffffffff1681526020019081526020015f2082815481106104ec576104eb6114f6565b5b905f5260205f2090600502015f01541461053b576040517f08c379a00000000000000000000000000000000000000000000000000000000081526004016105329061156d565b60405180910390fd5b5f60015f8473ffffffffffffffffffffffffffffffffffffffff1673ffffffffffffffffffffffffffffffffffffffff1681526020019081526020015f20828154811061058b5761058a6114f6565b5b905f5260205f20906005020160040154116105db576040517f08c379a00000000000000000000000000000000000000000000000000000000081526004016105d2906115d5565b60405180910390fd5b60015f8373ffffffffffffffffffffffffffffffffffffffff1673ffffffffffffffffffffffffffffffffffffffff1681526020019081526020015f20818154811061062a576106296114f6565b5b905f5260205f2090600502016004015f81548092919061064990611620565b91905055507f762c2616349603ac16eba0de8e6141b79129a07ab63bd99e0a80b3a47171694333838360015f8773ffffffffffffffffffffffffffffffffffffffff1673ffffffffffffffffffffffffffffffffffffffff1681526020019081526020015f2085815481106106c1576106c06114f6565b5b905f5260205f209060050201600401546040516106e19493929190611647565b60405180910390a15050565b60025f9054906101000a900473ffffffffffffffffffffffffffffffffffffffff1673ffffffffffffffffffffffffffffffffffffffff163373ffffffffffffffffffffffffffffffffffffffff161461077c576040517f08c379a0000000000000000000000000000000000000000000000000000000008152600401610773906116d4565b60405180910390fd5b805f806101000a81548161ffff021916908361ffff16021790555050565b8060015f8473ffffffffffffffffffffffffffffffffffffffff1673ffffffffffffffffffffffffffffffffffffffff1681526020019081526020015f2082815481106107ea576107e96114f6565b5b905f5260205f2090600502015f015414610839576040517f08c379a00000000000000000000000000000000000000000000000000000000081526004016108309061156d565b60405180910390fd5b60015f8373ffffffffffffffffffffffffffffffffffffffff1673ffffffffffffffffffffffffffffffffffffffff1681526020019081526020015f208181548110610888576108876114f6565b5b905f5260205f2090600502016004015f8154809291906108a7906116f2565b91905055507fe8a76fc0f16d11a00d1e93b689b63d76cf60af914dd3d915375dc41d01a0c3c833838360015f8773ffffffffffffffffffffffffffffffffffffffff1673ffffffffffffffffffffffffffffffffffffffff1681526020019081526020015f20858154811061091f5761091e6114f6565b5b905f5260205f2090600502016004015460405161093f9493929190611647565b60405180910390a15050565b5f8054906101000a900461ffff1681565b5f8054906101000a900461ffff1661ffff16815111156109b1576040517f08c379a00000000000000000000000000000000000000000000000000000000081526004016109a890611783565b60405180910390fd5b5f6040518060a0016040528060015f3373ffffffffffffffffffffffffffffffffffffffff1673ffffffffffffffffffffffffffffffffffffffff1681526020019081526020015f208054905081526020013373ffffffffffffffffffffffffffffffffffffffff1681526020018381526020014281526020015f815250905060015f3373ffffffffffffffffffffffffffffffffffffffff1673ffffffffffffffffffffffffffffffffffffffff1681526020019081526020015f2081908060018154018082558091505060019003905f5260205f2090600502015f909190919091505f820151815f01556020820151816001015f6101000a81548173ffffffffffffffffffffffffffffffffffffffff021916908373ffffffffffffffffffffffffffffffffffffffff1602179055506040820151816002019081610af8919061193e565b50606082015181600301556080820151816004015550507f16fd3c13e9d46923e0a8bce11c7b473ec508a72e6c96cd2404b29ce972afc29e815f0151826020015183604001518460600151604051610b539493929190611a0d565b60405180910390a15050565b5f805f5b60015f8573ffffffffffffffffffffffffffffffffffffffff1673ffffffffffffffffffffffffffffffffffffffff1681526020019081526020015f2080549050811015610c245760015f8573ffffffffffffffffffffffffffffffffffffffff1673ffffffffffffffffffffffffffffffffffffffff1681526020019081526020015f208181548110610bfa57610bf96114f6565b5b905f5260205f2090600502016004015482610c159190611a57565b91508080600101915050610b63565b5080915050919050565b60025f9054906101000a900473ffffffffffffffffffffffffffffffffffffffff1681565b610c5b610dca565b60015f3373ffffffffffffffffffffffffffffffffffffffff1673ffffffffffffffffffffffffffffffffffffffff1681526020019081526020015f208281548110610caa57610ca96114f6565b5b905f5260205f2090600502016040518060a00160405290815f8201548152602001600182015f9054906101000a900473ffffffffffffffffffffffffffffffffffffffff1673ffffffffffffffffffffffffffffffffffffffff1673ffffffffffffffffffffffffffffffffffffffff168152602001600282018054610d2f906114c6565b80601f0160208091040260200160405190810160405280929190818152602001828054610d5b906114c6565b8015610da65780601f10610d7d57610100808354040283529160200191610da6565b820191905f5260205f20905b815481529060010190602001808311610d8957829003601f168201915b50505050508152602001600382015481526020016004820154815250509050919050565b6040518060a001604052805f81526020015f73ffffffffffffffffffffffffffffffffffffffff168152602001606081526020015f81526020015f81525090565b5f604051905090565b5f80fd5b5f80fd5b5f73ffffffffffffffffffffffffffffffffffffffff82169050919050565b5f610e4582610e1c565b9050919050565b610e5581610e3b565b8114610e5f575f80fd5b50565b5f81359050610e7081610e4c565b92915050565b5f819050919050565b610e8881610e76565b8114610e92575f80fd5b50565b5f81359050610ea381610e7f565b92915050565b5f8060408385031215610ebf57610ebe610e14565b5b5f610ecc85828601610e62565b9250506020610edd85828601610e95565b9150509250929050565b610ef081610e76565b82525050565b610eff81610e3b565b82525050565b5f81519050919050565b5f82825260208201905092915050565b8281835e5f83830152505050565b5f601f19601f8301169050919050565b5f610f4782610f05565b610f518185610f0f565b9350610f61818560208601610f1f565b610f6a81610f2d565b840191505092915050565b5f60a082019050610f885f830188610ee7565b610f956020830187610ef6565b8181036040830152610fa78186610f3d565b9050610fb66060830185610ee7565b610fc36080830184610ee7565b9695505050505050565b5f60208284031215610fe257610fe1610e14565b5b5f610fef84828501610e62565b91505092915050565b5f81519050919050565b5f82825260208201905092915050565b5f819050602082019050919050565b61102a81610e76565b82525050565b61103981610e3b565b82525050565b5f82825260208201905092915050565b5f61105982610f05565b611063818561103f565b9350611073818560208601610f1f565b61107c81610f2d565b840191505092915050565b5f60a083015f83015161109c5f860182611021565b5060208301516110af6020860182611030565b50604083015184820360408601526110c7828261104f565b91505060608301516110dc6060860182611021565b5060808301516110ef6080860182611021565b508091505092915050565b5f6111058383611087565b905092915050565b5f602082019050919050565b5f61112382610ff8565b61112d8185611002565b93508360208202850161113f85611012565b805f5b8581101561117a578484038952815161115b85826110fa565b94506111668361110d565b925060208a01995050600181019050611142565b50829750879550505050505092915050565b5f6020820190508181035f8301526111a48184611119565b905092915050565b5f61ffff82169050919050565b6111c2816111ac565b81146111cc575f80fd5b50565b5f813590506111dd816111b9565b92915050565b5f602082840312156111f8576111f7610e14565b5b5f611205848285016111cf565b91505092915050565b611217816111ac565b82525050565b5f6020820190506112305f83018461120e565b92915050565b5f80fd5b5f80fd5b7f4e487b71000000000000000000000000000000000000000000000000000000005f52604160045260245ffd5b61127482610f2d565b810181811067ffffffffffffffff821117156112935761129261123e565b5b80604052505050565b5f6112a5610e0b565b90506112b1828261126b565b919050565b5f67ffffffffffffffff8211156112d0576112cf61123e565b5b6112d982610f2d565b9050602081019050919050565b828183375f83830152505050565b5f611306611301846112b6565b61129c565b9050828152602081018484840111156113225761132161123a565b5b61132d8482856112e6565b509392505050565b5f82601f83011261134957611348611236565b5b81356113598482602086016112f4565b91505092915050565b5f6020828403121561137757611376610e14565b5b5f82013567ffffffffffffffff81111561139457611393610e18565b5b6113a084828501611335565b91505092915050565b5f6020820190506113bc5f830184610ee7565b92915050565b5f6020820190506113d55f830184610ef6565b92915050565b5f602082840312156113f0576113ef610e14565b5b5f6113fd84828501610e95565b91505092915050565b5f60a083015f83015161141b5f860182611021565b50602083015161142e6020860182611030565b5060408301518482036040860152611446828261104f565b915050606083015161145b6060860182611021565b50608083015161146e6080860182611021565b508091505092915050565b5f6020820190508181035f8301526114918184611406565b905092915050565b7f4e487b71000000000000000000000000000000000000000000000000000000005f52602260045260245ffd5b5f60028204905060018216806114dd57607f821691505b6020821081036114f0576114ef611499565b5b50919050565b7f4e487b71000000000000000000000000000000000000000000000000000000005f52603260045260245ffd5b7f545745455420444f4553204e4f542045584953540000000000000000000000005f82015250565b5f611557601483610f0f565b915061156282611523565b602082019050919050565b5f6020820190508181035f8301526115848161154b565b9050919050565b7f545745455420484153204e4f204c494b455300000000000000000000000000005f82015250565b5f6115bf601283610f0f565b91506115ca8261158b565b602082019050919050565b5f6020820190508181035f8301526115ec816115b3565b9050919050565b7f4e487b71000000000000000000000000000000000000000000000000000000005f52601160045260245ffd5b5f61162a82610e76565b91505f820361163c5761163b6115f3565b5b600182039050919050565b5f60808201905061165a5f830187610ef6565b6116676020830186610ef6565b6116746040830185610ee7565b6116816060830184610ee7565b95945050505050565b7f594f5520415245204e4f5420544845204f574e455221000000000000000000005f82015250565b5f6116be601683610f0f565b91506116c98261168a565b602082019050919050565b5f6020820190508181035f8301526116eb816116b2565b9050919050565b5f6116fc82610e76565b91507fffffffffffffffffffffffffffffffffffffffffffffffffffffffffffffffff820361172e5761172d6115f3565b5b600182019050919050565b7f547765657420697320746f6f206c6f6e672062726f21000000000000000000005f82015250565b5f61176d601683610f0f565b915061177882611739565b602082019050919050565b5f6020820190508181035f83015261179a81611761565b9050919050565b5f819050815f5260205f209050919050565b5f6020601f8301049050919050565b5f82821b905092915050565b5f600883026117fd7fffffffffffffffffffffffffffffffffffffffffffffffffffffffffffffffff826117c2565b61180786836117c2565b95508019841693508086168417925050509392505050565b5f819050919050565b5f61184261183d61183884610e76565b61181f565b610e76565b9050919050565b5f819050919050565b61185b83611828565b61186f61186782611849565b8484546117ce565b825550505050565b5f90565b611883611877565b61188e818484611852565b505050565b5b818110156118b1576118a65f8261187b565b600181019050611894565b5050565b601f8211156118f6576118c7816117a1565b6118d0846117b3565b810160208510156118df578190505b6118f36118eb856117b3565b830182611893565b50505b505050565b5f82821c905092915050565b5f6119165f19846008026118fb565b1980831691505092915050565b5f61192e8383611907565b9150826002028217905092915050565b61194782610f05565b67ffffffffffffffff8111156119605761195f61123e565b5b61196a82546114c6565b6119758282856118b5565b5f60209050601f8311600181146119a6575f8415611994578287015190505b61199e8582611923565b865550611a05565b601f1984166119b4866117a1565b5f5b828110156119db578489015182556001820191506020850194506020810190506119b6565b868310156119f857848901516119f4601f891682611907565b8355505b6001600288020188555050505b505050505050565b5f608082019050611a205f830187610ee7565b611a2d6020830186610ef6565b8181036040830152611a3f8185610f3d565b9050611a4e6060830184610ee7565b95945050505050565b5f611a6182610e76565b9150611a6c83610e76565b9250828201905080821115611a8457611a836115f3565b5b9291505056fea264697066735822122084cdc501d3d6a46569f3734eeb98dca14f0ce4acb8f45effe0bbe9567138178e64736f6c634300081a0033",
					"opcodes": "PUSH1 0x80 PUSH1 0x40 MSTORE PUSH2 0x118 PUSH0 DUP1 PUSH2 0x100 EXP DUP2 SLOAD DUP2 PUSH2 0xFFFF MUL NOT AND SWAP1 DUP4 PUSH2 0xFFFF AND MUL OR SWAP1 SSTORE POP CALLVALUE DUP1 ISZERO PUSH1 0x2B JUMPI PUSH0 DUP1 REVERT JUMPDEST POP CALLER PUSH1 0x2 PUSH0 PUSH2 0x100 EXP DUP2 SLOAD DUP2 PUSH20 0xFFFFFFFFFFFFFFFFFFFFFFFFFFFFFFFFFFFFFFFF MUL NOT AND SWAP1 DUP4 PUSH20 0xFFFFFFFFFFFFFFFFFFFFFFFFFFFFFFFFFFFFFFFF AND MUL OR SWAP1 SSTORE POP PUSH2 0x1AC0 DUP1 PUSH2 0x79 PUSH0 CODECOPY PUSH0 RETURN INVALID PUSH1 0x80 PUSH1 0x40 MSTORE CALLVALUE DUP1 ISZERO PUSH2 0xF JUMPI PUSH0 DUP1 REVERT JUMPDEST POP PUSH1 0x4 CALLDATASIZE LT PUSH2 0x9C JUMPI PUSH0 CALLDATALOAD PUSH1 0xE0 SHR DUP1 PUSH4 0x6EB10797 GT PUSH2 0x64 JUMPI DUP1 PUSH4 0x6EB10797 EQ PUSH2 0x158 JUMPI DUP1 PUSH4 0x7C9CD2BC EQ PUSH2 0x176 JUMPI DUP1 PUSH4 0x820785CC EQ PUSH2 0x192 JUMPI DUP1 PUSH4 0x8DA5CB5B EQ PUSH2 0x1C2 JUMPI DUP1 PUSH4 0xC3AD5ECB EQ PUSH2 0x1E0 JUMPI PUSH2 0x9C JUMP JUMPDEST DUP1 PUSH4 0x5A1B4A9 EQ PUSH2 0xA0 JUMPI DUP1 PUSH4 0x12E7EE1C EQ PUSH2 0xD4 JUMPI DUP1 PUSH4 0x3D9B569F EQ PUSH2 0x104 JUMPI DUP1 PUSH4 0x58BFA4AB EQ PUSH2 0x120 JUMPI DUP1 PUSH4 0x63378216 EQ PUSH2 0x13C JUMPI JUMPDEST PUSH0 DUP1 REVERT JUMPDEST PUSH2 0xBA PUSH1 0x4 DUP1 CALLDATASIZE SUB DUP2 ADD SWAP1 PUSH2 0xB5 SWAP2 SWAP1 PUSH2 0xEA9 JUMP JUMPDEST PUSH2 0x210 JUMP JUMPDEST PUSH1 0x40 MLOAD PUSH2 0xCB SWAP6 SWAP5 SWAP4 SWAP3 SWAP2 SWAP1 PUSH2 0xF75 JUMP JUMPDEST PUSH1 0x40 MLOAD DUP1 SWAP2 SUB SWAP1 RETURN JUMPDEST PUSH2 0xEE PUSH1 0x4 DUP1 CALLDATASIZE SUB DUP2 ADD SWAP1 PUSH2 0xE9 SWAP2 SWAP1 PUSH2 0xFCD JUMP JUMPDEST PUSH2 0x301 JUMP JUMPDEST PUSH1 0x40 MLOAD PUSH2 0xFB SWAP2 SWAP1 PUSH2 0x118C JUMP JUMPDEST PUSH1 0x40 MLOAD DUP1 SWAP2 SUB SWAP1 RETURN JUMPDEST PUSH2 0x11E PUSH1 0x4 DUP1 CALLDATASIZE SUB DUP2 ADD SWAP1 PUSH2 0x119 SWAP2 SWAP1 PUSH2 0xEA9 JUMP JUMPDEST PUSH2 0x49C JUMP JUMPDEST STOP JUMPDEST PUSH2 0x13A PUSH1 0x4 DUP1 CALLDATASIZE SUB DUP2 ADD SWAP1 PUSH2 0x135 SWAP2 SWAP1 PUSH2 0x11E3 JUMP JUMPDEST PUSH2 0x6ED JUMP JUMPDEST STOP JUMPDEST PUSH2 0x156 PUSH1 0x4 DUP1 CALLDATASIZE SUB DUP2 ADD SWAP1 PUSH2 0x151 SWAP2 SWAP1 PUSH2 0xEA9 JUMP JUMPDEST PUSH2 0x79A JUMP JUMPDEST STOP JUMPDEST PUSH2 0x160 PUSH2 0x94B JUMP JUMPDEST PUSH1 0x40 MLOAD PUSH2 0x16D SWAP2 SWAP1 PUSH2 0x121D JUMP JUMPDEST PUSH1 0x40 MLOAD DUP1 SWAP2 SUB SWAP1 RETURN JUMPDEST PUSH2 0x190 PUSH1 0x4 DUP1 CALLDATASIZE SUB DUP2 ADD SWAP1 PUSH2 0x18B SWAP2 SWAP1 PUSH2 0x1362 JUMP JUMPDEST PUSH2 0x95C JUMP JUMPDEST STOP JUMPDEST PUSH2 0x1AC PUSH1 0x4 DUP1 CALLDATASIZE SUB DUP2 ADD SWAP1 PUSH2 0x1A7 SWAP2 SWAP1 PUSH2 0xFCD JUMP JUMPDEST PUSH2 0xB5F JUMP JUMPDEST PUSH1 0x40 MLOAD PUSH2 0x1B9 SWAP2 SWAP1 PUSH2 0x13A9 JUMP JUMPDEST PUSH1 0x40 MLOAD DUP1 SWAP2 SUB SWAP1 RETURN JUMPDEST PUSH2 0x1CA PUSH2 0xC2E JUMP JUMPDEST PUSH1 0x40 MLOAD PUSH2 0x1D7 SWAP2 SWAP1 PUSH2 0x13C2 JUMP JUMPDEST PUSH1 0x40 MLOAD DUP1 SWAP2 SUB SWAP1 RETURN JUMPDEST PUSH2 0x1FA PUSH1 0x4 DUP1 CALLDATASIZE SUB DUP2 ADD SWAP1 PUSH2 0x1F5 SWAP2 SWAP1 PUSH2 0x13DB JUMP JUMPDEST PUSH2 0xC53 JUMP JUMPDEST PUSH1 0x40 MLOAD PUSH2 0x207 SWAP2 SWAP1 PUSH2 0x1479 JUMP JUMPDEST PUSH1 0x40 MLOAD DUP1 SWAP2 SUB SWAP1 RETURN JUMPDEST PUSH1 0x1 PUSH1 0x20 MSTORE DUP2 PUSH0 MSTORE PUSH1 0x40 PUSH0 KECCAK256 DUP2 DUP2 SLOAD DUP2 LT PUSH2 0x229 JUMPI PUSH0 DUP1 REVERT JUMPDEST SWAP1 PUSH0 MSTORE PUSH1 0x20 PUSH0 KECCAK256 SWAP1 PUSH1 0x5 MUL ADD PUSH0 SWAP2 POP SWAP2 POP POP DUP1 PUSH0 ADD SLOAD SWAP1 DUP1 PUSH1 0x1 ADD PUSH0 SWAP1 SLOAD SWAP1 PUSH2 0x100 EXP SWAP1 DIV PUSH20 0xFFFFFFFFFFFFFFFFFFFFFFFFFFFFFFFFFFFFFFFF AND SWAP1 DUP1 PUSH1 0x2 ADD DUP1 SLOAD PUSH2 0x274 SWAP1 PUSH2 0x14C6 JUMP JUMPDEST DUP1 PUSH1 0x1F ADD PUSH1 0x20 DUP1 SWAP2 DIV MUL PUSH1 0x20 ADD PUSH1 0x40 MLOAD SWAP1 DUP2 ADD PUSH1 0x40 MSTORE DUP1 SWAP3 SWAP2 SWAP1 DUP2 DUP2 MSTORE PUSH1 0x20 ADD DUP3 DUP1 SLOAD PUSH2 0x2A0 SWAP1 PUSH2 0x14C6 JUMP JUMPDEST DUP1 ISZERO PUSH2 0x2EB JUMPI DUP1 PUSH1 0x1F LT PUSH2 0x2C2 JUMPI PUSH2 0x100 DUP1 DUP4 SLOAD DIV MUL DUP4 MSTORE SWAP2 PUSH1 0x20 ADD SWAP2 PUSH2 0x2EB JUMP JUMPDEST DUP3 ADD SWAP2 SWAP1 PUSH0 MSTORE PUSH1 0x20 PUSH0 KECCAK256 SWAP1 JUMPDEST DUP2 SLOAD DUP2 MSTORE SWAP1 PUSH1 0x1 ADD SWAP1 PUSH1 0x20 ADD DUP1 DUP4 GT PUSH2 0x2CE JUMPI DUP3 SWAP1 SUB PUSH1 0x1F AND DUP3 ADD SWAP2 JUMPDEST POP POP POP POP POP SWAP1 DUP1 PUSH1 0x3 ADD SLOAD SWAP1 DUP1 PUSH1 0x4 ADD SLOAD SWAP1 POP DUP6 JUMP JUMPDEST PUSH1 0x60 PUSH1 0x1 PUSH0 DUP4 PUSH20 0xFFFFFFFFFFFFFFFFFFFFFFFFFFFFFFFFFFFFFFFF AND PUSH20 0xFFFFFFFFFFFFFFFFFFFFFFFFFFFFFFFFFFFFFFFF AND DUP2 MSTORE PUSH1 0x20 ADD SWAP1 DUP2 MSTORE PUSH1 0x20 ADD PUSH0 KECCAK256 DUP1 SLOAD DUP1 PUSH1 0x20 MUL PUSH1 0x20 ADD PUSH1 0x40 MLOAD SWAP1 DUP2 ADD PUSH1 0x40 MSTORE DUP1 SWAP3 SWAP2 SWAP1 DUP2 DUP2 MSTORE PUSH1 0x20 ADD PUSH0 SWAP1 JUMPDEST DUP3 DUP3 LT ISZERO PUSH2 0x491 JUMPI DUP4 DUP3 SWAP1 PUSH0 MSTORE PUSH1 0x20 PUSH0 KECCAK256 SWAP1 PUSH1 0x5 MUL ADD PUSH1 0x40 MLOAD DUP1 PUSH1 0xA0 ADD PUSH1 0x40 MSTORE SWAP1 DUP2 PUSH0 DUP3 ADD SLOAD DUP2 MSTORE PUSH1 0x20 ADD PUSH1 0x1 DUP3 ADD PUSH0 SWAP1 SLOAD SWAP1 PUSH2 0x100 EXP SWAP1 DIV PUSH20 0xFFFFFFFFFFFFFFFFFFFFFFFFFFFFFFFFFFFFFFFF AND PUSH20 0xFFFFFFFFFFFFFFFFFFFFFFFFFFFFFFFFFFFFFFFF AND PUSH20 0xFFFFFFFFFFFFFFFFFFFFFFFFFFFFFFFFFFFFFFFF AND DUP2 MSTORE PUSH1 0x20 ADD PUSH1 0x2 DUP3 ADD DUP1 SLOAD PUSH2 0x3EE SWAP1 PUSH2 0x14C6 JUMP JUMPDEST DUP1 PUSH1 0x1F ADD PUSH1 0x20 DUP1 SWAP2 DIV MUL PUSH1 0x20 ADD PUSH1 0x40 MLOAD SWAP1 DUP2 ADD PUSH1 0x40 MSTORE DUP1 SWAP3 SWAP2 SWAP1 DUP2 DUP2 MSTORE PUSH1 0x20 ADD DUP3 DUP1 SLOAD PUSH2 0x41A SWAP1 PUSH2 0x14C6 JUMP JUMPDEST DUP1 ISZERO PUSH2 0x465 JUMPI DUP1 PUSH1 0x1F LT PUSH2 0x43C JUMPI PUSH2 0x100 DUP1 DUP4 SLOAD DIV MUL DUP4 MSTORE SWAP2 PUSH1 0x20 ADD SWAP2 PUSH2 0x465 JUMP JUMPDEST DUP3 ADD SWAP2 SWAP1 PUSH0 MSTORE PUSH1 0x20 PUSH0 KECCAK256 SWAP1 JUMPDEST DUP2 SLOAD DUP2 MSTORE SWAP1 PUSH1 0x1 ADD SWAP1 PUSH1 0x20 ADD DUP1 DUP4 GT PUSH2 0x448 JUMPI DUP3 SWAP1 SUB PUSH1 0x1F AND DUP3 ADD SWAP2 JUMPDEST POP POP POP POP POP DUP2 MSTORE PUSH1 0x20 ADD PUSH1 0x3 DUP3 ADD SLOAD DUP2 MSTORE PUSH1 0x20 ADD PUSH1 0x4 DUP3 ADD SLOAD DUP2 MSTORE POP POP DUP2 MSTORE PUSH1 0x20 ADD SWAP1 PUSH1 0x1 ADD SWAP1 PUSH2 0x35F JUMP JUMPDEST POP POP POP POP SWAP1 POP SWAP2 SWAP1 POP JUMP JUMPDEST DUP1 PUSH1 0x1 PUSH0 DUP5 PUSH20 0xFFFFFFFFFFFFFFFFFFFFFFFFFFFFFFFFFFFFFFFF AND PUSH20 0xFFFFFFFFFFFFFFFFFFFFFFFFFFFFFFFFFFFFFFFF AND DUP2 MSTORE PUSH1 0x20 ADD SWAP1 DUP2 MSTORE PUSH1 0x20 ADD PUSH0 KECCAK256 DUP3 DUP2 SLOAD DUP2 LT PUSH2 0x4EC JUMPI PUSH2 0x4EB PUSH2 0x14F6 JUMP JUMPDEST JUMPDEST SWAP1 PUSH0 MSTORE PUSH1 0x20 PUSH0 KECCAK256 SWAP1 PUSH1 0x5 MUL ADD PUSH0 ADD SLOAD EQ PUSH2 0x53B JUMPI PUSH1 0x40 MLOAD PUSH32 0x8C379A000000000000000000000000000000000000000000000000000000000 DUP2 MSTORE PUSH1 0x4 ADD PUSH2 0x532 SWAP1 PUSH2 0x156D JUMP JUMPDEST PUSH1 0x40 MLOAD DUP1 SWAP2 SUB SWAP1 REVERT JUMPDEST PUSH0 PUSH1 0x1 PUSH0 DUP5 PUSH20 0xFFFFFFFFFFFFFFFFFFFFFFFFFFFFFFFFFFFFFFFF AND PUSH20 0xFFFFFFFFFFFFFFFFFFFFFFFFFFFFFFFFFFFFFFFF AND DUP2 MSTORE PUSH1 0x20 ADD SWAP1 DUP2 MSTORE PUSH1 0x20 ADD PUSH0 KECCAK256 DUP3 DUP2 SLOAD DUP2 LT PUSH2 0x58B JUMPI PUSH2 0x58A PUSH2 0x14F6 JUMP JUMPDEST JUMPDEST SWAP1 PUSH0 MSTORE PUSH1 0x20 PUSH0 KECCAK256 SWAP1 PUSH1 0x5 MUL ADD PUSH1 0x4 ADD SLOAD GT PUSH2 0x5DB JUMPI PUSH1 0x40 MLOAD PUSH32 0x8C379A000000000000000000000000000000000000000000000000000000000 DUP2 MSTORE PUSH1 0x4 ADD PUSH2 0x5D2 SWAP1 PUSH2 0x15D5 JUMP JUMPDEST PUSH1 0x40 MLOAD DUP1 SWAP2 SUB SWAP1 REVERT JUMPDEST PUSH1 0x1 PUSH0 DUP4 PUSH20 0xFFFFFFFFFFFFFFFFFFFFFFFFFFFFFFFFFFFFFFFF AND PUSH20 0xFFFFFFFFFFFFFFFFFFFFFFFFFFFFFFFFFFFFFFFF AND DUP2 MSTORE PUSH1 0x20 ADD SWAP1 DUP2 MSTORE PUSH1 0x20 ADD PUSH0 KECCAK256 DUP2 DUP2 SLOAD DUP2 LT PUSH2 0x62A JUMPI PUSH2 0x629 PUSH2 0x14F6 JUMP JUMPDEST JUMPDEST SWAP1 PUSH0 MSTORE PUSH1 0x20 PUSH0 KECCAK256 SWAP1 PUSH1 0x5 MUL ADD PUSH1 0x4 ADD PUSH0 DUP2 SLOAD DUP1 SWAP3 SWAP2 SWAP1 PUSH2 0x649 SWAP1 PUSH2 0x1620 JUMP JUMPDEST SWAP2 SWAP1 POP SSTORE POP PUSH32 0x762C2616349603AC16EBA0DE8E6141B79129A07AB63BD99E0A80B3A471716943 CALLER DUP4 DUP4 PUSH1 0x1 PUSH0 DUP8 PUSH20 0xFFFFFFFFFFFFFFFFFFFFFFFFFFFFFFFFFFFFFFFF AND PUSH20 0xFFFFFFFFFFFFFFFFFFFFFFFFFFFFFFFFFFFFFFFF AND DUP2 MSTORE PUSH1 0x20 ADD SWAP1 DUP2 MSTORE PUSH1 0x20 ADD PUSH0 KECCAK256 DUP6 DUP2 SLOAD DUP2 LT PUSH2 0x6C1 JUMPI PUSH2 0x6C0 PUSH2 0x14F6 JUMP JUMPDEST JUMPDEST SWAP1 PUSH0 MSTORE PUSH1 0x20 PUSH0 KECCAK256 SWAP1 PUSH1 0x5 MUL ADD PUSH1 0x4 ADD SLOAD PUSH1 0x40 MLOAD PUSH2 0x6E1 SWAP5 SWAP4 SWAP3 SWAP2 SWAP1 PUSH2 0x1647 JUMP JUMPDEST PUSH1 0x40 MLOAD DUP1 SWAP2 SUB SWAP1 LOG1 POP POP JUMP JUMPDEST PUSH1 0x2 PUSH0 SWAP1 SLOAD SWAP1 PUSH2 0x100 EXP SWAP1 DIV PUSH20 0xFFFFFFFFFFFFFFFFFFFFFFFFFFFFFFFFFFFFFFFF AND PUSH20 0xFFFFFFFFFFFFFFFFFFFFFFFFFFFFFFFFFFFFFFFF AND CALLER PUSH20 0xFFFFFFFFFFFFFFFFFFFFFFFFFFFFFFFFFFFFFFFF AND EQ PUSH2 0x77C JUMPI PUSH1 0x40 MLOAD PUSH32 0x8C379A000000000000000000000000000000000000000000000000000000000 DUP2 MSTORE PUSH1 0x4 ADD PUSH2 0x773 SWAP1 PUSH2 0x16D4 JUMP JUMPDEST PUSH1 0x40 MLOAD DUP1 SWAP2 SUB SWAP1 REVERT JUMPDEST DUP1 PUSH0 DUP1 PUSH2 0x100 EXP DUP2 SLOAD DUP2 PUSH2 0xFFFF MUL NOT AND SWAP1 DUP4 PUSH2 0xFFFF AND MUL OR SWAP1 SSTORE POP POP JUMP JUMPDEST DUP1 PUSH1 0x1 PUSH0 DUP5 PUSH20 0xFFFFFFFFFFFFFFFFFFFFFFFFFFFFFFFFFFFFFFFF AND PUSH20 0xFFFFFFFFFFFFFFFFFFFFFFFFFFFFFFFFFFFFFFFF AND DUP2 MSTORE PUSH1 0x20 ADD SWAP1 DUP2 MSTORE PUSH1 0x20 ADD PUSH0 KECCAK256 DUP3 DUP2 SLOAD DUP2 LT PUSH2 0x7EA JUMPI PUSH2 0x7E9 PUSH2 0x14F6 JUMP JUMPDEST JUMPDEST SWAP1 PUSH0 MSTORE PUSH1 0x20 PUSH0 KECCAK256 SWAP1 PUSH1 0x5 MUL ADD PUSH0 ADD SLOAD EQ PUSH2 0x839 JUMPI PUSH1 0x40 MLOAD PUSH32 0x8C379A000000000000000000000000000000000000000000000000000000000 DUP2 MSTORE PUSH1 0x4 ADD PUSH2 0x830 SWAP1 PUSH2 0x156D JUMP JUMPDEST PUSH1 0x40 MLOAD DUP1 SWAP2 SUB SWAP1 REVERT JUMPDEST PUSH1 0x1 PUSH0 DUP4 PUSH20 0xFFFFFFFFFFFFFFFFFFFFFFFFFFFFFFFFFFFFFFFF AND PUSH20 0xFFFFFFFFFFFFFFFFFFFFFFFFFFFFFFFFFFFFFFFF AND DUP2 MSTORE PUSH1 0x20 ADD SWAP1 DUP2 MSTORE PUSH1 0x20 ADD PUSH0 KECCAK256 DUP2 DUP2 SLOAD DUP2 LT PUSH2 0x888 JUMPI PUSH2 0x887 PUSH2 0x14F6 JUMP JUMPDEST JUMPDEST SWAP1 PUSH0 MSTORE PUSH1 0x20 PUSH0 KECCAK256 SWAP1 PUSH1 0x5 MUL ADD PUSH1 0x4 ADD PUSH0 DUP2 SLOAD DUP1 SWAP3 SWAP2 SWAP1 PUSH2 0x8A7 SWAP1 PUSH2 0x16F2 JUMP JUMPDEST SWAP2 SWAP1 POP SSTORE POP PUSH32 0xE8A76FC0F16D11A00D1E93B689B63D76CF60AF914DD3D915375DC41D01A0C3C8 CALLER DUP4 DUP4 PUSH1 0x1 PUSH0 DUP8 PUSH20 0xFFFFFFFFFFFFFFFFFFFFFFFFFFFFFFFFFFFFFFFF AND PUSH20 0xFFFFFFFFFFFFFFFFFFFFFFFFFFFFFFFFFFFFFFFF AND DUP2 MSTORE PUSH1 0x20 ADD SWAP1 DUP2 MSTORE PUSH1 0x20 ADD PUSH0 KECCAK256 DUP6 DUP2 SLOAD DUP2 LT PUSH2 0x91F JUMPI PUSH2 0x91E PUSH2 0x14F6 JUMP JUMPDEST JUMPDEST SWAP1 PUSH0 MSTORE PUSH1 0x20 PUSH0 KECCAK256 SWAP1 PUSH1 0x5 MUL ADD PUSH1 0x4 ADD SLOAD PUSH1 0x40 MLOAD PUSH2 0x93F SWAP5 SWAP4 SWAP3 SWAP2 SWAP1 PUSH2 0x1647 JUMP JUMPDEST PUSH1 0x40 MLOAD DUP1 SWAP2 SUB SWAP1 LOG1 POP POP JUMP JUMPDEST PUSH0 DUP1 SLOAD SWAP1 PUSH2 0x100 EXP SWAP1 DIV PUSH2 0xFFFF AND DUP2 JUMP JUMPDEST PUSH0 DUP1 SLOAD SWAP1 PUSH2 0x100 EXP SWAP1 DIV PUSH2 0xFFFF AND PUSH2 0xFFFF AND DUP2 MLOAD GT ISZERO PUSH2 0x9B1 JUMPI PUSH1 0x40 MLOAD PUSH32 0x8C379A000000000000000000000000000000000000000000000000000000000 DUP2 MSTORE PUSH1 0x4 ADD PUSH2 0x9A8 SWAP1 PUSH2 0x1783 JUMP JUMPDEST PUSH1 0x40 MLOAD DUP1 SWAP2 SUB SWAP1 REVERT JUMPDEST PUSH0 PUSH1 0x40 MLOAD DUP1 PUSH1 0xA0 ADD PUSH1 0x40 MSTORE DUP1 PUSH1 0x1 PUSH0 CALLER PUSH20 0xFFFFFFFFFFFFFFFFFFFFFFFFFFFFFFFFFFFFFFFF AND PUSH20 0xFFFFFFFFFFFFFFFFFFFFFFFFFFFFFFFFFFFFFFFF AND DUP2 MSTORE PUSH1 0x20 ADD SWAP1 DUP2 MSTORE PUSH1 0x20 ADD PUSH0 KECCAK256 DUP1 SLOAD SWAP1 POP DUP2 MSTORE PUSH1 0x20 ADD CALLER PUSH20 0xFFFFFFFFFFFFFFFFFFFFFFFFFFFFFFFFFFFFFFFF AND DUP2 MSTORE PUSH1 0x20 ADD DUP4 DUP2 MSTORE PUSH1 0x20 ADD TIMESTAMP DUP2 MSTORE PUSH1 0x20 ADD PUSH0 DUP2 MSTORE POP SWAP1 POP PUSH1 0x1 PUSH0 CALLER PUSH20 0xFFFFFFFFFFFFFFFFFFFFFFFFFFFFFFFFFFFFFFFF AND PUSH20 0xFFFFFFFFFFFFFFFFFFFFFFFFFFFFFFFFFFFFFFFF AND DUP2 MSTORE PUSH1 0x20 ADD SWAP1 DUP2 MSTORE PUSH1 0x20 ADD PUSH0 KECCAK256 DUP2 SWAP1 DUP1 PUSH1 0x1 DUP2 SLOAD ADD DUP1 DUP3 SSTORE DUP1 SWAP2 POP POP PUSH1 0x1 SWAP1 SUB SWAP1 PUSH0 MSTORE PUSH1 0x20 PUSH0 KECCAK256 SWAP1 PUSH1 0x5 MUL ADD PUSH0 SWAP1 SWAP2 SWAP1 SWAP2 SWAP1 SWAP2 POP PUSH0 DUP3 ADD MLOAD DUP2 PUSH0 ADD SSTORE PUSH1 0x20 DUP3 ADD MLOAD DUP2 PUSH1 0x1 ADD PUSH0 PUSH2 0x100 EXP DUP2 SLOAD DUP2 PUSH20 0xFFFFFFFFFFFFFFFFFFFFFFFFFFFFFFFFFFFFFFFF MUL NOT AND SWAP1 DUP4 PUSH20 0xFFFFFFFFFFFFFFFFFFFFFFFFFFFFFFFFFFFFFFFF AND MUL OR SWAP1 SSTORE POP PUSH1 0x40 DUP3 ADD MLOAD DUP2 PUSH1 0x2 ADD SWAP1 DUP2 PUSH2 0xAF8 SWAP2 SWAP1 PUSH2 0x193E JUMP JUMPDEST POP PUSH1 0x60 DUP3 ADD MLOAD DUP2 PUSH1 0x3 ADD SSTORE PUSH1 0x80 DUP3 ADD MLOAD DUP2 PUSH1 0x4 ADD SSTORE POP POP PUSH32 0x16FD3C13E9D46923E0A8BCE11C7B473EC508A72E6C96CD2404B29CE972AFC29E DUP2 PUSH0 ADD MLOAD DUP3 PUSH1 0x20 ADD MLOAD DUP4 PUSH1 0x40 ADD MLOAD DUP5 PUSH1 0x60 ADD MLOAD PUSH1 0x40 MLOAD PUSH2 0xB53 SWAP5 SWAP4 SWAP3 SWAP2 SWAP1 PUSH2 0x1A0D JUMP JUMPDEST PUSH1 0x40 MLOAD DUP1 SWAP2 SUB SWAP1 LOG1 POP POP JUMP JUMPDEST PUSH0 DUP1 PUSH0 JUMPDEST PUSH1 0x1 PUSH0 DUP6 PUSH20 0xFFFFFFFFFFFFFFFFFFFFFFFFFFFFFFFFFFFFFFFF AND PUSH20 0xFFFFFFFFFFFFFFFFFFFFFFFFFFFFFFFFFFFFFFFF AND DUP2 MSTORE PUSH1 0x20 ADD SWAP1 DUP2 MSTORE PUSH1 0x20 ADD PUSH0 KECCAK256 DUP1 SLOAD SWAP1 POP DUP2 LT ISZERO PUSH2 0xC24 JUMPI PUSH1 0x1 PUSH0 DUP6 PUSH20 0xFFFFFFFFFFFFFFFFFFFFFFFFFFFFFFFFFFFFFFFF AND PUSH20 0xFFFFFFFFFFFFFFFFFFFFFFFFFFFFFFFFFFFFFFFF AND DUP2 MSTORE PUSH1 0x20 ADD SWAP1 DUP2 MSTORE PUSH1 0x20 ADD PUSH0 KECCAK256 DUP2 DUP2 SLOAD DUP2 LT PUSH2 0xBFA JUMPI PUSH2 0xBF9 PUSH2 0x14F6 JUMP JUMPDEST JUMPDEST SWAP1 PUSH0 MSTORE PUSH1 0x20 PUSH0 KECCAK256 SWAP1 PUSH1 0x5 MUL ADD PUSH1 0x4 ADD SLOAD DUP3 PUSH2 0xC15 SWAP2 SWAP1 PUSH2 0x1A57 JUMP JUMPDEST SWAP2 POP DUP1 DUP1 PUSH1 0x1 ADD SWAP2 POP POP PUSH2 0xB63 JUMP JUMPDEST POP DUP1 SWAP2 POP POP SWAP2 SWAP1 POP JUMP JUMPDEST PUSH1 0x2 PUSH0 SWAP1 SLOAD SWAP1 PUSH2 0x100 EXP SWAP1 DIV PUSH20 0xFFFFFFFFFFFFFFFFFFFFFFFFFFFFFFFFFFFFFFFF AND DUP2 JUMP JUMPDEST PUSH2 0xC5B PUSH2 0xDCA JUMP JUMPDEST PUSH1 0x1 PUSH0 CALLER PUSH20 0xFFFFFFFFFFFFFFFFFFFFFFFFFFFFFFFFFFFFFFFF AND PUSH20 0xFFFFFFFFFFFFFFFFFFFFFFFFFFFFFFFFFFFFFFFF AND DUP2 MSTORE PUSH1 0x20 ADD SWAP1 DUP2 MSTORE PUSH1 0x20 ADD PUSH0 KECCAK256 DUP3 DUP2 SLOAD DUP2 LT PUSH2 0xCAA JUMPI PUSH2 0xCA9 PUSH2 0x14F6 JUMP JUMPDEST JUMPDEST SWAP1 PUSH0 MSTORE PUSH1 0x20 PUSH0 KECCAK256 SWAP1 PUSH1 0x5 MUL ADD PUSH1 0x40 MLOAD DUP1 PUSH1 0xA0 ADD PUSH1 0x40 MSTORE SWAP1 DUP2 PUSH0 DUP3 ADD SLOAD DUP2 MSTORE PUSH1 0x20 ADD PUSH1 0x1 DUP3 ADD PUSH0 SWAP1 SLOAD SWAP1 PUSH2 0x100 EXP SWAP1 DIV PUSH20 0xFFFFFFFFFFFFFFFFFFFFFFFFFFFFFFFFFFFFFFFF AND PUSH20 0xFFFFFFFFFFFFFFFFFFFFFFFFFFFFFFFFFFFFFFFF AND PUSH20 0xFFFFFFFFFFFFFFFFFFFFFFFFFFFFFFFFFFFFFFFF AND DUP2 MSTORE PUSH1 0x20 ADD PUSH1 0x2 DUP3 ADD DUP1 SLOAD PUSH2 0xD2F SWAP1 PUSH2 0x14C6 JUMP JUMPDEST DUP1 PUSH1 0x1F ADD PUSH1 0x20 DUP1 SWAP2 DIV MUL PUSH1 0x20 ADD PUSH1 0x40 MLOAD SWAP1 DUP2 ADD PUSH1 0x40 MSTORE DUP1 SWAP3 SWAP2 SWAP1 DUP2 DUP2 MSTORE PUSH1 0x20 ADD DUP3 DUP1 SLOAD PUSH2 0xD5B SWAP1 PUSH2 0x14C6 JUMP JUMPDEST DUP1 ISZERO PUSH2 0xDA6 JUMPI DUP1 PUSH1 0x1F LT PUSH2 0xD7D JUMPI PUSH2 0x100 DUP1 DUP4 SLOAD DIV MUL DUP4 MSTORE SWAP2 PUSH1 0x20 ADD SWAP2 PUSH2 0xDA6 JUMP JUMPDEST DUP3 ADD SWAP2 SWAP1 PUSH0 MSTORE PUSH1 0x20 PUSH0 KECCAK256 SWAP1 JUMPDEST DUP2 SLOAD DUP2 MSTORE SWAP1 PUSH1 0x1 ADD SWAP1 PUSH1 0x20 ADD DUP1 DUP4 GT PUSH2 0xD89 JUMPI DUP3 SWAP1 SUB PUSH1 0x1F AND DUP3 ADD SWAP2 JUMPDEST POP POP POP POP POP DUP2 MSTORE PUSH1 0x20 ADD PUSH1 0x3 DUP3 ADD SLOAD DUP2 MSTORE PUSH1 0x20 ADD PUSH1 0x4 DUP3 ADD SLOAD DUP2 MSTORE POP POP SWAP1 POP SWAP2 SWAP1 POP JUMP JUMPDEST PUSH1 0x40 MLOAD DUP1 PUSH1 0xA0 ADD PUSH1 0x40 MSTORE DUP1 PUSH0 DUP2 MSTORE PUSH1 0x20 ADD PUSH0 PUSH20 0xFFFFFFFFFFFFFFFFFFFFFFFFFFFFFFFFFFFFFFFF AND DUP2 MSTORE PUSH1 0x20 ADD PUSH1 0x60 DUP2 MSTORE PUSH1 0x20 ADD PUSH0 DUP2 MSTORE PUSH1 0x20 ADD PUSH0 DUP2 MSTORE POP SWAP1 JUMP JUMPDEST PUSH0 PUSH1 0x40 MLOAD SWAP1 POP SWAP1 JUMP JUMPDEST PUSH0 DUP1 REVERT JUMPDEST PUSH0 DUP1 REVERT JUMPDEST PUSH0 PUSH20 0xFFFFFFFFFFFFFFFFFFFFFFFFFFFFFFFFFFFFFFFF DUP3 AND SWAP1 POP SWAP2 SWAP1 POP JUMP JUMPDEST PUSH0 PUSH2 0xE45 DUP3 PUSH2 0xE1C JUMP JUMPDEST SWAP1 POP SWAP2 SWAP1 POP JUMP JUMPDEST PUSH2 0xE55 DUP2 PUSH2 0xE3B JUMP JUMPDEST DUP2 EQ PUSH2 0xE5F JUMPI PUSH0 DUP1 REVERT JUMPDEST POP JUMP JUMPDEST PUSH0 DUP2 CALLDATALOAD SWAP1 POP PUSH2 0xE70 DUP2 PUSH2 0xE4C JUMP JUMPDEST SWAP3 SWAP2 POP POP JUMP JUMPDEST PUSH0 DUP2 SWAP1 POP SWAP2 SWAP1 POP JUMP JUMPDEST PUSH2 0xE88 DUP2 PUSH2 0xE76 JUMP JUMPDEST DUP2 EQ PUSH2 0xE92 JUMPI PUSH0 DUP1 REVERT JUMPDEST POP JUMP JUMPDEST PUSH0 DUP2 CALLDATALOAD SWAP1 POP PUSH2 0xEA3 DUP2 PUSH2 0xE7F JUMP JUMPDEST SWAP3 SWAP2 POP POP JUMP JUMPDEST PUSH0 DUP1 PUSH1 0x40 DUP4 DUP6 SUB SLT ISZERO PUSH2 0xEBF JUMPI PUSH2 0xEBE PUSH2 0xE14 JUMP JUMPDEST JUMPDEST PUSH0 PUSH2 0xECC DUP6 DUP3 DUP7 ADD PUSH2 0xE62 JUMP JUMPDEST SWAP3 POP POP PUSH1 0x20 PUSH2 0xEDD DUP6 DUP3 DUP7 ADD PUSH2 0xE95 JUMP JUMPDEST SWAP2 POP POP SWAP3 POP SWAP3 SWAP1 POP JUMP JUMPDEST PUSH2 0xEF0 DUP2 PUSH2 0xE76 JUMP JUMPDEST DUP3 MSTORE POP POP JUMP JUMPDEST PUSH2 0xEFF DUP2 PUSH2 0xE3B JUMP JUMPDEST DUP3 MSTORE POP POP JUMP JUMPDEST PUSH0 DUP2 MLOAD SWAP1 POP SWAP2 SWAP1 POP JUMP JUMPDEST PUSH0 DUP3 DUP3 MSTORE PUSH1 0x20 DUP3 ADD SWAP1 POP SWAP3 SWAP2 POP POP JUMP JUMPDEST DUP3 DUP2 DUP4 MCOPY PUSH0 DUP4 DUP4 ADD MSTORE POP POP POP JUMP JUMPDEST PUSH0 PUSH1 0x1F NOT PUSH1 0x1F DUP4 ADD AND SWAP1 POP SWAP2 SWAP1 POP JUMP JUMPDEST PUSH0 PUSH2 0xF47 DUP3 PUSH2 0xF05 JUMP JUMPDEST PUSH2 0xF51 DUP2 DUP6 PUSH2 0xF0F JUMP JUMPDEST SWAP4 POP PUSH2 0xF61 DUP2 DUP6 PUSH1 0x20 DUP7 ADD PUSH2 0xF1F JUMP JUMPDEST PUSH2 0xF6A DUP2 PUSH2 0xF2D JUMP JUMPDEST DUP5 ADD SWAP2 POP POP SWAP3 SWAP2 POP POP JUMP JUMPDEST PUSH0 PUSH1 0xA0 DUP3 ADD SWAP1 POP PUSH2 0xF88 PUSH0 DUP4 ADD DUP9 PUSH2 0xEE7 JUMP JUMPDEST PUSH2 0xF95 PUSH1 0x20 DUP4 ADD DUP8 PUSH2 0xEF6 JUMP JUMPDEST DUP2 DUP2 SUB PUSH1 0x40 DUP4 ADD MSTORE PUSH2 0xFA7 DUP2 DUP7 PUSH2 0xF3D JUMP JUMPDEST SWAP1 POP PUSH2 0xFB6 PUSH1 0x60 DUP4 ADD DUP6 PUSH2 0xEE7 JUMP JUMPDEST PUSH2 0xFC3 PUSH1 0x80 DUP4 ADD DUP5 PUSH2 0xEE7 JUMP JUMPDEST SWAP7 SWAP6 POP POP POP POP POP POP JUMP JUMPDEST PUSH0 PUSH1 0x20 DUP3 DUP5 SUB SLT ISZERO PUSH2 0xFE2 JUMPI PUSH2 0xFE1 PUSH2 0xE14 JUMP JUMPDEST JUMPDEST PUSH0 PUSH2 0xFEF DUP5 DUP3 DUP6 ADD PUSH2 0xE62 JUMP JUMPDEST SWAP2 POP POP SWAP3 SWAP2 POP POP JUMP JUMPDEST PUSH0 DUP2 MLOAD SWAP1 POP SWAP2 SWAP1 POP JUMP JUMPDEST PUSH0 DUP3 DUP3 MSTORE PUSH1 0x20 DUP3 ADD SWAP1 POP SWAP3 SWAP2 POP POP JUMP JUMPDEST PUSH0 DUP2 SWAP1 POP PUSH1 0x20 DUP3 ADD SWAP1 POP SWAP2 SWAP1 POP JUMP JUMPDEST PUSH2 0x102A DUP2 PUSH2 0xE76 JUMP JUMPDEST DUP3 MSTORE POP POP JUMP JUMPDEST PUSH2 0x1039 DUP2 PUSH2 0xE3B JUMP JUMPDEST DUP3 MSTORE POP POP JUMP JUMPDEST PUSH0 DUP3 DUP3 MSTORE PUSH1 0x20 DUP3 ADD SWAP1 POP SWAP3 SWAP2 POP POP JUMP JUMPDEST PUSH0 PUSH2 0x1059 DUP3 PUSH2 0xF05 JUMP JUMPDEST PUSH2 0x1063 DUP2 DUP6 PUSH2 0x103F JUMP JUMPDEST SWAP4 POP PUSH2 0x1073 DUP2 DUP6 PUSH1 0x20 DUP7 ADD PUSH2 0xF1F JUMP JUMPDEST PUSH2 0x107C DUP2 PUSH2 0xF2D JUMP JUMPDEST DUP5 ADD SWAP2 POP POP SWAP3 SWAP2 POP POP JUMP JUMPDEST PUSH0 PUSH1 0xA0 DUP4 ADD PUSH0 DUP4 ADD MLOAD PUSH2 0x109C PUSH0 DUP7 ADD DUP3 PUSH2 0x1021 JUMP JUMPDEST POP PUSH1 0x20 DUP4 ADD MLOAD PUSH2 0x10AF PUSH1 0x20 DUP7 ADD DUP3 PUSH2 0x1030 JUMP JUMPDEST POP PUSH1 0x40 DUP4 ADD MLOAD DUP5 DUP3 SUB PUSH1 0x40 DUP7 ADD MSTORE PUSH2 0x10C7 DUP3 DUP3 PUSH2 0x104F JUMP JUMPDEST SWAP2 POP POP PUSH1 0x60 DUP4 ADD MLOAD PUSH2 0x10DC PUSH1 0x60 DUP7 ADD DUP3 PUSH2 0x1021 JUMP JUMPDEST POP PUSH1 0x80 DUP4 ADD MLOAD PUSH2 0x10EF PUSH1 0x80 DUP7 ADD DUP3 PUSH2 0x1021 JUMP JUMPDEST POP DUP1 SWAP2 POP POP SWAP3 SWAP2 POP POP JUMP JUMPDEST PUSH0 PUSH2 0x1105 DUP4 DUP4 PUSH2 0x1087 JUMP JUMPDEST SWAP1 POP SWAP3 SWAP2 POP POP JUMP JUMPDEST PUSH0 PUSH1 0x20 DUP3 ADD SWAP1 POP SWAP2 SWAP1 POP JUMP JUMPDEST PUSH0 PUSH2 0x1123 DUP3 PUSH2 0xFF8 JUMP JUMPDEST PUSH2 0x112D DUP2 DUP6 PUSH2 0x1002 JUMP JUMPDEST SWAP4 POP DUP4 PUSH1 0x20 DUP3 MUL DUP6 ADD PUSH2 0x113F DUP6 PUSH2 0x1012 JUMP JUMPDEST DUP1 PUSH0 JUMPDEST DUP6 DUP2 LT ISZERO PUSH2 0x117A JUMPI DUP5 DUP5 SUB DUP10 MSTORE DUP2 MLOAD PUSH2 0x115B DUP6 DUP3 PUSH2 0x10FA JUMP JUMPDEST SWAP5 POP PUSH2 0x1166 DUP4 PUSH2 0x110D JUMP JUMPDEST SWAP3 POP PUSH1 0x20 DUP11 ADD SWAP10 POP POP PUSH1 0x1 DUP2 ADD SWAP1 POP PUSH2 0x1142 JUMP JUMPDEST POP DUP3 SWAP8 POP DUP8 SWAP6 POP POP POP POP POP POP SWAP3 SWAP2 POP POP JUMP JUMPDEST PUSH0 PUSH1 0x20 DUP3 ADD SWAP1 POP DUP2 DUP2 SUB PUSH0 DUP4 ADD MSTORE PUSH2 0x11A4 DUP2 DUP5 PUSH2 0x1119 JUMP JUMPDEST SWAP1 POP SWAP3 SWAP2 POP POP JUMP JUMPDEST PUSH0 PUSH2 0xFFFF DUP3 AND SWAP1 POP SWAP2 SWAP1 POP JUMP JUMPDEST PUSH2 0x11C2 DUP2 PUSH2 0x11AC JUMP JUMPDEST DUP2 EQ PUSH2 0x11CC JUMPI PUSH0 DUP1 REVERT JUMPDEST POP JUMP JUMPDEST PUSH0 DUP2 CALLDATALOAD SWAP1 POP PUSH2 0x11DD DUP2 PUSH2 0x11B9 JUMP JUMPDEST SWAP3 SWAP2 POP POP JUMP JUMPDEST PUSH0 PUSH1 0x20 DUP3 DUP5 SUB SLT ISZERO PUSH2 0x11F8 JUMPI PUSH2 0x11F7 PUSH2 0xE14 JUMP JUMPDEST JUMPDEST PUSH0 PUSH2 0x1205 DUP5 DUP3 DUP6 ADD PUSH2 0x11CF JUMP JUMPDEST SWAP2 POP POP SWAP3 SWAP2 POP POP JUMP JUMPDEST PUSH2 0x1217 DUP2 PUSH2 0x11AC JUMP JUMPDEST DUP3 MSTORE POP POP JUMP JUMPDEST PUSH0 PUSH1 0x20 DUP3 ADD SWAP1 POP PUSH2 0x1230 PUSH0 DUP4 ADD DUP5 PUSH2 0x120E JUMP JUMPDEST SWAP3 SWAP2 POP POP JUMP JUMPDEST PUSH0 DUP1 REVERT JUMPDEST PUSH0 DUP1 REVERT JUMPDEST PUSH32 0x4E487B7100000000000000000000000000000000000000000000000000000000 PUSH0 MSTORE PUSH1 0x41 PUSH1 0x4 MSTORE PUSH1 0x24 PUSH0 REVERT JUMPDEST PUSH2 0x1274 DUP3 PUSH2 0xF2D JUMP JUMPDEST DUP2 ADD DUP2 DUP2 LT PUSH8 0xFFFFFFFFFFFFFFFF DUP3 GT OR ISZERO PUSH2 0x1293 JUMPI PUSH2 0x1292 PUSH2 0x123E JUMP JUMPDEST JUMPDEST DUP1 PUSH1 0x40 MSTORE POP POP POP JUMP JUMPDEST PUSH0 PUSH2 0x12A5 PUSH2 0xE0B JUMP JUMPDEST SWAP1 POP PUSH2 0x12B1 DUP3 DUP3 PUSH2 0x126B JUMP JUMPDEST SWAP2 SWAP1 POP JUMP JUMPDEST PUSH0 PUSH8 0xFFFFFFFFFFFFFFFF DUP3 GT ISZERO PUSH2 0x12D0 JUMPI PUSH2 0x12CF PUSH2 0x123E JUMP JUMPDEST JUMPDEST PUSH2 0x12D9 DUP3 PUSH2 0xF2D JUMP JUMPDEST SWAP1 POP PUSH1 0x20 DUP2 ADD SWAP1 POP SWAP2 SWAP1 POP JUMP JUMPDEST DUP3 DUP2 DUP4 CALLDATACOPY PUSH0 DUP4 DUP4 ADD MSTORE POP POP POP JUMP JUMPDEST PUSH0 PUSH2 0x1306 PUSH2 0x1301 DUP5 PUSH2 0x12B6 JUMP JUMPDEST PUSH2 0x129C JUMP JUMPDEST SWAP1 POP DUP3 DUP2 MSTORE PUSH1 0x20 DUP2 ADD DUP5 DUP5 DUP5 ADD GT ISZERO PUSH2 0x1322 JUMPI PUSH2 0x1321 PUSH2 0x123A JUMP JUMPDEST JUMPDEST PUSH2 0x132D DUP5 DUP3 DUP6 PUSH2 0x12E6 JUMP JUMPDEST POP SWAP4 SWAP3 POP POP POP JUMP JUMPDEST PUSH0 DUP3 PUSH1 0x1F DUP4 ADD SLT PUSH2 0x1349 JUMPI PUSH2 0x1348 PUSH2 0x1236 JUMP JUMPDEST JUMPDEST DUP2 CALLDATALOAD PUSH2 0x1359 DUP5 DUP3 PUSH1 0x20 DUP7 ADD PUSH2 0x12F4 JUMP JUMPDEST SWAP2 POP POP SWAP3 SWAP2 POP POP JUMP JUMPDEST PUSH0 PUSH1 0x20 DUP3 DUP5 SUB SLT ISZERO PUSH2 0x1377 JUMPI PUSH2 0x1376 PUSH2 0xE14 JUMP JUMPDEST JUMPDEST PUSH0 DUP3 ADD CALLDATALOAD PUSH8 0xFFFFFFFFFFFFFFFF DUP2 GT ISZERO PUSH2 0x1394 JUMPI PUSH2 0x1393 PUSH2 0xE18 JUMP JUMPDEST JUMPDEST PUSH2 0x13A0 DUP5 DUP3 DUP6 ADD PUSH2 0x1335 JUMP JUMPDEST SWAP2 POP POP SWAP3 SWAP2 POP POP JUMP JUMPDEST PUSH0 PUSH1 0x20 DUP3 ADD SWAP1 POP PUSH2 0x13BC PUSH0 DUP4 ADD DUP5 PUSH2 0xEE7 JUMP JUMPDEST SWAP3 SWAP2 POP POP JUMP JUMPDEST PUSH0 PUSH1 0x20 DUP3 ADD SWAP1 POP PUSH2 0x13D5 PUSH0 DUP4 ADD DUP5 PUSH2 0xEF6 JUMP JUMPDEST SWAP3 SWAP2 POP POP JUMP JUMPDEST PUSH0 PUSH1 0x20 DUP3 DUP5 SUB SLT ISZERO PUSH2 0x13F0 JUMPI PUSH2 0x13EF PUSH2 0xE14 JUMP JUMPDEST JUMPDEST PUSH0 PUSH2 0x13FD DUP5 DUP3 DUP6 ADD PUSH2 0xE95 JUMP JUMPDEST SWAP2 POP POP SWAP3 SWAP2 POP POP JUMP JUMPDEST PUSH0 PUSH1 0xA0 DUP4 ADD PUSH0 DUP4 ADD MLOAD PUSH2 0x141B PUSH0 DUP7 ADD DUP3 PUSH2 0x1021 JUMP JUMPDEST POP PUSH1 0x20 DUP4 ADD MLOAD PUSH2 0x142E PUSH1 0x20 DUP7 ADD DUP3 PUSH2 0x1030 JUMP JUMPDEST POP PUSH1 0x40 DUP4 ADD MLOAD DUP5 DUP3 SUB PUSH1 0x40 DUP7 ADD MSTORE PUSH2 0x1446 DUP3 DUP3 PUSH2 0x104F JUMP JUMPDEST SWAP2 POP POP PUSH1 0x60 DUP4 ADD MLOAD PUSH2 0x145B PUSH1 0x60 DUP7 ADD DUP3 PUSH2 0x1021 JUMP JUMPDEST POP PUSH1 0x80 DUP4 ADD MLOAD PUSH2 0x146E PUSH1 0x80 DUP7 ADD DUP3 PUSH2 0x1021 JUMP JUMPDEST POP DUP1 SWAP2 POP POP SWAP3 SWAP2 POP POP JUMP JUMPDEST PUSH0 PUSH1 0x20 DUP3 ADD SWAP1 POP DUP2 DUP2 SUB PUSH0 DUP4 ADD MSTORE PUSH2 0x1491 DUP2 DUP5 PUSH2 0x1406 JUMP JUMPDEST SWAP1 POP SWAP3 SWAP2 POP POP JUMP JUMPDEST PUSH32 0x4E487B7100000000000000000000000000000000000000000000000000000000 PUSH0 MSTORE PUSH1 0x22 PUSH1 0x4 MSTORE PUSH1 0x24 PUSH0 REVERT JUMPDEST PUSH0 PUSH1 0x2 DUP3 DIV SWAP1 POP PUSH1 0x1 DUP3 AND DUP1 PUSH2 0x14DD JUMPI PUSH1 0x7F DUP3 AND SWAP2 POP JUMPDEST PUSH1 0x20 DUP3 LT DUP2 SUB PUSH2 0x14F0 JUMPI PUSH2 0x14EF PUSH2 0x1499 JUMP JUMPDEST JUMPDEST POP SWAP2 SWAP1 POP JUMP JUMPDEST PUSH32 0x4E487B7100000000000000000000000000000000000000000000000000000000 PUSH0 MSTORE PUSH1 0x32 PUSH1 0x4 MSTORE PUSH1 0x24 PUSH0 REVERT JUMPDEST PUSH32 0x545745455420444F4553204E4F54204558495354000000000000000000000000 PUSH0 DUP3 ADD MSTORE POP JUMP JUMPDEST PUSH0 PUSH2 0x1557 PUSH1 0x14 DUP4 PUSH2 0xF0F JUMP JUMPDEST SWAP2 POP PUSH2 0x1562 DUP3 PUSH2 0x1523 JUMP JUMPDEST PUSH1 0x20 DUP3 ADD SWAP1 POP SWAP2 SWAP1 POP JUMP JUMPDEST PUSH0 PUSH1 0x20 DUP3 ADD SWAP1 POP DUP2 DUP2 SUB PUSH0 DUP4 ADD MSTORE PUSH2 0x1584 DUP2 PUSH2 0x154B JUMP JUMPDEST SWAP1 POP SWAP2 SWAP1 POP JUMP JUMPDEST PUSH32 0x545745455420484153204E4F204C494B45530000000000000000000000000000 PUSH0 DUP3 ADD MSTORE POP JUMP JUMPDEST PUSH0 PUSH2 0x15BF PUSH1 0x12 DUP4 PUSH2 0xF0F JUMP JUMPDEST SWAP2 POP PUSH2 0x15CA DUP3 PUSH2 0x158B JUMP JUMPDEST PUSH1 0x20 DUP3 ADD SWAP1 POP SWAP2 SWAP1 POP JUMP JUMPDEST PUSH0 PUSH1 0x20 DUP3 ADD SWAP1 POP DUP2 DUP2 SUB PUSH0 DUP4 ADD MSTORE PUSH2 0x15EC DUP2 PUSH2 0x15B3 JUMP JUMPDEST SWAP1 POP SWAP2 SWAP1 POP JUMP JUMPDEST PUSH32 0x4E487B7100000000000000000000000000000000000000000000000000000000 PUSH0 MSTORE PUSH1 0x11 PUSH1 0x4 MSTORE PUSH1 0x24 PUSH0 REVERT JUMPDEST PUSH0 PUSH2 0x162A DUP3 PUSH2 0xE76 JUMP JUMPDEST SWAP2 POP PUSH0 DUP3 SUB PUSH2 0x163C JUMPI PUSH2 0x163B PUSH2 0x15F3 JUMP JUMPDEST JUMPDEST PUSH1 0x1 DUP3 SUB SWAP1 POP SWAP2 SWAP1 POP JUMP JUMPDEST PUSH0 PUSH1 0x80 DUP3 ADD SWAP1 POP PUSH2 0x165A PUSH0 DUP4 ADD DUP8 PUSH2 0xEF6 JUMP JUMPDEST PUSH2 0x1667 PUSH1 0x20 DUP4 ADD DUP7 PUSH2 0xEF6 JUMP JUMPDEST PUSH2 0x1674 PUSH1 0x40 DUP4 ADD DUP6 PUSH2 0xEE7 JUMP JUMPDEST PUSH2 0x1681 PUSH1 0x60 DUP4 ADD DUP5 PUSH2 0xEE7 JUMP JUMPDEST SWAP6 SWAP5 POP POP POP POP POP JUMP JUMPDEST PUSH32 0x594F5520415245204E4F5420544845204F574E45522100000000000000000000 PUSH0 DUP3 ADD MSTORE POP JUMP JUMPDEST PUSH0 PUSH2 0x16BE PUSH1 0x16 DUP4 PUSH2 0xF0F JUMP JUMPDEST SWAP2 POP PUSH2 0x16C9 DUP3 PUSH2 0x168A JUMP JUMPDEST PUSH1 0x20 DUP3 ADD SWAP1 POP SWAP2 SWAP1 POP JUMP JUMPDEST PUSH0 PUSH1 0x20 DUP3 ADD SWAP1 POP DUP2 DUP2 SUB PUSH0 DUP4 ADD MSTORE PUSH2 0x16EB DUP2 PUSH2 0x16B2 JUMP JUMPDEST SWAP1 POP SWAP2 SWAP1 POP JUMP JUMPDEST PUSH0 PUSH2 0x16FC DUP3 PUSH2 0xE76 JUMP JUMPDEST SWAP2 POP PUSH32 0xFFFFFFFFFFFFFFFFFFFFFFFFFFFFFFFFFFFFFFFFFFFFFFFFFFFFFFFFFFFFFFFF DUP3 SUB PUSH2 0x172E JUMPI PUSH2 0x172D PUSH2 0x15F3 JUMP JUMPDEST JUMPDEST PUSH1 0x1 DUP3 ADD SWAP1 POP SWAP2 SWAP1 POP JUMP JUMPDEST PUSH32 0x547765657420697320746F6F206C6F6E672062726F2100000000000000000000 PUSH0 DUP3 ADD MSTORE POP JUMP JUMPDEST PUSH0 PUSH2 0x176D PUSH1 0x16 DUP4 PUSH2 0xF0F JUMP JUMPDEST SWAP2 POP PUSH2 0x1778 DUP3 PUSH2 0x1739 JUMP JUMPDEST PUSH1 0x20 DUP3 ADD SWAP1 POP SWAP2 SWAP1 POP JUMP JUMPDEST PUSH0 PUSH1 0x20 DUP3 ADD SWAP1 POP DUP2 DUP2 SUB PUSH0 DUP4 ADD MSTORE PUSH2 0x179A DUP2 PUSH2 0x1761 JUMP JUMPDEST SWAP1 POP SWAP2 SWAP1 POP JUMP JUMPDEST PUSH0 DUP2 SWAP1 POP DUP2 PUSH0 MSTORE PUSH1 0x20 PUSH0 KECCAK256 SWAP1 POP SWAP2 SWAP1 POP JUMP JUMPDEST PUSH0 PUSH1 0x20 PUSH1 0x1F DUP4 ADD DIV SWAP1 POP SWAP2 SWAP1 POP JUMP JUMPDEST PUSH0 DUP3 DUP3 SHL SWAP1 POP SWAP3 SWAP2 POP POP JUMP JUMPDEST PUSH0 PUSH1 0x8 DUP4 MUL PUSH2 0x17FD PUSH32 0xFFFFFFFFFFFFFFFFFFFFFFFFFFFFFFFFFFFFFFFFFFFFFFFFFFFFFFFFFFFFFFFF DUP3 PUSH2 0x17C2 JUMP JUMPDEST PUSH2 0x1807 DUP7 DUP4 PUSH2 0x17C2 JUMP JUMPDEST SWAP6 POP DUP1 NOT DUP5 AND SWAP4 POP DUP1 DUP7 AND DUP5 OR SWAP3 POP POP POP SWAP4 SWAP3 POP POP POP JUMP JUMPDEST PUSH0 DUP2 SWAP1 POP SWAP2 SWAP1 POP JUMP JUMPDEST PUSH0 PUSH2 0x1842 PUSH2 0x183D PUSH2 0x1838 DUP5 PUSH2 0xE76 JUMP JUMPDEST PUSH2 0x181F JUMP JUMPDEST PUSH2 0xE76 JUMP JUMPDEST SWAP1 POP SWAP2 SWAP1 POP JUMP JUMPDEST PUSH0 DUP2 SWAP1 POP SWAP2 SWAP1 POP JUMP JUMPDEST PUSH2 0x185B DUP4 PUSH2 0x1828 JUMP JUMPDEST PUSH2 0x186F PUSH2 0x1867 DUP3 PUSH2 0x1849 JUMP JUMPDEST DUP5 DUP5 SLOAD PUSH2 0x17CE JUMP JUMPDEST DUP3 SSTORE POP POP POP POP JUMP JUMPDEST PUSH0 SWAP1 JUMP JUMPDEST PUSH2 0x1883 PUSH2 0x1877 JUMP JUMPDEST PUSH2 0x188E DUP2 DUP5 DUP5 PUSH2 0x1852 JUMP JUMPDEST POP POP POP JUMP JUMPDEST JUMPDEST DUP2 DUP2 LT ISZERO PUSH2 0x18B1 JUMPI PUSH2 0x18A6 PUSH0 DUP3 PUSH2 0x187B JUMP JUMPDEST PUSH1 0x1 DUP2 ADD SWAP1 POP PUSH2 0x1894 JUMP JUMPDEST POP POP JUMP JUMPDEST PUSH1 0x1F DUP3 GT ISZERO PUSH2 0x18F6 JUMPI PUSH2 0x18C7 DUP2 PUSH2 0x17A1 JUMP JUMPDEST PUSH2 0x18D0 DUP5 PUSH2 0x17B3 JUMP JUMPDEST DUP2 ADD PUSH1 0x20 DUP6 LT ISZERO PUSH2 0x18DF JUMPI DUP2 SWAP1 POP JUMPDEST PUSH2 0x18F3 PUSH2 0x18EB DUP6 PUSH2 0x17B3 JUMP JUMPDEST DUP4 ADD DUP3 PUSH2 0x1893 JUMP JUMPDEST POP POP JUMPDEST POP POP POP JUMP JUMPDEST PUSH0 DUP3 DUP3 SHR SWAP1 POP SWAP3 SWAP2 POP POP JUMP JUMPDEST PUSH0 PUSH2 0x1916 PUSH0 NOT DUP5 PUSH1 0x8 MUL PUSH2 0x18FB JUMP JUMPDEST NOT DUP1 DUP4 AND SWAP2 POP POP SWAP3 SWAP2 POP POP JUMP JUMPDEST PUSH0 PUSH2 0x192E DUP4 DUP4 PUSH2 0x1907 JUMP JUMPDEST SWAP2 POP DUP3 PUSH1 0x2 MUL DUP3 OR SWAP1 POP SWAP3 SWAP2 POP POP JUMP JUMPDEST PUSH2 0x1947 DUP3 PUSH2 0xF05 JUMP JUMPDEST PUSH8 0xFFFFFFFFFFFFFFFF DUP2 GT ISZERO PUSH2 0x1960 JUMPI PUSH2 0x195F PUSH2 0x123E JUMP JUMPDEST JUMPDEST PUSH2 0x196A DUP3 SLOAD PUSH2 0x14C6 JUMP JUMPDEST PUSH2 0x1975 DUP3 DUP3 DUP6 PUSH2 0x18B5 JUMP JUMPDEST PUSH0 PUSH1 0x20 SWAP1 POP PUSH1 0x1F DUP4 GT PUSH1 0x1 DUP2 EQ PUSH2 0x19A6 JUMPI PUSH0 DUP5 ISZERO PUSH2 0x1994 JUMPI DUP3 DUP8 ADD MLOAD SWAP1 POP JUMPDEST PUSH2 0x199E DUP6 DUP3 PUSH2 0x1923 JUMP JUMPDEST DUP7 SSTORE POP PUSH2 0x1A05 JUMP JUMPDEST PUSH1 0x1F NOT DUP5 AND PUSH2 0x19B4 DUP7 PUSH2 0x17A1 JUMP JUMPDEST PUSH0 JUMPDEST DUP3 DUP2 LT ISZERO PUSH2 0x19DB JUMPI DUP5 DUP10 ADD MLOAD DUP3 SSTORE PUSH1 0x1 DUP3 ADD SWAP2 POP PUSH1 0x20 DUP6 ADD SWAP5 POP PUSH1 0x20 DUP2 ADD SWAP1 POP PUSH2 0x19B6 JUMP JUMPDEST DUP7 DUP4 LT ISZERO PUSH2 0x19F8 JUMPI DUP5 DUP10 ADD MLOAD PUSH2 0x19F4 PUSH1 0x1F DUP10 AND DUP3 PUSH2 0x1907 JUMP JUMPDEST DUP4 SSTORE POP JUMPDEST PUSH1 0x1 PUSH1 0x2 DUP9 MUL ADD DUP9 SSTORE POP POP POP JUMPDEST POP POP POP POP POP POP JUMP JUMPDEST PUSH0 PUSH1 0x80 DUP3 ADD SWAP1 POP PUSH2 0x1A20 PUSH0 DUP4 ADD DUP8 PUSH2 0xEE7 JUMP JUMPDEST PUSH2 0x1A2D PUSH1 0x20 DUP4 ADD DUP7 PUSH2 0xEF6 JUMP JUMPDEST DUP2 DUP2 SUB PUSH1 0x40 DUP4 ADD MSTORE PUSH2 0x1A3F DUP2 DUP6 PUSH2 0xF3D JUMP JUMPDEST SWAP1 POP PUSH2 0x1A4E PUSH1 0x60 DUP4 ADD DUP5 PUSH2 0xEE7 JUMP JUMPDEST SWAP6 SWAP5 POP POP POP POP POP JUMP JUMPDEST PUSH0 PUSH2 0x1A61 DUP3 PUSH2 0xE76 JUMP JUMPDEST SWAP2 POP PUSH2 0x1A6C DUP4 PUSH2 0xE76 JUMP JUMPDEST SWAP3 POP DUP3 DUP3 ADD SWAP1 POP DUP1 DUP3 GT ISZERO PUSH2 0x1A84 JUMPI PUSH2 0x1A83 PUSH2 0x15F3 JUMP JUMPDEST JUMPDEST SWAP3 SWAP2 POP POP JUMP INVALID LOG2 PUSH5 0x6970667358 0x22 SLT KECCAK256 DUP5 0xCD 0xC5 ADD 0xD3 0xD6 LOG4 PUSH6 0x69F3734EEB98 0xDC LOG1 0x4F 0xC 0xE4 0xAC 0xB8 DELEGATECALL MCOPY SELFDESTRUCT 0xE0 0xBB 0xE9 JUMP PUSH18 0x38178E64736F6C634300081A003300000000 "
				},
				"gasEstimates": {
					"creation": {
						"codeDepositCost": "1369600",
						"executionCost": "49953",
						"totalCost": "1419553"
					},
					"external": {
						"MAX_TWEET_LENGTH()": "2463",
						"changeTweetLength(uint16)": "26909",
						"createTweet(string)": "infinite",
						"getAllTweets(address)": "infinite",
						"getTotalLikes(address)": "infinite",
						"getTweet(uint256)": "infinite",
						"likeTweet(address,uint256)": "infinite",
						"owner()": "2574",
						"tweets(address,uint256)": "infinite",
						"unlikeTweet(address,uint256)": "infinite"
					}
				},
				"methodIdentifiers": {
					"MAX_TWEET_LENGTH()": "6eb10797",
					"changeTweetLength(uint16)": "58bfa4ab",
					"createTweet(string)": "7c9cd2bc",
					"getAllTweets(address)": "12e7ee1c",
					"getTotalLikes(address)": "820785cc",
					"getTweet(uint256)": "c3ad5ecb",
					"likeTweet(address,uint256)": "63378216",
					"owner()": "8da5cb5b",
					"tweets(address,uint256)": "05a1b4a9",
					"unlikeTweet(address,uint256)": "3d9b569f"
				}
			},
			"storageLayout": {
				"storage": [
					{
						"astId": 183,
						"contract": "contracts/Twitter-Inheritance.sol:Twitter",
						"label": "MAX_TWEET_LENGTH",
						"offset": 0,
						"slot": "0",
						"type": "t_uint16"
					},
					{
						"astId": 200,
						"contract": "contracts/Twitter-Inheritance.sol:Twitter",
						"label": "tweets",
						"offset": 0,
						"slot": "1",
						"type": "t_mapping(t_address,t_array(t_struct(Tweet)194_storage)dyn_storage)"
					},
					{
						"astId": 202,
						"contract": "contracts/Twitter-Inheritance.sol:Twitter",
						"label": "owner",
						"offset": 0,
						"slot": "2",
						"type": "t_address"
					}
				],
				"types": {
					"t_address": {
						"encoding": "inplace",
						"label": "address",
						"numberOfBytes": "20"
					},
					"t_array(t_struct(Tweet)194_storage)dyn_storage": {
						"base": "t_struct(Tweet)194_storage",
						"encoding": "dynamic_array",
						"label": "struct Twitter.Tweet[]",
						"numberOfBytes": "32"
					},
					"t_mapping(t_address,t_array(t_struct(Tweet)194_storage)dyn_storage)": {
						"encoding": "mapping",
						"key": "t_address",
						"label": "mapping(address => struct Twitter.Tweet[])",
						"numberOfBytes": "32",
						"value": "t_array(t_struct(Tweet)194_storage)dyn_storage"
					},
					"t_string_storage": {
						"encoding": "bytes",
						"label": "string",
						"numberOfBytes": "32"
					},
					"t_struct(Tweet)194_storage": {
						"encoding": "inplace",
						"label": "struct Twitter.Tweet",
						"members": [
							{
								"astId": 185,
								"contract": "contracts/Twitter-Inheritance.sol:Twitter",
								"label": "id",
								"offset": 0,
								"slot": "0",
								"type": "t_uint256"
							},
							{
								"astId": 187,
								"contract": "contracts/Twitter-Inheritance.sol:Twitter",
								"label": "author",
								"offset": 0,
								"slot": "1",
								"type": "t_address"
							},
							{
								"astId": 189,
								"contract": "contracts/Twitter-Inheritance.sol:Twitter",
								"label": "content",
								"offset": 0,
								"slot": "2",
								"type": "t_string_storage"
							},
							{
								"astId": 191,
								"contract": "contracts/Twitter-Inheritance.sol:Twitter",
								"label": "timestamp",
								"offset": 0,
								"slot": "3",
								"type": "t_uint256"
							},
							{
								"astId": 193,
								"contract": "contracts/Twitter-Inheritance.sol:Twitter",
								"label": "likes",
								"offset": 0,
								"slot": "4",
								"type": "t_uint256"
							}
						],
						"numberOfBytes": "160"
					},
					"t_uint16": {
						"encoding": "inplace",
						"label": "uint16",
						"numberOfBytes": "2"
					},
					"t_uint256": {
						"encoding": "inplace",
						"label": "uint256",
						"numberOfBytes": "32"
					}
				}
			},
			"userdoc": {
				"kind": "user",
				"methods": {},
				"version": 1
			}
		}
	}
}