{
	"contracts/Twitter.sol": {
		"Twitter": {
			"abi": [
				{
					"inputs": [
						{
							"internalType": "string",
							"name": "_tweet",
							"type": "string"
						}
					],
					"name": "createTweet",
					"outputs": [],
					"stateMutability": "nonpayable",
					"type": "function"
				},
				{
					"inputs": [
						{
							"internalType": "address",
							"name": "",
							"type": "address"
						},
						{
							"internalType": "uint256",
							"name": "",
							"type": "uint256"
						}
					],
					"name": "tweets",
					"outputs": [
						{
							"internalType": "address",
							"name": "author",
							"type": "address"
						},
						{
							"internalType": "string",
							"name": "content",
							"type": "string"
						},
						{
							"internalType": "uint256",
							"name": "timestamp",
							"type": "uint256"
						},
						{
							"internalType": "uint256",
							"name": "likes",
							"type": "uint256"
						}
					],
					"stateMutability": "view",
					"type": "function"
				}
			],
			"devdoc": {
				"kind": "dev",
				"methods": {},
				"version": 1
			},
			"evm": {
				"assembly": "    /* \"contracts/Twitter.sol\":66:886  contract Twitter {... */\n  mstore(0x40, 0x80)\n  callvalue\n  dup1\n  iszero\n  tag_1\n  jumpi\n  0x00\n  dup1\n  revert\ntag_1:\n  pop\n  dataSize(sub_0)\n  dup1\n  dataOffset(sub_0)\n  0x00\n  codecopy\n  0x00\n  return\nstop\n\nsub_0: assembly {\n        /* \"contracts/Twitter.sol\":66:886  contract Twitter {... */\n      mstore(0x40, 0x80)\n      callvalue\n      dup1\n      iszero\n      tag_1\n      jumpi\n      0x00\n      dup1\n      revert\n    tag_1:\n      pop\n      jumpi(tag_2, lt(calldatasize, 0x04))\n      shr(0xe0, calldataload(0x00))\n      dup1\n      0x05a1b4a9\n      eq\n      tag_3\n      jumpi\n      dup1\n      0x7c9cd2bc\n      eq\n      tag_4\n      jumpi\n    tag_2:\n      0x00\n      dup1\n      revert\n        /* \"contracts/Twitter.sol\":213:254  mapping(address => Tweet[]) public tweets */\n    tag_3:\n      tag_5\n      0x04\n      dup1\n      calldatasize\n      sub\n      dup2\n      add\n      swap1\n      tag_6\n      swap2\n      swap1\n      tag_7\n      jump\t// in\n    tag_6:\n      tag_8\n      jump\t// in\n    tag_5:\n      mload(0x40)\n      tag_9\n      swap5\n      swap4\n      swap3\n      swap2\n      swap1\n      tag_10\n      jump\t// in\n    tag_9:\n      mload(0x40)\n      dup1\n      swap2\n      sub\n      swap1\n      return\n        /* \"contracts/Twitter.sol\":261:536  function createTweet(string memory _tweet) public {... */\n    tag_4:\n      tag_11\n      0x04\n      dup1\n      calldatasize\n      sub\n      dup2\n      add\n      swap1\n      tag_12\n      swap2\n      swap1\n      tag_13\n      jump\t// in\n    tag_12:\n      tag_14\n      jump\t// in\n    tag_11:\n      stop\n        /* \"contracts/Twitter.sol\":213:254  mapping(address => Tweet[]) public tweets */\n    tag_8:\n      mstore(0x20, 0x00)\n      dup2\n      0x00\n      mstore\n      keccak256(0x00, 0x40)\n      dup2\n      dup2\n      sload\n      dup2\n      lt\n      tag_15\n      jumpi\n      0x00\n      dup1\n      revert\n    tag_15:\n      swap1\n      0x00\n      mstore\n      keccak256(0x00, 0x20)\n      swap1\n      0x04\n      mul\n      add\n      0x00\n      swap2\n      pop\n      swap2\n      pop\n      pop\n      dup1\n      0x00\n      add\n      0x00\n      swap1\n      sload\n      swap1\n      0x0100\n      exp\n      swap1\n      div\n      0xffffffffffffffffffffffffffffffffffffffff\n      and\n      swap1\n      dup1\n      0x01\n      add\n      dup1\n      sload\n      tag_17\n      swap1\n      tag_18\n      jump\t// in\n    tag_17:\n      dup1\n      0x1f\n      add\n      0x20\n      dup1\n      swap2\n      div\n      mul\n      0x20\n      add\n      mload(0x40)\n      swap1\n      dup2\n      add\n      0x40\n      mstore\n      dup1\n      swap3\n      swap2\n      swap1\n      dup2\n      dup2\n      mstore\n      0x20\n      add\n      dup3\n      dup1\n      sload\n      tag_19\n      swap1\n      tag_18\n      jump\t// in\n    tag_19:\n      dup1\n      iszero\n      tag_20\n      jumpi\n      dup1\n      0x1f\n      lt\n      tag_21\n      jumpi\n      0x0100\n      dup1\n      dup4\n      sload\n      div\n      mul\n      dup4\n      mstore\n      swap2\n      0x20\n      add\n      swap2\n      jump(tag_20)\n    tag_21:\n      dup3\n      add\n      swap2\n      swap1\n      0x00\n      mstore\n      keccak256(0x00, 0x20)\n      swap1\n    tag_22:\n      dup2\n      sload\n      dup2\n      mstore\n      swap1\n      0x01\n      add\n      swap1\n      0x20\n      add\n      dup1\n      dup4\n      gt\n      tag_22\n      jumpi\n      dup3\n      swap1\n      sub\n      0x1f\n      and\n      dup3\n      add\n      swap2\n    tag_20:\n      pop\n      pop\n      pop\n      pop\n      pop\n      swap1\n      dup1\n      0x02\n      add\n      sload\n      swap1\n      dup1\n      0x03\n      add\n      sload\n      swap1\n      pop\n      dup5\n      jump\t// out\n        /* \"contracts/Twitter.sol\":261:536  function createTweet(string memory _tweet) public {... */\n    tag_14:\n        /* \"contracts/Twitter.sol\":321:342  Tweet memory newTweet */\n      0x00\n        /* \"contracts/Twitter.sol\":345:485  Tweet({... */\n      mload(0x40)\n      dup1\n      0x80\n      add\n      0x40\n      mstore\n      dup1\n        /* \"contracts/Twitter.sol\":373:383  msg.sender */\n      caller\n        /* \"contracts/Twitter.sol\":345:485  Tweet({... */\n      0xffffffffffffffffffffffffffffffffffffffff\n      and\n      dup2\n      mstore\n      0x20\n      add\n        /* \"contracts/Twitter.sol\":406:412  _tweet */\n      dup4\n        /* \"contracts/Twitter.sol\":345:485  Tweet({... */\n      dup2\n      mstore\n      0x20\n      add\n        /* \"contracts/Twitter.sol\":437:452  block.timestamp */\n      timestamp\n        /* \"contracts/Twitter.sol\":345:485  Tweet({... */\n      dup2\n      mstore\n      0x20\n      add\n        /* \"contracts/Twitter.sol\":473:474  0 */\n      0x00\n        /* \"contracts/Twitter.sol\":345:485  Tweet({... */\n      dup2\n      mstore\n      pop\n        /* \"contracts/Twitter.sol\":321:485  Tweet memory newTweet = Tweet({... */\n      swap1\n      pop\n        /* \"contracts/Twitter.sol\":496:502  tweets */\n      0x00\n        /* \"contracts/Twitter.sol\":496:514  tweets[msg.sender] */\n      dup1\n        /* \"contracts/Twitter.sol\":503:513  msg.sender */\n      caller\n        /* \"contracts/Twitter.sol\":496:514  tweets[msg.sender] */\n      0xffffffffffffffffffffffffffffffffffffffff\n      and\n      0xffffffffffffffffffffffffffffffffffffffff\n      and\n      dup2\n      mstore\n      0x20\n      add\n      swap1\n      dup2\n      mstore\n      0x20\n      add\n      0x00\n      keccak256\n        /* \"contracts/Twitter.sol\":520:528  newTweet */\n      dup2\n        /* \"contracts/Twitter.sol\":496:529  tweets[msg.sender].push(newTweet) */\n      swap1\n      dup1\n      0x01\n      dup2\n      sload\n      add\n      dup1\n      dup3\n      sstore\n      dup1\n      swap2\n      pop\n      pop\n      0x01\n      swap1\n      sub\n      swap1\n      0x00\n      mstore\n      keccak256(0x00, 0x20)\n      swap1\n      0x04\n      mul\n      add\n      0x00\n      swap1\n      swap2\n      swap1\n      swap2\n      swap1\n      swap2\n      pop\n      0x00\n      dup3\n      add\n      mload\n      dup2\n      0x00\n      add\n      exp(0x0100, 0x00)\n      dup2\n      sload\n      dup2\n      0xffffffffffffffffffffffffffffffffffffffff\n      mul\n      not\n      and\n      swap1\n      dup4\n      0xffffffffffffffffffffffffffffffffffffffff\n      and\n      mul\n      or\n      swap1\n      sstore\n      pop\n      0x20\n      dup3\n      add\n      mload\n      dup2\n      0x01\n      add\n      swap1\n      dup2\n      tag_25\n      swap2\n      swap1\n      tag_26\n      jump\t// in\n    tag_25:\n      pop\n      0x40\n      dup3\n      add\n      mload\n      dup2\n      0x02\n      add\n      sstore\n      0x60\n      dup3\n      add\n      mload\n      dup2\n      0x03\n      add\n      sstore\n      pop\n      pop\n        /* \"contracts/Twitter.sol\":311:536  {... */\n      pop\n        /* \"contracts/Twitter.sol\":261:536  function createTweet(string memory _tweet) public {... */\n      pop\n      jump\t// out\n        /* \"#utility.yul\":7:82   */\n    tag_27:\n        /* \"#utility.yul\":40:46   */\n      0x00\n        /* \"#utility.yul\":73:75   */\n      0x40\n        /* \"#utility.yul\":67:76   */\n      mload\n        /* \"#utility.yul\":57:76   */\n      swap1\n      pop\n        /* \"#utility.yul\":7:82   */\n      swap1\n      jump\t// out\n        /* \"#utility.yul\":88:205   */\n    tag_28:\n        /* \"#utility.yul\":197:198   */\n      0x00\n        /* \"#utility.yul\":194:195   */\n      dup1\n        /* \"#utility.yul\":187:199   */\n      revert\n        /* \"#utility.yul\":211:328   */\n    tag_29:\n        /* \"#utility.yul\":320:321   */\n      0x00\n        /* \"#utility.yul\":317:318   */\n      dup1\n        /* \"#utility.yul\":310:322   */\n      revert\n        /* \"#utility.yul\":334:460   */\n    tag_30:\n        /* \"#utility.yul\":371:378   */\n      0x00\n        /* \"#utility.yul\":411:453   */\n      0xffffffffffffffffffffffffffffffffffffffff\n        /* \"#utility.yul\":404:409   */\n      dup3\n        /* \"#utility.yul\":400:454   */\n      and\n        /* \"#utility.yul\":389:454   */\n      swap1\n      pop\n        /* \"#utility.yul\":334:460   */\n      swap2\n      swap1\n      pop\n      jump\t// out\n        /* \"#utility.yul\":466:562   */\n    tag_31:\n        /* \"#utility.yul\":503:510   */\n      0x00\n        /* \"#utility.yul\":532:556   */\n      tag_75\n        /* \"#utility.yul\":550:555   */\n      dup3\n        /* \"#utility.yul\":532:556   */\n      tag_30\n      jump\t// in\n    tag_75:\n        /* \"#utility.yul\":521:556   */\n      swap1\n      pop\n        /* \"#utility.yul\":466:562   */\n      swap2\n      swap1\n      pop\n      jump\t// out\n        /* \"#utility.yul\":568:690   */\n    tag_32:\n        /* \"#utility.yul\":641:665   */\n      tag_77\n        /* \"#utility.yul\":659:664   */\n      dup2\n        /* \"#utility.yul\":641:665   */\n      tag_31\n      jump\t// in\n    tag_77:\n        /* \"#utility.yul\":634:639   */\n      dup2\n        /* \"#utility.yul\":631:666   */\n      eq\n        /* \"#utility.yul\":621:684   */\n      tag_78\n      jumpi\n        /* \"#utility.yul\":680:681   */\n      0x00\n        /* \"#utility.yul\":677:678   */\n      dup1\n        /* \"#utility.yul\":670:682   */\n      revert\n        /* \"#utility.yul\":621:684   */\n    tag_78:\n        /* \"#utility.yul\":568:690   */\n      pop\n      jump\t// out\n        /* \"#utility.yul\":696:835   */\n    tag_33:\n        /* \"#utility.yul\":742:747   */\n      0x00\n        /* \"#utility.yul\":780:786   */\n      dup2\n        /* \"#utility.yul\":767:787   */\n      calldataload\n        /* \"#utility.yul\":758:787   */\n      swap1\n      pop\n        /* \"#utility.yul\":796:829   */\n      tag_80\n        /* \"#utility.yul\":823:828   */\n      dup2\n        /* \"#utility.yul\":796:829   */\n      tag_32\n      jump\t// in\n    tag_80:\n        /* \"#utility.yul\":696:835   */\n      swap3\n      swap2\n      pop\n      pop\n      jump\t// out\n        /* \"#utility.yul\":841:918   */\n    tag_34:\n        /* \"#utility.yul\":878:885   */\n      0x00\n        /* \"#utility.yul\":907:912   */\n      dup2\n        /* \"#utility.yul\":896:912   */\n      swap1\n      pop\n        /* \"#utility.yul\":841:918   */\n      swap2\n      swap1\n      pop\n      jump\t// out\n        /* \"#utility.yul\":924:1046   */\n    tag_35:\n        /* \"#utility.yul\":997:1021   */\n      tag_83\n        /* \"#utility.yul\":1015:1020   */\n      dup2\n        /* \"#utility.yul\":997:1021   */\n      tag_34\n      jump\t// in\n    tag_83:\n        /* \"#utility.yul\":990:995   */\n      dup2\n        /* \"#utility.yul\":987:1022   */\n      eq\n        /* \"#utility.yul\":977:1040   */\n      tag_84\n      jumpi\n        /* \"#utility.yul\":1036:1037   */\n      0x00\n        /* \"#utility.yul\":1033:1034   */\n      dup1\n        /* \"#utility.yul\":1026:1038   */\n      revert\n        /* \"#utility.yul\":977:1040   */\n    tag_84:\n        /* \"#utility.yul\":924:1046   */\n      pop\n      jump\t// out\n        /* \"#utility.yul\":1052:1191   */\n    tag_36:\n        /* \"#utility.yul\":1098:1103   */\n      0x00\n        /* \"#utility.yul\":1136:1142   */\n      dup2\n        /* \"#utility.yul\":1123:1143   */\n      calldataload\n        /* \"#utility.yul\":1114:1143   */\n      swap1\n      pop\n        /* \"#utility.yul\":1152:1185   */\n      tag_86\n        /* \"#utility.yul\":1179:1184   */\n      dup2\n        /* \"#utility.yul\":1152:1185   */\n      tag_35\n      jump\t// in\n    tag_86:\n        /* \"#utility.yul\":1052:1191   */\n      swap3\n      swap2\n      pop\n      pop\n      jump\t// out\n        /* \"#utility.yul\":1197:1671   */\n    tag_7:\n        /* \"#utility.yul\":1265:1271   */\n      0x00\n        /* \"#utility.yul\":1273:1279   */\n      dup1\n        /* \"#utility.yul\":1322:1324   */\n      0x40\n        /* \"#utility.yul\":1310:1319   */\n      dup4\n        /* \"#utility.yul\":1301:1308   */\n      dup6\n        /* \"#utility.yul\":1297:1320   */\n      sub\n        /* \"#utility.yul\":1293:1325   */\n      slt\n        /* \"#utility.yul\":1290:1409   */\n      iszero\n      tag_88\n      jumpi\n        /* \"#utility.yul\":1328:1407   */\n      tag_89\n      tag_28\n      jump\t// in\n    tag_89:\n        /* \"#utility.yul\":1290:1409   */\n    tag_88:\n        /* \"#utility.yul\":1448:1449   */\n      0x00\n        /* \"#utility.yul\":1473:1526   */\n      tag_90\n        /* \"#utility.yul\":1518:1525   */\n      dup6\n        /* \"#utility.yul\":1509:1515   */\n      dup3\n        /* \"#utility.yul\":1498:1507   */\n      dup7\n        /* \"#utility.yul\":1494:1516   */\n      add\n        /* \"#utility.yul\":1473:1526   */\n      tag_33\n      jump\t// in\n    tag_90:\n        /* \"#utility.yul\":1463:1526   */\n      swap3\n      pop\n        /* \"#utility.yul\":1419:1536   */\n      pop\n        /* \"#utility.yul\":1575:1577   */\n      0x20\n        /* \"#utility.yul\":1601:1654   */\n      tag_91\n        /* \"#utility.yul\":1646:1653   */\n      dup6\n        /* \"#utility.yul\":1637:1643   */\n      dup3\n        /* \"#utility.yul\":1626:1635   */\n      dup7\n        /* \"#utility.yul\":1622:1644   */\n      add\n        /* \"#utility.yul\":1601:1654   */\n      tag_36\n      jump\t// in\n    tag_91:\n        /* \"#utility.yul\":1591:1654   */\n      swap2\n      pop\n        /* \"#utility.yul\":1546:1664   */\n      pop\n        /* \"#utility.yul\":1197:1671   */\n      swap3\n      pop\n      swap3\n      swap1\n      pop\n      jump\t// out\n        /* \"#utility.yul\":1677:1795   */\n    tag_37:\n        /* \"#utility.yul\":1764:1788   */\n      tag_93\n        /* \"#utility.yul\":1782:1787   */\n      dup2\n        /* \"#utility.yul\":1764:1788   */\n      tag_31\n      jump\t// in\n    tag_93:\n        /* \"#utility.yul\":1759:1762   */\n      dup3\n        /* \"#utility.yul\":1752:1789   */\n      mstore\n        /* \"#utility.yul\":1677:1795   */\n      pop\n      pop\n      jump\t// out\n        /* \"#utility.yul\":1801:1900   */\n    tag_38:\n        /* \"#utility.yul\":1853:1859   */\n      0x00\n        /* \"#utility.yul\":1887:1892   */\n      dup2\n        /* \"#utility.yul\":1881:1893   */\n      mload\n        /* \"#utility.yul\":1871:1893   */\n      swap1\n      pop\n        /* \"#utility.yul\":1801:1900   */\n      swap2\n      swap1\n      pop\n      jump\t// out\n        /* \"#utility.yul\":1906:2075   */\n    tag_39:\n        /* \"#utility.yul\":1990:2001   */\n      0x00\n        /* \"#utility.yul\":2024:2030   */\n      dup3\n        /* \"#utility.yul\":2019:2022   */\n      dup3\n        /* \"#utility.yul\":2012:2031   */\n      mstore\n        /* \"#utility.yul\":2064:2068   */\n      0x20\n        /* \"#utility.yul\":2059:2062   */\n      dup3\n        /* \"#utility.yul\":2055:2069   */\n      add\n        /* \"#utility.yul\":2040:2069   */\n      swap1\n      pop\n        /* \"#utility.yul\":1906:2075   */\n      swap3\n      swap2\n      pop\n      pop\n      jump\t// out\n        /* \"#utility.yul\":2081:2220   */\n    tag_40:\n        /* \"#utility.yul\":2170:2176   */\n      dup3\n        /* \"#utility.yul\":2165:2168   */\n      dup2\n        /* \"#utility.yul\":2160:2163   */\n      dup4\n        /* \"#utility.yul\":2154:2177   */\n      mcopy\n        /* \"#utility.yul\":2211:2212   */\n      0x00\n        /* \"#utility.yul\":2202:2208   */\n      dup4\n        /* \"#utility.yul\":2197:2200   */\n      dup4\n        /* \"#utility.yul\":2193:2209   */\n      add\n        /* \"#utility.yul\":2186:2213   */\n      mstore\n        /* \"#utility.yul\":2081:2220   */\n      pop\n      pop\n      pop\n      jump\t// out\n        /* \"#utility.yul\":2226:2328   */\n    tag_41:\n        /* \"#utility.yul\":2267:2273   */\n      0x00\n        /* \"#utility.yul\":2318:2320   */\n      0x1f\n        /* \"#utility.yul\":2314:2321   */\n      not\n        /* \"#utility.yul\":2309:2311   */\n      0x1f\n        /* \"#utility.yul\":2302:2307   */\n      dup4\n        /* \"#utility.yul\":2298:2312   */\n      add\n        /* \"#utility.yul\":2294:2322   */\n      and\n        /* \"#utility.yul\":2284:2322   */\n      swap1\n      pop\n        /* \"#utility.yul\":2226:2328   */\n      swap2\n      swap1\n      pop\n      jump\t// out\n        /* \"#utility.yul\":2334:2711   */\n    tag_42:\n        /* \"#utility.yul\":2422:2425   */\n      0x00\n        /* \"#utility.yul\":2450:2489   */\n      tag_99\n        /* \"#utility.yul\":2483:2488   */\n      dup3\n        /* \"#utility.yul\":2450:2489   */\n      tag_38\n      jump\t// in\n    tag_99:\n        /* \"#utility.yul\":2505:2576   */\n      tag_100\n        /* \"#utility.yul\":2569:2575   */\n      dup2\n        /* \"#utility.yul\":2564:2567   */\n      dup6\n        /* \"#utility.yul\":2505:2576   */\n      tag_39\n      jump\t// in\n    tag_100:\n        /* \"#utility.yul\":2498:2576   */\n      swap4\n      pop\n        /* \"#utility.yul\":2585:2650   */\n      tag_101\n        /* \"#utility.yul\":2643:2649   */\n      dup2\n        /* \"#utility.yul\":2638:2641   */\n      dup6\n        /* \"#utility.yul\":2631:2635   */\n      0x20\n        /* \"#utility.yul\":2624:2629   */\n      dup7\n        /* \"#utility.yul\":2620:2636   */\n      add\n        /* \"#utility.yul\":2585:2650   */\n      tag_40\n      jump\t// in\n    tag_101:\n        /* \"#utility.yul\":2675:2704   */\n      tag_102\n        /* \"#utility.yul\":2697:2703   */\n      dup2\n        /* \"#utility.yul\":2675:2704   */\n      tag_41\n      jump\t// in\n    tag_102:\n        /* \"#utility.yul\":2670:2673   */\n      dup5\n        /* \"#utility.yul\":2666:2705   */\n      add\n        /* \"#utility.yul\":2659:2705   */\n      swap2\n      pop\n        /* \"#utility.yul\":2426:2711   */\n      pop\n        /* \"#utility.yul\":2334:2711   */\n      swap3\n      swap2\n      pop\n      pop\n      jump\t// out\n        /* \"#utility.yul\":2717:2835   */\n    tag_43:\n        /* \"#utility.yul\":2804:2828   */\n      tag_104\n        /* \"#utility.yul\":2822:2827   */\n      dup2\n        /* \"#utility.yul\":2804:2828   */\n      tag_34\n      jump\t// in\n    tag_104:\n        /* \"#utility.yul\":2799:2802   */\n      dup3\n        /* \"#utility.yul\":2792:2829   */\n      mstore\n        /* \"#utility.yul\":2717:2835   */\n      pop\n      pop\n      jump\t// out\n        /* \"#utility.yul\":2841:3485   */\n    tag_10:\n        /* \"#utility.yul\":3038:3042   */\n      0x00\n        /* \"#utility.yul\":3076:3079   */\n      0x80\n        /* \"#utility.yul\":3065:3074   */\n      dup3\n        /* \"#utility.yul\":3061:3080   */\n      add\n        /* \"#utility.yul\":3053:3080   */\n      swap1\n      pop\n        /* \"#utility.yul\":3090:3161   */\n      tag_106\n        /* \"#utility.yul\":3158:3159   */\n      0x00\n        /* \"#utility.yul\":3147:3156   */\n      dup4\n        /* \"#utility.yul\":3143:3160   */\n      add\n        /* \"#utility.yul\":3134:3140   */\n      dup8\n        /* \"#utility.yul\":3090:3161   */\n      tag_37\n      jump\t// in\n    tag_106:\n        /* \"#utility.yul\":3208:3217   */\n      dup2\n        /* \"#utility.yul\":3202:3206   */\n      dup2\n        /* \"#utility.yul\":3198:3218   */\n      sub\n        /* \"#utility.yul\":3193:3195   */\n      0x20\n        /* \"#utility.yul\":3182:3191   */\n      dup4\n        /* \"#utility.yul\":3178:3196   */\n      add\n        /* \"#utility.yul\":3171:3219   */\n      mstore\n        /* \"#utility.yul\":3236:3314   */\n      tag_107\n        /* \"#utility.yul\":3309:3313   */\n      dup2\n        /* \"#utility.yul\":3300:3306   */\n      dup7\n        /* \"#utility.yul\":3236:3314   */\n      tag_42\n      jump\t// in\n    tag_107:\n        /* \"#utility.yul\":3228:3314   */\n      swap1\n      pop\n        /* \"#utility.yul\":3324:3396   */\n      tag_108\n        /* \"#utility.yul\":3392:3394   */\n      0x40\n        /* \"#utility.yul\":3381:3390   */\n      dup4\n        /* \"#utility.yul\":3377:3395   */\n      add\n        /* \"#utility.yul\":3368:3374   */\n      dup6\n        /* \"#utility.yul\":3324:3396   */\n      tag_43\n      jump\t// in\n    tag_108:\n        /* \"#utility.yul\":3406:3478   */\n      tag_109\n        /* \"#utility.yul\":3474:3476   */\n      0x60\n        /* \"#utility.yul\":3463:3472   */\n      dup4\n        /* \"#utility.yul\":3459:3477   */\n      add\n        /* \"#utility.yul\":3450:3456   */\n      dup5\n        /* \"#utility.yul\":3406:3478   */\n      tag_43\n      jump\t// in\n    tag_109:\n        /* \"#utility.yul\":2841:3485   */\n      swap6\n      swap5\n      pop\n      pop\n      pop\n      pop\n      pop\n      jump\t// out\n        /* \"#utility.yul\":3491:3608   */\n    tag_44:\n        /* \"#utility.yul\":3600:3601   */\n      0x00\n        /* \"#utility.yul\":3597:3598   */\n      dup1\n        /* \"#utility.yul\":3590:3602   */\n      revert\n        /* \"#utility.yul\":3614:3731   */\n    tag_45:\n        /* \"#utility.yul\":3723:3724   */\n      0x00\n        /* \"#utility.yul\":3720:3721   */\n      dup1\n        /* \"#utility.yul\":3713:3725   */\n      revert\n        /* \"#utility.yul\":3737:3917   */\n    tag_46:\n        /* \"#utility.yul\":3785:3862   */\n      0x4e487b7100000000000000000000000000000000000000000000000000000000\n        /* \"#utility.yul\":3782:3783   */\n      0x00\n        /* \"#utility.yul\":3775:3863   */\n      mstore\n        /* \"#utility.yul\":3882:3886   */\n      0x41\n        /* \"#utility.yul\":3879:3880   */\n      0x04\n        /* \"#utility.yul\":3872:3887   */\n      mstore\n        /* \"#utility.yul\":3906:3910   */\n      0x24\n        /* \"#utility.yul\":3903:3904   */\n      0x00\n        /* \"#utility.yul\":3896:3911   */\n      revert\n        /* \"#utility.yul\":3923:4204   */\n    tag_47:\n        /* \"#utility.yul\":4006:4033   */\n      tag_114\n        /* \"#utility.yul\":4028:4032   */\n      dup3\n        /* \"#utility.yul\":4006:4033   */\n      tag_41\n      jump\t// in\n    tag_114:\n        /* \"#utility.yul\":3998:4004   */\n      dup2\n        /* \"#utility.yul\":3994:4034   */\n      add\n        /* \"#utility.yul\":4136:4142   */\n      dup2\n        /* \"#utility.yul\":4124:4134   */\n      dup2\n        /* \"#utility.yul\":4121:4143   */\n      lt\n        /* \"#utility.yul\":4100:4118   */\n      0xffffffffffffffff\n        /* \"#utility.yul\":4088:4098   */\n      dup3\n        /* \"#utility.yul\":4085:4119   */\n      gt\n        /* \"#utility.yul\":4082:4144   */\n      or\n        /* \"#utility.yul\":4079:4167   */\n      iszero\n      tag_115\n      jumpi\n        /* \"#utility.yul\":4147:4165   */\n      tag_116\n      tag_46\n      jump\t// in\n    tag_116:\n        /* \"#utility.yul\":4079:4167   */\n    tag_115:\n        /* \"#utility.yul\":4187:4197   */\n      dup1\n        /* \"#utility.yul\":4183:4185   */\n      0x40\n        /* \"#utility.yul\":4176:4198   */\n      mstore\n        /* \"#utility.yul\":3966:4204   */\n      pop\n        /* \"#utility.yul\":3923:4204   */\n      pop\n      pop\n      jump\t// out\n        /* \"#utility.yul\":4210:4339   */\n    tag_48:\n        /* \"#utility.yul\":4244:4250   */\n      0x00\n        /* \"#utility.yul\":4271:4291   */\n      tag_118\n      tag_27\n      jump\t// in\n    tag_118:\n        /* \"#utility.yul\":4261:4291   */\n      swap1\n      pop\n        /* \"#utility.yul\":4300:4333   */\n      tag_119\n        /* \"#utility.yul\":4328:4332   */\n      dup3\n        /* \"#utility.yul\":4320:4326   */\n      dup3\n        /* \"#utility.yul\":4300:4333   */\n      tag_47\n      jump\t// in\n    tag_119:\n        /* \"#utility.yul\":4210:4339   */\n      swap2\n      swap1\n      pop\n      jump\t// out\n        /* \"#utility.yul\":4345:4653   */\n    tag_49:\n        /* \"#utility.yul\":4407:4411   */\n      0x00\n        /* \"#utility.yul\":4497:4515   */\n      0xffffffffffffffff\n        /* \"#utility.yul\":4489:4495   */\n      dup3\n        /* \"#utility.yul\":4486:4516   */\n      gt\n        /* \"#utility.yul\":4483:4539   */\n      iszero\n      tag_121\n      jumpi\n        /* \"#utility.yul\":4519:4537   */\n      tag_122\n      tag_46\n      jump\t// in\n    tag_122:\n        /* \"#utility.yul\":4483:4539   */\n    tag_121:\n        /* \"#utility.yul\":4557:4586   */\n      tag_123\n        /* \"#utility.yul\":4579:4585   */\n      dup3\n        /* \"#utility.yul\":4557:4586   */\n      tag_41\n      jump\t// in\n    tag_123:\n        /* \"#utility.yul\":4549:4586   */\n      swap1\n      pop\n        /* \"#utility.yul\":4641:4645   */\n      0x20\n        /* \"#utility.yul\":4635:4639   */\n      dup2\n        /* \"#utility.yul\":4631:4646   */\n      add\n        /* \"#utility.yul\":4623:4646   */\n      swap1\n      pop\n        /* \"#utility.yul\":4345:4653   */\n      swap2\n      swap1\n      pop\n      jump\t// out\n        /* \"#utility.yul\":4659:4807   */\n    tag_50:\n        /* \"#utility.yul\":4757:4763   */\n      dup3\n        /* \"#utility.yul\":4752:4755   */\n      dup2\n        /* \"#utility.yul\":4747:4750   */\n      dup4\n        /* \"#utility.yul\":4734:4764   */\n      calldatacopy\n        /* \"#utility.yul\":4798:4799   */\n      0x00\n        /* \"#utility.yul\":4789:4795   */\n      dup4\n        /* \"#utility.yul\":4784:4787   */\n      dup4\n        /* \"#utility.yul\":4780:4796   */\n      add\n        /* \"#utility.yul\":4773:4800   */\n      mstore\n        /* \"#utility.yul\":4659:4807   */\n      pop\n      pop\n      pop\n      jump\t// out\n        /* \"#utility.yul\":4813:5238   */\n    tag_51:\n        /* \"#utility.yul\":4891:4896   */\n      0x00\n        /* \"#utility.yul\":4916:4982   */\n      tag_126\n        /* \"#utility.yul\":4932:4981   */\n      tag_127\n        /* \"#utility.yul\":4974:4980   */\n      dup5\n        /* \"#utility.yul\":4932:4981   */\n      tag_49\n      jump\t// in\n    tag_127:\n        /* \"#utility.yul\":4916:4982   */\n      tag_48\n      jump\t// in\n    tag_126:\n        /* \"#utility.yul\":4907:4982   */\n      swap1\n      pop\n        /* \"#utility.yul\":5005:5011   */\n      dup3\n        /* \"#utility.yul\":4998:5003   */\n      dup2\n        /* \"#utility.yul\":4991:5012   */\n      mstore\n        /* \"#utility.yul\":5043:5047   */\n      0x20\n        /* \"#utility.yul\":5036:5041   */\n      dup2\n        /* \"#utility.yul\":5032:5048   */\n      add\n        /* \"#utility.yul\":5081:5084   */\n      dup5\n        /* \"#utility.yul\":5072:5078   */\n      dup5\n        /* \"#utility.yul\":5067:5070   */\n      dup5\n        /* \"#utility.yul\":5063:5079   */\n      add\n        /* \"#utility.yul\":5060:5085   */\n      gt\n        /* \"#utility.yul\":5057:5169   */\n      iszero\n      tag_128\n      jumpi\n        /* \"#utility.yul\":5088:5167   */\n      tag_129\n      tag_45\n      jump\t// in\n    tag_129:\n        /* \"#utility.yul\":5057:5169   */\n    tag_128:\n        /* \"#utility.yul\":5178:5232   */\n      tag_130\n        /* \"#utility.yul\":5225:5231   */\n      dup5\n        /* \"#utility.yul\":5220:5223   */\n      dup3\n        /* \"#utility.yul\":5215:5218   */\n      dup6\n        /* \"#utility.yul\":5178:5232   */\n      tag_50\n      jump\t// in\n    tag_130:\n        /* \"#utility.yul\":4897:5238   */\n      pop\n        /* \"#utility.yul\":4813:5238   */\n      swap4\n      swap3\n      pop\n      pop\n      pop\n      jump\t// out\n        /* \"#utility.yul\":5258:5598   */\n    tag_52:\n        /* \"#utility.yul\":5314:5319   */\n      0x00\n        /* \"#utility.yul\":5363:5366   */\n      dup3\n        /* \"#utility.yul\":5356:5360   */\n      0x1f\n        /* \"#utility.yul\":5348:5354   */\n      dup4\n        /* \"#utility.yul\":5344:5361   */\n      add\n        /* \"#utility.yul\":5340:5367   */\n      slt\n        /* \"#utility.yul\":5330:5452   */\n      tag_132\n      jumpi\n        /* \"#utility.yul\":5371:5450   */\n      tag_133\n      tag_44\n      jump\t// in\n    tag_133:\n        /* \"#utility.yul\":5330:5452   */\n    tag_132:\n        /* \"#utility.yul\":5488:5494   */\n      dup2\n        /* \"#utility.yul\":5475:5495   */\n      calldataload\n        /* \"#utility.yul\":5513:5592   */\n      tag_134\n        /* \"#utility.yul\":5588:5591   */\n      dup5\n        /* \"#utility.yul\":5580:5586   */\n      dup3\n        /* \"#utility.yul\":5573:5577   */\n      0x20\n        /* \"#utility.yul\":5565:5571   */\n      dup7\n        /* \"#utility.yul\":5561:5578   */\n      add\n        /* \"#utility.yul\":5513:5592   */\n      tag_51\n      jump\t// in\n    tag_134:\n        /* \"#utility.yul\":5504:5592   */\n      swap2\n      pop\n        /* \"#utility.yul\":5320:5598   */\n      pop\n        /* \"#utility.yul\":5258:5598   */\n      swap3\n      swap2\n      pop\n      pop\n      jump\t// out\n        /* \"#utility.yul\":5604:6113   */\n    tag_13:\n        /* \"#utility.yul\":5673:5679   */\n      0x00\n        /* \"#utility.yul\":5722:5724   */\n      0x20\n        /* \"#utility.yul\":5710:5719   */\n      dup3\n        /* \"#utility.yul\":5701:5708   */\n      dup5\n        /* \"#utility.yul\":5697:5720   */\n      sub\n        /* \"#utility.yul\":5693:5725   */\n      slt\n        /* \"#utility.yul\":5690:5809   */\n      iszero\n      tag_136\n      jumpi\n        /* \"#utility.yul\":5728:5807   */\n      tag_137\n      tag_28\n      jump\t// in\n    tag_137:\n        /* \"#utility.yul\":5690:5809   */\n    tag_136:\n        /* \"#utility.yul\":5876:5877   */\n      0x00\n        /* \"#utility.yul\":5865:5874   */\n      dup3\n        /* \"#utility.yul\":5861:5878   */\n      add\n        /* \"#utility.yul\":5848:5879   */\n      calldataload\n        /* \"#utility.yul\":5906:5924   */\n      0xffffffffffffffff\n        /* \"#utility.yul\":5898:5904   */\n      dup2\n        /* \"#utility.yul\":5895:5925   */\n      gt\n        /* \"#utility.yul\":5892:6009   */\n      iszero\n      tag_138\n      jumpi\n        /* \"#utility.yul\":5928:6007   */\n      tag_139\n      tag_29\n      jump\t// in\n    tag_139:\n        /* \"#utility.yul\":5892:6009   */\n    tag_138:\n        /* \"#utility.yul\":6033:6096   */\n      tag_140\n        /* \"#utility.yul\":6088:6095   */\n      dup5\n        /* \"#utility.yul\":6079:6085   */\n      dup3\n        /* \"#utility.yul\":6068:6077   */\n      dup6\n        /* \"#utility.yul\":6064:6086   */\n      add\n        /* \"#utility.yul\":6033:6096   */\n      tag_52\n      jump\t// in\n    tag_140:\n        /* \"#utility.yul\":6023:6096   */\n      swap2\n      pop\n        /* \"#utility.yul\":5819:6106   */\n      pop\n        /* \"#utility.yul\":5604:6113   */\n      swap3\n      swap2\n      pop\n      pop\n      jump\t// out\n        /* \"#utility.yul\":6119:6299   */\n    tag_53:\n        /* \"#utility.yul\":6167:6244   */\n      0x4e487b7100000000000000000000000000000000000000000000000000000000\n        /* \"#utility.yul\":6164:6165   */\n      0x00\n        /* \"#utility.yul\":6157:6245   */\n      mstore\n        /* \"#utility.yul\":6264:6268   */\n      0x22\n        /* \"#utility.yul\":6261:6262   */\n      0x04\n        /* \"#utility.yul\":6254:6269   */\n      mstore\n        /* \"#utility.yul\":6288:6292   */\n      0x24\n        /* \"#utility.yul\":6285:6286   */\n      0x00\n        /* \"#utility.yul\":6278:6293   */\n      revert\n        /* \"#utility.yul\":6305:6625   */\n    tag_18:\n        /* \"#utility.yul\":6349:6355   */\n      0x00\n        /* \"#utility.yul\":6386:6387   */\n      0x02\n        /* \"#utility.yul\":6380:6384   */\n      dup3\n        /* \"#utility.yul\":6376:6388   */\n      div\n        /* \"#utility.yul\":6366:6388   */\n      swap1\n      pop\n        /* \"#utility.yul\":6433:6434   */\n      0x01\n        /* \"#utility.yul\":6427:6431   */\n      dup3\n        /* \"#utility.yul\":6423:6435   */\n      and\n        /* \"#utility.yul\":6454:6472   */\n      dup1\n        /* \"#utility.yul\":6444:6525   */\n      tag_143\n      jumpi\n        /* \"#utility.yul\":6510:6514   */\n      0x7f\n        /* \"#utility.yul\":6502:6508   */\n      dup3\n        /* \"#utility.yul\":6498:6515   */\n      and\n        /* \"#utility.yul\":6488:6515   */\n      swap2\n      pop\n        /* \"#utility.yul\":6444:6525   */\n    tag_143:\n        /* \"#utility.yul\":6572:6574   */\n      0x20\n        /* \"#utility.yul\":6564:6570   */\n      dup3\n        /* \"#utility.yul\":6561:6575   */\n      lt\n        /* \"#utility.yul\":6541:6559   */\n      dup2\n        /* \"#utility.yul\":6538:6576   */\n      sub\n        /* \"#utility.yul\":6535:6619   */\n      tag_144\n      jumpi\n        /* \"#utility.yul\":6591:6609   */\n      tag_145\n      tag_53\n      jump\t// in\n    tag_145:\n        /* \"#utility.yul\":6535:6619   */\n    tag_144:\n        /* \"#utility.yul\":6356:6625   */\n      pop\n        /* \"#utility.yul\":6305:6625   */\n      swap2\n      swap1\n      pop\n      jump\t// out\n        /* \"#utility.yul\":6631:6772   */\n    tag_54:\n        /* \"#utility.yul\":6680:6684   */\n      0x00\n        /* \"#utility.yul\":6703:6706   */\n      dup2\n        /* \"#utility.yul\":6695:6706   */\n      swap1\n      pop\n        /* \"#utility.yul\":6726:6729   */\n      dup2\n        /* \"#utility.yul\":6723:6724   */\n      0x00\n        /* \"#utility.yul\":6716:6730   */\n      mstore\n        /* \"#utility.yul\":6760:6764   */\n      0x20\n        /* \"#utility.yul\":6757:6758   */\n      0x00\n        /* \"#utility.yul\":6747:6765   */\n      keccak256\n        /* \"#utility.yul\":6739:6765   */\n      swap1\n      pop\n        /* \"#utility.yul\":6631:6772   */\n      swap2\n      swap1\n      pop\n      jump\t// out\n        /* \"#utility.yul\":6778:6871   */\n    tag_55:\n        /* \"#utility.yul\":6815:6821   */\n      0x00\n        /* \"#utility.yul\":6862:6864   */\n      0x20\n        /* \"#utility.yul\":6857:6859   */\n      0x1f\n        /* \"#utility.yul\":6850:6855   */\n      dup4\n        /* \"#utility.yul\":6846:6860   */\n      add\n        /* \"#utility.yul\":6842:6865   */\n      div\n        /* \"#utility.yul\":6832:6865   */\n      swap1\n      pop\n        /* \"#utility.yul\":6778:6871   */\n      swap2\n      swap1\n      pop\n      jump\t// out\n        /* \"#utility.yul\":6877:6984   */\n    tag_56:\n        /* \"#utility.yul\":6921:6929   */\n      0x00\n        /* \"#utility.yul\":6971:6976   */\n      dup3\n        /* \"#utility.yul\":6965:6969   */\n      dup3\n        /* \"#utility.yul\":6961:6977   */\n      shl\n        /* \"#utility.yul\":6940:6977   */\n      swap1\n      pop\n        /* \"#utility.yul\":6877:6984   */\n      swap3\n      swap2\n      pop\n      pop\n      jump\t// out\n        /* \"#utility.yul\":6990:7383   */\n    tag_57:\n        /* \"#utility.yul\":7059:7065   */\n      0x00\n        /* \"#utility.yul\":7109:7110   */\n      0x08\n        /* \"#utility.yul\":7097:7107   */\n      dup4\n        /* \"#utility.yul\":7093:7111   */\n      mul\n        /* \"#utility.yul\":7132:7229   */\n      tag_150\n        /* \"#utility.yul\":7162:7228   */\n      0xffffffffffffffffffffffffffffffffffffffffffffffffffffffffffffffff\n        /* \"#utility.yul\":7151:7160   */\n      dup3\n        /* \"#utility.yul\":7132:7229   */\n      tag_56\n      jump\t// in\n    tag_150:\n        /* \"#utility.yul\":7250:7289   */\n      tag_151\n        /* \"#utility.yul\":7280:7288   */\n      dup7\n        /* \"#utility.yul\":7269:7278   */\n      dup4\n        /* \"#utility.yul\":7250:7289   */\n      tag_56\n      jump\t// in\n    tag_151:\n        /* \"#utility.yul\":7238:7289   */\n      swap6\n      pop\n        /* \"#utility.yul\":7322:7326   */\n      dup1\n        /* \"#utility.yul\":7318:7327   */\n      not\n        /* \"#utility.yul\":7311:7316   */\n      dup5\n        /* \"#utility.yul\":7307:7328   */\n      and\n        /* \"#utility.yul\":7298:7328   */\n      swap4\n      pop\n        /* \"#utility.yul\":7371:7375   */\n      dup1\n        /* \"#utility.yul\":7361:7369   */\n      dup7\n        /* \"#utility.yul\":7357:7376   */\n      and\n        /* \"#utility.yul\":7350:7355   */\n      dup5\n        /* \"#utility.yul\":7347:7377   */\n      or\n        /* \"#utility.yul\":7337:7377   */\n      swap3\n      pop\n        /* \"#utility.yul\":7066:7383   */\n      pop\n      pop\n        /* \"#utility.yul\":6990:7383   */\n      swap4\n      swap3\n      pop\n      pop\n      pop\n      jump\t// out\n        /* \"#utility.yul\":7389:7449   */\n    tag_58:\n        /* \"#utility.yul\":7417:7420   */\n      0x00\n        /* \"#utility.yul\":7438:7443   */\n      dup2\n        /* \"#utility.yul\":7431:7443   */\n      swap1\n      pop\n        /* \"#utility.yul\":7389:7449   */\n      swap2\n      swap1\n      pop\n      jump\t// out\n        /* \"#utility.yul\":7455:7597   */\n    tag_59:\n        /* \"#utility.yul\":7505:7514   */\n      0x00\n        /* \"#utility.yul\":7538:7591   */\n      tag_154\n        /* \"#utility.yul\":7556:7590   */\n      tag_155\n        /* \"#utility.yul\":7565:7589   */\n      tag_156\n        /* \"#utility.yul\":7583:7588   */\n      dup5\n        /* \"#utility.yul\":7565:7589   */\n      tag_34\n      jump\t// in\n    tag_156:\n        /* \"#utility.yul\":7556:7590   */\n      tag_58\n      jump\t// in\n    tag_155:\n        /* \"#utility.yul\":7538:7591   */\n      tag_34\n      jump\t// in\n    tag_154:\n        /* \"#utility.yul\":7525:7591   */\n      swap1\n      pop\n        /* \"#utility.yul\":7455:7597   */\n      swap2\n      swap1\n      pop\n      jump\t// out\n        /* \"#utility.yul\":7603:7678   */\n    tag_60:\n        /* \"#utility.yul\":7646:7649   */\n      0x00\n        /* \"#utility.yul\":7667:7672   */\n      dup2\n        /* \"#utility.yul\":7660:7672   */\n      swap1\n      pop\n        /* \"#utility.yul\":7603:7678   */\n      swap2\n      swap1\n      pop\n      jump\t// out\n        /* \"#utility.yul\":7684:7953   */\n    tag_61:\n        /* \"#utility.yul\":7794:7833   */\n      tag_159\n        /* \"#utility.yul\":7825:7832   */\n      dup4\n        /* \"#utility.yul\":7794:7833   */\n      tag_59\n      jump\t// in\n    tag_159:\n        /* \"#utility.yul\":7855:7946   */\n      tag_160\n        /* \"#utility.yul\":7904:7945   */\n      tag_161\n        /* \"#utility.yul\":7928:7944   */\n      dup3\n        /* \"#utility.yul\":7904:7945   */\n      tag_60\n      jump\t// in\n    tag_161:\n        /* \"#utility.yul\":7896:7902   */\n      dup5\n        /* \"#utility.yul\":7889:7893   */\n      dup5\n        /* \"#utility.yul\":7883:7894   */\n      sload\n        /* \"#utility.yul\":7855:7946   */\n      tag_57\n      jump\t// in\n    tag_160:\n        /* \"#utility.yul\":7849:7853   */\n      dup3\n        /* \"#utility.yul\":7842:7947   */\n      sstore\n        /* \"#utility.yul\":7760:7953   */\n      pop\n        /* \"#utility.yul\":7684:7953   */\n      pop\n      pop\n      pop\n      jump\t// out\n        /* \"#utility.yul\":7959:8032   */\n    tag_62:\n        /* \"#utility.yul\":8004:8007   */\n      0x00\n        /* \"#utility.yul\":7959:8032   */\n      swap1\n      jump\t// out\n        /* \"#utility.yul\":8038:8227   */\n    tag_63:\n        /* \"#utility.yul\":8115:8147   */\n      tag_164\n      tag_62\n      jump\t// in\n    tag_164:\n        /* \"#utility.yul\":8156:8221   */\n      tag_165\n        /* \"#utility.yul\":8214:8220   */\n      dup2\n        /* \"#utility.yul\":8206:8212   */\n      dup5\n        /* \"#utility.yul\":8200:8204   */\n      dup5\n        /* \"#utility.yul\":8156:8221   */\n      tag_61\n      jump\t// in\n    tag_165:\n        /* \"#utility.yul\":8091:8227   */\n      pop\n        /* \"#utility.yul\":8038:8227   */\n      pop\n      pop\n      jump\t// out\n        /* \"#utility.yul\":8233:8419   */\n    tag_64:\n        /* \"#utility.yul\":8293:8413   */\n    tag_167:\n        /* \"#utility.yul\":8310:8313   */\n      dup2\n        /* \"#utility.yul\":8303:8308   */\n      dup2\n        /* \"#utility.yul\":8300:8314   */\n      lt\n        /* \"#utility.yul\":8293:8413   */\n      iszero\n      tag_169\n      jumpi\n        /* \"#utility.yul\":8364:8403   */\n      tag_170\n        /* \"#utility.yul\":8401:8402   */\n      0x00\n        /* \"#utility.yul\":8394:8399   */\n      dup3\n        /* \"#utility.yul\":8364:8403   */\n      tag_63\n      jump\t// in\n    tag_170:\n        /* \"#utility.yul\":8337:8338   */\n      0x01\n        /* \"#utility.yul\":8330:8335   */\n      dup2\n        /* \"#utility.yul\":8326:8339   */\n      add\n        /* \"#utility.yul\":8317:8339   */\n      swap1\n      pop\n        /* \"#utility.yul\":8293:8413   */\n      jump(tag_167)\n    tag_169:\n        /* \"#utility.yul\":8233:8419   */\n      pop\n      pop\n      jump\t// out\n        /* \"#utility.yul\":8425:8968   */\n    tag_65:\n        /* \"#utility.yul\":8526:8528   */\n      0x1f\n        /* \"#utility.yul\":8521:8524   */\n      dup3\n        /* \"#utility.yul\":8518:8529   */\n      gt\n        /* \"#utility.yul\":8515:8961   */\n      iszero\n      tag_172\n      jumpi\n        /* \"#utility.yul\":8560:8598   */\n      tag_173\n        /* \"#utility.yul\":8592:8597   */\n      dup2\n        /* \"#utility.yul\":8560:8598   */\n      tag_54\n      jump\t// in\n    tag_173:\n        /* \"#utility.yul\":8644:8673   */\n      tag_174\n        /* \"#utility.yul\":8662:8672   */\n      dup5\n        /* \"#utility.yul\":8644:8673   */\n      tag_55\n      jump\t// in\n    tag_174:\n        /* \"#utility.yul\":8634:8642   */\n      dup2\n        /* \"#utility.yul\":8630:8674   */\n      add\n        /* \"#utility.yul\":8827:8829   */\n      0x20\n        /* \"#utility.yul\":8815:8825   */\n      dup6\n        /* \"#utility.yul\":8812:8830   */\n      lt\n        /* \"#utility.yul\":8809:8858   */\n      iszero\n      tag_175\n      jumpi\n        /* \"#utility.yul\":8848:8856   */\n      dup2\n        /* \"#utility.yul\":8833:8856   */\n      swap1\n      pop\n        /* \"#utility.yul\":8809:8858   */\n    tag_175:\n        /* \"#utility.yul\":8871:8951   */\n      tag_176\n        /* \"#utility.yul\":8927:8949   */\n      tag_177\n        /* \"#utility.yul\":8945:8948   */\n      dup6\n        /* \"#utility.yul\":8927:8949   */\n      tag_55\n      jump\t// in\n    tag_177:\n        /* \"#utility.yul\":8917:8925   */\n      dup4\n        /* \"#utility.yul\":8913:8950   */\n      add\n        /* \"#utility.yul\":8900:8911   */\n      dup3\n        /* \"#utility.yul\":8871:8951   */\n      tag_64\n      jump\t// in\n    tag_176:\n        /* \"#utility.yul\":8530:8961   */\n      pop\n      pop\n        /* \"#utility.yul\":8515:8961   */\n    tag_172:\n        /* \"#utility.yul\":8425:8968   */\n      pop\n      pop\n      pop\n      jump\t// out\n        /* \"#utility.yul\":8974:9091   */\n    tag_66:\n        /* \"#utility.yul\":9028:9036   */\n      0x00\n        /* \"#utility.yul\":9078:9083   */\n      dup3\n        /* \"#utility.yul\":9072:9076   */\n      dup3\n        /* \"#utility.yul\":9068:9084   */\n      shr\n        /* \"#utility.yul\":9047:9084   */\n      swap1\n      pop\n        /* \"#utility.yul\":8974:9091   */\n      swap3\n      swap2\n      pop\n      pop\n      jump\t// out\n        /* \"#utility.yul\":9097:9266   */\n    tag_67:\n        /* \"#utility.yul\":9141:9147   */\n      0x00\n        /* \"#utility.yul\":9174:9225   */\n      tag_180\n        /* \"#utility.yul\":9222:9223   */\n      0x00\n        /* \"#utility.yul\":9218:9224   */\n      not\n        /* \"#utility.yul\":9210:9215   */\n      dup5\n        /* \"#utility.yul\":9207:9208   */\n      0x08\n        /* \"#utility.yul\":9203:9216   */\n      mul\n        /* \"#utility.yul\":9174:9225   */\n      tag_66\n      jump\t// in\n    tag_180:\n        /* \"#utility.yul\":9170:9226   */\n      not\n        /* \"#utility.yul\":9255:9259   */\n      dup1\n        /* \"#utility.yul\":9249:9253   */\n      dup4\n        /* \"#utility.yul\":9245:9260   */\n      and\n        /* \"#utility.yul\":9235:9260   */\n      swap2\n      pop\n        /* \"#utility.yul\":9148:9266   */\n      pop\n        /* \"#utility.yul\":9097:9266   */\n      swap3\n      swap2\n      pop\n      pop\n      jump\t// out\n        /* \"#utility.yul\":9271:9566   */\n    tag_68:\n        /* \"#utility.yul\":9347:9351   */\n      0x00\n        /* \"#utility.yul\":9493:9522   */\n      tag_182\n        /* \"#utility.yul\":9518:9521   */\n      dup4\n        /* \"#utility.yul\":9512:9516   */\n      dup4\n        /* \"#utility.yul\":9493:9522   */\n      tag_67\n      jump\t// in\n    tag_182:\n        /* \"#utility.yul\":9485:9522   */\n      swap2\n      pop\n        /* \"#utility.yul\":9555:9558   */\n      dup3\n        /* \"#utility.yul\":9552:9553   */\n      0x02\n        /* \"#utility.yul\":9548:9559   */\n      mul\n        /* \"#utility.yul\":9542:9546   */\n      dup3\n        /* \"#utility.yul\":9539:9560   */\n      or\n        /* \"#utility.yul\":9531:9560   */\n      swap1\n      pop\n        /* \"#utility.yul\":9271:9566   */\n      swap3\n      swap2\n      pop\n      pop\n      jump\t// out\n        /* \"#utility.yul\":9571:10966   */\n    tag_26:\n        /* \"#utility.yul\":9688:9725   */\n      tag_184\n        /* \"#utility.yul\":9721:9724   */\n      dup3\n        /* \"#utility.yul\":9688:9725   */\n      tag_38\n      jump\t// in\n    tag_184:\n        /* \"#utility.yul\":9790:9808   */\n      0xffffffffffffffff\n        /* \"#utility.yul\":9782:9788   */\n      dup2\n        /* \"#utility.yul\":9779:9809   */\n      gt\n        /* \"#utility.yul\":9776:9832   */\n      iszero\n      tag_185\n      jumpi\n        /* \"#utility.yul\":9812:9830   */\n      tag_186\n      tag_46\n      jump\t// in\n    tag_186:\n        /* \"#utility.yul\":9776:9832   */\n    tag_185:\n        /* \"#utility.yul\":9856:9894   */\n      tag_187\n        /* \"#utility.yul\":9888:9892   */\n      dup3\n        /* \"#utility.yul\":9882:9893   */\n      sload\n        /* \"#utility.yul\":9856:9894   */\n      tag_18\n      jump\t// in\n    tag_187:\n        /* \"#utility.yul\":9941:10008   */\n      tag_188\n        /* \"#utility.yul\":10001:10007   */\n      dup3\n        /* \"#utility.yul\":9993:9999   */\n      dup3\n        /* \"#utility.yul\":9987:9991   */\n      dup6\n        /* \"#utility.yul\":9941:10008   */\n      tag_65\n      jump\t// in\n    tag_188:\n        /* \"#utility.yul\":10035:10036   */\n      0x00\n        /* \"#utility.yul\":10059:10063   */\n      0x20\n        /* \"#utility.yul\":10046:10063   */\n      swap1\n      pop\n        /* \"#utility.yul\":10091:10093   */\n      0x1f\n        /* \"#utility.yul\":10083:10089   */\n      dup4\n        /* \"#utility.yul\":10080:10094   */\n      gt\n        /* \"#utility.yul\":10108:10109   */\n      0x01\n        /* \"#utility.yul\":10103:10721   */\n      dup2\n      eq\n      tag_190\n      jumpi\n        /* \"#utility.yul\":10765:10766   */\n      0x00\n        /* \"#utility.yul\":10782:10788   */\n      dup5\n        /* \"#utility.yul\":10779:10856   */\n      iszero\n      tag_191\n      jumpi\n        /* \"#utility.yul\":10831:10840   */\n      dup3\n        /* \"#utility.yul\":10826:10829   */\n      dup8\n        /* \"#utility.yul\":10822:10841   */\n      add\n        /* \"#utility.yul\":10816:10842   */\n      mload\n        /* \"#utility.yul\":10807:10842   */\n      swap1\n      pop\n        /* \"#utility.yul\":10779:10856   */\n    tag_191:\n        /* \"#utility.yul\":10882:10949   */\n      tag_192\n        /* \"#utility.yul\":10942:10948   */\n      dup6\n        /* \"#utility.yul\":10935:10940   */\n      dup3\n        /* \"#utility.yul\":10882:10949   */\n      tag_68\n      jump\t// in\n    tag_192:\n        /* \"#utility.yul\":10876:10880   */\n      dup7\n        /* \"#utility.yul\":10869:10950   */\n      sstore\n        /* \"#utility.yul\":10738:10960   */\n      pop\n        /* \"#utility.yul\":10073:10960   */\n      jump(tag_189)\n        /* \"#utility.yul\":10103:10721   */\n    tag_190:\n        /* \"#utility.yul\":10155:10159   */\n      0x1f\n        /* \"#utility.yul\":10151:10160   */\n      not\n        /* \"#utility.yul\":10143:10149   */\n      dup5\n        /* \"#utility.yul\":10139:10161   */\n      and\n        /* \"#utility.yul\":10189:10226   */\n      tag_193\n        /* \"#utility.yul\":10221:10225   */\n      dup7\n        /* \"#utility.yul\":10189:10226   */\n      tag_54\n      jump\t// in\n    tag_193:\n        /* \"#utility.yul\":10248:10249   */\n      0x00\n        /* \"#utility.yul\":10262:10470   */\n    tag_194:\n        /* \"#utility.yul\":10276:10283   */\n      dup3\n        /* \"#utility.yul\":10273:10274   */\n      dup2\n        /* \"#utility.yul\":10270:10284   */\n      lt\n        /* \"#utility.yul\":10262:10470   */\n      iszero\n      tag_196\n      jumpi\n        /* \"#utility.yul\":10355:10364   */\n      dup5\n        /* \"#utility.yul\":10350:10353   */\n      dup10\n        /* \"#utility.yul\":10346:10365   */\n      add\n        /* \"#utility.yul\":10340:10366   */\n      mload\n        /* \"#utility.yul\":10332:10338   */\n      dup3\n        /* \"#utility.yul\":10325:10367   */\n      sstore\n        /* \"#utility.yul\":10406:10407   */\n      0x01\n        /* \"#utility.yul\":10398:10404   */\n      dup3\n        /* \"#utility.yul\":10394:10408   */\n      add\n        /* \"#utility.yul\":10384:10408   */\n      swap2\n      pop\n        /* \"#utility.yul\":10453:10455   */\n      0x20\n        /* \"#utility.yul\":10442:10451   */\n      dup6\n        /* \"#utility.yul\":10438:10456   */\n      add\n        /* \"#utility.yul\":10425:10456   */\n      swap5\n      pop\n        /* \"#utility.yul\":10299:10303   */\n      0x20\n        /* \"#utility.yul\":10296:10297   */\n      dup2\n        /* \"#utility.yul\":10292:10304   */\n      add\n        /* \"#utility.yul\":10287:10304   */\n      swap1\n      pop\n        /* \"#utility.yul\":10262:10470   */\n      jump(tag_194)\n    tag_196:\n        /* \"#utility.yul\":10498:10504   */\n      dup7\n        /* \"#utility.yul\":10489:10496   */\n      dup4\n        /* \"#utility.yul\":10486:10505   */\n      lt\n        /* \"#utility.yul\":10483:10662   */\n      iszero\n      tag_197\n      jumpi\n        /* \"#utility.yul\":10556:10565   */\n      dup5\n        /* \"#utility.yul\":10551:10554   */\n      dup10\n        /* \"#utility.yul\":10547:10566   */\n      add\n        /* \"#utility.yul\":10541:10567   */\n      mload\n        /* \"#utility.yul\":10599:10647   */\n      tag_198\n        /* \"#utility.yul\":10641:10645   */\n      0x1f\n        /* \"#utility.yul\":10633:10639   */\n      dup10\n        /* \"#utility.yul\":10629:10646   */\n      and\n        /* \"#utility.yul\":10618:10627   */\n      dup3\n        /* \"#utility.yul\":10599:10647   */\n      tag_67\n      jump\t// in\n    tag_198:\n        /* \"#utility.yul\":10591:10597   */\n      dup4\n        /* \"#utility.yul\":10584:10648   */\n      sstore\n        /* \"#utility.yul\":10506:10662   */\n      pop\n        /* \"#utility.yul\":10483:10662   */\n    tag_197:\n        /* \"#utility.yul\":10708:10709   */\n      0x01\n        /* \"#utility.yul\":10704:10705   */\n      0x02\n        /* \"#utility.yul\":10696:10702   */\n      dup9\n        /* \"#utility.yul\":10692:10706   */\n      mul\n        /* \"#utility.yul\":10688:10710   */\n      add\n        /* \"#utility.yul\":10682:10686   */\n      dup9\n        /* \"#utility.yul\":10675:10711   */\n      sstore\n        /* \"#utility.yul\":10110:10721   */\n      pop\n      pop\n      pop\n        /* \"#utility.yul\":10073:10960   */\n    tag_189:\n      pop\n        /* \"#utility.yul\":9663:10966   */\n      pop\n      pop\n      pop\n        /* \"#utility.yul\":9571:10966   */\n      pop\n      pop\n      jump\t// out\n\n    auxdata: 0xa2646970667358221220c50e90d745058db1de363ade98ff02c98a7dc5aa87c10e0ac18e7f8303511eca64736f6c634300081a0033\n}\n",
				"bytecode": {
					"linkReferences": {},
					"object": "6080604052348015600e575f80fd5b506108a88061001c5f395ff3fe608060405234801561000f575f80fd5b5060043610610034575f3560e01c806305a1b4a9146100385780637c9cd2bc1461006b575b5f80fd5b610052600480360381019061004d9190610320565b610087565b60405161006294939291906103ec565b60405180910390f35b61008560048036038101906100809190610562565b610171565b005b5f602052815f5260405f20818154811061009f575f80fd5b905f5260205f2090600402015f9150915050805f015f9054906101000a900473ffffffffffffffffffffffffffffffffffffffff16908060010180546100e4906105d6565b80601f0160208091040260200160405190810160405280929190818152602001828054610110906105d6565b801561015b5780601f106101325761010080835404028352916020019161015b565b820191905f5260205f20905b81548152906001019060200180831161013e57829003601f168201915b5050505050908060020154908060030154905084565b5f60405180608001604052803373ffffffffffffffffffffffffffffffffffffffff1681526020018381526020014281526020015f81525090505f803373ffffffffffffffffffffffffffffffffffffffff1673ffffffffffffffffffffffffffffffffffffffff1681526020019081526020015f2081908060018154018082558091505060019003905f5260205f2090600402015f909190919091505f820151815f015f6101000a81548173ffffffffffffffffffffffffffffffffffffffff021916908373ffffffffffffffffffffffffffffffffffffffff160217905550602082015181600101908161026791906107a3565b50604082015181600201556060820151816003015550505050565b5f604051905090565b5f80fd5b5f80fd5b5f73ffffffffffffffffffffffffffffffffffffffff82169050919050565b5f6102bc82610293565b9050919050565b6102cc816102b2565b81146102d6575f80fd5b50565b5f813590506102e7816102c3565b92915050565b5f819050919050565b6102ff816102ed565b8114610309575f80fd5b50565b5f8135905061031a816102f6565b92915050565b5f80604083850312156103365761033561028b565b5b5f610343858286016102d9565b92505060206103548582860161030c565b9150509250929050565b610367816102b2565b82525050565b5f81519050919050565b5f82825260208201905092915050565b8281835e5f83830152505050565b5f601f19601f8301169050919050565b5f6103af8261036d565b6103b98185610377565b93506103c9818560208601610387565b6103d281610395565b840191505092915050565b6103e6816102ed565b82525050565b5f6080820190506103ff5f83018761035e565b818103602083015261041181866103a5565b905061042060408301856103dd565b61042d60608301846103dd565b95945050505050565b5f80fd5b5f80fd5b7f4e487b71000000000000000000000000000000000000000000000000000000005f52604160045260245ffd5b61047482610395565b810181811067ffffffffffffffff821117156104935761049261043e565b5b80604052505050565b5f6104a5610282565b90506104b1828261046b565b919050565b5f67ffffffffffffffff8211156104d0576104cf61043e565b5b6104d982610395565b9050602081019050919050565b828183375f83830152505050565b5f610506610501846104b6565b61049c565b9050828152602081018484840111156105225761052161043a565b5b61052d8482856104e6565b509392505050565b5f82601f83011261054957610548610436565b5b81356105598482602086016104f4565b91505092915050565b5f602082840312156105775761057661028b565b5b5f82013567ffffffffffffffff8111156105945761059361028f565b5b6105a084828501610535565b91505092915050565b7f4e487b71000000000000000000000000000000000000000000000000000000005f52602260045260245ffd5b5f60028204905060018216806105ed57607f821691505b602082108103610600576105ff6105a9565b5b50919050565b5f819050815f5260205f209050919050565b5f6020601f8301049050919050565b5f82821b905092915050565b5f600883026106627fffffffffffffffffffffffffffffffffffffffffffffffffffffffffffffffff82610627565b61066c8683610627565b95508019841693508086168417925050509392505050565b5f819050919050565b5f6106a76106a261069d846102ed565b610684565b6102ed565b9050919050565b5f819050919050565b6106c08361068d565b6106d46106cc826106ae565b848454610633565b825550505050565b5f90565b6106e86106dc565b6106f38184846106b7565b505050565b5b818110156107165761070b5f826106e0565b6001810190506106f9565b5050565b601f82111561075b5761072c81610606565b61073584610618565b81016020851015610744578190505b61075861075085610618565b8301826106f8565b50505b505050565b5f82821c905092915050565b5f61077b5f1984600802610760565b1980831691505092915050565b5f610793838361076c565b9150826002028217905092915050565b6107ac8261036d565b67ffffffffffffffff8111156107c5576107c461043e565b5b6107cf82546105d6565b6107da82828561071a565b5f60209050601f83116001811461080b575f84156107f9578287015190505b6108038582610788565b86555061086a565b601f19841661081986610606565b5f5b828110156108405784890151825560018201915060208501945060208101905061081b565b8683101561085d5784890151610859601f89168261076c565b8355505b6001600288020188555050505b50505050505056fea2646970667358221220c50e90d745058db1de363ade98ff02c98a7dc5aa87c10e0ac18e7f8303511eca64736f6c634300081a0033",
					"opcodes": "PUSH1 0x80 PUSH1 0x40 MSTORE CALLVALUE DUP1 ISZERO PUSH1 0xE JUMPI PUSH0 DUP1 REVERT JUMPDEST POP PUSH2 0x8A8 DUP1 PUSH2 0x1C PUSH0 CODECOPY PUSH0 RETURN INVALID PUSH1 0x80 PUSH1 0x40 MSTORE CALLVALUE DUP1 ISZERO PUSH2 0xF JUMPI PUSH0 DUP1 REVERT JUMPDEST POP PUSH1 0x4 CALLDATASIZE LT PUSH2 0x34 JUMPI PUSH0 CALLDATALOAD PUSH1 0xE0 SHR DUP1 PUSH4 0x5A1B4A9 EQ PUSH2 0x38 JUMPI DUP1 PUSH4 0x7C9CD2BC EQ PUSH2 0x6B JUMPI JUMPDEST PUSH0 DUP1 REVERT JUMPDEST PUSH2 0x52 PUSH1 0x4 DUP1 CALLDATASIZE SUB DUP2 ADD SWAP1 PUSH2 0x4D SWAP2 SWAP1 PUSH2 0x320 JUMP JUMPDEST PUSH2 0x87 JUMP JUMPDEST PUSH1 0x40 MLOAD PUSH2 0x62 SWAP5 SWAP4 SWAP3 SWAP2 SWAP1 PUSH2 0x3EC JUMP JUMPDEST PUSH1 0x40 MLOAD DUP1 SWAP2 SUB SWAP1 RETURN JUMPDEST PUSH2 0x85 PUSH1 0x4 DUP1 CALLDATASIZE SUB DUP2 ADD SWAP1 PUSH2 0x80 SWAP2 SWAP1 PUSH2 0x562 JUMP JUMPDEST PUSH2 0x171 JUMP JUMPDEST STOP JUMPDEST PUSH0 PUSH1 0x20 MSTORE DUP2 PUSH0 MSTORE PUSH1 0x40 PUSH0 KECCAK256 DUP2 DUP2 SLOAD DUP2 LT PUSH2 0x9F JUMPI PUSH0 DUP1 REVERT JUMPDEST SWAP1 PUSH0 MSTORE PUSH1 0x20 PUSH0 KECCAK256 SWAP1 PUSH1 0x4 MUL ADD PUSH0 SWAP2 POP SWAP2 POP POP DUP1 PUSH0 ADD PUSH0 SWAP1 SLOAD SWAP1 PUSH2 0x100 EXP SWAP1 DIV PUSH20 0xFFFFFFFFFFFFFFFFFFFFFFFFFFFFFFFFFFFFFFFF AND SWAP1 DUP1 PUSH1 0x1 ADD DUP1 SLOAD PUSH2 0xE4 SWAP1 PUSH2 0x5D6 JUMP JUMPDEST DUP1 PUSH1 0x1F ADD PUSH1 0x20 DUP1 SWAP2 DIV MUL PUSH1 0x20 ADD PUSH1 0x40 MLOAD SWAP1 DUP2 ADD PUSH1 0x40 MSTORE DUP1 SWAP3 SWAP2 SWAP1 DUP2 DUP2 MSTORE PUSH1 0x20 ADD DUP3 DUP1 SLOAD PUSH2 0x110 SWAP1 PUSH2 0x5D6 JUMP JUMPDEST DUP1 ISZERO PUSH2 0x15B JUMPI DUP1 PUSH1 0x1F LT PUSH2 0x132 JUMPI PUSH2 0x100 DUP1 DUP4 SLOAD DIV MUL DUP4 MSTORE SWAP2 PUSH1 0x20 ADD SWAP2 PUSH2 0x15B JUMP JUMPDEST DUP3 ADD SWAP2 SWAP1 PUSH0 MSTORE PUSH1 0x20 PUSH0 KECCAK256 SWAP1 JUMPDEST DUP2 SLOAD DUP2 MSTORE SWAP1 PUSH1 0x1 ADD SWAP1 PUSH1 0x20 ADD DUP1 DUP4 GT PUSH2 0x13E JUMPI DUP3 SWAP1 SUB PUSH1 0x1F AND DUP3 ADD SWAP2 JUMPDEST POP POP POP POP POP SWAP1 DUP1 PUSH1 0x2 ADD SLOAD SWAP1 DUP1 PUSH1 0x3 ADD SLOAD SWAP1 POP DUP5 JUMP JUMPDEST PUSH0 PUSH1 0x40 MLOAD DUP1 PUSH1 0x80 ADD PUSH1 0x40 MSTORE DUP1 CALLER PUSH20 0xFFFFFFFFFFFFFFFFFFFFFFFFFFFFFFFFFFFFFFFF AND DUP2 MSTORE PUSH1 0x20 ADD DUP4 DUP2 MSTORE PUSH1 0x20 ADD TIMESTAMP DUP2 MSTORE PUSH1 0x20 ADD PUSH0 DUP2 MSTORE POP SWAP1 POP PUSH0 DUP1 CALLER PUSH20 0xFFFFFFFFFFFFFFFFFFFFFFFFFFFFFFFFFFFFFFFF AND PUSH20 0xFFFFFFFFFFFFFFFFFFFFFFFFFFFFFFFFFFFFFFFF AND DUP2 MSTORE PUSH1 0x20 ADD SWAP1 DUP2 MSTORE PUSH1 0x20 ADD PUSH0 KECCAK256 DUP2 SWAP1 DUP1 PUSH1 0x1 DUP2 SLOAD ADD DUP1 DUP3 SSTORE DUP1 SWAP2 POP POP PUSH1 0x1 SWAP1 SUB SWAP1 PUSH0 MSTORE PUSH1 0x20 PUSH0 KECCAK256 SWAP1 PUSH1 0x4 MUL ADD PUSH0 SWAP1 SWAP2 SWAP1 SWAP2 SWAP1 SWAP2 POP PUSH0 DUP3 ADD MLOAD DUP2 PUSH0 ADD PUSH0 PUSH2 0x100 EXP DUP2 SLOAD DUP2 PUSH20 0xFFFFFFFFFFFFFFFFFFFFFFFFFFFFFFFFFFFFFFFF MUL NOT AND SWAP1 DUP4 PUSH20 0xFFFFFFFFFFFFFFFFFFFFFFFFFFFFFFFFFFFFFFFF AND MUL OR SWAP1 SSTORE POP PUSH1 0x20 DUP3 ADD MLOAD DUP2 PUSH1 0x1 ADD SWAP1 DUP2 PUSH2 0x267 SWAP2 SWAP1 PUSH2 0x7A3 JUMP JUMPDEST POP PUSH1 0x40 DUP3 ADD MLOAD DUP2 PUSH1 0x2 ADD SSTORE PUSH1 0x60 DUP3 ADD MLOAD DUP2 PUSH1 0x3 ADD SSTORE POP POP POP POP JUMP JUMPDEST PUSH0 PUSH1 0x40 MLOAD SWAP1 POP SWAP1 JUMP JUMPDEST PUSH0 DUP1 REVERT JUMPDEST PUSH0 DUP1 REVERT JUMPDEST PUSH0 PUSH20 0xFFFFFFFFFFFFFFFFFFFFFFFFFFFFFFFFFFFFFFFF DUP3 AND SWAP1 POP SWAP2 SWAP1 POP JUMP JUMPDEST PUSH0 PUSH2 0x2BC DUP3 PUSH2 0x293 JUMP JUMPDEST SWAP1 POP SWAP2 SWAP1 POP JUMP JUMPDEST PUSH2 0x2CC DUP2 PUSH2 0x2B2 JUMP JUMPDEST DUP2 EQ PUSH2 0x2D6 JUMPI PUSH0 DUP1 REVERT JUMPDEST POP JUMP JUMPDEST PUSH0 DUP2 CALLDATALOAD SWAP1 POP PUSH2 0x2E7 DUP2 PUSH2 0x2C3 JUMP JUMPDEST SWAP3 SWAP2 POP POP JUMP JUMPDEST PUSH0 DUP2 SWAP1 POP SWAP2 SWAP1 POP JUMP JUMPDEST PUSH2 0x2FF DUP2 PUSH2 0x2ED JUMP JUMPDEST DUP2 EQ PUSH2 0x309 JUMPI PUSH0 DUP1 REVERT JUMPDEST POP JUMP JUMPDEST PUSH0 DUP2 CALLDATALOAD SWAP1 POP PUSH2 0x31A DUP2 PUSH2 0x2F6 JUMP JUMPDEST SWAP3 SWAP2 POP POP JUMP JUMPDEST PUSH0 DUP1 PUSH1 0x40 DUP4 DUP6 SUB SLT ISZERO PUSH2 0x336 JUMPI PUSH2 0x335 PUSH2 0x28B JUMP JUMPDEST JUMPDEST PUSH0 PUSH2 0x343 DUP6 DUP3 DUP7 ADD PUSH2 0x2D9 JUMP JUMPDEST SWAP3 POP POP PUSH1 0x20 PUSH2 0x354 DUP6 DUP3 DUP7 ADD PUSH2 0x30C JUMP JUMPDEST SWAP2 POP POP SWAP3 POP SWAP3 SWAP1 POP JUMP JUMPDEST PUSH2 0x367 DUP2 PUSH2 0x2B2 JUMP JUMPDEST DUP3 MSTORE POP POP JUMP JUMPDEST PUSH0 DUP2 MLOAD SWAP1 POP SWAP2 SWAP1 POP JUMP JUMPDEST PUSH0 DUP3 DUP3 MSTORE PUSH1 0x20 DUP3 ADD SWAP1 POP SWAP3 SWAP2 POP POP JUMP JUMPDEST DUP3 DUP2 DUP4 MCOPY PUSH0 DUP4 DUP4 ADD MSTORE POP POP POP JUMP JUMPDEST PUSH0 PUSH1 0x1F NOT PUSH1 0x1F DUP4 ADD AND SWAP1 POP SWAP2 SWAP1 POP JUMP JUMPDEST PUSH0 PUSH2 0x3AF DUP3 PUSH2 0x36D JUMP JUMPDEST PUSH2 0x3B9 DUP2 DUP6 PUSH2 0x377 JUMP JUMPDEST SWAP4 POP PUSH2 0x3C9 DUP2 DUP6 PUSH1 0x20 DUP7 ADD PUSH2 0x387 JUMP JUMPDEST PUSH2 0x3D2 DUP2 PUSH2 0x395 JUMP JUMPDEST DUP5 ADD SWAP2 POP POP SWAP3 SWAP2 POP POP JUMP JUMPDEST PUSH2 0x3E6 DUP2 PUSH2 0x2ED JUMP JUMPDEST DUP3 MSTORE POP POP JUMP JUMPDEST PUSH0 PUSH1 0x80 DUP3 ADD SWAP1 POP PUSH2 0x3FF PUSH0 DUP4 ADD DUP8 PUSH2 0x35E JUMP JUMPDEST DUP2 DUP2 SUB PUSH1 0x20 DUP4 ADD MSTORE PUSH2 0x411 DUP2 DUP7 PUSH2 0x3A5 JUMP JUMPDEST SWAP1 POP PUSH2 0x420 PUSH1 0x40 DUP4 ADD DUP6 PUSH2 0x3DD JUMP JUMPDEST PUSH2 0x42D PUSH1 0x60 DUP4 ADD DUP5 PUSH2 0x3DD JUMP JUMPDEST SWAP6 SWAP5 POP POP POP POP POP JUMP JUMPDEST PUSH0 DUP1 REVERT JUMPDEST PUSH0 DUP1 REVERT JUMPDEST PUSH32 0x4E487B7100000000000000000000000000000000000000000000000000000000 PUSH0 MSTORE PUSH1 0x41 PUSH1 0x4 MSTORE PUSH1 0x24 PUSH0 REVERT JUMPDEST PUSH2 0x474 DUP3 PUSH2 0x395 JUMP JUMPDEST DUP2 ADD DUP2 DUP2 LT PUSH8 0xFFFFFFFFFFFFFFFF DUP3 GT OR ISZERO PUSH2 0x493 JUMPI PUSH2 0x492 PUSH2 0x43E JUMP JUMPDEST JUMPDEST DUP1 PUSH1 0x40 MSTORE POP POP POP JUMP JUMPDEST PUSH0 PUSH2 0x4A5 PUSH2 0x282 JUMP JUMPDEST SWAP1 POP PUSH2 0x4B1 DUP3 DUP3 PUSH2 0x46B JUMP JUMPDEST SWAP2 SWAP1 POP JUMP JUMPDEST PUSH0 PUSH8 0xFFFFFFFFFFFFFFFF DUP3 GT ISZERO PUSH2 0x4D0 JUMPI PUSH2 0x4CF PUSH2 0x43E JUMP JUMPDEST JUMPDEST PUSH2 0x4D9 DUP3 PUSH2 0x395 JUMP JUMPDEST SWAP1 POP PUSH1 0x20 DUP2 ADD SWAP1 POP SWAP2 SWAP1 POP JUMP JUMPDEST DUP3 DUP2 DUP4 CALLDATACOPY PUSH0 DUP4 DUP4 ADD MSTORE POP POP POP JUMP JUMPDEST PUSH0 PUSH2 0x506 PUSH2 0x501 DUP5 PUSH2 0x4B6 JUMP JUMPDEST PUSH2 0x49C JUMP JUMPDEST SWAP1 POP DUP3 DUP2 MSTORE PUSH1 0x20 DUP2 ADD DUP5 DUP5 DUP5 ADD GT ISZERO PUSH2 0x522 JUMPI PUSH2 0x521 PUSH2 0x43A JUMP JUMPDEST JUMPDEST PUSH2 0x52D DUP5 DUP3 DUP6 PUSH2 0x4E6 JUMP JUMPDEST POP SWAP4 SWAP3 POP POP POP JUMP JUMPDEST PUSH0 DUP3 PUSH1 0x1F DUP4 ADD SLT PUSH2 0x549 JUMPI PUSH2 0x548 PUSH2 0x436 JUMP JUMPDEST JUMPDEST DUP2 CALLDATALOAD PUSH2 0x559 DUP5 DUP3 PUSH1 0x20 DUP7 ADD PUSH2 0x4F4 JUMP JUMPDEST SWAP2 POP POP SWAP3 SWAP2 POP POP JUMP JUMPDEST PUSH0 PUSH1 0x20 DUP3 DUP5 SUB SLT ISZERO PUSH2 0x577 JUMPI PUSH2 0x576 PUSH2 0x28B JUMP JUMPDEST JUMPDEST PUSH0 DUP3 ADD CALLDATALOAD PUSH8 0xFFFFFFFFFFFFFFFF DUP2 GT ISZERO PUSH2 0x594 JUMPI PUSH2 0x593 PUSH2 0x28F JUMP JUMPDEST JUMPDEST PUSH2 0x5A0 DUP5 DUP3 DUP6 ADD PUSH2 0x535 JUMP JUMPDEST SWAP2 POP POP SWAP3 SWAP2 POP POP JUMP JUMPDEST PUSH32 0x4E487B7100000000000000000000000000000000000000000000000000000000 PUSH0 MSTORE PUSH1 0x22 PUSH1 0x4 MSTORE PUSH1 0x24 PUSH0 REVERT JUMPDEST PUSH0 PUSH1 0x2 DUP3 DIV SWAP1 POP PUSH1 0x1 DUP3 AND DUP1 PUSH2 0x5ED JUMPI PUSH1 0x7F DUP3 AND SWAP2 POP JUMPDEST PUSH1 0x20 DUP3 LT DUP2 SUB PUSH2 0x600 JUMPI PUSH2 0x5FF PUSH2 0x5A9 JUMP JUMPDEST JUMPDEST POP SWAP2 SWAP1 POP JUMP JUMPDEST PUSH0 DUP2 SWAP1 POP DUP2 PUSH0 MSTORE PUSH1 0x20 PUSH0 KECCAK256 SWAP1 POP SWAP2 SWAP1 POP JUMP JUMPDEST PUSH0 PUSH1 0x20 PUSH1 0x1F DUP4 ADD DIV SWAP1 POP SWAP2 SWAP1 POP JUMP JUMPDEST PUSH0 DUP3 DUP3 SHL SWAP1 POP SWAP3 SWAP2 POP POP JUMP JUMPDEST PUSH0 PUSH1 0x8 DUP4 MUL PUSH2 0x662 PUSH32 0xFFFFFFFFFFFFFFFFFFFFFFFFFFFFFFFFFFFFFFFFFFFFFFFFFFFFFFFFFFFFFFFF DUP3 PUSH2 0x627 JUMP JUMPDEST PUSH2 0x66C DUP7 DUP4 PUSH2 0x627 JUMP JUMPDEST SWAP6 POP DUP1 NOT DUP5 AND SWAP4 POP DUP1 DUP7 AND DUP5 OR SWAP3 POP POP POP SWAP4 SWAP3 POP POP POP JUMP JUMPDEST PUSH0 DUP2 SWAP1 POP SWAP2 SWAP1 POP JUMP JUMPDEST PUSH0 PUSH2 0x6A7 PUSH2 0x6A2 PUSH2 0x69D DUP5 PUSH2 0x2ED JUMP JUMPDEST PUSH2 0x684 JUMP JUMPDEST PUSH2 0x2ED JUMP JUMPDEST SWAP1 POP SWAP2 SWAP1 POP JUMP JUMPDEST PUSH0 DUP2 SWAP1 POP SWAP2 SWAP1 POP JUMP JUMPDEST PUSH2 0x6C0 DUP4 PUSH2 0x68D JUMP JUMPDEST PUSH2 0x6D4 PUSH2 0x6CC DUP3 PUSH2 0x6AE JUMP JUMPDEST DUP5 DUP5 SLOAD PUSH2 0x633 JUMP JUMPDEST DUP3 SSTORE POP POP POP POP JUMP JUMPDEST PUSH0 SWAP1 JUMP JUMPDEST PUSH2 0x6E8 PUSH2 0x6DC JUMP JUMPDEST PUSH2 0x6F3 DUP2 DUP5 DUP5 PUSH2 0x6B7 JUMP JUMPDEST POP POP POP JUMP JUMPDEST JUMPDEST DUP2 DUP2 LT ISZERO PUSH2 0x716 JUMPI PUSH2 0x70B PUSH0 DUP3 PUSH2 0x6E0 JUMP JUMPDEST PUSH1 0x1 DUP2 ADD SWAP1 POP PUSH2 0x6F9 JUMP JUMPDEST POP POP JUMP JUMPDEST PUSH1 0x1F DUP3 GT ISZERO PUSH2 0x75B JUMPI PUSH2 0x72C DUP2 PUSH2 0x606 JUMP JUMPDEST PUSH2 0x735 DUP5 PUSH2 0x618 JUMP JUMPDEST DUP2 ADD PUSH1 0x20 DUP6 LT ISZERO PUSH2 0x744 JUMPI DUP2 SWAP1 POP JUMPDEST PUSH2 0x758 PUSH2 0x750 DUP6 PUSH2 0x618 JUMP JUMPDEST DUP4 ADD DUP3 PUSH2 0x6F8 JUMP JUMPDEST POP POP JUMPDEST POP POP POP JUMP JUMPDEST PUSH0 DUP3 DUP3 SHR SWAP1 POP SWAP3 SWAP2 POP POP JUMP JUMPDEST PUSH0 PUSH2 0x77B PUSH0 NOT DUP5 PUSH1 0x8 MUL PUSH2 0x760 JUMP JUMPDEST NOT DUP1 DUP4 AND SWAP2 POP POP SWAP3 SWAP2 POP POP JUMP JUMPDEST PUSH0 PUSH2 0x793 DUP4 DUP4 PUSH2 0x76C JUMP JUMPDEST SWAP2 POP DUP3 PUSH1 0x2 MUL DUP3 OR SWAP1 POP SWAP3 SWAP2 POP POP JUMP JUMPDEST PUSH2 0x7AC DUP3 PUSH2 0x36D JUMP JUMPDEST PUSH8 0xFFFFFFFFFFFFFFFF DUP2 GT ISZERO PUSH2 0x7C5 JUMPI PUSH2 0x7C4 PUSH2 0x43E JUMP JUMPDEST JUMPDEST PUSH2 0x7CF DUP3 SLOAD PUSH2 0x5D6 JUMP JUMPDEST PUSH2 0x7DA DUP3 DUP3 DUP6 PUSH2 0x71A JUMP JUMPDEST PUSH0 PUSH1 0x20 SWAP1 POP PUSH1 0x1F DUP4 GT PUSH1 0x1 DUP2 EQ PUSH2 0x80B JUMPI PUSH0 DUP5 ISZERO PUSH2 0x7F9 JUMPI DUP3 DUP8 ADD MLOAD SWAP1 POP JUMPDEST PUSH2 0x803 DUP6 DUP3 PUSH2 0x788 JUMP JUMPDEST DUP7 SSTORE POP PUSH2 0x86A JUMP JUMPDEST PUSH1 0x1F NOT DUP5 AND PUSH2 0x819 DUP7 PUSH2 0x606 JUMP JUMPDEST PUSH0 JUMPDEST DUP3 DUP2 LT ISZERO PUSH2 0x840 JUMPI DUP5 DUP10 ADD MLOAD DUP3 SSTORE PUSH1 0x1 DUP3 ADD SWAP2 POP PUSH1 0x20 DUP6 ADD SWAP5 POP PUSH1 0x20 DUP2 ADD SWAP1 POP PUSH2 0x81B JUMP JUMPDEST DUP7 DUP4 LT ISZERO PUSH2 0x85D JUMPI DUP5 DUP10 ADD MLOAD PUSH2 0x859 PUSH1 0x1F DUP10 AND DUP3 PUSH2 0x76C JUMP JUMPDEST DUP4 SSTORE POP JUMPDEST PUSH1 0x1 PUSH1 0x2 DUP9 MUL ADD DUP9 SSTORE POP POP POP JUMPDEST POP POP POP POP POP POP JUMP INVALID LOG2 PUSH5 0x6970667358 0x22 SLT KECCAK256 0xC5 0xE SWAP1 0xD7 GASLIMIT SDIV DUP14 0xB1 0xDE CALLDATASIZE GASPRICE 0xDE SWAP9 SELFDESTRUCT MUL 0xC9 DUP11 PUSH30 0xC5AA87C10E0AC18E7F8303511ECA64736F6C634300081A00330000000000 "
				},
				"gasEstimates": {
					"creation": {
						"codeDepositCost": "443200",
						"executionCost": "478",
						"totalCost": "443678"
					},
					"external": {
						"createTweet(string)": "infinite",
						"tweets(address,uint256)": "infinite"
					}
				},
				"methodIdentifiers": {
					"createTweet(string)": "7c9cd2bc",
					"tweets(address,uint256)": "05a1b4a9"
				}
			},
			"storageLayout": {
				"storage": [
					{
						"astId": 16,
						"contract": "contracts/Twitter.sol:Twitter",
						"label": "tweets",
						"offset": 0,
						"slot": "0",
						"type": "t_mapping(t_address,t_array(t_struct(Tweet)10_storage)dyn_storage)"
					}
				],
				"types": {
					"t_address": {
						"encoding": "inplace",
						"label": "address",
						"numberOfBytes": "20"
					},
					"t_array(t_struct(Tweet)10_storage)dyn_storage": {
						"base": "t_struct(Tweet)10_storage",
						"encoding": "dynamic_array",
						"label": "struct Twitter.Tweet[]",
						"numberOfBytes": "32"
					},
					"t_mapping(t_address,t_array(t_struct(Tweet)10_storage)dyn_storage)": {
						"encoding": "mapping",
						"key": "t_address",
						"label": "mapping(address => struct Twitter.Tweet[])",
						"numberOfBytes": "32",
						"value": "t_array(t_struct(Tweet)10_storage)dyn_storage"
					},
					"t_string_storage": {
						"encoding": "bytes",
						"label": "string",
						"numberOfBytes": "32"
					},
					"t_struct(Tweet)10_storage": {
						"encoding": "inplace",
						"label": "struct Twitter.Tweet",
						"members": [
							{
								"astId": 3,
								"contract": "contracts/Twitter.sol:Twitter",
								"label": "author",
								"offset": 0,
								"slot": "0",
								"type": "t_address"
							},
							{
								"astId": 5,
								"contract": "contracts/Twitter.sol:Twitter",
								"label": "content",
								"offset": 0,
								"slot": "1",
								"type": "t_string_storage"
							},
							{
								"astId": 7,
								"contract": "contracts/Twitter.sol:Twitter",
								"label": "timestamp",
								"offset": 0,
								"slot": "2",
								"type": "t_uint256"
							},
							{
								"astId": 9,
								"contract": "contracts/Twitter.sol:Twitter",
								"label": "likes",
								"offset": 0,
								"slot": "3",
								"type": "t_uint256"
							}
						],
						"numberOfBytes": "128"
					},
					"t_uint256": {
						"encoding": "inplace",
						"label": "uint256",
						"numberOfBytes": "32"
					}
				}
			},
			"userdoc": {
				"kind": "user",
				"methods": {},
				"version": 1
			}
		}
	}
}