{
	"contracts/Twitter-GetTotalLikes-Exercise.sol": {
		"Twitter": {
			"abi": [
				{
					"inputs": [],
					"stateMutability": "nonpayable",
					"type": "constructor"
				},
				{
					"anonymous": false,
					"inputs": [
						{
							"indexed": false,
							"internalType": "uint256",
							"name": "id",
							"type": "uint256"
						},
						{
							"indexed": false,
							"internalType": "address",
							"name": "author",
							"type": "address"
						},
						{
							"indexed": false,
							"internalType": "string",
							"name": "content",
							"type": "string"
						},
						{
							"indexed": false,
							"internalType": "uint256",
							"name": "timestamp",
							"type": "uint256"
						}
					],
					"name": "TweetCreated",
					"type": "event"
				},
				{
					"anonymous": false,
					"inputs": [
						{
							"indexed": false,
							"internalType": "address",
							"name": "liker",
							"type": "address"
						},
						{
							"indexed": false,
							"internalType": "address",
							"name": "tweetAuthor",
							"type": "address"
						},
						{
							"indexed": false,
							"internalType": "uint256",
							"name": "tweetId",
							"type": "uint256"
						},
						{
							"indexed": false,
							"internalType": "uint256",
							"name": "newLikeCount",
							"type": "uint256"
						}
					],
					"name": "TweetLiked",
					"type": "event"
				},
				{
					"anonymous": false,
					"inputs": [
						{
							"indexed": false,
							"internalType": "address",
							"name": "unliker",
							"type": "address"
						},
						{
							"indexed": false,
							"internalType": "address",
							"name": "tweetAuthor",
							"type": "address"
						},
						{
							"indexed": false,
							"internalType": "uint256",
							"name": "tweetId",
							"type": "uint256"
						},
						{
							"indexed": false,
							"internalType": "uint256",
							"name": "newLikeCount",
							"type": "uint256"
						}
					],
					"name": "TweetUnliked",
					"type": "event"
				},
				{
					"inputs": [],
					"name": "MAX_TWEET_LENGTH",
					"outputs": [
						{
							"internalType": "uint16",
							"name": "",
							"type": "uint16"
						}
					],
					"stateMutability": "view",
					"type": "function"
				},
				{
					"inputs": [
						{
							"internalType": "uint16",
							"name": "newTweetLength",
							"type": "uint16"
						}
					],
					"name": "changeTweetLength",
					"outputs": [],
					"stateMutability": "nonpayable",
					"type": "function"
				},
				{
					"inputs": [
						{
							"internalType": "string",
							"name": "_tweet",
							"type": "string"
						}
					],
					"name": "createTweet",
					"outputs": [],
					"stateMutability": "nonpayable",
					"type": "function"
				},
				{
					"inputs": [
						{
							"internalType": "address",
							"name": "_owner",
							"type": "address"
						}
					],
					"name": "getAllTweets",
					"outputs": [
						{
							"components": [
								{
									"internalType": "uint256",
									"name": "id",
									"type": "uint256"
								},
								{
									"internalType": "address",
									"name": "author",
									"type": "address"
								},
								{
									"internalType": "string",
									"name": "content",
									"type": "string"
								},
								{
									"internalType": "uint256",
									"name": "timestamp",
									"type": "uint256"
								},
								{
									"internalType": "uint256",
									"name": "likes",
									"type": "uint256"
								}
							],
							"internalType": "struct Twitter.Tweet[]",
							"name": "",
							"type": "tuple[]"
						}
					],
					"stateMutability": "view",
					"type": "function"
				},
				{
					"inputs": [
						{
							"internalType": "address",
							"name": "_author",
							"type": "address"
						}
					],
					"name": "getTotalLikes",
					"outputs": [
						{
							"internalType": "uint256",
							"name": "",
							"type": "uint256"
						}
					],
					"stateMutability": "view",
					"type": "function"
				},
				{
					"inputs": [
						{
							"internalType": "uint256",
							"name": "_i",
							"type": "uint256"
						}
					],
					"name": "getTweet",
					"outputs": [
						{
							"components": [
								{
									"internalType": "uint256",
									"name": "id",
									"type": "uint256"
								},
								{
									"internalType": "address",
									"name": "author",
									"type": "address"
								},
								{
									"internalType": "string",
									"name": "content",
									"type": "string"
								},
								{
									"internalType": "uint256",
									"name": "timestamp",
									"type": "uint256"
								},
								{
									"internalType": "uint256",
									"name": "likes",
									"type": "uint256"
								}
							],
							"internalType": "struct Twitter.Tweet",
							"name": "",
							"type": "tuple"
						}
					],
					"stateMutability": "view",
					"type": "function"
				},
				{
					"inputs": [
						{
							"internalType": "address",
							"name": "author",
							"type": "address"
						},
						{
							"internalType": "uint256",
							"name": "id",
							"type": "uint256"
						}
					],
					"name": "likeTweet",
					"outputs": [],
					"stateMutability": "nonpayable",
					"type": "function"
				},
				{
					"inputs": [],
					"name": "owner",
					"outputs": [
						{
							"internalType": "address",
							"name": "",
							"type": "address"
						}
					],
					"stateMutability": "view",
					"type": "function"
				},
				{
					"inputs": [
						{
							"internalType": "address",
							"name": "",
							"type": "address"
						},
						{
							"internalType": "uint256",
							"name": "",
							"type": "uint256"
						}
					],
					"name": "tweets",
					"outputs": [
						{
							"internalType": "uint256",
							"name": "id",
							"type": "uint256"
						},
						{
							"internalType": "address",
							"name": "author",
							"type": "address"
						},
						{
							"internalType": "string",
							"name": "content",
							"type": "string"
						},
						{
							"internalType": "uint256",
							"name": "timestamp",
							"type": "uint256"
						},
						{
							"internalType": "uint256",
							"name": "likes",
							"type": "uint256"
						}
					],
					"stateMutability": "view",
					"type": "function"
				},
				{
					"inputs": [
						{
							"internalType": "address",
							"name": "author",
							"type": "address"
						},
						{
							"internalType": "uint256",
							"name": "id",
							"type": "uint256"
						}
					],
					"name": "unlikeTweet",
					"outputs": [],
					"stateMutability": "nonpayable",
					"type": "function"
				}
			],
			"devdoc": {
				"kind": "dev",
				"methods": {},
				"version": 1
			},
			"evm": {
				"assembly": "    /* \"contracts/Twitter-GetTotalLikes-Exercise.sol\":57:3592  contract Twitter {... */\n  mstore(0x40, 0x80)\n    /* \"contracts/Twitter-GetTotalLikes-Exercise.sol\":113:116  280 */\n  0x0118\n    /* \"contracts/Twitter-GetTotalLikes-Exercise.sol\":80:116  uint16 public MAX_TWEET_LENGTH = 280 */\n  0x00\n  dup1\n  0x0100\n  exp\n  dup2\n  sload\n  dup2\n  0xffff\n  mul\n  not\n  and\n  swap1\n  dup4\n  0xffff\n  and\n  mul\n  or\n  swap1\n  sstore\n  pop\n    /* \"contracts/Twitter-GetTotalLikes-Exercise.sol\":836:885  constructor() {... */\n  callvalue\n  dup1\n  iszero\n  tag_1\n  jumpi\n  0x00\n  dup1\n  revert\ntag_1:\n  pop\n    /* \"contracts/Twitter-GetTotalLikes-Exercise.sol\":868:878  msg.sender */\n  caller\n    /* \"contracts/Twitter-GetTotalLikes-Exercise.sol\":860:865  owner */\n  0x02\n  0x00\n    /* \"contracts/Twitter-GetTotalLikes-Exercise.sol\":860:878  owner = msg.sender */\n  0x0100\n  exp\n  dup2\n  sload\n  dup2\n  0xffffffffffffffffffffffffffffffffffffffff\n  mul\n  not\n  and\n  swap1\n  dup4\n  0xffffffffffffffffffffffffffffffffffffffff\n  and\n  mul\n  or\n  swap1\n  sstore\n  pop\n    /* \"contracts/Twitter-GetTotalLikes-Exercise.sol\":57:3592  contract Twitter {... */\n  dataSize(sub_0)\n  dup1\n  dataOffset(sub_0)\n  0x00\n  codecopy\n  0x00\n  return\nstop\n\nsub_0: assembly {\n        /* \"contracts/Twitter-GetTotalLikes-Exercise.sol\":57:3592  contract Twitter {... */\n      mstore(0x40, 0x80)\n      callvalue\n      dup1\n      iszero\n      tag_1\n      jumpi\n      0x00\n      dup1\n      revert\n    tag_1:\n      pop\n      jumpi(tag_2, lt(calldatasize, 0x04))\n      shr(0xe0, calldataload(0x00))\n      dup1\n      0x6eb10797\n      gt\n      tag_13\n      jumpi\n      dup1\n      0x6eb10797\n      eq\n      tag_8\n      jumpi\n      dup1\n      0x7c9cd2bc\n      eq\n      tag_9\n      jumpi\n      dup1\n      0x820785cc\n      eq\n      tag_10\n      jumpi\n      dup1\n      0x8da5cb5b\n      eq\n      tag_11\n      jumpi\n      dup1\n      0xc3ad5ecb\n      eq\n      tag_12\n      jumpi\n      jump(tag_2)\n    tag_13:\n      dup1\n      0x05a1b4a9\n      eq\n      tag_3\n      jumpi\n      dup1\n      0x12e7ee1c\n      eq\n      tag_4\n      jumpi\n      dup1\n      0x3d9b569f\n      eq\n      tag_5\n      jumpi\n      dup1\n      0x58bfa4ab\n      eq\n      tag_6\n      jumpi\n      dup1\n      0x63378216\n      eq\n      tag_7\n      jumpi\n    tag_2:\n      0x00\n      dup1\n      revert\n        /* \"contracts/Twitter-GetTotalLikes-Exercise.sol\":312:353  mapping(address => Tweet[]) public tweets */\n    tag_3:\n      tag_14\n      0x04\n      dup1\n      calldatasize\n      sub\n      dup2\n      add\n      swap1\n      tag_15\n      swap2\n      swap1\n      tag_16\n      jump\t// in\n    tag_15:\n      tag_17\n      jump\t// in\n    tag_14:\n      mload(0x40)\n      tag_18\n      swap6\n      swap5\n      swap4\n      swap3\n      swap2\n      swap1\n      tag_19\n      jump\t// in\n    tag_18:\n      mload(0x40)\n      dup1\n      swap2\n      sub\n      swap1\n      return\n        /* \"contracts/Twitter-GetTotalLikes-Exercise.sol\":3477:3590  function getAllTweets(address _owner) public view returns (Tweet[] memory) {... */\n    tag_4:\n      tag_20\n      0x04\n      dup1\n      calldatasize\n      sub\n      dup2\n      add\n      swap1\n      tag_21\n      swap2\n      swap1\n      tag_22\n      jump\t// in\n    tag_21:\n      tag_23\n      jump\t// in\n    tag_20:\n      mload(0x40)\n      tag_24\n      swap2\n      swap1\n      tag_25\n      jump\t// in\n    tag_24:\n      mload(0x40)\n      dup1\n      swap2\n      sub\n      swap1\n      return\n        /* \"contracts/Twitter-GetTotalLikes-Exercise.sol\":2844:3237  function unlikeTweet(address author, uint256 id) external {... */\n    tag_5:\n      tag_26\n      0x04\n      dup1\n      calldatasize\n      sub\n      dup2\n      add\n      swap1\n      tag_27\n      swap2\n      swap1\n      tag_16\n      jump\t// in\n    tag_27:\n      tag_28\n      jump\t// in\n    tag_26:\n      stop\n        /* \"contracts/Twitter-GetTotalLikes-Exercise.sol\":1107:1224  function changeTweetLength(uint16 newTweetLength) public onlyOwner {... */\n    tag_6:\n      tag_29\n      0x04\n      dup1\n      calldatasize\n      sub\n      dup2\n      add\n      swap1\n      tag_30\n      swap2\n      swap1\n      tag_31\n      jump\t// in\n    tag_30:\n      tag_32\n      jump\t// in\n    tag_29:\n      stop\n        /* \"contracts/Twitter-GetTotalLikes-Exercise.sol\":2486:2804  function likeTweet(address author, uint256 id) external {... */\n    tag_7:\n      tag_33\n      0x04\n      dup1\n      calldatasize\n      sub\n      dup2\n      add\n      swap1\n      tag_34\n      swap2\n      swap1\n      tag_16\n      jump\t// in\n    tag_34:\n      tag_35\n      jump\t// in\n    tag_33:\n      stop\n        /* \"contracts/Twitter-GetTotalLikes-Exercise.sol\":80:116  uint16 public MAX_TWEET_LENGTH = 280 */\n    tag_8:\n      tag_36\n      tag_37\n      jump\t// in\n    tag_36:\n      mload(0x40)\n      tag_38\n      swap2\n      swap1\n      tag_39\n      jump\t// in\n    tag_38:\n      mload(0x40)\n      dup1\n      swap2\n      sub\n      swap1\n      return\n        /* \"contracts/Twitter-GetTotalLikes-Exercise.sol\":1760:2448  function createTweet(string memory _tweet) public {... */\n    tag_9:\n      tag_40\n      0x04\n      dup1\n      calldatasize\n      sub\n      dup2\n      add\n      swap1\n      tag_41\n      swap2\n      swap1\n      tag_42\n      jump\t// in\n    tag_41:\n      tag_43\n      jump\t// in\n    tag_40:\n      stop\n        /* \"contracts/Twitter-GetTotalLikes-Exercise.sol\":1305:1716  function getTotalLikes(address _author) external view returns (uint256) {... */\n    tag_10:\n      tag_44\n      0x04\n      dup1\n      calldatasize\n      sub\n      dup2\n      add\n      swap1\n      tag_45\n      swap2\n      swap1\n      tag_22\n      jump\t// in\n    tag_45:\n      tag_46\n      jump\t// in\n    tag_44:\n      mload(0x40)\n      tag_47\n      swap2\n      swap1\n      tag_48\n      jump\t// in\n    tag_47:\n      mload(0x40)\n      dup1\n      swap2\n      sub\n      swap1\n      return\n        /* \"contracts/Twitter-GetTotalLikes-Exercise.sol\":359:379  address public owner */\n    tag_11:\n      tag_49\n      tag_50\n      jump\t// in\n    tag_49:\n      mload(0x40)\n      tag_51\n      swap2\n      swap1\n      tag_52\n      jump\t// in\n    tag_51:\n      mload(0x40)\n      dup1\n      swap2\n      sub\n      swap1\n      return\n        /* \"contracts/Twitter-GetTotalLikes-Exercise.sol\":3302:3413  function getTweet(uint256 _i) public view returns (Tweet memory) {... */\n    tag_12:\n      tag_53\n      0x04\n      dup1\n      calldatasize\n      sub\n      dup2\n      add\n      swap1\n      tag_54\n      swap2\n      swap1\n      tag_55\n      jump\t// in\n    tag_54:\n      tag_56\n      jump\t// in\n    tag_53:\n      mload(0x40)\n      tag_57\n      swap2\n      swap1\n      tag_58\n      jump\t// in\n    tag_57:\n      mload(0x40)\n      dup1\n      swap2\n      sub\n      swap1\n      return\n        /* \"contracts/Twitter-GetTotalLikes-Exercise.sol\":312:353  mapping(address => Tweet[]) public tweets */\n    tag_17:\n      mstore(0x20, 0x01)\n      dup2\n      0x00\n      mstore\n      keccak256(0x00, 0x40)\n      dup2\n      dup2\n      sload\n      dup2\n      lt\n      tag_59\n      jumpi\n      0x00\n      dup1\n      revert\n    tag_59:\n      swap1\n      0x00\n      mstore\n      keccak256(0x00, 0x20)\n      swap1\n      0x05\n      mul\n      add\n      0x00\n      swap2\n      pop\n      swap2\n      pop\n      pop\n      dup1\n      0x00\n      add\n      sload\n      swap1\n      dup1\n      0x01\n      add\n      0x00\n      swap1\n      sload\n      swap1\n      0x0100\n      exp\n      swap1\n      div\n      0xffffffffffffffffffffffffffffffffffffffff\n      and\n      swap1\n      dup1\n      0x02\n      add\n      dup1\n      sload\n      tag_61\n      swap1\n      tag_62\n      jump\t// in\n    tag_61:\n      dup1\n      0x1f\n      add\n      0x20\n      dup1\n      swap2\n      div\n      mul\n      0x20\n      add\n      mload(0x40)\n      swap1\n      dup2\n      add\n      0x40\n      mstore\n      dup1\n      swap3\n      swap2\n      swap1\n      dup2\n      dup2\n      mstore\n      0x20\n      add\n      dup3\n      dup1\n      sload\n      tag_63\n      swap1\n      tag_62\n      jump\t// in\n    tag_63:\n      dup1\n      iszero\n      tag_64\n      jumpi\n      dup1\n      0x1f\n      lt\n      tag_65\n      jumpi\n      0x0100\n      dup1\n      dup4\n      sload\n      div\n      mul\n      dup4\n      mstore\n      swap2\n      0x20\n      add\n      swap2\n      jump(tag_64)\n    tag_65:\n      dup3\n      add\n      swap2\n      swap1\n      0x00\n      mstore\n      keccak256(0x00, 0x20)\n      swap1\n    tag_66:\n      dup2\n      sload\n      dup2\n      mstore\n      swap1\n      0x01\n      add\n      swap1\n      0x20\n      add\n      dup1\n      dup4\n      gt\n      tag_66\n      jumpi\n      dup3\n      swap1\n      sub\n      0x1f\n      and\n      dup3\n      add\n      swap2\n    tag_64:\n      pop\n      pop\n      pop\n      pop\n      pop\n      swap1\n      dup1\n      0x03\n      add\n      sload\n      swap1\n      dup1\n      0x04\n      add\n      sload\n      swap1\n      pop\n      dup6\n      jump\t// out\n        /* \"contracts/Twitter-GetTotalLikes-Exercise.sol\":3477:3590  function getAllTweets(address _owner) public view returns (Tweet[] memory) {... */\n    tag_23:\n        /* \"contracts/Twitter-GetTotalLikes-Exercise.sol\":3536:3550  Tweet[] memory */\n      0x60\n        /* \"contracts/Twitter-GetTotalLikes-Exercise.sol\":3569:3575  tweets */\n      0x01\n        /* \"contracts/Twitter-GetTotalLikes-Exercise.sol\":3569:3583  tweets[_owner] */\n      0x00\n        /* \"contracts/Twitter-GetTotalLikes-Exercise.sol\":3576:3582  _owner */\n      dup4\n        /* \"contracts/Twitter-GetTotalLikes-Exercise.sol\":3569:3583  tweets[_owner] */\n      0xffffffffffffffffffffffffffffffffffffffff\n      and\n      0xffffffffffffffffffffffffffffffffffffffff\n      and\n      dup2\n      mstore\n      0x20\n      add\n      swap1\n      dup2\n      mstore\n      0x20\n      add\n      0x00\n      keccak256\n        /* \"contracts/Twitter-GetTotalLikes-Exercise.sol\":3562:3583  return tweets[_owner] */\n      dup1\n      sload\n      dup1\n      0x20\n      mul\n      0x20\n      add\n      mload(0x40)\n      swap1\n      dup2\n      add\n      0x40\n      mstore\n      dup1\n      swap3\n      swap2\n      swap1\n      dup2\n      dup2\n      mstore\n      0x20\n      add\n      0x00\n      swap1\n    tag_68:\n      dup3\n      dup3\n      lt\n      iszero\n      tag_69\n      jumpi\n      dup4\n      dup3\n      swap1\n      0x00\n      mstore\n      keccak256(0x00, 0x20)\n      swap1\n      0x05\n      mul\n      add\n      mload(0x40)\n      dup1\n      0xa0\n      add\n      0x40\n      mstore\n      swap1\n      dup2\n      0x00\n      dup3\n      add\n      sload\n      dup2\n      mstore\n      0x20\n      add\n      0x01\n      dup3\n      add\n      0x00\n      swap1\n      sload\n      swap1\n      0x0100\n      exp\n      swap1\n      div\n      0xffffffffffffffffffffffffffffffffffffffff\n      and\n      0xffffffffffffffffffffffffffffffffffffffff\n      and\n      0xffffffffffffffffffffffffffffffffffffffff\n      and\n      dup2\n      mstore\n      0x20\n      add\n      0x02\n      dup3\n      add\n      dup1\n      sload\n      tag_71\n      swap1\n      tag_62\n      jump\t// in\n    tag_71:\n      dup1\n      0x1f\n      add\n      0x20\n      dup1\n      swap2\n      div\n      mul\n      0x20\n      add\n      mload(0x40)\n      swap1\n      dup2\n      add\n      0x40\n      mstore\n      dup1\n      swap3\n      swap2\n      swap1\n      dup2\n      dup2\n      mstore\n      0x20\n      add\n      dup3\n      dup1\n      sload\n      tag_72\n      swap1\n      tag_62\n      jump\t// in\n    tag_72:\n      dup1\n      iszero\n      tag_73\n      jumpi\n      dup1\n      0x1f\n      lt\n      tag_74\n      jumpi\n      0x0100\n      dup1\n      dup4\n      sload\n      div\n      mul\n      dup4\n      mstore\n      swap2\n      0x20\n      add\n      swap2\n      jump(tag_73)\n    tag_74:\n      dup3\n      add\n      swap2\n      swap1\n      0x00\n      mstore\n      keccak256(0x00, 0x20)\n      swap1\n    tag_75:\n      dup2\n      sload\n      dup2\n      mstore\n      swap1\n      0x01\n      add\n      swap1\n      0x20\n      add\n      dup1\n      dup4\n      gt\n      tag_75\n      jumpi\n      dup3\n      swap1\n      sub\n      0x1f\n      and\n      dup3\n      add\n      swap2\n    tag_73:\n      pop\n      pop\n      pop\n      pop\n      pop\n      dup2\n      mstore\n      0x20\n      add\n      0x03\n      dup3\n      add\n      sload\n      dup2\n      mstore\n      0x20\n      add\n      0x04\n      dup3\n      add\n      sload\n      dup2\n      mstore\n      pop\n      pop\n      dup2\n      mstore\n      0x20\n      add\n      swap1\n      0x01\n      add\n      swap1\n      jump(tag_68)\n    tag_69:\n      pop\n      pop\n      pop\n      pop\n      swap1\n      pop\n        /* \"contracts/Twitter-GetTotalLikes-Exercise.sol\":3477:3590  function getAllTweets(address _owner) public view returns (Tweet[] memory) {... */\n      swap2\n      swap1\n      pop\n      jump\t// out\n        /* \"contracts/Twitter-GetTotalLikes-Exercise.sol\":2844:3237  function unlikeTweet(address author, uint256 id) external {... */\n    tag_28:\n        /* \"contracts/Twitter-GetTotalLikes-Exercise.sol\":2925:2931  tweets */\n      0x01\n        /* \"contracts/Twitter-GetTotalLikes-Exercise.sol\":2925:2939  tweets[author] */\n      0x00\n        /* \"contracts/Twitter-GetTotalLikes-Exercise.sol\":2932:2938  author */\n      dup4\n        /* \"contracts/Twitter-GetTotalLikes-Exercise.sol\":2925:2939  tweets[author] */\n      0xffffffffffffffffffffffffffffffffffffffff\n      and\n      0xffffffffffffffffffffffffffffffffffffffff\n      and\n      dup2\n      mstore\n      0x20\n      add\n      swap1\n      dup2\n      mstore\n      0x20\n      add\n      0x00\n      keccak256\n        /* \"contracts/Twitter-GetTotalLikes-Exercise.sol\":2925:2946  tweets[author].length */\n      dup1\n      sload\n      swap1\n      pop\n        /* \"contracts/Twitter-GetTotalLikes-Exercise.sol\":2920:2922  id */\n      dup2\n        /* \"contracts/Twitter-GetTotalLikes-Exercise.sol\":2920:2946  id < tweets[author].length */\n      lt\n        /* \"contracts/Twitter-GetTotalLikes-Exercise.sol\":2912:2971  require(id < tweets[author].length, \"TWEET DOES NOT EXIST\") */\n      tag_77\n      jumpi\n      mload(0x40)\n      0x08c379a000000000000000000000000000000000000000000000000000000000\n      dup2\n      mstore\n      0x04\n      add\n      tag_78\n      swap1\n      tag_79\n      jump\t// in\n    tag_78:\n      mload(0x40)\n      dup1\n      swap2\n      sub\n      swap1\n      revert\n    tag_77:\n        /* \"contracts/Twitter-GetTotalLikes-Exercise.sol\":3016:3017  0 */\n      0x00\n        /* \"contracts/Twitter-GetTotalLikes-Exercise.sol\":2989:2995  tweets */\n      0x01\n        /* \"contracts/Twitter-GetTotalLikes-Exercise.sol\":2989:3003  tweets[author] */\n      0x00\n        /* \"contracts/Twitter-GetTotalLikes-Exercise.sol\":2996:3002  author */\n      dup5\n        /* \"contracts/Twitter-GetTotalLikes-Exercise.sol\":2989:3003  tweets[author] */\n      0xffffffffffffffffffffffffffffffffffffffff\n      and\n      0xffffffffffffffffffffffffffffffffffffffff\n      and\n      dup2\n      mstore\n      0x20\n      add\n      swap1\n      dup2\n      mstore\n      0x20\n      add\n      0x00\n      keccak256\n        /* \"contracts/Twitter-GetTotalLikes-Exercise.sol\":3004:3006  id */\n      dup3\n        /* \"contracts/Twitter-GetTotalLikes-Exercise.sol\":2989:3007  tweets[author][id] */\n      dup2\n      sload\n      dup2\n      lt\n      tag_80\n      jumpi\n      tag_81\n      tag_82\n      jump\t// in\n    tag_81:\n    tag_80:\n      swap1\n      0x00\n      mstore\n      keccak256(0x00, 0x20)\n      swap1\n      0x05\n      mul\n      add\n        /* \"contracts/Twitter-GetTotalLikes-Exercise.sol\":2989:3013  tweets[author][id].likes */\n      0x04\n      add\n      sload\n        /* \"contracts/Twitter-GetTotalLikes-Exercise.sol\":2989:3017  tweets[author][id].likes > 0 */\n      gt\n        /* \"contracts/Twitter-GetTotalLikes-Exercise.sol\":2981:3040  require(tweets[author][id].likes > 0, \"TWEET HAS NO LIKES\") */\n      tag_84\n      jumpi\n      mload(0x40)\n      0x08c379a000000000000000000000000000000000000000000000000000000000\n      dup2\n      mstore\n      0x04\n      add\n      tag_85\n      swap1\n      tag_86\n      jump\t// in\n    tag_85:\n      mload(0x40)\n      dup1\n      swap2\n      sub\n      swap1\n      revert\n    tag_84:\n        /* \"contracts/Twitter-GetTotalLikes-Exercise.sol\":3087:3093  tweets */\n      0x01\n        /* \"contracts/Twitter-GetTotalLikes-Exercise.sol\":3087:3101  tweets[author] */\n      0x00\n        /* \"contracts/Twitter-GetTotalLikes-Exercise.sol\":3094:3100  author */\n      dup4\n        /* \"contracts/Twitter-GetTotalLikes-Exercise.sol\":3087:3101  tweets[author] */\n      0xffffffffffffffffffffffffffffffffffffffff\n      and\n      0xffffffffffffffffffffffffffffffffffffffff\n      and\n      dup2\n      mstore\n      0x20\n      add\n      swap1\n      dup2\n      mstore\n      0x20\n      add\n      0x00\n      keccak256\n        /* \"contracts/Twitter-GetTotalLikes-Exercise.sol\":3102:3104  id */\n      dup2\n        /* \"contracts/Twitter-GetTotalLikes-Exercise.sol\":3087:3105  tweets[author][id] */\n      dup2\n      sload\n      dup2\n      lt\n      tag_87\n      jumpi\n      tag_88\n      tag_82\n      jump\t// in\n    tag_88:\n    tag_87:\n      swap1\n      0x00\n      mstore\n      keccak256(0x00, 0x20)\n      swap1\n      0x05\n      mul\n      add\n        /* \"contracts/Twitter-GetTotalLikes-Exercise.sol\":3087:3111  tweets[author][id].likes */\n      0x04\n      add\n      0x00\n        /* \"contracts/Twitter-GetTotalLikes-Exercise.sol\":3087:3113  tweets[author][id].likes-- */\n      dup2\n      sload\n      dup1\n      swap3\n      swap2\n      swap1\n      tag_90\n      swap1\n      tag_91\n      jump\t// in\n    tag_90:\n      swap2\n      swap1\n      pop\n      sstore\n      pop\n        /* \"contracts/Twitter-GetTotalLikes-Exercise.sol\":3168:3230  TweetUnliked(msg.sender, author, id, tweets[author][id].likes) */\n      0x762c2616349603ac16eba0de8e6141b79129a07ab63bd99e0a80b3a471716943\n        /* \"contracts/Twitter-GetTotalLikes-Exercise.sol\":3181:3191  msg.sender */\n      caller\n        /* \"contracts/Twitter-GetTotalLikes-Exercise.sol\":3193:3199  author */\n      dup4\n        /* \"contracts/Twitter-GetTotalLikes-Exercise.sol\":3201:3203  id */\n      dup4\n        /* \"contracts/Twitter-GetTotalLikes-Exercise.sol\":3205:3211  tweets */\n      0x01\n        /* \"contracts/Twitter-GetTotalLikes-Exercise.sol\":3205:3219  tweets[author] */\n      0x00\n        /* \"contracts/Twitter-GetTotalLikes-Exercise.sol\":3212:3218  author */\n      dup8\n        /* \"contracts/Twitter-GetTotalLikes-Exercise.sol\":3205:3219  tweets[author] */\n      0xffffffffffffffffffffffffffffffffffffffff\n      and\n      0xffffffffffffffffffffffffffffffffffffffff\n      and\n      dup2\n      mstore\n      0x20\n      add\n      swap1\n      dup2\n      mstore\n      0x20\n      add\n      0x00\n      keccak256\n        /* \"contracts/Twitter-GetTotalLikes-Exercise.sol\":3220:3222  id */\n      dup6\n        /* \"contracts/Twitter-GetTotalLikes-Exercise.sol\":3205:3223  tweets[author][id] */\n      dup2\n      sload\n      dup2\n      lt\n      tag_92\n      jumpi\n      tag_93\n      tag_82\n      jump\t// in\n    tag_93:\n    tag_92:\n      swap1\n      0x00\n      mstore\n      keccak256(0x00, 0x20)\n      swap1\n      0x05\n      mul\n      add\n        /* \"contracts/Twitter-GetTotalLikes-Exercise.sol\":3205:3229  tweets[author][id].likes */\n      0x04\n      add\n      sload\n        /* \"contracts/Twitter-GetTotalLikes-Exercise.sol\":3168:3230  TweetUnliked(msg.sender, author, id, tweets[author][id].likes) */\n      mload(0x40)\n      tag_95\n      swap5\n      swap4\n      swap3\n      swap2\n      swap1\n      tag_96\n      jump\t// in\n    tag_95:\n      mload(0x40)\n      dup1\n      swap2\n      sub\n      swap1\n      log1\n        /* \"contracts/Twitter-GetTotalLikes-Exercise.sol\":2844:3237  function unlikeTweet(address author, uint256 id) external {... */\n      pop\n      pop\n      jump\t// out\n        /* \"contracts/Twitter-GetTotalLikes-Exercise.sol\":1107:1224  function changeTweetLength(uint16 newTweetLength) public onlyOwner {... */\n    tag_32:\n        /* \"contracts/Twitter-GetTotalLikes-Exercise.sol\":992:997  owner */\n      0x02\n      0x00\n      swap1\n      sload\n      swap1\n      0x0100\n      exp\n      swap1\n      div\n      0xffffffffffffffffffffffffffffffffffffffff\n      and\n        /* \"contracts/Twitter-GetTotalLikes-Exercise.sol\":978:997  msg.sender == owner */\n      0xffffffffffffffffffffffffffffffffffffffff\n      and\n        /* \"contracts/Twitter-GetTotalLikes-Exercise.sol\":978:988  msg.sender */\n      caller\n        /* \"contracts/Twitter-GetTotalLikes-Exercise.sol\":978:997  msg.sender == owner */\n      0xffffffffffffffffffffffffffffffffffffffff\n      and\n      eq\n        /* \"contracts/Twitter-GetTotalLikes-Exercise.sol\":970:1024  require(msg.sender == owner, \"YOU ARE NOT THE OWNER!\") */\n      tag_98\n      jumpi\n      mload(0x40)\n      0x08c379a000000000000000000000000000000000000000000000000000000000\n      dup2\n      mstore\n      0x04\n      add\n      tag_99\n      swap1\n      tag_100\n      jump\t// in\n    tag_99:\n      mload(0x40)\n      dup1\n      swap2\n      sub\n      swap1\n      revert\n    tag_98:\n        /* \"contracts/Twitter-GetTotalLikes-Exercise.sol\":1203:1217  newTweetLength */\n      dup1\n        /* \"contracts/Twitter-GetTotalLikes-Exercise.sol\":1184:1200  MAX_TWEET_LENGTH */\n      0x00\n      dup1\n        /* \"contracts/Twitter-GetTotalLikes-Exercise.sol\":1184:1217  MAX_TWEET_LENGTH = newTweetLength */\n      0x0100\n      exp\n      dup2\n      sload\n      dup2\n      0xffff\n      mul\n      not\n      and\n      swap1\n      dup4\n      0xffff\n      and\n      mul\n      or\n      swap1\n      sstore\n      pop\n        /* \"contracts/Twitter-GetTotalLikes-Exercise.sol\":1107:1224  function changeTweetLength(uint16 newTweetLength) public onlyOwner {... */\n      pop\n      jump\t// out\n        /* \"contracts/Twitter-GetTotalLikes-Exercise.sol\":2486:2804  function likeTweet(address author, uint256 id) external {... */\n    tag_35:\n        /* \"contracts/Twitter-GetTotalLikes-Exercise.sol\":2565:2571  tweets */\n      0x01\n        /* \"contracts/Twitter-GetTotalLikes-Exercise.sol\":2565:2579  tweets[author] */\n      0x00\n        /* \"contracts/Twitter-GetTotalLikes-Exercise.sol\":2572:2578  author */\n      dup4\n        /* \"contracts/Twitter-GetTotalLikes-Exercise.sol\":2565:2579  tweets[author] */\n      0xffffffffffffffffffffffffffffffffffffffff\n      and\n      0xffffffffffffffffffffffffffffffffffffffff\n      and\n      dup2\n      mstore\n      0x20\n      add\n      swap1\n      dup2\n      mstore\n      0x20\n      add\n      0x00\n      keccak256\n        /* \"contracts/Twitter-GetTotalLikes-Exercise.sol\":2565:2586  tweets[author].length */\n      dup1\n      sload\n      swap1\n      pop\n        /* \"contracts/Twitter-GetTotalLikes-Exercise.sol\":2560:2562  id */\n      dup2\n        /* \"contracts/Twitter-GetTotalLikes-Exercise.sol\":2560:2586  id < tweets[author].length */\n      lt\n        /* \"contracts/Twitter-GetTotalLikes-Exercise.sol\":2552:2611  require(id < tweets[author].length, \"TWEET DOES NOT EXIST\") */\n      tag_103\n      jumpi\n      mload(0x40)\n      0x08c379a000000000000000000000000000000000000000000000000000000000\n      dup2\n      mstore\n      0x04\n      add\n      tag_104\n      swap1\n      tag_79\n      jump\t// in\n    tag_104:\n      mload(0x40)\n      dup1\n      swap2\n      sub\n      swap1\n      revert\n    tag_103:\n        /* \"contracts/Twitter-GetTotalLikes-Exercise.sol\":2658:2664  tweets */\n      0x01\n        /* \"contracts/Twitter-GetTotalLikes-Exercise.sol\":2658:2672  tweets[author] */\n      0x00\n        /* \"contracts/Twitter-GetTotalLikes-Exercise.sol\":2665:2671  author */\n      dup4\n        /* \"contracts/Twitter-GetTotalLikes-Exercise.sol\":2658:2672  tweets[author] */\n      0xffffffffffffffffffffffffffffffffffffffff\n      and\n      0xffffffffffffffffffffffffffffffffffffffff\n      and\n      dup2\n      mstore\n      0x20\n      add\n      swap1\n      dup2\n      mstore\n      0x20\n      add\n      0x00\n      keccak256\n        /* \"contracts/Twitter-GetTotalLikes-Exercise.sol\":2673:2675  id */\n      dup2\n        /* \"contracts/Twitter-GetTotalLikes-Exercise.sol\":2658:2676  tweets[author][id] */\n      dup2\n      sload\n      dup2\n      lt\n      tag_105\n      jumpi\n      tag_106\n      tag_82\n      jump\t// in\n    tag_106:\n    tag_105:\n      swap1\n      0x00\n      mstore\n      keccak256(0x00, 0x20)\n      swap1\n      0x05\n      mul\n      add\n        /* \"contracts/Twitter-GetTotalLikes-Exercise.sol\":2658:2682  tweets[author][id].likes */\n      0x04\n      add\n      0x00\n        /* \"contracts/Twitter-GetTotalLikes-Exercise.sol\":2658:2684  tweets[author][id].likes++ */\n      dup2\n      sload\n      dup1\n      swap3\n      swap2\n      swap1\n      tag_108\n      swap1\n      tag_109\n      jump\t// in\n    tag_108:\n      swap2\n      swap1\n      pop\n      sstore\n      pop\n        /* \"contracts/Twitter-GetTotalLikes-Exercise.sol\":2737:2797  TweetLiked(msg.sender, author, id, tweets[author][id].likes) */\n      0xe8a76fc0f16d11a00d1e93b689b63d76cf60af914dd3d915375dc41d01a0c3c8\n        /* \"contracts/Twitter-GetTotalLikes-Exercise.sol\":2748:2758  msg.sender */\n      caller\n        /* \"contracts/Twitter-GetTotalLikes-Exercise.sol\":2760:2766  author */\n      dup4\n        /* \"contracts/Twitter-GetTotalLikes-Exercise.sol\":2768:2770  id */\n      dup4\n        /* \"contracts/Twitter-GetTotalLikes-Exercise.sol\":2772:2778  tweets */\n      0x01\n        /* \"contracts/Twitter-GetTotalLikes-Exercise.sol\":2772:2786  tweets[author] */\n      0x00\n        /* \"contracts/Twitter-GetTotalLikes-Exercise.sol\":2779:2785  author */\n      dup8\n        /* \"contracts/Twitter-GetTotalLikes-Exercise.sol\":2772:2786  tweets[author] */\n      0xffffffffffffffffffffffffffffffffffffffff\n      and\n      0xffffffffffffffffffffffffffffffffffffffff\n      and\n      dup2\n      mstore\n      0x20\n      add\n      swap1\n      dup2\n      mstore\n      0x20\n      add\n      0x00\n      keccak256\n        /* \"contracts/Twitter-GetTotalLikes-Exercise.sol\":2787:2789  id */\n      dup6\n        /* \"contracts/Twitter-GetTotalLikes-Exercise.sol\":2772:2790  tweets[author][id] */\n      dup2\n      sload\n      dup2\n      lt\n      tag_110\n      jumpi\n      tag_111\n      tag_82\n      jump\t// in\n    tag_111:\n    tag_110:\n      swap1\n      0x00\n      mstore\n      keccak256(0x00, 0x20)\n      swap1\n      0x05\n      mul\n      add\n        /* \"contracts/Twitter-GetTotalLikes-Exercise.sol\":2772:2796  tweets[author][id].likes */\n      0x04\n      add\n      sload\n        /* \"contracts/Twitter-GetTotalLikes-Exercise.sol\":2737:2797  TweetLiked(msg.sender, author, id, tweets[author][id].likes) */\n      mload(0x40)\n      tag_113\n      swap5\n      swap4\n      swap3\n      swap2\n      swap1\n      tag_96\n      jump\t// in\n    tag_113:\n      mload(0x40)\n      dup1\n      swap2\n      sub\n      swap1\n      log1\n        /* \"contracts/Twitter-GetTotalLikes-Exercise.sol\":2486:2804  function likeTweet(address author, uint256 id) external {... */\n      pop\n      pop\n      jump\t// out\n        /* \"contracts/Twitter-GetTotalLikes-Exercise.sol\":80:116  uint16 public MAX_TWEET_LENGTH = 280 */\n    tag_37:\n      0x00\n      dup1\n      sload\n      swap1\n      0x0100\n      exp\n      swap1\n      div\n      0xffff\n      and\n      dup2\n      jump\t// out\n        /* \"contracts/Twitter-GetTotalLikes-Exercise.sol\":1760:2448  function createTweet(string memory _tweet) public {... */\n    tag_43:\n        /* \"contracts/Twitter-GetTotalLikes-Exercise.sol\":1865:1881  MAX_TWEET_LENGTH */\n      0x00\n      dup1\n      sload\n      swap1\n      0x0100\n      exp\n      swap1\n      div\n      0xffff\n      and\n        /* \"contracts/Twitter-GetTotalLikes-Exercise.sol\":1841:1881  bytes(_tweet).length <= MAX_TWEET_LENGTH */\n      0xffff\n      and\n        /* \"contracts/Twitter-GetTotalLikes-Exercise.sol\":1847:1853  _tweet */\n      dup2\n        /* \"contracts/Twitter-GetTotalLikes-Exercise.sol\":1841:1861  bytes(_tweet).length */\n      mload\n        /* \"contracts/Twitter-GetTotalLikes-Exercise.sol\":1841:1881  bytes(_tweet).length <= MAX_TWEET_LENGTH */\n      gt\n      iszero\n        /* \"contracts/Twitter-GetTotalLikes-Exercise.sol\":1820:1925  require(... */\n      tag_115\n      jumpi\n      mload(0x40)\n      0x08c379a000000000000000000000000000000000000000000000000000000000\n      dup2\n      mstore\n      0x04\n      add\n      tag_116\n      swap1\n      tag_117\n      jump\t// in\n    tag_116:\n      mload(0x40)\n      dup1\n      swap2\n      sub\n      swap1\n      revert\n    tag_115:\n        /* \"contracts/Twitter-GetTotalLikes-Exercise.sol\":1966:1987  Tweet memory newTweet */\n      0x00\n        /* \"contracts/Twitter-GetTotalLikes-Exercise.sol\":1990:2173  Tweet({... */\n      mload(0x40)\n      dup1\n      0xa0\n      add\n      0x40\n      mstore\n      dup1\n        /* \"contracts/Twitter-GetTotalLikes-Exercise.sol\":2014:2020  tweets */\n      0x01\n        /* \"contracts/Twitter-GetTotalLikes-Exercise.sol\":2014:2032  tweets[msg.sender] */\n      0x00\n        /* \"contracts/Twitter-GetTotalLikes-Exercise.sol\":2021:2031  msg.sender */\n      caller\n        /* \"contracts/Twitter-GetTotalLikes-Exercise.sol\":2014:2032  tweets[msg.sender] */\n      0xffffffffffffffffffffffffffffffffffffffff\n      and\n      0xffffffffffffffffffffffffffffffffffffffff\n      and\n      dup2\n      mstore\n      0x20\n      add\n      swap1\n      dup2\n      mstore\n      0x20\n      add\n      0x00\n      keccak256\n        /* \"contracts/Twitter-GetTotalLikes-Exercise.sol\":2014:2039  tweets[msg.sender].length */\n      dup1\n      sload\n      swap1\n      pop\n        /* \"contracts/Twitter-GetTotalLikes-Exercise.sol\":1990:2173  Tweet({... */\n      dup2\n      mstore\n      0x20\n      add\n        /* \"contracts/Twitter-GetTotalLikes-Exercise.sol\":2061:2071  msg.sender */\n      caller\n        /* \"contracts/Twitter-GetTotalLikes-Exercise.sol\":1990:2173  Tweet({... */\n      0xffffffffffffffffffffffffffffffffffffffff\n      and\n      dup2\n      mstore\n      0x20\n      add\n        /* \"contracts/Twitter-GetTotalLikes-Exercise.sol\":2094:2100  _tweet */\n      dup4\n        /* \"contracts/Twitter-GetTotalLikes-Exercise.sol\":1990:2173  Tweet({... */\n      dup2\n      mstore\n      0x20\n      add\n        /* \"contracts/Twitter-GetTotalLikes-Exercise.sol\":2125:2140  block.timestamp */\n      timestamp\n        /* \"contracts/Twitter-GetTotalLikes-Exercise.sol\":1990:2173  Tweet({... */\n      dup2\n      mstore\n      0x20\n      add\n        /* \"contracts/Twitter-GetTotalLikes-Exercise.sol\":2161:2162  0 */\n      0x00\n        /* \"contracts/Twitter-GetTotalLikes-Exercise.sol\":1990:2173  Tweet({... */\n      dup2\n      mstore\n      pop\n        /* \"contracts/Twitter-GetTotalLikes-Exercise.sol\":1966:2173  Tweet memory newTweet = Tweet({... */\n      swap1\n      pop\n        /* \"contracts/Twitter-GetTotalLikes-Exercise.sol\":2215:2221  tweets */\n      0x01\n        /* \"contracts/Twitter-GetTotalLikes-Exercise.sol\":2215:2233  tweets[msg.sender] */\n      0x00\n        /* \"contracts/Twitter-GetTotalLikes-Exercise.sol\":2222:2232  msg.sender */\n      caller\n        /* \"contracts/Twitter-GetTotalLikes-Exercise.sol\":2215:2233  tweets[msg.sender] */\n      0xffffffffffffffffffffffffffffffffffffffff\n      and\n      0xffffffffffffffffffffffffffffffffffffffff\n      and\n      dup2\n      mstore\n      0x20\n      add\n      swap1\n      dup2\n      mstore\n      0x20\n      add\n      0x00\n      keccak256\n        /* \"contracts/Twitter-GetTotalLikes-Exercise.sol\":2239:2247  newTweet */\n      dup2\n        /* \"contracts/Twitter-GetTotalLikes-Exercise.sol\":2215:2248  tweets[msg.sender].push(newTweet) */\n      swap1\n      dup1\n      0x01\n      dup2\n      sload\n      add\n      dup1\n      dup3\n      sstore\n      dup1\n      swap2\n      pop\n      pop\n      0x01\n      swap1\n      sub\n      swap1\n      0x00\n      mstore\n      keccak256(0x00, 0x20)\n      swap1\n      0x05\n      mul\n      add\n      0x00\n      swap1\n      swap2\n      swap1\n      swap2\n      swap1\n      swap2\n      pop\n      0x00\n      dup3\n      add\n      mload\n      dup2\n      0x00\n      add\n      sstore\n      0x20\n      dup3\n      add\n      mload\n      dup2\n      0x01\n      add\n      exp(0x0100, 0x00)\n      dup2\n      sload\n      dup2\n      0xffffffffffffffffffffffffffffffffffffffff\n      mul\n      not\n      and\n      swap1\n      dup4\n      0xffffffffffffffffffffffffffffffffffffffff\n      and\n      mul\n      or\n      swap1\n      sstore\n      pop\n      0x40\n      dup3\n      add\n      mload\n      dup2\n      0x02\n      add\n      swap1\n      dup2\n      tag_119\n      swap2\n      swap1\n      tag_120\n      jump\t// in\n    tag_119:\n      pop\n      0x60\n      dup3\n      add\n      mload\n      dup2\n      0x03\n      add\n      sstore\n      0x80\n      dup3\n      add\n      mload\n      dup2\n      0x04\n      add\n      sstore\n      pop\n      pop\n        /* \"contracts/Twitter-GetTotalLikes-Exercise.sol\":2303:2441  TweetCreated(... */\n      0x16fd3c13e9d46923e0a8bce11c7b473ec508a72e6c96cd2404b29ce972afc29e\n        /* \"contracts/Twitter-GetTotalLikes-Exercise.sol\":2329:2337  newTweet */\n      dup2\n        /* \"contracts/Twitter-GetTotalLikes-Exercise.sol\":2329:2340  newTweet.id */\n      0x00\n      add\n      mload\n        /* \"contracts/Twitter-GetTotalLikes-Exercise.sol\":2354:2362  newTweet */\n      dup3\n        /* \"contracts/Twitter-GetTotalLikes-Exercise.sol\":2354:2369  newTweet.author */\n      0x20\n      add\n      mload\n        /* \"contracts/Twitter-GetTotalLikes-Exercise.sol\":2383:2391  newTweet */\n      dup4\n        /* \"contracts/Twitter-GetTotalLikes-Exercise.sol\":2383:2399  newTweet.content */\n      0x40\n      add\n      mload\n        /* \"contracts/Twitter-GetTotalLikes-Exercise.sol\":2413:2421  newTweet */\n      dup5\n        /* \"contracts/Twitter-GetTotalLikes-Exercise.sol\":2413:2431  newTweet.timestamp */\n      0x60\n      add\n      mload\n        /* \"contracts/Twitter-GetTotalLikes-Exercise.sol\":2303:2441  TweetCreated(... */\n      mload(0x40)\n      tag_121\n      swap5\n      swap4\n      swap3\n      swap2\n      swap1\n      tag_122\n      jump\t// in\n    tag_121:\n      mload(0x40)\n      dup1\n      swap2\n      sub\n      swap1\n      log1\n        /* \"contracts/Twitter-GetTotalLikes-Exercise.sol\":1810:2448  {... */\n      pop\n        /* \"contracts/Twitter-GetTotalLikes-Exercise.sol\":1760:2448  function createTweet(string memory _tweet) public {... */\n      pop\n      jump\t// out\n        /* \"contracts/Twitter-GetTotalLikes-Exercise.sol\":1305:1716  function getTotalLikes(address _author) external view returns (uint256) {... */\n    tag_46:\n        /* \"contracts/Twitter-GetTotalLikes-Exercise.sol\":1368:1375  uint256 */\n      0x00\n        /* \"contracts/Twitter-GetTotalLikes-Exercise.sol\":1387:1405  uint256 totalLikes */\n      dup1\n        /* \"contracts/Twitter-GetTotalLikes-Exercise.sol\":1408:1409  0 */\n      0x00\n        /* \"contracts/Twitter-GetTotalLikes-Exercise.sol\":1387:1409  uint256 totalLikes = 0 */\n      swap1\n      pop\n        /* \"contracts/Twitter-GetTotalLikes-Exercise.sol\":1483:1492  uint256 i */\n      0x00\n        /* \"contracts/Twitter-GetTotalLikes-Exercise.sol\":1478:1640  for (uint256 i = 0; i < tweets[_author].length; i++) {... */\n    tag_124:\n        /* \"contracts/Twitter-GetTotalLikes-Exercise.sol\":1502:1508  tweets */\n      0x01\n        /* \"contracts/Twitter-GetTotalLikes-Exercise.sol\":1502:1517  tweets[_author] */\n      0x00\n        /* \"contracts/Twitter-GetTotalLikes-Exercise.sol\":1509:1516  _author */\n      dup6\n        /* \"contracts/Twitter-GetTotalLikes-Exercise.sol\":1502:1517  tweets[_author] */\n      0xffffffffffffffffffffffffffffffffffffffff\n      and\n      0xffffffffffffffffffffffffffffffffffffffff\n      and\n      dup2\n      mstore\n      0x20\n      add\n      swap1\n      dup2\n      mstore\n      0x20\n      add\n      0x00\n      keccak256\n        /* \"contracts/Twitter-GetTotalLikes-Exercise.sol\":1502:1524  tweets[_author].length */\n      dup1\n      sload\n      swap1\n      pop\n        /* \"contracts/Twitter-GetTotalLikes-Exercise.sol\":1498:1499  i */\n      dup2\n        /* \"contracts/Twitter-GetTotalLikes-Exercise.sol\":1498:1524  i < tweets[_author].length */\n      lt\n        /* \"contracts/Twitter-GetTotalLikes-Exercise.sol\":1478:1640  for (uint256 i = 0; i < tweets[_author].length; i++) {... */\n      iszero\n      tag_125\n      jumpi\n        /* \"contracts/Twitter-GetTotalLikes-Exercise.sol\":1605:1611  tweets */\n      0x01\n        /* \"contracts/Twitter-GetTotalLikes-Exercise.sol\":1605:1620  tweets[_author] */\n      0x00\n        /* \"contracts/Twitter-GetTotalLikes-Exercise.sol\":1612:1619  _author */\n      dup6\n        /* \"contracts/Twitter-GetTotalLikes-Exercise.sol\":1605:1620  tweets[_author] */\n      0xffffffffffffffffffffffffffffffffffffffff\n      and\n      0xffffffffffffffffffffffffffffffffffffffff\n      and\n      dup2\n      mstore\n      0x20\n      add\n      swap1\n      dup2\n      mstore\n      0x20\n      add\n      0x00\n      keccak256\n        /* \"contracts/Twitter-GetTotalLikes-Exercise.sol\":1621:1622  i */\n      dup2\n        /* \"contracts/Twitter-GetTotalLikes-Exercise.sol\":1605:1623  tweets[_author][i] */\n      dup2\n      sload\n      dup2\n      lt\n      tag_127\n      jumpi\n      tag_128\n      tag_82\n      jump\t// in\n    tag_128:\n    tag_127:\n      swap1\n      0x00\n      mstore\n      keccak256(0x00, 0x20)\n      swap1\n      0x05\n      mul\n      add\n        /* \"contracts/Twitter-GetTotalLikes-Exercise.sol\":1605:1629  tweets[_author][i].likes */\n      0x04\n      add\n      sload\n        /* \"contracts/Twitter-GetTotalLikes-Exercise.sol\":1591:1629  totalLikes += tweets[_author][i].likes */\n      dup3\n      tag_130\n      swap2\n      swap1\n      tag_131\n      jump\t// in\n    tag_130:\n      swap2\n      pop\n        /* \"contracts/Twitter-GetTotalLikes-Exercise.sol\":1526:1529  i++ */\n      dup1\n      dup1\n      0x01\n      add\n      swap2\n      pop\n      pop\n        /* \"contracts/Twitter-GetTotalLikes-Exercise.sol\":1478:1640  for (uint256 i = 0; i < tweets[_author].length; i++) {... */\n      jump(tag_124)\n    tag_125:\n      pop\n        /* \"contracts/Twitter-GetTotalLikes-Exercise.sol\":1699:1709  totalLikes */\n      dup1\n        /* \"contracts/Twitter-GetTotalLikes-Exercise.sol\":1692:1709  return totalLikes */\n      swap2\n      pop\n      pop\n        /* \"contracts/Twitter-GetTotalLikes-Exercise.sol\":1305:1716  function getTotalLikes(address _author) external view returns (uint256) {... */\n      swap2\n      swap1\n      pop\n      jump\t// out\n        /* \"contracts/Twitter-GetTotalLikes-Exercise.sol\":359:379  address public owner */\n    tag_50:\n      0x02\n      0x00\n      swap1\n      sload\n      swap1\n      0x0100\n      exp\n      swap1\n      div\n      0xffffffffffffffffffffffffffffffffffffffff\n      and\n      dup2\n      jump\t// out\n        /* \"contracts/Twitter-GetTotalLikes-Exercise.sol\":3302:3413  function getTweet(uint256 _i) public view returns (Tweet memory) {... */\n    tag_56:\n        /* \"contracts/Twitter-GetTotalLikes-Exercise.sol\":3353:3365  Tweet memory */\n      tag_132\n      tag_133\n      jump\t// in\n    tag_132:\n        /* \"contracts/Twitter-GetTotalLikes-Exercise.sol\":3384:3390  tweets */\n      0x01\n        /* \"contracts/Twitter-GetTotalLikes-Exercise.sol\":3384:3402  tweets[msg.sender] */\n      0x00\n        /* \"contracts/Twitter-GetTotalLikes-Exercise.sol\":3391:3401  msg.sender */\n      caller\n        /* \"contracts/Twitter-GetTotalLikes-Exercise.sol\":3384:3402  tweets[msg.sender] */\n      0xffffffffffffffffffffffffffffffffffffffff\n      and\n      0xffffffffffffffffffffffffffffffffffffffff\n      and\n      dup2\n      mstore\n      0x20\n      add\n      swap1\n      dup2\n      mstore\n      0x20\n      add\n      0x00\n      keccak256\n        /* \"contracts/Twitter-GetTotalLikes-Exercise.sol\":3403:3405  _i */\n      dup3\n        /* \"contracts/Twitter-GetTotalLikes-Exercise.sol\":3384:3406  tweets[msg.sender][_i] */\n      dup2\n      sload\n      dup2\n      lt\n      tag_135\n      jumpi\n      tag_136\n      tag_82\n      jump\t// in\n    tag_136:\n    tag_135:\n      swap1\n      0x00\n      mstore\n      keccak256(0x00, 0x20)\n      swap1\n      0x05\n      mul\n      add\n        /* \"contracts/Twitter-GetTotalLikes-Exercise.sol\":3377:3406  return tweets[msg.sender][_i] */\n      mload(0x40)\n      dup1\n      0xa0\n      add\n      0x40\n      mstore\n      swap1\n      dup2\n      0x00\n      dup3\n      add\n      sload\n      dup2\n      mstore\n      0x20\n      add\n      0x01\n      dup3\n      add\n      0x00\n      swap1\n      sload\n      swap1\n      0x0100\n      exp\n      swap1\n      div\n      0xffffffffffffffffffffffffffffffffffffffff\n      and\n      0xffffffffffffffffffffffffffffffffffffffff\n      and\n      0xffffffffffffffffffffffffffffffffffffffff\n      and\n      dup2\n      mstore\n      0x20\n      add\n      0x02\n      dup3\n      add\n      dup1\n      sload\n      tag_138\n      swap1\n      tag_62\n      jump\t// in\n    tag_138:\n      dup1\n      0x1f\n      add\n      0x20\n      dup1\n      swap2\n      div\n      mul\n      0x20\n      add\n      mload(0x40)\n      swap1\n      dup2\n      add\n      0x40\n      mstore\n      dup1\n      swap3\n      swap2\n      swap1\n      dup2\n      dup2\n      mstore\n      0x20\n      add\n      dup3\n      dup1\n      sload\n      tag_139\n      swap1\n      tag_62\n      jump\t// in\n    tag_139:\n      dup1\n      iszero\n      tag_140\n      jumpi\n      dup1\n      0x1f\n      lt\n      tag_141\n      jumpi\n      0x0100\n      dup1\n      dup4\n      sload\n      div\n      mul\n      dup4\n      mstore\n      swap2\n      0x20\n      add\n      swap2\n      jump(tag_140)\n    tag_141:\n      dup3\n      add\n      swap2\n      swap1\n      0x00\n      mstore\n      keccak256(0x00, 0x20)\n      swap1\n    tag_142:\n      dup2\n      sload\n      dup2\n      mstore\n      swap1\n      0x01\n      add\n      swap1\n      0x20\n      add\n      dup1\n      dup4\n      gt\n      tag_142\n      jumpi\n      dup3\n      swap1\n      sub\n      0x1f\n      and\n      dup3\n      add\n      swap2\n    tag_140:\n      pop\n      pop\n      pop\n      pop\n      pop\n      dup2\n      mstore\n      0x20\n      add\n      0x03\n      dup3\n      add\n      sload\n      dup2\n      mstore\n      0x20\n      add\n      0x04\n      dup3\n      add\n      sload\n      dup2\n      mstore\n      pop\n      pop\n      swap1\n      pop\n        /* \"contracts/Twitter-GetTotalLikes-Exercise.sol\":3302:3413  function getTweet(uint256 _i) public view returns (Tweet memory) {... */\n      swap2\n      swap1\n      pop\n      jump\t// out\n    tag_133:\n      mload(0x40)\n      dup1\n      0xa0\n      add\n      0x40\n      mstore\n      dup1\n      0x00\n      dup2\n      mstore\n      0x20\n      add\n      and(0xffffffffffffffffffffffffffffffffffffffff, 0x00)\n      dup2\n      mstore\n      0x20\n      add\n      0x60\n      dup2\n      mstore\n      0x20\n      add\n      0x00\n      dup2\n      mstore\n      0x20\n      add\n      0x00\n      dup2\n      mstore\n      pop\n      swap1\n      jump\t// out\n        /* \"#utility.yul\":7:82   */\n    tag_143:\n        /* \"#utility.yul\":40:46   */\n      0x00\n        /* \"#utility.yul\":73:75   */\n      0x40\n        /* \"#utility.yul\":67:76   */\n      mload\n        /* \"#utility.yul\":57:76   */\n      swap1\n      pop\n        /* \"#utility.yul\":7:82   */\n      swap1\n      jump\t// out\n        /* \"#utility.yul\":88:205   */\n    tag_144:\n        /* \"#utility.yul\":197:198   */\n      0x00\n        /* \"#utility.yul\":194:195   */\n      dup1\n        /* \"#utility.yul\":187:199   */\n      revert\n        /* \"#utility.yul\":211:328   */\n    tag_145:\n        /* \"#utility.yul\":320:321   */\n      0x00\n        /* \"#utility.yul\":317:318   */\n      dup1\n        /* \"#utility.yul\":310:322   */\n      revert\n        /* \"#utility.yul\":334:460   */\n    tag_146:\n        /* \"#utility.yul\":371:378   */\n      0x00\n        /* \"#utility.yul\":411:453   */\n      0xffffffffffffffffffffffffffffffffffffffff\n        /* \"#utility.yul\":404:409   */\n      dup3\n        /* \"#utility.yul\":400:454   */\n      and\n        /* \"#utility.yul\":389:454   */\n      swap1\n      pop\n        /* \"#utility.yul\":334:460   */\n      swap2\n      swap1\n      pop\n      jump\t// out\n        /* \"#utility.yul\":466:562   */\n    tag_147:\n        /* \"#utility.yul\":503:510   */\n      0x00\n        /* \"#utility.yul\":532:556   */\n      tag_216\n        /* \"#utility.yul\":550:555   */\n      dup3\n        /* \"#utility.yul\":532:556   */\n      tag_146\n      jump\t// in\n    tag_216:\n        /* \"#utility.yul\":521:556   */\n      swap1\n      pop\n        /* \"#utility.yul\":466:562   */\n      swap2\n      swap1\n      pop\n      jump\t// out\n        /* \"#utility.yul\":568:690   */\n    tag_148:\n        /* \"#utility.yul\":641:665   */\n      tag_218\n        /* \"#utility.yul\":659:664   */\n      dup2\n        /* \"#utility.yul\":641:665   */\n      tag_147\n      jump\t// in\n    tag_218:\n        /* \"#utility.yul\":634:639   */\n      dup2\n        /* \"#utility.yul\":631:666   */\n      eq\n        /* \"#utility.yul\":621:684   */\n      tag_219\n      jumpi\n        /* \"#utility.yul\":680:681   */\n      0x00\n        /* \"#utility.yul\":677:678   */\n      dup1\n        /* \"#utility.yul\":670:682   */\n      revert\n        /* \"#utility.yul\":621:684   */\n    tag_219:\n        /* \"#utility.yul\":568:690   */\n      pop\n      jump\t// out\n        /* \"#utility.yul\":696:835   */\n    tag_149:\n        /* \"#utility.yul\":742:747   */\n      0x00\n        /* \"#utility.yul\":780:786   */\n      dup2\n        /* \"#utility.yul\":767:787   */\n      calldataload\n        /* \"#utility.yul\":758:787   */\n      swap1\n      pop\n        /* \"#utility.yul\":796:829   */\n      tag_221\n        /* \"#utility.yul\":823:828   */\n      dup2\n        /* \"#utility.yul\":796:829   */\n      tag_148\n      jump\t// in\n    tag_221:\n        /* \"#utility.yul\":696:835   */\n      swap3\n      swap2\n      pop\n      pop\n      jump\t// out\n        /* \"#utility.yul\":841:918   */\n    tag_150:\n        /* \"#utility.yul\":878:885   */\n      0x00\n        /* \"#utility.yul\":907:912   */\n      dup2\n        /* \"#utility.yul\":896:912   */\n      swap1\n      pop\n        /* \"#utility.yul\":841:918   */\n      swap2\n      swap1\n      pop\n      jump\t// out\n        /* \"#utility.yul\":924:1046   */\n    tag_151:\n        /* \"#utility.yul\":997:1021   */\n      tag_224\n        /* \"#utility.yul\":1015:1020   */\n      dup2\n        /* \"#utility.yul\":997:1021   */\n      tag_150\n      jump\t// in\n    tag_224:\n        /* \"#utility.yul\":990:995   */\n      dup2\n        /* \"#utility.yul\":987:1022   */\n      eq\n        /* \"#utility.yul\":977:1040   */\n      tag_225\n      jumpi\n        /* \"#utility.yul\":1036:1037   */\n      0x00\n        /* \"#utility.yul\":1033:1034   */\n      dup1\n        /* \"#utility.yul\":1026:1038   */\n      revert\n        /* \"#utility.yul\":977:1040   */\n    tag_225:\n        /* \"#utility.yul\":924:1046   */\n      pop\n      jump\t// out\n        /* \"#utility.yul\":1052:1191   */\n    tag_152:\n        /* \"#utility.yul\":1098:1103   */\n      0x00\n        /* \"#utility.yul\":1136:1142   */\n      dup2\n        /* \"#utility.yul\":1123:1143   */\n      calldataload\n        /* \"#utility.yul\":1114:1143   */\n      swap1\n      pop\n        /* \"#utility.yul\":1152:1185   */\n      tag_227\n        /* \"#utility.yul\":1179:1184   */\n      dup2\n        /* \"#utility.yul\":1152:1185   */\n      tag_151\n      jump\t// in\n    tag_227:\n        /* \"#utility.yul\":1052:1191   */\n      swap3\n      swap2\n      pop\n      pop\n      jump\t// out\n        /* \"#utility.yul\":1197:1671   */\n    tag_16:\n        /* \"#utility.yul\":1265:1271   */\n      0x00\n        /* \"#utility.yul\":1273:1279   */\n      dup1\n        /* \"#utility.yul\":1322:1324   */\n      0x40\n        /* \"#utility.yul\":1310:1319   */\n      dup4\n        /* \"#utility.yul\":1301:1308   */\n      dup6\n        /* \"#utility.yul\":1297:1320   */\n      sub\n        /* \"#utility.yul\":1293:1325   */\n      slt\n        /* \"#utility.yul\":1290:1409   */\n      iszero\n      tag_229\n      jumpi\n        /* \"#utility.yul\":1328:1407   */\n      tag_230\n      tag_144\n      jump\t// in\n    tag_230:\n        /* \"#utility.yul\":1290:1409   */\n    tag_229:\n        /* \"#utility.yul\":1448:1449   */\n      0x00\n        /* \"#utility.yul\":1473:1526   */\n      tag_231\n        /* \"#utility.yul\":1518:1525   */\n      dup6\n        /* \"#utility.yul\":1509:1515   */\n      dup3\n        /* \"#utility.yul\":1498:1507   */\n      dup7\n        /* \"#utility.yul\":1494:1516   */\n      add\n        /* \"#utility.yul\":1473:1526   */\n      tag_149\n      jump\t// in\n    tag_231:\n        /* \"#utility.yul\":1463:1526   */\n      swap3\n      pop\n        /* \"#utility.yul\":1419:1536   */\n      pop\n        /* \"#utility.yul\":1575:1577   */\n      0x20\n        /* \"#utility.yul\":1601:1654   */\n      tag_232\n        /* \"#utility.yul\":1646:1653   */\n      dup6\n        /* \"#utility.yul\":1637:1643   */\n      dup3\n        /* \"#utility.yul\":1626:1635   */\n      dup7\n        /* \"#utility.yul\":1622:1644   */\n      add\n        /* \"#utility.yul\":1601:1654   */\n      tag_152\n      jump\t// in\n    tag_232:\n        /* \"#utility.yul\":1591:1654   */\n      swap2\n      pop\n        /* \"#utility.yul\":1546:1664   */\n      pop\n        /* \"#utility.yul\":1197:1671   */\n      swap3\n      pop\n      swap3\n      swap1\n      pop\n      jump\t// out\n        /* \"#utility.yul\":1677:1795   */\n    tag_153:\n        /* \"#utility.yul\":1764:1788   */\n      tag_234\n        /* \"#utility.yul\":1782:1787   */\n      dup2\n        /* \"#utility.yul\":1764:1788   */\n      tag_150\n      jump\t// in\n    tag_234:\n        /* \"#utility.yul\":1759:1762   */\n      dup3\n        /* \"#utility.yul\":1752:1789   */\n      mstore\n        /* \"#utility.yul\":1677:1795   */\n      pop\n      pop\n      jump\t// out\n        /* \"#utility.yul\":1801:1919   */\n    tag_154:\n        /* \"#utility.yul\":1888:1912   */\n      tag_236\n        /* \"#utility.yul\":1906:1911   */\n      dup2\n        /* \"#utility.yul\":1888:1912   */\n      tag_147\n      jump\t// in\n    tag_236:\n        /* \"#utility.yul\":1883:1886   */\n      dup3\n        /* \"#utility.yul\":1876:1913   */\n      mstore\n        /* \"#utility.yul\":1801:1919   */\n      pop\n      pop\n      jump\t// out\n        /* \"#utility.yul\":1925:2024   */\n    tag_155:\n        /* \"#utility.yul\":1977:1983   */\n      0x00\n        /* \"#utility.yul\":2011:2016   */\n      dup2\n        /* \"#utility.yul\":2005:2017   */\n      mload\n        /* \"#utility.yul\":1995:2017   */\n      swap1\n      pop\n        /* \"#utility.yul\":1925:2024   */\n      swap2\n      swap1\n      pop\n      jump\t// out\n        /* \"#utility.yul\":2030:2199   */\n    tag_156:\n        /* \"#utility.yul\":2114:2125   */\n      0x00\n        /* \"#utility.yul\":2148:2154   */\n      dup3\n        /* \"#utility.yul\":2143:2146   */\n      dup3\n        /* \"#utility.yul\":2136:2155   */\n      mstore\n        /* \"#utility.yul\":2188:2192   */\n      0x20\n        /* \"#utility.yul\":2183:2186   */\n      dup3\n        /* \"#utility.yul\":2179:2193   */\n      add\n        /* \"#utility.yul\":2164:2193   */\n      swap1\n      pop\n        /* \"#utility.yul\":2030:2199   */\n      swap3\n      swap2\n      pop\n      pop\n      jump\t// out\n        /* \"#utility.yul\":2205:2344   */\n    tag_157:\n        /* \"#utility.yul\":2294:2300   */\n      dup3\n        /* \"#utility.yul\":2289:2292   */\n      dup2\n        /* \"#utility.yul\":2284:2287   */\n      dup4\n        /* \"#utility.yul\":2278:2301   */\n      mcopy\n        /* \"#utility.yul\":2335:2336   */\n      0x00\n        /* \"#utility.yul\":2326:2332   */\n      dup4\n        /* \"#utility.yul\":2321:2324   */\n      dup4\n        /* \"#utility.yul\":2317:2333   */\n      add\n        /* \"#utility.yul\":2310:2337   */\n      mstore\n        /* \"#utility.yul\":2205:2344   */\n      pop\n      pop\n      pop\n      jump\t// out\n        /* \"#utility.yul\":2350:2452   */\n    tag_158:\n        /* \"#utility.yul\":2391:2397   */\n      0x00\n        /* \"#utility.yul\":2442:2444   */\n      0x1f\n        /* \"#utility.yul\":2438:2445   */\n      not\n        /* \"#utility.yul\":2433:2435   */\n      0x1f\n        /* \"#utility.yul\":2426:2431   */\n      dup4\n        /* \"#utility.yul\":2422:2436   */\n      add\n        /* \"#utility.yul\":2418:2446   */\n      and\n        /* \"#utility.yul\":2408:2446   */\n      swap1\n      pop\n        /* \"#utility.yul\":2350:2452   */\n      swap2\n      swap1\n      pop\n      jump\t// out\n        /* \"#utility.yul\":2458:2835   */\n    tag_159:\n        /* \"#utility.yul\":2546:2549   */\n      0x00\n        /* \"#utility.yul\":2574:2613   */\n      tag_242\n        /* \"#utility.yul\":2607:2612   */\n      dup3\n        /* \"#utility.yul\":2574:2613   */\n      tag_155\n      jump\t// in\n    tag_242:\n        /* \"#utility.yul\":2629:2700   */\n      tag_243\n        /* \"#utility.yul\":2693:2699   */\n      dup2\n        /* \"#utility.yul\":2688:2691   */\n      dup6\n        /* \"#utility.yul\":2629:2700   */\n      tag_156\n      jump\t// in\n    tag_243:\n        /* \"#utility.yul\":2622:2700   */\n      swap4\n      pop\n        /* \"#utility.yul\":2709:2774   */\n      tag_244\n        /* \"#utility.yul\":2767:2773   */\n      dup2\n        /* \"#utility.yul\":2762:2765   */\n      dup6\n        /* \"#utility.yul\":2755:2759   */\n      0x20\n        /* \"#utility.yul\":2748:2753   */\n      dup7\n        /* \"#utility.yul\":2744:2760   */\n      add\n        /* \"#utility.yul\":2709:2774   */\n      tag_157\n      jump\t// in\n    tag_244:\n        /* \"#utility.yul\":2799:2828   */\n      tag_245\n        /* \"#utility.yul\":2821:2827   */\n      dup2\n        /* \"#utility.yul\":2799:2828   */\n      tag_158\n      jump\t// in\n    tag_245:\n        /* \"#utility.yul\":2794:2797   */\n      dup5\n        /* \"#utility.yul\":2790:2829   */\n      add\n        /* \"#utility.yul\":2783:2829   */\n      swap2\n      pop\n        /* \"#utility.yul\":2550:2835   */\n      pop\n        /* \"#utility.yul\":2458:2835   */\n      swap3\n      swap2\n      pop\n      pop\n      jump\t// out\n        /* \"#utility.yul\":2841:3596   */\n    tag_19:\n        /* \"#utility.yul\":3066:3070   */\n      0x00\n        /* \"#utility.yul\":3104:3107   */\n      0xa0\n        /* \"#utility.yul\":3093:3102   */\n      dup3\n        /* \"#utility.yul\":3089:3108   */\n      add\n        /* \"#utility.yul\":3081:3108   */\n      swap1\n      pop\n        /* \"#utility.yul\":3118:3189   */\n      tag_247\n        /* \"#utility.yul\":3186:3187   */\n      0x00\n        /* \"#utility.yul\":3175:3184   */\n      dup4\n        /* \"#utility.yul\":3171:3188   */\n      add\n        /* \"#utility.yul\":3162:3168   */\n      dup9\n        /* \"#utility.yul\":3118:3189   */\n      tag_153\n      jump\t// in\n    tag_247:\n        /* \"#utility.yul\":3199:3271   */\n      tag_248\n        /* \"#utility.yul\":3267:3269   */\n      0x20\n        /* \"#utility.yul\":3256:3265   */\n      dup4\n        /* \"#utility.yul\":3252:3270   */\n      add\n        /* \"#utility.yul\":3243:3249   */\n      dup8\n        /* \"#utility.yul\":3199:3271   */\n      tag_154\n      jump\t// in\n    tag_248:\n        /* \"#utility.yul\":3318:3327   */\n      dup2\n        /* \"#utility.yul\":3312:3316   */\n      dup2\n        /* \"#utility.yul\":3308:3328   */\n      sub\n        /* \"#utility.yul\":3303:3305   */\n      0x40\n        /* \"#utility.yul\":3292:3301   */\n      dup4\n        /* \"#utility.yul\":3288:3306   */\n      add\n        /* \"#utility.yul\":3281:3329   */\n      mstore\n        /* \"#utility.yul\":3346:3424   */\n      tag_249\n        /* \"#utility.yul\":3419:3423   */\n      dup2\n        /* \"#utility.yul\":3410:3416   */\n      dup7\n        /* \"#utility.yul\":3346:3424   */\n      tag_159\n      jump\t// in\n    tag_249:\n        /* \"#utility.yul\":3338:3424   */\n      swap1\n      pop\n        /* \"#utility.yul\":3434:3506   */\n      tag_250\n        /* \"#utility.yul\":3502:3504   */\n      0x60\n        /* \"#utility.yul\":3491:3500   */\n      dup4\n        /* \"#utility.yul\":3487:3505   */\n      add\n        /* \"#utility.yul\":3478:3484   */\n      dup6\n        /* \"#utility.yul\":3434:3506   */\n      tag_153\n      jump\t// in\n    tag_250:\n        /* \"#utility.yul\":3516:3589   */\n      tag_251\n        /* \"#utility.yul\":3584:3587   */\n      0x80\n        /* \"#utility.yul\":3573:3582   */\n      dup4\n        /* \"#utility.yul\":3569:3588   */\n      add\n        /* \"#utility.yul\":3560:3566   */\n      dup5\n        /* \"#utility.yul\":3516:3589   */\n      tag_153\n      jump\t// in\n    tag_251:\n        /* \"#utility.yul\":2841:3596   */\n      swap7\n      swap6\n      pop\n      pop\n      pop\n      pop\n      pop\n      pop\n      jump\t// out\n        /* \"#utility.yul\":3602:3931   */\n    tag_22:\n        /* \"#utility.yul\":3661:3667   */\n      0x00\n        /* \"#utility.yul\":3710:3712   */\n      0x20\n        /* \"#utility.yul\":3698:3707   */\n      dup3\n        /* \"#utility.yul\":3689:3696   */\n      dup5\n        /* \"#utility.yul\":3685:3708   */\n      sub\n        /* \"#utility.yul\":3681:3713   */\n      slt\n        /* \"#utility.yul\":3678:3797   */\n      iszero\n      tag_253\n      jumpi\n        /* \"#utility.yul\":3716:3795   */\n      tag_254\n      tag_144\n      jump\t// in\n    tag_254:\n        /* \"#utility.yul\":3678:3797   */\n    tag_253:\n        /* \"#utility.yul\":3836:3837   */\n      0x00\n        /* \"#utility.yul\":3861:3914   */\n      tag_255\n        /* \"#utility.yul\":3906:3913   */\n      dup5\n        /* \"#utility.yul\":3897:3903   */\n      dup3\n        /* \"#utility.yul\":3886:3895   */\n      dup6\n        /* \"#utility.yul\":3882:3904   */\n      add\n        /* \"#utility.yul\":3861:3914   */\n      tag_149\n      jump\t// in\n    tag_255:\n        /* \"#utility.yul\":3851:3914   */\n      swap2\n      pop\n        /* \"#utility.yul\":3807:3924   */\n      pop\n        /* \"#utility.yul\":3602:3931   */\n      swap3\n      swap2\n      pop\n      pop\n      jump\t// out\n        /* \"#utility.yul\":3937:4072   */\n    tag_160:\n        /* \"#utility.yul\":4025:4031   */\n      0x00\n        /* \"#utility.yul\":4059:4064   */\n      dup2\n        /* \"#utility.yul\":4053:4065   */\n      mload\n        /* \"#utility.yul\":4043:4065   */\n      swap1\n      pop\n        /* \"#utility.yul\":3937:4072   */\n      swap2\n      swap1\n      pop\n      jump\t// out\n        /* \"#utility.yul\":4078:4283   */\n    tag_161:\n        /* \"#utility.yul\":4198:4209   */\n      0x00\n        /* \"#utility.yul\":4232:4238   */\n      dup3\n        /* \"#utility.yul\":4227:4230   */\n      dup3\n        /* \"#utility.yul\":4220:4239   */\n      mstore\n        /* \"#utility.yul\":4272:4276   */\n      0x20\n        /* \"#utility.yul\":4267:4270   */\n      dup3\n        /* \"#utility.yul\":4263:4277   */\n      add\n        /* \"#utility.yul\":4248:4277   */\n      swap1\n      pop\n        /* \"#utility.yul\":4078:4283   */\n      swap3\n      swap2\n      pop\n      pop\n      jump\t// out\n        /* \"#utility.yul\":4289:4442   */\n    tag_162:\n        /* \"#utility.yul\":4377:4381   */\n      0x00\n        /* \"#utility.yul\":4400:4403   */\n      dup2\n        /* \"#utility.yul\":4392:4403   */\n      swap1\n      pop\n        /* \"#utility.yul\":4430:4434   */\n      0x20\n        /* \"#utility.yul\":4425:4428   */\n      dup3\n        /* \"#utility.yul\":4421:4435   */\n      add\n        /* \"#utility.yul\":4413:4435   */\n      swap1\n      pop\n        /* \"#utility.yul\":4289:4442   */\n      swap2\n      swap1\n      pop\n      jump\t// out\n        /* \"#utility.yul\":4448:4556   */\n    tag_163:\n        /* \"#utility.yul\":4525:4549   */\n      tag_260\n        /* \"#utility.yul\":4543:4548   */\n      dup2\n        /* \"#utility.yul\":4525:4549   */\n      tag_150\n      jump\t// in\n    tag_260:\n        /* \"#utility.yul\":4520:4523   */\n      dup3\n        /* \"#utility.yul\":4513:4550   */\n      mstore\n        /* \"#utility.yul\":4448:4556   */\n      pop\n      pop\n      jump\t// out\n        /* \"#utility.yul\":4562:4670   */\n    tag_164:\n        /* \"#utility.yul\":4639:4663   */\n      tag_262\n        /* \"#utility.yul\":4657:4662   */\n      dup2\n        /* \"#utility.yul\":4639:4663   */\n      tag_147\n      jump\t// in\n    tag_262:\n        /* \"#utility.yul\":4634:4637   */\n      dup3\n        /* \"#utility.yul\":4627:4664   */\n      mstore\n        /* \"#utility.yul\":4562:4670   */\n      pop\n      pop\n      jump\t// out\n        /* \"#utility.yul\":4676:4835   */\n    tag_165:\n        /* \"#utility.yul\":4750:4761   */\n      0x00\n        /* \"#utility.yul\":4784:4790   */\n      dup3\n        /* \"#utility.yul\":4779:4782   */\n      dup3\n        /* \"#utility.yul\":4772:4791   */\n      mstore\n        /* \"#utility.yul\":4824:4828   */\n      0x20\n        /* \"#utility.yul\":4819:4822   */\n      dup3\n        /* \"#utility.yul\":4815:4829   */\n      add\n        /* \"#utility.yul\":4800:4829   */\n      swap1\n      pop\n        /* \"#utility.yul\":4676:4835   */\n      swap3\n      swap2\n      pop\n      pop\n      jump\t// out\n        /* \"#utility.yul\":4841:5198   */\n    tag_166:\n        /* \"#utility.yul\":4919:4922   */\n      0x00\n        /* \"#utility.yul\":4947:4986   */\n      tag_265\n        /* \"#utility.yul\":4980:4985   */\n      dup3\n        /* \"#utility.yul\":4947:4986   */\n      tag_155\n      jump\t// in\n    tag_265:\n        /* \"#utility.yul\":5002:5063   */\n      tag_266\n        /* \"#utility.yul\":5056:5062   */\n      dup2\n        /* \"#utility.yul\":5051:5054   */\n      dup6\n        /* \"#utility.yul\":5002:5063   */\n      tag_165\n      jump\t// in\n    tag_266:\n        /* \"#utility.yul\":4995:5063   */\n      swap4\n      pop\n        /* \"#utility.yul\":5072:5137   */\n      tag_267\n        /* \"#utility.yul\":5130:5136   */\n      dup2\n        /* \"#utility.yul\":5125:5128   */\n      dup6\n        /* \"#utility.yul\":5118:5122   */\n      0x20\n        /* \"#utility.yul\":5111:5116   */\n      dup7\n        /* \"#utility.yul\":5107:5123   */\n      add\n        /* \"#utility.yul\":5072:5137   */\n      tag_157\n      jump\t// in\n    tag_267:\n        /* \"#utility.yul\":5162:5191   */\n      tag_268\n        /* \"#utility.yul\":5184:5190   */\n      dup2\n        /* \"#utility.yul\":5162:5191   */\n      tag_158\n      jump\t// in\n    tag_268:\n        /* \"#utility.yul\":5157:5160   */\n      dup5\n        /* \"#utility.yul\":5153:5192   */\n      add\n        /* \"#utility.yul\":5146:5192   */\n      swap2\n      pop\n        /* \"#utility.yul\":4923:5198   */\n      pop\n        /* \"#utility.yul\":4841:5198   */\n      swap3\n      swap2\n      pop\n      pop\n      jump\t// out\n        /* \"#utility.yul\":5256:6375   */\n    tag_167:\n        /* \"#utility.yul\":5357:5360   */\n      0x00\n        /* \"#utility.yul\":5393:5397   */\n      0xa0\n        /* \"#utility.yul\":5388:5391   */\n      dup4\n        /* \"#utility.yul\":5384:5398   */\n      add\n        /* \"#utility.yul\":5478:5482   */\n      0x00\n        /* \"#utility.yul\":5471:5476   */\n      dup4\n        /* \"#utility.yul\":5467:5483   */\n      add\n        /* \"#utility.yul\":5461:5484   */\n      mload\n        /* \"#utility.yul\":5497:5560   */\n      tag_270\n        /* \"#utility.yul\":5554:5558   */\n      0x00\n        /* \"#utility.yul\":5549:5552   */\n      dup7\n        /* \"#utility.yul\":5545:5559   */\n      add\n        /* \"#utility.yul\":5531:5543   */\n      dup3\n        /* \"#utility.yul\":5497:5560   */\n      tag_163\n      jump\t// in\n    tag_270:\n        /* \"#utility.yul\":5408:5570   */\n      pop\n        /* \"#utility.yul\":5654:5658   */\n      0x20\n        /* \"#utility.yul\":5647:5652   */\n      dup4\n        /* \"#utility.yul\":5643:5659   */\n      add\n        /* \"#utility.yul\":5637:5660   */\n      mload\n        /* \"#utility.yul\":5673:5736   */\n      tag_271\n        /* \"#utility.yul\":5730:5734   */\n      0x20\n        /* \"#utility.yul\":5725:5728   */\n      dup7\n        /* \"#utility.yul\":5721:5735   */\n      add\n        /* \"#utility.yul\":5707:5719   */\n      dup3\n        /* \"#utility.yul\":5673:5736   */\n      tag_164\n      jump\t// in\n    tag_271:\n        /* \"#utility.yul\":5580:5746   */\n      pop\n        /* \"#utility.yul\":5831:5835   */\n      0x40\n        /* \"#utility.yul\":5824:5829   */\n      dup4\n        /* \"#utility.yul\":5820:5836   */\n      add\n        /* \"#utility.yul\":5814:5837   */\n      mload\n        /* \"#utility.yul\":5884:5887   */\n      dup5\n        /* \"#utility.yul\":5878:5882   */\n      dup3\n        /* \"#utility.yul\":5874:5888   */\n      sub\n        /* \"#utility.yul\":5867:5871   */\n      0x40\n        /* \"#utility.yul\":5862:5865   */\n      dup7\n        /* \"#utility.yul\":5858:5872   */\n      add\n        /* \"#utility.yul\":5851:5889   */\n      mstore\n        /* \"#utility.yul\":5910:5983   */\n      tag_272\n        /* \"#utility.yul\":5978:5982   */\n      dup3\n        /* \"#utility.yul\":5964:5976   */\n      dup3\n        /* \"#utility.yul\":5910:5983   */\n      tag_166\n      jump\t// in\n    tag_272:\n        /* \"#utility.yul\":5902:5983   */\n      swap2\n      pop\n        /* \"#utility.yul\":5756:5994   */\n      pop\n        /* \"#utility.yul\":6081:6085   */\n      0x60\n        /* \"#utility.yul\":6074:6079   */\n      dup4\n        /* \"#utility.yul\":6070:6086   */\n      add\n        /* \"#utility.yul\":6064:6087   */\n      mload\n        /* \"#utility.yul\":6100:6163   */\n      tag_273\n        /* \"#utility.yul\":6157:6161   */\n      0x60\n        /* \"#utility.yul\":6152:6155   */\n      dup7\n        /* \"#utility.yul\":6148:6162   */\n      add\n        /* \"#utility.yul\":6134:6146   */\n      dup3\n        /* \"#utility.yul\":6100:6163   */\n      tag_163\n      jump\t// in\n    tag_273:\n        /* \"#utility.yul\":6004:6173   */\n      pop\n        /* \"#utility.yul\":6256:6260   */\n      0x80\n        /* \"#utility.yul\":6249:6254   */\n      dup4\n        /* \"#utility.yul\":6245:6261   */\n      add\n        /* \"#utility.yul\":6239:6262   */\n      mload\n        /* \"#utility.yul\":6275:6338   */\n      tag_274\n        /* \"#utility.yul\":6332:6336   */\n      0x80\n        /* \"#utility.yul\":6327:6330   */\n      dup7\n        /* \"#utility.yul\":6323:6337   */\n      add\n        /* \"#utility.yul\":6309:6321   */\n      dup3\n        /* \"#utility.yul\":6275:6338   */\n      tag_163\n      jump\t// in\n    tag_274:\n        /* \"#utility.yul\":6183:6348   */\n      pop\n        /* \"#utility.yul\":6365:6369   */\n      dup1\n        /* \"#utility.yul\":6358:6369   */\n      swap2\n      pop\n        /* \"#utility.yul\":5362:6375   */\n      pop\n        /* \"#utility.yul\":5256:6375   */\n      swap3\n      swap2\n      pop\n      pop\n      jump\t// out\n        /* \"#utility.yul\":6381:6621   */\n    tag_168:\n        /* \"#utility.yul\":6492:6502   */\n      0x00\n        /* \"#utility.yul\":6527:6615   */\n      tag_276\n        /* \"#utility.yul\":6611:6614   */\n      dup4\n        /* \"#utility.yul\":6603:6609   */\n      dup4\n        /* \"#utility.yul\":6527:6615   */\n      tag_167\n      jump\t// in\n    tag_276:\n        /* \"#utility.yul\":6513:6615   */\n      swap1\n      pop\n        /* \"#utility.yul\":6381:6621   */\n      swap3\n      swap2\n      pop\n      pop\n      jump\t// out\n        /* \"#utility.yul\":6627:6761   */\n    tag_169:\n        /* \"#utility.yul\":6718:6722   */\n      0x00\n        /* \"#utility.yul\":6750:6754   */\n      0x20\n        /* \"#utility.yul\":6745:6748   */\n      dup3\n        /* \"#utility.yul\":6741:6755   */\n      add\n        /* \"#utility.yul\":6733:6755   */\n      swap1\n      pop\n        /* \"#utility.yul\":6627:6761   */\n      swap2\n      swap1\n      pop\n      jump\t// out\n        /* \"#utility.yul\":6823:7902   */\n    tag_170:\n        /* \"#utility.yul\":6984:6987   */\n      0x00\n        /* \"#utility.yul\":7013:7088   */\n      tag_279\n        /* \"#utility.yul\":7082:7087   */\n      dup3\n        /* \"#utility.yul\":7013:7088   */\n      tag_160\n      jump\t// in\n    tag_279:\n        /* \"#utility.yul\":7104:7211   */\n      tag_280\n        /* \"#utility.yul\":7204:7210   */\n      dup2\n        /* \"#utility.yul\":7199:7202   */\n      dup6\n        /* \"#utility.yul\":7104:7211   */\n      tag_161\n      jump\t// in\n    tag_280:\n        /* \"#utility.yul\":7097:7211   */\n      swap4\n      pop\n        /* \"#utility.yul\":7237:7240   */\n      dup4\n        /* \"#utility.yul\":7282:7286   */\n      0x20\n        /* \"#utility.yul\":7274:7280   */\n      dup3\n        /* \"#utility.yul\":7270:7287   */\n      mul\n        /* \"#utility.yul\":7265:7268   */\n      dup6\n        /* \"#utility.yul\":7261:7288   */\n      add\n        /* \"#utility.yul\":7312:7389   */\n      tag_281\n        /* \"#utility.yul\":7383:7388   */\n      dup6\n        /* \"#utility.yul\":7312:7389   */\n      tag_162\n      jump\t// in\n    tag_281:\n        /* \"#utility.yul\":7412:7419   */\n      dup1\n        /* \"#utility.yul\":7443:7444   */\n      0x00\n        /* \"#utility.yul\":7428:7857   */\n    tag_282:\n        /* \"#utility.yul\":7453:7459   */\n      dup6\n        /* \"#utility.yul\":7450:7451   */\n      dup2\n        /* \"#utility.yul\":7447:7460   */\n      lt\n        /* \"#utility.yul\":7428:7857   */\n      iszero\n      tag_284\n      jumpi\n        /* \"#utility.yul\":7524:7533   */\n      dup5\n        /* \"#utility.yul\":7518:7522   */\n      dup5\n        /* \"#utility.yul\":7514:7534   */\n      sub\n        /* \"#utility.yul\":7509:7512   */\n      dup10\n        /* \"#utility.yul\":7502:7535   */\n      mstore\n        /* \"#utility.yul\":7575:7581   */\n      dup2\n        /* \"#utility.yul\":7569:7582   */\n      mload\n        /* \"#utility.yul\":7603:7709   */\n      tag_285\n        /* \"#utility.yul\":7704:7708   */\n      dup6\n        /* \"#utility.yul\":7689:7702   */\n      dup3\n        /* \"#utility.yul\":7603:7709   */\n      tag_168\n      jump\t// in\n    tag_285:\n        /* \"#utility.yul\":7595:7709   */\n      swap5\n      pop\n        /* \"#utility.yul\":7732:7813   */\n      tag_286\n        /* \"#utility.yul\":7806:7812   */\n      dup4\n        /* \"#utility.yul\":7732:7813   */\n      tag_169\n      jump\t// in\n    tag_286:\n        /* \"#utility.yul\":7722:7813   */\n      swap3\n      pop\n        /* \"#utility.yul\":7842:7846   */\n      0x20\n        /* \"#utility.yul\":7837:7840   */\n      dup11\n        /* \"#utility.yul\":7833:7847   */\n      add\n        /* \"#utility.yul\":7826:7847   */\n      swap10\n      pop\n        /* \"#utility.yul\":7488:7857   */\n      pop\n        /* \"#utility.yul\":7475:7476   */\n      0x01\n        /* \"#utility.yul\":7472:7473   */\n      dup2\n        /* \"#utility.yul\":7468:7477   */\n      add\n        /* \"#utility.yul\":7463:7477   */\n      swap1\n      pop\n        /* \"#utility.yul\":7428:7857   */\n      jump(tag_282)\n    tag_284:\n        /* \"#utility.yul\":7432:7446   */\n      pop\n        /* \"#utility.yul\":7873:7877   */\n      dup3\n        /* \"#utility.yul\":7866:7877   */\n      swap8\n      pop\n        /* \"#utility.yul\":7893:7896   */\n      dup8\n        /* \"#utility.yul\":7886:7896   */\n      swap6\n      pop\n        /* \"#utility.yul\":6989:7902   */\n      pop\n      pop\n      pop\n      pop\n      pop\n        /* \"#utility.yul\":6823:7902   */\n      swap3\n      swap2\n      pop\n      pop\n      jump\t// out\n        /* \"#utility.yul\":7908:8365   */\n    tag_25:\n        /* \"#utility.yul\":8093:8097   */\n      0x00\n        /* \"#utility.yul\":8131:8133   */\n      0x20\n        /* \"#utility.yul\":8120:8129   */\n      dup3\n        /* \"#utility.yul\":8116:8134   */\n      add\n        /* \"#utility.yul\":8108:8134   */\n      swap1\n      pop\n        /* \"#utility.yul\":8180:8189   */\n      dup2\n        /* \"#utility.yul\":8174:8178   */\n      dup2\n        /* \"#utility.yul\":8170:8190   */\n      sub\n        /* \"#utility.yul\":8166:8167   */\n      0x00\n        /* \"#utility.yul\":8155:8164   */\n      dup4\n        /* \"#utility.yul\":8151:8168   */\n      add\n        /* \"#utility.yul\":8144:8191   */\n      mstore\n        /* \"#utility.yul\":8208:8358   */\n      tag_288\n        /* \"#utility.yul\":8353:8357   */\n      dup2\n        /* \"#utility.yul\":8344:8350   */\n      dup5\n        /* \"#utility.yul\":8208:8358   */\n      tag_170\n      jump\t// in\n    tag_288:\n        /* \"#utility.yul\":8200:8358   */\n      swap1\n      pop\n        /* \"#utility.yul\":7908:8365   */\n      swap3\n      swap2\n      pop\n      pop\n      jump\t// out\n        /* \"#utility.yul\":8371:8460   */\n    tag_171:\n        /* \"#utility.yul\":8407:8414   */\n      0x00\n        /* \"#utility.yul\":8447:8453   */\n      0xffff\n        /* \"#utility.yul\":8440:8445   */\n      dup3\n        /* \"#utility.yul\":8436:8454   */\n      and\n        /* \"#utility.yul\":8425:8454   */\n      swap1\n      pop\n        /* \"#utility.yul\":8371:8460   */\n      swap2\n      swap1\n      pop\n      jump\t// out\n        /* \"#utility.yul\":8466:8586   */\n    tag_172:\n        /* \"#utility.yul\":8538:8561   */\n      tag_291\n        /* \"#utility.yul\":8555:8560   */\n      dup2\n        /* \"#utility.yul\":8538:8561   */\n      tag_171\n      jump\t// in\n    tag_291:\n        /* \"#utility.yul\":8531:8536   */\n      dup2\n        /* \"#utility.yul\":8528:8562   */\n      eq\n        /* \"#utility.yul\":8518:8580   */\n      tag_292\n      jumpi\n        /* \"#utility.yul\":8576:8577   */\n      0x00\n        /* \"#utility.yul\":8573:8574   */\n      dup1\n        /* \"#utility.yul\":8566:8578   */\n      revert\n        /* \"#utility.yul\":8518:8580   */\n    tag_292:\n        /* \"#utility.yul\":8466:8586   */\n      pop\n      jump\t// out\n        /* \"#utility.yul\":8592:8729   */\n    tag_173:\n        /* \"#utility.yul\":8637:8642   */\n      0x00\n        /* \"#utility.yul\":8675:8681   */\n      dup2\n        /* \"#utility.yul\":8662:8682   */\n      calldataload\n        /* \"#utility.yul\":8653:8682   */\n      swap1\n      pop\n        /* \"#utility.yul\":8691:8723   */\n      tag_294\n        /* \"#utility.yul\":8717:8722   */\n      dup2\n        /* \"#utility.yul\":8691:8723   */\n      tag_172\n      jump\t// in\n    tag_294:\n        /* \"#utility.yul\":8592:8729   */\n      swap3\n      swap2\n      pop\n      pop\n      jump\t// out\n        /* \"#utility.yul\":8735:9062   */\n    tag_31:\n        /* \"#utility.yul\":8793:8799   */\n      0x00\n        /* \"#utility.yul\":8842:8844   */\n      0x20\n        /* \"#utility.yul\":8830:8839   */\n      dup3\n        /* \"#utility.yul\":8821:8828   */\n      dup5\n        /* \"#utility.yul\":8817:8840   */\n      sub\n        /* \"#utility.yul\":8813:8845   */\n      slt\n        /* \"#utility.yul\":8810:8929   */\n      iszero\n      tag_296\n      jumpi\n        /* \"#utility.yul\":8848:8927   */\n      tag_297\n      tag_144\n      jump\t// in\n    tag_297:\n        /* \"#utility.yul\":8810:8929   */\n    tag_296:\n        /* \"#utility.yul\":8968:8969   */\n      0x00\n        /* \"#utility.yul\":8993:9045   */\n      tag_298\n        /* \"#utility.yul\":9037:9044   */\n      dup5\n        /* \"#utility.yul\":9028:9034   */\n      dup3\n        /* \"#utility.yul\":9017:9026   */\n      dup6\n        /* \"#utility.yul\":9013:9035   */\n      add\n        /* \"#utility.yul\":8993:9045   */\n      tag_173\n      jump\t// in\n    tag_298:\n        /* \"#utility.yul\":8983:9045   */\n      swap2\n      pop\n        /* \"#utility.yul\":8939:9055   */\n      pop\n        /* \"#utility.yul\":8735:9062   */\n      swap3\n      swap2\n      pop\n      pop\n      jump\t// out\n        /* \"#utility.yul\":9068:9183   */\n    tag_174:\n        /* \"#utility.yul\":9153:9176   */\n      tag_300\n        /* \"#utility.yul\":9170:9175   */\n      dup2\n        /* \"#utility.yul\":9153:9176   */\n      tag_171\n      jump\t// in\n    tag_300:\n        /* \"#utility.yul\":9148:9151   */\n      dup3\n        /* \"#utility.yul\":9141:9177   */\n      mstore\n        /* \"#utility.yul\":9068:9183   */\n      pop\n      pop\n      jump\t// out\n        /* \"#utility.yul\":9189:9407   */\n    tag_39:\n        /* \"#utility.yul\":9280:9284   */\n      0x00\n        /* \"#utility.yul\":9318:9320   */\n      0x20\n        /* \"#utility.yul\":9307:9316   */\n      dup3\n        /* \"#utility.yul\":9303:9321   */\n      add\n        /* \"#utility.yul\":9295:9321   */\n      swap1\n      pop\n        /* \"#utility.yul\":9331:9400   */\n      tag_302\n        /* \"#utility.yul\":9397:9398   */\n      0x00\n        /* \"#utility.yul\":9386:9395   */\n      dup4\n        /* \"#utility.yul\":9382:9399   */\n      add\n        /* \"#utility.yul\":9373:9379   */\n      dup5\n        /* \"#utility.yul\":9331:9400   */\n      tag_174\n      jump\t// in\n    tag_302:\n        /* \"#utility.yul\":9189:9407   */\n      swap3\n      swap2\n      pop\n      pop\n      jump\t// out\n        /* \"#utility.yul\":9413:9530   */\n    tag_175:\n        /* \"#utility.yul\":9522:9523   */\n      0x00\n        /* \"#utility.yul\":9519:9520   */\n      dup1\n        /* \"#utility.yul\":9512:9524   */\n      revert\n        /* \"#utility.yul\":9536:9653   */\n    tag_176:\n        /* \"#utility.yul\":9645:9646   */\n      0x00\n        /* \"#utility.yul\":9642:9643   */\n      dup1\n        /* \"#utility.yul\":9635:9647   */\n      revert\n        /* \"#utility.yul\":9659:9839   */\n    tag_177:\n        /* \"#utility.yul\":9707:9784   */\n      0x4e487b7100000000000000000000000000000000000000000000000000000000\n        /* \"#utility.yul\":9704:9705   */\n      0x00\n        /* \"#utility.yul\":9697:9785   */\n      mstore\n        /* \"#utility.yul\":9804:9808   */\n      0x41\n        /* \"#utility.yul\":9801:9802   */\n      0x04\n        /* \"#utility.yul\":9794:9809   */\n      mstore\n        /* \"#utility.yul\":9828:9832   */\n      0x24\n        /* \"#utility.yul\":9825:9826   */\n      0x00\n        /* \"#utility.yul\":9818:9833   */\n      revert\n        /* \"#utility.yul\":9845:10126   */\n    tag_178:\n        /* \"#utility.yul\":9928:9955   */\n      tag_307\n        /* \"#utility.yul\":9950:9954   */\n      dup3\n        /* \"#utility.yul\":9928:9955   */\n      tag_158\n      jump\t// in\n    tag_307:\n        /* \"#utility.yul\":9920:9926   */\n      dup2\n        /* \"#utility.yul\":9916:9956   */\n      add\n        /* \"#utility.yul\":10058:10064   */\n      dup2\n        /* \"#utility.yul\":10046:10056   */\n      dup2\n        /* \"#utility.yul\":10043:10065   */\n      lt\n        /* \"#utility.yul\":10022:10040   */\n      0xffffffffffffffff\n        /* \"#utility.yul\":10010:10020   */\n      dup3\n        /* \"#utility.yul\":10007:10041   */\n      gt\n        /* \"#utility.yul\":10004:10066   */\n      or\n        /* \"#utility.yul\":10001:10089   */\n      iszero\n      tag_308\n      jumpi\n        /* \"#utility.yul\":10069:10087   */\n      tag_309\n      tag_177\n      jump\t// in\n    tag_309:\n        /* \"#utility.yul\":10001:10089   */\n    tag_308:\n        /* \"#utility.yul\":10109:10119   */\n      dup1\n        /* \"#utility.yul\":10105:10107   */\n      0x40\n        /* \"#utility.yul\":10098:10120   */\n      mstore\n        /* \"#utility.yul\":9888:10126   */\n      pop\n        /* \"#utility.yul\":9845:10126   */\n      pop\n      pop\n      jump\t// out\n        /* \"#utility.yul\":10132:10261   */\n    tag_179:\n        /* \"#utility.yul\":10166:10172   */\n      0x00\n        /* \"#utility.yul\":10193:10213   */\n      tag_311\n      tag_143\n      jump\t// in\n    tag_311:\n        /* \"#utility.yul\":10183:10213   */\n      swap1\n      pop\n        /* \"#utility.yul\":10222:10255   */\n      tag_312\n        /* \"#utility.yul\":10250:10254   */\n      dup3\n        /* \"#utility.yul\":10242:10248   */\n      dup3\n        /* \"#utility.yul\":10222:10255   */\n      tag_178\n      jump\t// in\n    tag_312:\n        /* \"#utility.yul\":10132:10261   */\n      swap2\n      swap1\n      pop\n      jump\t// out\n        /* \"#utility.yul\":10267:10575   */\n    tag_180:\n        /* \"#utility.yul\":10329:10333   */\n      0x00\n        /* \"#utility.yul\":10419:10437   */\n      0xffffffffffffffff\n        /* \"#utility.yul\":10411:10417   */\n      dup3\n        /* \"#utility.yul\":10408:10438   */\n      gt\n        /* \"#utility.yul\":10405:10461   */\n      iszero\n      tag_314\n      jumpi\n        /* \"#utility.yul\":10441:10459   */\n      tag_315\n      tag_177\n      jump\t// in\n    tag_315:\n        /* \"#utility.yul\":10405:10461   */\n    tag_314:\n        /* \"#utility.yul\":10479:10508   */\n      tag_316\n        /* \"#utility.yul\":10501:10507   */\n      dup3\n        /* \"#utility.yul\":10479:10508   */\n      tag_158\n      jump\t// in\n    tag_316:\n        /* \"#utility.yul\":10471:10508   */\n      swap1\n      pop\n        /* \"#utility.yul\":10563:10567   */\n      0x20\n        /* \"#utility.yul\":10557:10561   */\n      dup2\n        /* \"#utility.yul\":10553:10568   */\n      add\n        /* \"#utility.yul\":10545:10568   */\n      swap1\n      pop\n        /* \"#utility.yul\":10267:10575   */\n      swap2\n      swap1\n      pop\n      jump\t// out\n        /* \"#utility.yul\":10581:10729   */\n    tag_181:\n        /* \"#utility.yul\":10679:10685   */\n      dup3\n        /* \"#utility.yul\":10674:10677   */\n      dup2\n        /* \"#utility.yul\":10669:10672   */\n      dup4\n        /* \"#utility.yul\":10656:10686   */\n      calldatacopy\n        /* \"#utility.yul\":10720:10721   */\n      0x00\n        /* \"#utility.yul\":10711:10717   */\n      dup4\n        /* \"#utility.yul\":10706:10709   */\n      dup4\n        /* \"#utility.yul\":10702:10718   */\n      add\n        /* \"#utility.yul\":10695:10722   */\n      mstore\n        /* \"#utility.yul\":10581:10729   */\n      pop\n      pop\n      pop\n      jump\t// out\n        /* \"#utility.yul\":10735:11160   */\n    tag_182:\n        /* \"#utility.yul\":10813:10818   */\n      0x00\n        /* \"#utility.yul\":10838:10904   */\n      tag_319\n        /* \"#utility.yul\":10854:10903   */\n      tag_320\n        /* \"#utility.yul\":10896:10902   */\n      dup5\n        /* \"#utility.yul\":10854:10903   */\n      tag_180\n      jump\t// in\n    tag_320:\n        /* \"#utility.yul\":10838:10904   */\n      tag_179\n      jump\t// in\n    tag_319:\n        /* \"#utility.yul\":10829:10904   */\n      swap1\n      pop\n        /* \"#utility.yul\":10927:10933   */\n      dup3\n        /* \"#utility.yul\":10920:10925   */\n      dup2\n        /* \"#utility.yul\":10913:10934   */\n      mstore\n        /* \"#utility.yul\":10965:10969   */\n      0x20\n        /* \"#utility.yul\":10958:10963   */\n      dup2\n        /* \"#utility.yul\":10954:10970   */\n      add\n        /* \"#utility.yul\":11003:11006   */\n      dup5\n        /* \"#utility.yul\":10994:11000   */\n      dup5\n        /* \"#utility.yul\":10989:10992   */\n      dup5\n        /* \"#utility.yul\":10985:11001   */\n      add\n        /* \"#utility.yul\":10982:11007   */\n      gt\n        /* \"#utility.yul\":10979:11091   */\n      iszero\n      tag_321\n      jumpi\n        /* \"#utility.yul\":11010:11089   */\n      tag_322\n      tag_176\n      jump\t// in\n    tag_322:\n        /* \"#utility.yul\":10979:11091   */\n    tag_321:\n        /* \"#utility.yul\":11100:11154   */\n      tag_323\n        /* \"#utility.yul\":11147:11153   */\n      dup5\n        /* \"#utility.yul\":11142:11145   */\n      dup3\n        /* \"#utility.yul\":11137:11140   */\n      dup6\n        /* \"#utility.yul\":11100:11154   */\n      tag_181\n      jump\t// in\n    tag_323:\n        /* \"#utility.yul\":10819:11160   */\n      pop\n        /* \"#utility.yul\":10735:11160   */\n      swap4\n      swap3\n      pop\n      pop\n      pop\n      jump\t// out\n        /* \"#utility.yul\":11180:11520   */\n    tag_183:\n        /* \"#utility.yul\":11236:11241   */\n      0x00\n        /* \"#utility.yul\":11285:11288   */\n      dup3\n        /* \"#utility.yul\":11278:11282   */\n      0x1f\n        /* \"#utility.yul\":11270:11276   */\n      dup4\n        /* \"#utility.yul\":11266:11283   */\n      add\n        /* \"#utility.yul\":11262:11289   */\n      slt\n        /* \"#utility.yul\":11252:11374   */\n      tag_325\n      jumpi\n        /* \"#utility.yul\":11293:11372   */\n      tag_326\n      tag_175\n      jump\t// in\n    tag_326:\n        /* \"#utility.yul\":11252:11374   */\n    tag_325:\n        /* \"#utility.yul\":11410:11416   */\n      dup2\n        /* \"#utility.yul\":11397:11417   */\n      calldataload\n        /* \"#utility.yul\":11435:11514   */\n      tag_327\n        /* \"#utility.yul\":11510:11513   */\n      dup5\n        /* \"#utility.yul\":11502:11508   */\n      dup3\n        /* \"#utility.yul\":11495:11499   */\n      0x20\n        /* \"#utility.yul\":11487:11493   */\n      dup7\n        /* \"#utility.yul\":11483:11500   */\n      add\n        /* \"#utility.yul\":11435:11514   */\n      tag_182\n      jump\t// in\n    tag_327:\n        /* \"#utility.yul\":11426:11514   */\n      swap2\n      pop\n        /* \"#utility.yul\":11242:11520   */\n      pop\n        /* \"#utility.yul\":11180:11520   */\n      swap3\n      swap2\n      pop\n      pop\n      jump\t// out\n        /* \"#utility.yul\":11526:12035   */\n    tag_42:\n        /* \"#utility.yul\":11595:11601   */\n      0x00\n        /* \"#utility.yul\":11644:11646   */\n      0x20\n        /* \"#utility.yul\":11632:11641   */\n      dup3\n        /* \"#utility.yul\":11623:11630   */\n      dup5\n        /* \"#utility.yul\":11619:11642   */\n      sub\n        /* \"#utility.yul\":11615:11647   */\n      slt\n        /* \"#utility.yul\":11612:11731   */\n      iszero\n      tag_329\n      jumpi\n        /* \"#utility.yul\":11650:11729   */\n      tag_330\n      tag_144\n      jump\t// in\n    tag_330:\n        /* \"#utility.yul\":11612:11731   */\n    tag_329:\n        /* \"#utility.yul\":11798:11799   */\n      0x00\n        /* \"#utility.yul\":11787:11796   */\n      dup3\n        /* \"#utility.yul\":11783:11800   */\n      add\n        /* \"#utility.yul\":11770:11801   */\n      calldataload\n        /* \"#utility.yul\":11828:11846   */\n      0xffffffffffffffff\n        /* \"#utility.yul\":11820:11826   */\n      dup2\n        /* \"#utility.yul\":11817:11847   */\n      gt\n        /* \"#utility.yul\":11814:11931   */\n      iszero\n      tag_331\n      jumpi\n        /* \"#utility.yul\":11850:11929   */\n      tag_332\n      tag_145\n      jump\t// in\n    tag_332:\n        /* \"#utility.yul\":11814:11931   */\n    tag_331:\n        /* \"#utility.yul\":11955:12018   */\n      tag_333\n        /* \"#utility.yul\":12010:12017   */\n      dup5\n        /* \"#utility.yul\":12001:12007   */\n      dup3\n        /* \"#utility.yul\":11990:11999   */\n      dup6\n        /* \"#utility.yul\":11986:12008   */\n      add\n        /* \"#utility.yul\":11955:12018   */\n      tag_183\n      jump\t// in\n    tag_333:\n        /* \"#utility.yul\":11945:12018   */\n      swap2\n      pop\n        /* \"#utility.yul\":11741:12028   */\n      pop\n        /* \"#utility.yul\":11526:12035   */\n      swap3\n      swap2\n      pop\n      pop\n      jump\t// out\n        /* \"#utility.yul\":12041:12263   */\n    tag_48:\n        /* \"#utility.yul\":12134:12138   */\n      0x00\n        /* \"#utility.yul\":12172:12174   */\n      0x20\n        /* \"#utility.yul\":12161:12170   */\n      dup3\n        /* \"#utility.yul\":12157:12175   */\n      add\n        /* \"#utility.yul\":12149:12175   */\n      swap1\n      pop\n        /* \"#utility.yul\":12185:12256   */\n      tag_335\n        /* \"#utility.yul\":12253:12254   */\n      0x00\n        /* \"#utility.yul\":12242:12251   */\n      dup4\n        /* \"#utility.yul\":12238:12255   */\n      add\n        /* \"#utility.yul\":12229:12235   */\n      dup5\n        /* \"#utility.yul\":12185:12256   */\n      tag_153\n      jump\t// in\n    tag_335:\n        /* \"#utility.yul\":12041:12263   */\n      swap3\n      swap2\n      pop\n      pop\n      jump\t// out\n        /* \"#utility.yul\":12269:12491   */\n    tag_52:\n        /* \"#utility.yul\":12362:12366   */\n      0x00\n        /* \"#utility.yul\":12400:12402   */\n      0x20\n        /* \"#utility.yul\":12389:12398   */\n      dup3\n        /* \"#utility.yul\":12385:12403   */\n      add\n        /* \"#utility.yul\":12377:12403   */\n      swap1\n      pop\n        /* \"#utility.yul\":12413:12484   */\n      tag_337\n        /* \"#utility.yul\":12481:12482   */\n      0x00\n        /* \"#utility.yul\":12470:12479   */\n      dup4\n        /* \"#utility.yul\":12466:12483   */\n      add\n        /* \"#utility.yul\":12457:12463   */\n      dup5\n        /* \"#utility.yul\":12413:12484   */\n      tag_154\n      jump\t// in\n    tag_337:\n        /* \"#utility.yul\":12269:12491   */\n      swap3\n      swap2\n      pop\n      pop\n      jump\t// out\n        /* \"#utility.yul\":12497:12826   */\n    tag_55:\n        /* \"#utility.yul\":12556:12562   */\n      0x00\n        /* \"#utility.yul\":12605:12607   */\n      0x20\n        /* \"#utility.yul\":12593:12602   */\n      dup3\n        /* \"#utility.yul\":12584:12591   */\n      dup5\n        /* \"#utility.yul\":12580:12603   */\n      sub\n        /* \"#utility.yul\":12576:12608   */\n      slt\n        /* \"#utility.yul\":12573:12692   */\n      iszero\n      tag_339\n      jumpi\n        /* \"#utility.yul\":12611:12690   */\n      tag_340\n      tag_144\n      jump\t// in\n    tag_340:\n        /* \"#utility.yul\":12573:12692   */\n    tag_339:\n        /* \"#utility.yul\":12731:12732   */\n      0x00\n        /* \"#utility.yul\":12756:12809   */\n      tag_341\n        /* \"#utility.yul\":12801:12808   */\n      dup5\n        /* \"#utility.yul\":12792:12798   */\n      dup3\n        /* \"#utility.yul\":12781:12790   */\n      dup6\n        /* \"#utility.yul\":12777:12799   */\n      add\n        /* \"#utility.yul\":12756:12809   */\n      tag_152\n      jump\t// in\n    tag_341:\n        /* \"#utility.yul\":12746:12809   */\n      swap2\n      pop\n        /* \"#utility.yul\":12702:12819   */\n      pop\n        /* \"#utility.yul\":12497:12826   */\n      swap3\n      swap2\n      pop\n      pop\n      jump\t// out\n        /* \"#utility.yul\":12884:14013   */\n    tag_184:\n        /* \"#utility.yul\":12995:12998   */\n      0x00\n        /* \"#utility.yul\":13031:13035   */\n      0xa0\n        /* \"#utility.yul\":13026:13029   */\n      dup4\n        /* \"#utility.yul\":13022:13036   */\n      add\n        /* \"#utility.yul\":13116:13120   */\n      0x00\n        /* \"#utility.yul\":13109:13114   */\n      dup4\n        /* \"#utility.yul\":13105:13121   */\n      add\n        /* \"#utility.yul\":13099:13122   */\n      mload\n        /* \"#utility.yul\":13135:13198   */\n      tag_343\n        /* \"#utility.yul\":13192:13196   */\n      0x00\n        /* \"#utility.yul\":13187:13190   */\n      dup7\n        /* \"#utility.yul\":13183:13197   */\n      add\n        /* \"#utility.yul\":13169:13181   */\n      dup3\n        /* \"#utility.yul\":13135:13198   */\n      tag_163\n      jump\t// in\n    tag_343:\n        /* \"#utility.yul\":13046:13208   */\n      pop\n        /* \"#utility.yul\":13292:13296   */\n      0x20\n        /* \"#utility.yul\":13285:13290   */\n      dup4\n        /* \"#utility.yul\":13281:13297   */\n      add\n        /* \"#utility.yul\":13275:13298   */\n      mload\n        /* \"#utility.yul\":13311:13374   */\n      tag_344\n        /* \"#utility.yul\":13368:13372   */\n      0x20\n        /* \"#utility.yul\":13363:13366   */\n      dup7\n        /* \"#utility.yul\":13359:13373   */\n      add\n        /* \"#utility.yul\":13345:13357   */\n      dup3\n        /* \"#utility.yul\":13311:13374   */\n      tag_164\n      jump\t// in\n    tag_344:\n        /* \"#utility.yul\":13218:13384   */\n      pop\n        /* \"#utility.yul\":13469:13473   */\n      0x40\n        /* \"#utility.yul\":13462:13467   */\n      dup4\n        /* \"#utility.yul\":13458:13474   */\n      add\n        /* \"#utility.yul\":13452:13475   */\n      mload\n        /* \"#utility.yul\":13522:13525   */\n      dup5\n        /* \"#utility.yul\":13516:13520   */\n      dup3\n        /* \"#utility.yul\":13512:13526   */\n      sub\n        /* \"#utility.yul\":13505:13509   */\n      0x40\n        /* \"#utility.yul\":13500:13503   */\n      dup7\n        /* \"#utility.yul\":13496:13510   */\n      add\n        /* \"#utility.yul\":13489:13527   */\n      mstore\n        /* \"#utility.yul\":13548:13621   */\n      tag_345\n        /* \"#utility.yul\":13616:13620   */\n      dup3\n        /* \"#utility.yul\":13602:13614   */\n      dup3\n        /* \"#utility.yul\":13548:13621   */\n      tag_166\n      jump\t// in\n    tag_345:\n        /* \"#utility.yul\":13540:13621   */\n      swap2\n      pop\n        /* \"#utility.yul\":13394:13632   */\n      pop\n        /* \"#utility.yul\":13719:13723   */\n      0x60\n        /* \"#utility.yul\":13712:13717   */\n      dup4\n        /* \"#utility.yul\":13708:13724   */\n      add\n        /* \"#utility.yul\":13702:13725   */\n      mload\n        /* \"#utility.yul\":13738:13801   */\n      tag_346\n        /* \"#utility.yul\":13795:13799   */\n      0x60\n        /* \"#utility.yul\":13790:13793   */\n      dup7\n        /* \"#utility.yul\":13786:13800   */\n      add\n        /* \"#utility.yul\":13772:13784   */\n      dup3\n        /* \"#utility.yul\":13738:13801   */\n      tag_163\n      jump\t// in\n    tag_346:\n        /* \"#utility.yul\":13642:13811   */\n      pop\n        /* \"#utility.yul\":13894:13898   */\n      0x80\n        /* \"#utility.yul\":13887:13892   */\n      dup4\n        /* \"#utility.yul\":13883:13899   */\n      add\n        /* \"#utility.yul\":13877:13900   */\n      mload\n        /* \"#utility.yul\":13913:13976   */\n      tag_347\n        /* \"#utility.yul\":13970:13974   */\n      0x80\n        /* \"#utility.yul\":13965:13968   */\n      dup7\n        /* \"#utility.yul\":13961:13975   */\n      add\n        /* \"#utility.yul\":13947:13959   */\n      dup3\n        /* \"#utility.yul\":13913:13976   */\n      tag_163\n      jump\t// in\n    tag_347:\n        /* \"#utility.yul\":13821:13986   */\n      pop\n        /* \"#utility.yul\":14003:14007   */\n      dup1\n        /* \"#utility.yul\":13996:14007   */\n      swap2\n      pop\n        /* \"#utility.yul\":13000:14013   */\n      pop\n        /* \"#utility.yul\":12884:14013   */\n      swap3\n      swap2\n      pop\n      pop\n      jump\t// out\n        /* \"#utility.yul\":14019:14376   */\n    tag_58:\n        /* \"#utility.yul\":14154:14158   */\n      0x00\n        /* \"#utility.yul\":14192:14194   */\n      0x20\n        /* \"#utility.yul\":14181:14190   */\n      dup3\n        /* \"#utility.yul\":14177:14195   */\n      add\n        /* \"#utility.yul\":14169:14195   */\n      swap1\n      pop\n        /* \"#utility.yul\":14241:14250   */\n      dup2\n        /* \"#utility.yul\":14235:14239   */\n      dup2\n        /* \"#utility.yul\":14231:14251   */\n      sub\n        /* \"#utility.yul\":14227:14228   */\n      0x00\n        /* \"#utility.yul\":14216:14225   */\n      dup4\n        /* \"#utility.yul\":14212:14229   */\n      add\n        /* \"#utility.yul\":14205:14252   */\n      mstore\n        /* \"#utility.yul\":14269:14369   */\n      tag_349\n        /* \"#utility.yul\":14364:14368   */\n      dup2\n        /* \"#utility.yul\":14355:14361   */\n      dup5\n        /* \"#utility.yul\":14269:14369   */\n      tag_184\n      jump\t// in\n    tag_349:\n        /* \"#utility.yul\":14261:14369   */\n      swap1\n      pop\n        /* \"#utility.yul\":14019:14376   */\n      swap3\n      swap2\n      pop\n      pop\n      jump\t// out\n        /* \"#utility.yul\":14382:14562   */\n    tag_185:\n        /* \"#utility.yul\":14430:14507   */\n      0x4e487b7100000000000000000000000000000000000000000000000000000000\n        /* \"#utility.yul\":14427:14428   */\n      0x00\n        /* \"#utility.yul\":14420:14508   */\n      mstore\n        /* \"#utility.yul\":14527:14531   */\n      0x22\n        /* \"#utility.yul\":14524:14525   */\n      0x04\n        /* \"#utility.yul\":14517:14532   */\n      mstore\n        /* \"#utility.yul\":14551:14555   */\n      0x24\n        /* \"#utility.yul\":14548:14549   */\n      0x00\n        /* \"#utility.yul\":14541:14556   */\n      revert\n        /* \"#utility.yul\":14568:14888   */\n    tag_62:\n        /* \"#utility.yul\":14612:14618   */\n      0x00\n        /* \"#utility.yul\":14649:14650   */\n      0x02\n        /* \"#utility.yul\":14643:14647   */\n      dup3\n        /* \"#utility.yul\":14639:14651   */\n      div\n        /* \"#utility.yul\":14629:14651   */\n      swap1\n      pop\n        /* \"#utility.yul\":14696:14697   */\n      0x01\n        /* \"#utility.yul\":14690:14694   */\n      dup3\n        /* \"#utility.yul\":14686:14698   */\n      and\n        /* \"#utility.yul\":14717:14735   */\n      dup1\n        /* \"#utility.yul\":14707:14788   */\n      tag_352\n      jumpi\n        /* \"#utility.yul\":14773:14777   */\n      0x7f\n        /* \"#utility.yul\":14765:14771   */\n      dup3\n        /* \"#utility.yul\":14761:14778   */\n      and\n        /* \"#utility.yul\":14751:14778   */\n      swap2\n      pop\n        /* \"#utility.yul\":14707:14788   */\n    tag_352:\n        /* \"#utility.yul\":14835:14837   */\n      0x20\n        /* \"#utility.yul\":14827:14833   */\n      dup3\n        /* \"#utility.yul\":14824:14838   */\n      lt\n        /* \"#utility.yul\":14804:14822   */\n      dup2\n        /* \"#utility.yul\":14801:14839   */\n      sub\n        /* \"#utility.yul\":14798:14882   */\n      tag_353\n      jumpi\n        /* \"#utility.yul\":14854:14872   */\n      tag_354\n      tag_185\n      jump\t// in\n    tag_354:\n        /* \"#utility.yul\":14798:14882   */\n    tag_353:\n        /* \"#utility.yul\":14619:14888   */\n      pop\n        /* \"#utility.yul\":14568:14888   */\n      swap2\n      swap1\n      pop\n      jump\t// out\n        /* \"#utility.yul\":14894:15064   */\n    tag_186:\n        /* \"#utility.yul\":15034:15056   */\n      0x545745455420444f4553204e4f54204558495354000000000000000000000000\n        /* \"#utility.yul\":15030:15031   */\n      0x00\n        /* \"#utility.yul\":15022:15028   */\n      dup3\n        /* \"#utility.yul\":15018:15032   */\n      add\n        /* \"#utility.yul\":15011:15057   */\n      mstore\n        /* \"#utility.yul\":14894:15064   */\n      pop\n      jump\t// out\n        /* \"#utility.yul\":15070:15436   */\n    tag_187:\n        /* \"#utility.yul\":15212:15215   */\n      0x00\n        /* \"#utility.yul\":15233:15300   */\n      tag_357\n        /* \"#utility.yul\":15297:15299   */\n      0x14\n        /* \"#utility.yul\":15292:15295   */\n      dup4\n        /* \"#utility.yul\":15233:15300   */\n      tag_156\n      jump\t// in\n    tag_357:\n        /* \"#utility.yul\":15226:15300   */\n      swap2\n      pop\n        /* \"#utility.yul\":15309:15402   */\n      tag_358\n        /* \"#utility.yul\":15398:15401   */\n      dup3\n        /* \"#utility.yul\":15309:15402   */\n      tag_186\n      jump\t// in\n    tag_358:\n        /* \"#utility.yul\":15427:15429   */\n      0x20\n        /* \"#utility.yul\":15422:15425   */\n      dup3\n        /* \"#utility.yul\":15418:15430   */\n      add\n        /* \"#utility.yul\":15411:15430   */\n      swap1\n      pop\n        /* \"#utility.yul\":15070:15436   */\n      swap2\n      swap1\n      pop\n      jump\t// out\n        /* \"#utility.yul\":15442:15861   */\n    tag_79:\n        /* \"#utility.yul\":15608:15612   */\n      0x00\n        /* \"#utility.yul\":15646:15648   */\n      0x20\n        /* \"#utility.yul\":15635:15644   */\n      dup3\n        /* \"#utility.yul\":15631:15649   */\n      add\n        /* \"#utility.yul\":15623:15649   */\n      swap1\n      pop\n        /* \"#utility.yul\":15695:15704   */\n      dup2\n        /* \"#utility.yul\":15689:15693   */\n      dup2\n        /* \"#utility.yul\":15685:15705   */\n      sub\n        /* \"#utility.yul\":15681:15682   */\n      0x00\n        /* \"#utility.yul\":15670:15679   */\n      dup4\n        /* \"#utility.yul\":15666:15683   */\n      add\n        /* \"#utility.yul\":15659:15706   */\n      mstore\n        /* \"#utility.yul\":15723:15854   */\n      tag_360\n        /* \"#utility.yul\":15849:15853   */\n      dup2\n        /* \"#utility.yul\":15723:15854   */\n      tag_187\n      jump\t// in\n    tag_360:\n        /* \"#utility.yul\":15715:15854   */\n      swap1\n      pop\n        /* \"#utility.yul\":15442:15861   */\n      swap2\n      swap1\n      pop\n      jump\t// out\n        /* \"#utility.yul\":15867:16047   */\n    tag_82:\n        /* \"#utility.yul\":15915:15992   */\n      0x4e487b7100000000000000000000000000000000000000000000000000000000\n        /* \"#utility.yul\":15912:15913   */\n      0x00\n        /* \"#utility.yul\":15905:15993   */\n      mstore\n        /* \"#utility.yul\":16012:16016   */\n      0x32\n        /* \"#utility.yul\":16009:16010   */\n      0x04\n        /* \"#utility.yul\":16002:16017   */\n      mstore\n        /* \"#utility.yul\":16036:16040   */\n      0x24\n        /* \"#utility.yul\":16033:16034   */\n      0x00\n        /* \"#utility.yul\":16026:16041   */\n      revert\n        /* \"#utility.yul\":16053:16221   */\n    tag_188:\n        /* \"#utility.yul\":16193:16213   */\n      0x545745455420484153204e4f204c494b45530000000000000000000000000000\n        /* \"#utility.yul\":16189:16190   */\n      0x00\n        /* \"#utility.yul\":16181:16187   */\n      dup3\n        /* \"#utility.yul\":16177:16191   */\n      add\n        /* \"#utility.yul\":16170:16214   */\n      mstore\n        /* \"#utility.yul\":16053:16221   */\n      pop\n      jump\t// out\n        /* \"#utility.yul\":16227:16593   */\n    tag_189:\n        /* \"#utility.yul\":16369:16372   */\n      0x00\n        /* \"#utility.yul\":16390:16457   */\n      tag_364\n        /* \"#utility.yul\":16454:16456   */\n      0x12\n        /* \"#utility.yul\":16449:16452   */\n      dup4\n        /* \"#utility.yul\":16390:16457   */\n      tag_156\n      jump\t// in\n    tag_364:\n        /* \"#utility.yul\":16383:16457   */\n      swap2\n      pop\n        /* \"#utility.yul\":16466:16559   */\n      tag_365\n        /* \"#utility.yul\":16555:16558   */\n      dup3\n        /* \"#utility.yul\":16466:16559   */\n      tag_188\n      jump\t// in\n    tag_365:\n        /* \"#utility.yul\":16584:16586   */\n      0x20\n        /* \"#utility.yul\":16579:16582   */\n      dup3\n        /* \"#utility.yul\":16575:16587   */\n      add\n        /* \"#utility.yul\":16568:16587   */\n      swap1\n      pop\n        /* \"#utility.yul\":16227:16593   */\n      swap2\n      swap1\n      pop\n      jump\t// out\n        /* \"#utility.yul\":16599:17018   */\n    tag_86:\n        /* \"#utility.yul\":16765:16769   */\n      0x00\n        /* \"#utility.yul\":16803:16805   */\n      0x20\n        /* \"#utility.yul\":16792:16801   */\n      dup3\n        /* \"#utility.yul\":16788:16806   */\n      add\n        /* \"#utility.yul\":16780:16806   */\n      swap1\n      pop\n        /* \"#utility.yul\":16852:16861   */\n      dup2\n        /* \"#utility.yul\":16846:16850   */\n      dup2\n        /* \"#utility.yul\":16842:16862   */\n      sub\n        /* \"#utility.yul\":16838:16839   */\n      0x00\n        /* \"#utility.yul\":16827:16836   */\n      dup4\n        /* \"#utility.yul\":16823:16840   */\n      add\n        /* \"#utility.yul\":16816:16863   */\n      mstore\n        /* \"#utility.yul\":16880:17011   */\n      tag_367\n        /* \"#utility.yul\":17006:17010   */\n      dup2\n        /* \"#utility.yul\":16880:17011   */\n      tag_189\n      jump\t// in\n    tag_367:\n        /* \"#utility.yul\":16872:17011   */\n      swap1\n      pop\n        /* \"#utility.yul\":16599:17018   */\n      swap2\n      swap1\n      pop\n      jump\t// out\n        /* \"#utility.yul\":17024:17204   */\n    tag_190:\n        /* \"#utility.yul\":17072:17149   */\n      0x4e487b7100000000000000000000000000000000000000000000000000000000\n        /* \"#utility.yul\":17069:17070   */\n      0x00\n        /* \"#utility.yul\":17062:17150   */\n      mstore\n        /* \"#utility.yul\":17169:17173   */\n      0x11\n        /* \"#utility.yul\":17166:17167   */\n      0x04\n        /* \"#utility.yul\":17159:17174   */\n      mstore\n        /* \"#utility.yul\":17193:17197   */\n      0x24\n        /* \"#utility.yul\":17190:17191   */\n      0x00\n        /* \"#utility.yul\":17183:17198   */\n      revert\n        /* \"#utility.yul\":17210:17381   */\n    tag_91:\n        /* \"#utility.yul\":17249:17252   */\n      0x00\n        /* \"#utility.yul\":17272:17296   */\n      tag_370\n        /* \"#utility.yul\":17290:17295   */\n      dup3\n        /* \"#utility.yul\":17272:17296   */\n      tag_150\n      jump\t// in\n    tag_370:\n        /* \"#utility.yul\":17263:17296   */\n      swap2\n      pop\n        /* \"#utility.yul\":17318:17322   */\n      0x00\n        /* \"#utility.yul\":17311:17316   */\n      dup3\n        /* \"#utility.yul\":17308:17323   */\n      sub\n        /* \"#utility.yul\":17305:17346   */\n      tag_371\n      jumpi\n        /* \"#utility.yul\":17326:17344   */\n      tag_372\n      tag_190\n      jump\t// in\n    tag_372:\n        /* \"#utility.yul\":17305:17346   */\n    tag_371:\n        /* \"#utility.yul\":17373:17374   */\n      0x01\n        /* \"#utility.yul\":17366:17371   */\n      dup3\n        /* \"#utility.yul\":17362:17375   */\n      sub\n        /* \"#utility.yul\":17355:17375   */\n      swap1\n      pop\n        /* \"#utility.yul\":17210:17381   */\n      swap2\n      swap1\n      pop\n      jump\t// out\n        /* \"#utility.yul\":17387:17940   */\n    tag_96:\n        /* \"#utility.yul\":17564:17568   */\n      0x00\n        /* \"#utility.yul\":17602:17605   */\n      0x80\n        /* \"#utility.yul\":17591:17600   */\n      dup3\n        /* \"#utility.yul\":17587:17606   */\n      add\n        /* \"#utility.yul\":17579:17606   */\n      swap1\n      pop\n        /* \"#utility.yul\":17616:17687   */\n      tag_374\n        /* \"#utility.yul\":17684:17685   */\n      0x00\n        /* \"#utility.yul\":17673:17682   */\n      dup4\n        /* \"#utility.yul\":17669:17686   */\n      add\n        /* \"#utility.yul\":17660:17666   */\n      dup8\n        /* \"#utility.yul\":17616:17687   */\n      tag_154\n      jump\t// in\n    tag_374:\n        /* \"#utility.yul\":17697:17769   */\n      tag_375\n        /* \"#utility.yul\":17765:17767   */\n      0x20\n        /* \"#utility.yul\":17754:17763   */\n      dup4\n        /* \"#utility.yul\":17750:17768   */\n      add\n        /* \"#utility.yul\":17741:17747   */\n      dup7\n        /* \"#utility.yul\":17697:17769   */\n      tag_154\n      jump\t// in\n    tag_375:\n        /* \"#utility.yul\":17779:17851   */\n      tag_376\n        /* \"#utility.yul\":17847:17849   */\n      0x40\n        /* \"#utility.yul\":17836:17845   */\n      dup4\n        /* \"#utility.yul\":17832:17850   */\n      add\n        /* \"#utility.yul\":17823:17829   */\n      dup6\n        /* \"#utility.yul\":17779:17851   */\n      tag_153\n      jump\t// in\n    tag_376:\n        /* \"#utility.yul\":17861:17933   */\n      tag_377\n        /* \"#utility.yul\":17929:17931   */\n      0x60\n        /* \"#utility.yul\":17918:17927   */\n      dup4\n        /* \"#utility.yul\":17914:17932   */\n      add\n        /* \"#utility.yul\":17905:17911   */\n      dup5\n        /* \"#utility.yul\":17861:17933   */\n      tag_153\n      jump\t// in\n    tag_377:\n        /* \"#utility.yul\":17387:17940   */\n      swap6\n      swap5\n      pop\n      pop\n      pop\n      pop\n      pop\n      jump\t// out\n        /* \"#utility.yul\":17946:18118   */\n    tag_191:\n        /* \"#utility.yul\":18086:18110   */\n      0x594f5520415245204e4f5420544845204f574e45522100000000000000000000\n        /* \"#utility.yul\":18082:18083   */\n      0x00\n        /* \"#utility.yul\":18074:18080   */\n      dup3\n        /* \"#utility.yul\":18070:18084   */\n      add\n        /* \"#utility.yul\":18063:18111   */\n      mstore\n        /* \"#utility.yul\":17946:18118   */\n      pop\n      jump\t// out\n        /* \"#utility.yul\":18124:18490   */\n    tag_192:\n        /* \"#utility.yul\":18266:18269   */\n      0x00\n        /* \"#utility.yul\":18287:18354   */\n      tag_380\n        /* \"#utility.yul\":18351:18353   */\n      0x16\n        /* \"#utility.yul\":18346:18349   */\n      dup4\n        /* \"#utility.yul\":18287:18354   */\n      tag_156\n      jump\t// in\n    tag_380:\n        /* \"#utility.yul\":18280:18354   */\n      swap2\n      pop\n        /* \"#utility.yul\":18363:18456   */\n      tag_381\n        /* \"#utility.yul\":18452:18455   */\n      dup3\n        /* \"#utility.yul\":18363:18456   */\n      tag_191\n      jump\t// in\n    tag_381:\n        /* \"#utility.yul\":18481:18483   */\n      0x20\n        /* \"#utility.yul\":18476:18479   */\n      dup3\n        /* \"#utility.yul\":18472:18484   */\n      add\n        /* \"#utility.yul\":18465:18484   */\n      swap1\n      pop\n        /* \"#utility.yul\":18124:18490   */\n      swap2\n      swap1\n      pop\n      jump\t// out\n        /* \"#utility.yul\":18496:18915   */\n    tag_100:\n        /* \"#utility.yul\":18662:18666   */\n      0x00\n        /* \"#utility.yul\":18700:18702   */\n      0x20\n        /* \"#utility.yul\":18689:18698   */\n      dup3\n        /* \"#utility.yul\":18685:18703   */\n      add\n        /* \"#utility.yul\":18677:18703   */\n      swap1\n      pop\n        /* \"#utility.yul\":18749:18758   */\n      dup2\n        /* \"#utility.yul\":18743:18747   */\n      dup2\n        /* \"#utility.yul\":18739:18759   */\n      sub\n        /* \"#utility.yul\":18735:18736   */\n      0x00\n        /* \"#utility.yul\":18724:18733   */\n      dup4\n        /* \"#utility.yul\":18720:18737   */\n      add\n        /* \"#utility.yul\":18713:18760   */\n      mstore\n        /* \"#utility.yul\":18777:18908   */\n      tag_383\n        /* \"#utility.yul\":18903:18907   */\n      dup2\n        /* \"#utility.yul\":18777:18908   */\n      tag_192\n      jump\t// in\n    tag_383:\n        /* \"#utility.yul\":18769:18908   */\n      swap1\n      pop\n        /* \"#utility.yul\":18496:18915   */\n      swap2\n      swap1\n      pop\n      jump\t// out\n        /* \"#utility.yul\":18921:19154   */\n    tag_109:\n        /* \"#utility.yul\":18960:18963   */\n      0x00\n        /* \"#utility.yul\":18983:19007   */\n      tag_385\n        /* \"#utility.yul\":19001:19006   */\n      dup3\n        /* \"#utility.yul\":18983:19007   */\n      tag_150\n      jump\t// in\n    tag_385:\n        /* \"#utility.yul\":18974:19007   */\n      swap2\n      pop\n        /* \"#utility.yul\":19029:19095   */\n      0xffffffffffffffffffffffffffffffffffffffffffffffffffffffffffffffff\n        /* \"#utility.yul\":19022:19027   */\n      dup3\n        /* \"#utility.yul\":19019:19096   */\n      sub\n        /* \"#utility.yul\":19016:19119   */\n      tag_386\n      jumpi\n        /* \"#utility.yul\":19099:19117   */\n      tag_387\n      tag_190\n      jump\t// in\n    tag_387:\n        /* \"#utility.yul\":19016:19119   */\n    tag_386:\n        /* \"#utility.yul\":19146:19147   */\n      0x01\n        /* \"#utility.yul\":19139:19144   */\n      dup3\n        /* \"#utility.yul\":19135:19148   */\n      add\n        /* \"#utility.yul\":19128:19148   */\n      swap1\n      pop\n        /* \"#utility.yul\":18921:19154   */\n      swap2\n      swap1\n      pop\n      jump\t// out\n        /* \"#utility.yul\":19160:19328   */\n    tag_193:\n        /* \"#utility.yul\":19300:19320   */\n      0x547765657420697320746f6f206c6f6e67210000000000000000000000000000\n        /* \"#utility.yul\":19296:19297   */\n      0x00\n        /* \"#utility.yul\":19288:19294   */\n      dup3\n        /* \"#utility.yul\":19284:19298   */\n      add\n        /* \"#utility.yul\":19277:19321   */\n      mstore\n        /* \"#utility.yul\":19160:19328   */\n      pop\n      jump\t// out\n        /* \"#utility.yul\":19334:19700   */\n    tag_194:\n        /* \"#utility.yul\":19476:19479   */\n      0x00\n        /* \"#utility.yul\":19497:19564   */\n      tag_390\n        /* \"#utility.yul\":19561:19563   */\n      0x12\n        /* \"#utility.yul\":19556:19559   */\n      dup4\n        /* \"#utility.yul\":19497:19564   */\n      tag_156\n      jump\t// in\n    tag_390:\n        /* \"#utility.yul\":19490:19564   */\n      swap2\n      pop\n        /* \"#utility.yul\":19573:19666   */\n      tag_391\n        /* \"#utility.yul\":19662:19665   */\n      dup3\n        /* \"#utility.yul\":19573:19666   */\n      tag_193\n      jump\t// in\n    tag_391:\n        /* \"#utility.yul\":19691:19693   */\n      0x20\n        /* \"#utility.yul\":19686:19689   */\n      dup3\n        /* \"#utility.yul\":19682:19694   */\n      add\n        /* \"#utility.yul\":19675:19694   */\n      swap1\n      pop\n        /* \"#utility.yul\":19334:19700   */\n      swap2\n      swap1\n      pop\n      jump\t// out\n        /* \"#utility.yul\":19706:20125   */\n    tag_117:\n        /* \"#utility.yul\":19872:19876   */\n      0x00\n        /* \"#utility.yul\":19910:19912   */\n      0x20\n        /* \"#utility.yul\":19899:19908   */\n      dup3\n        /* \"#utility.yul\":19895:19913   */\n      add\n        /* \"#utility.yul\":19887:19913   */\n      swap1\n      pop\n        /* \"#utility.yul\":19959:19968   */\n      dup2\n        /* \"#utility.yul\":19953:19957   */\n      dup2\n        /* \"#utility.yul\":19949:19969   */\n      sub\n        /* \"#utility.yul\":19945:19946   */\n      0x00\n        /* \"#utility.yul\":19934:19943   */\n      dup4\n        /* \"#utility.yul\":19930:19947   */\n      add\n        /* \"#utility.yul\":19923:19970   */\n      mstore\n        /* \"#utility.yul\":19987:20118   */\n      tag_393\n        /* \"#utility.yul\":20113:20117   */\n      dup2\n        /* \"#utility.yul\":19987:20118   */\n      tag_194\n      jump\t// in\n    tag_393:\n        /* \"#utility.yul\":19979:20118   */\n      swap1\n      pop\n        /* \"#utility.yul\":19706:20125   */\n      swap2\n      swap1\n      pop\n      jump\t// out\n        /* \"#utility.yul\":20131:20272   */\n    tag_195:\n        /* \"#utility.yul\":20180:20184   */\n      0x00\n        /* \"#utility.yul\":20203:20206   */\n      dup2\n        /* \"#utility.yul\":20195:20206   */\n      swap1\n      pop\n        /* \"#utility.yul\":20226:20229   */\n      dup2\n        /* \"#utility.yul\":20223:20224   */\n      0x00\n        /* \"#utility.yul\":20216:20230   */\n      mstore\n        /* \"#utility.yul\":20260:20264   */\n      0x20\n        /* \"#utility.yul\":20257:20258   */\n      0x00\n        /* \"#utility.yul\":20247:20265   */\n      keccak256\n        /* \"#utility.yul\":20239:20265   */\n      swap1\n      pop\n        /* \"#utility.yul\":20131:20272   */\n      swap2\n      swap1\n      pop\n      jump\t// out\n        /* \"#utility.yul\":20278:20371   */\n    tag_196:\n        /* \"#utility.yul\":20315:20321   */\n      0x00\n        /* \"#utility.yul\":20362:20364   */\n      0x20\n        /* \"#utility.yul\":20357:20359   */\n      0x1f\n        /* \"#utility.yul\":20350:20355   */\n      dup4\n        /* \"#utility.yul\":20346:20360   */\n      add\n        /* \"#utility.yul\":20342:20365   */\n      div\n        /* \"#utility.yul\":20332:20365   */\n      swap1\n      pop\n        /* \"#utility.yul\":20278:20371   */\n      swap2\n      swap1\n      pop\n      jump\t// out\n        /* \"#utility.yul\":20377:20484   */\n    tag_197:\n        /* \"#utility.yul\":20421:20429   */\n      0x00\n        /* \"#utility.yul\":20471:20476   */\n      dup3\n        /* \"#utility.yul\":20465:20469   */\n      dup3\n        /* \"#utility.yul\":20461:20477   */\n      shl\n        /* \"#utility.yul\":20440:20477   */\n      swap1\n      pop\n        /* \"#utility.yul\":20377:20484   */\n      swap3\n      swap2\n      pop\n      pop\n      jump\t// out\n        /* \"#utility.yul\":20490:20883   */\n    tag_198:\n        /* \"#utility.yul\":20559:20565   */\n      0x00\n        /* \"#utility.yul\":20609:20610   */\n      0x08\n        /* \"#utility.yul\":20597:20607   */\n      dup4\n        /* \"#utility.yul\":20593:20611   */\n      mul\n        /* \"#utility.yul\":20632:20729   */\n      tag_398\n        /* \"#utility.yul\":20662:20728   */\n      0xffffffffffffffffffffffffffffffffffffffffffffffffffffffffffffffff\n        /* \"#utility.yul\":20651:20660   */\n      dup3\n        /* \"#utility.yul\":20632:20729   */\n      tag_197\n      jump\t// in\n    tag_398:\n        /* \"#utility.yul\":20750:20789   */\n      tag_399\n        /* \"#utility.yul\":20780:20788   */\n      dup7\n        /* \"#utility.yul\":20769:20778   */\n      dup4\n        /* \"#utility.yul\":20750:20789   */\n      tag_197\n      jump\t// in\n    tag_399:\n        /* \"#utility.yul\":20738:20789   */\n      swap6\n      pop\n        /* \"#utility.yul\":20822:20826   */\n      dup1\n        /* \"#utility.yul\":20818:20827   */\n      not\n        /* \"#utility.yul\":20811:20816   */\n      dup5\n        /* \"#utility.yul\":20807:20828   */\n      and\n        /* \"#utility.yul\":20798:20828   */\n      swap4\n      pop\n        /* \"#utility.yul\":20871:20875   */\n      dup1\n        /* \"#utility.yul\":20861:20869   */\n      dup7\n        /* \"#utility.yul\":20857:20876   */\n      and\n        /* \"#utility.yul\":20850:20855   */\n      dup5\n        /* \"#utility.yul\":20847:20877   */\n      or\n        /* \"#utility.yul\":20837:20877   */\n      swap3\n      pop\n        /* \"#utility.yul\":20566:20883   */\n      pop\n      pop\n        /* \"#utility.yul\":20490:20883   */\n      swap4\n      swap3\n      pop\n      pop\n      pop\n      jump\t// out\n        /* \"#utility.yul\":20889:20949   */\n    tag_199:\n        /* \"#utility.yul\":20917:20920   */\n      0x00\n        /* \"#utility.yul\":20938:20943   */\n      dup2\n        /* \"#utility.yul\":20931:20943   */\n      swap1\n      pop\n        /* \"#utility.yul\":20889:20949   */\n      swap2\n      swap1\n      pop\n      jump\t// out\n        /* \"#utility.yul\":20955:21097   */\n    tag_200:\n        /* \"#utility.yul\":21005:21014   */\n      0x00\n        /* \"#utility.yul\":21038:21091   */\n      tag_402\n        /* \"#utility.yul\":21056:21090   */\n      tag_403\n        /* \"#utility.yul\":21065:21089   */\n      tag_404\n        /* \"#utility.yul\":21083:21088   */\n      dup5\n        /* \"#utility.yul\":21065:21089   */\n      tag_150\n      jump\t// in\n    tag_404:\n        /* \"#utility.yul\":21056:21090   */\n      tag_199\n      jump\t// in\n    tag_403:\n        /* \"#utility.yul\":21038:21091   */\n      tag_150\n      jump\t// in\n    tag_402:\n        /* \"#utility.yul\":21025:21091   */\n      swap1\n      pop\n        /* \"#utility.yul\":20955:21097   */\n      swap2\n      swap1\n      pop\n      jump\t// out\n        /* \"#utility.yul\":21103:21178   */\n    tag_201:\n        /* \"#utility.yul\":21146:21149   */\n      0x00\n        /* \"#utility.yul\":21167:21172   */\n      dup2\n        /* \"#utility.yul\":21160:21172   */\n      swap1\n      pop\n        /* \"#utility.yul\":21103:21178   */\n      swap2\n      swap1\n      pop\n      jump\t// out\n        /* \"#utility.yul\":21184:21453   */\n    tag_202:\n        /* \"#utility.yul\":21294:21333   */\n      tag_407\n        /* \"#utility.yul\":21325:21332   */\n      dup4\n        /* \"#utility.yul\":21294:21333   */\n      tag_200\n      jump\t// in\n    tag_407:\n        /* \"#utility.yul\":21355:21446   */\n      tag_408\n        /* \"#utility.yul\":21404:21445   */\n      tag_409\n        /* \"#utility.yul\":21428:21444   */\n      dup3\n        /* \"#utility.yul\":21404:21445   */\n      tag_201\n      jump\t// in\n    tag_409:\n        /* \"#utility.yul\":21396:21402   */\n      dup5\n        /* \"#utility.yul\":21389:21393   */\n      dup5\n        /* \"#utility.yul\":21383:21394   */\n      sload\n        /* \"#utility.yul\":21355:21446   */\n      tag_198\n      jump\t// in\n    tag_408:\n        /* \"#utility.yul\":21349:21353   */\n      dup3\n        /* \"#utility.yul\":21342:21447   */\n      sstore\n        /* \"#utility.yul\":21260:21453   */\n      pop\n        /* \"#utility.yul\":21184:21453   */\n      pop\n      pop\n      pop\n      jump\t// out\n        /* \"#utility.yul\":21459:21532   */\n    tag_203:\n        /* \"#utility.yul\":21504:21507   */\n      0x00\n        /* \"#utility.yul\":21459:21532   */\n      swap1\n      jump\t// out\n        /* \"#utility.yul\":21538:21727   */\n    tag_204:\n        /* \"#utility.yul\":21615:21647   */\n      tag_412\n      tag_203\n      jump\t// in\n    tag_412:\n        /* \"#utility.yul\":21656:21721   */\n      tag_413\n        /* \"#utility.yul\":21714:21720   */\n      dup2\n        /* \"#utility.yul\":21706:21712   */\n      dup5\n        /* \"#utility.yul\":21700:21704   */\n      dup5\n        /* \"#utility.yul\":21656:21721   */\n      tag_202\n      jump\t// in\n    tag_413:\n        /* \"#utility.yul\":21591:21727   */\n      pop\n        /* \"#utility.yul\":21538:21727   */\n      pop\n      pop\n      jump\t// out\n        /* \"#utility.yul\":21733:21919   */\n    tag_205:\n        /* \"#utility.yul\":21793:21913   */\n    tag_415:\n        /* \"#utility.yul\":21810:21813   */\n      dup2\n        /* \"#utility.yul\":21803:21808   */\n      dup2\n        /* \"#utility.yul\":21800:21814   */\n      lt\n        /* \"#utility.yul\":21793:21913   */\n      iszero\n      tag_417\n      jumpi\n        /* \"#utility.yul\":21864:21903   */\n      tag_418\n        /* \"#utility.yul\":21901:21902   */\n      0x00\n        /* \"#utility.yul\":21894:21899   */\n      dup3\n        /* \"#utility.yul\":21864:21903   */\n      tag_204\n      jump\t// in\n    tag_418:\n        /* \"#utility.yul\":21837:21838   */\n      0x01\n        /* \"#utility.yul\":21830:21835   */\n      dup2\n        /* \"#utility.yul\":21826:21839   */\n      add\n        /* \"#utility.yul\":21817:21839   */\n      swap1\n      pop\n        /* \"#utility.yul\":21793:21913   */\n      jump(tag_415)\n    tag_417:\n        /* \"#utility.yul\":21733:21919   */\n      pop\n      pop\n      jump\t// out\n        /* \"#utility.yul\":21925:22468   */\n    tag_206:\n        /* \"#utility.yul\":22026:22028   */\n      0x1f\n        /* \"#utility.yul\":22021:22024   */\n      dup3\n        /* \"#utility.yul\":22018:22029   */\n      gt\n        /* \"#utility.yul\":22015:22461   */\n      iszero\n      tag_420\n      jumpi\n        /* \"#utility.yul\":22060:22098   */\n      tag_421\n        /* \"#utility.yul\":22092:22097   */\n      dup2\n        /* \"#utility.yul\":22060:22098   */\n      tag_195\n      jump\t// in\n    tag_421:\n        /* \"#utility.yul\":22144:22173   */\n      tag_422\n        /* \"#utility.yul\":22162:22172   */\n      dup5\n        /* \"#utility.yul\":22144:22173   */\n      tag_196\n      jump\t// in\n    tag_422:\n        /* \"#utility.yul\":22134:22142   */\n      dup2\n        /* \"#utility.yul\":22130:22174   */\n      add\n        /* \"#utility.yul\":22327:22329   */\n      0x20\n        /* \"#utility.yul\":22315:22325   */\n      dup6\n        /* \"#utility.yul\":22312:22330   */\n      lt\n        /* \"#utility.yul\":22309:22358   */\n      iszero\n      tag_423\n      jumpi\n        /* \"#utility.yul\":22348:22356   */\n      dup2\n        /* \"#utility.yul\":22333:22356   */\n      swap1\n      pop\n        /* \"#utility.yul\":22309:22358   */\n    tag_423:\n        /* \"#utility.yul\":22371:22451   */\n      tag_424\n        /* \"#utility.yul\":22427:22449   */\n      tag_425\n        /* \"#utility.yul\":22445:22448   */\n      dup6\n        /* \"#utility.yul\":22427:22449   */\n      tag_196\n      jump\t// in\n    tag_425:\n        /* \"#utility.yul\":22417:22425   */\n      dup4\n        /* \"#utility.yul\":22413:22450   */\n      add\n        /* \"#utility.yul\":22400:22411   */\n      dup3\n        /* \"#utility.yul\":22371:22451   */\n      tag_205\n      jump\t// in\n    tag_424:\n        /* \"#utility.yul\":22030:22461   */\n      pop\n      pop\n        /* \"#utility.yul\":22015:22461   */\n    tag_420:\n        /* \"#utility.yul\":21925:22468   */\n      pop\n      pop\n      pop\n      jump\t// out\n        /* \"#utility.yul\":22474:22591   */\n    tag_207:\n        /* \"#utility.yul\":22528:22536   */\n      0x00\n        /* \"#utility.yul\":22578:22583   */\n      dup3\n        /* \"#utility.yul\":22572:22576   */\n      dup3\n        /* \"#utility.yul\":22568:22584   */\n      shr\n        /* \"#utility.yul\":22547:22584   */\n      swap1\n      pop\n        /* \"#utility.yul\":22474:22591   */\n      swap3\n      swap2\n      pop\n      pop\n      jump\t// out\n        /* \"#utility.yul\":22597:22766   */\n    tag_208:\n        /* \"#utility.yul\":22641:22647   */\n      0x00\n        /* \"#utility.yul\":22674:22725   */\n      tag_428\n        /* \"#utility.yul\":22722:22723   */\n      0x00\n        /* \"#utility.yul\":22718:22724   */\n      not\n        /* \"#utility.yul\":22710:22715   */\n      dup5\n        /* \"#utility.yul\":22707:22708   */\n      0x08\n        /* \"#utility.yul\":22703:22716   */\n      mul\n        /* \"#utility.yul\":22674:22725   */\n      tag_207\n      jump\t// in\n    tag_428:\n        /* \"#utility.yul\":22670:22726   */\n      not\n        /* \"#utility.yul\":22755:22759   */\n      dup1\n        /* \"#utility.yul\":22749:22753   */\n      dup4\n        /* \"#utility.yul\":22745:22760   */\n      and\n        /* \"#utility.yul\":22735:22760   */\n      swap2\n      pop\n        /* \"#utility.yul\":22648:22766   */\n      pop\n        /* \"#utility.yul\":22597:22766   */\n      swap3\n      swap2\n      pop\n      pop\n      jump\t// out\n        /* \"#utility.yul\":22771:23066   */\n    tag_209:\n        /* \"#utility.yul\":22847:22851   */\n      0x00\n        /* \"#utility.yul\":22993:23022   */\n      tag_430\n        /* \"#utility.yul\":23018:23021   */\n      dup4\n        /* \"#utility.yul\":23012:23016   */\n      dup4\n        /* \"#utility.yul\":22993:23022   */\n      tag_208\n      jump\t// in\n    tag_430:\n        /* \"#utility.yul\":22985:23022   */\n      swap2\n      pop\n        /* \"#utility.yul\":23055:23058   */\n      dup3\n        /* \"#utility.yul\":23052:23053   */\n      0x02\n        /* \"#utility.yul\":23048:23059   */\n      mul\n        /* \"#utility.yul\":23042:23046   */\n      dup3\n        /* \"#utility.yul\":23039:23060   */\n      or\n        /* \"#utility.yul\":23031:23060   */\n      swap1\n      pop\n        /* \"#utility.yul\":22771:23066   */\n      swap3\n      swap2\n      pop\n      pop\n      jump\t// out\n        /* \"#utility.yul\":23071:24466   */\n    tag_120:\n        /* \"#utility.yul\":23188:23225   */\n      tag_432\n        /* \"#utility.yul\":23221:23224   */\n      dup3\n        /* \"#utility.yul\":23188:23225   */\n      tag_155\n      jump\t// in\n    tag_432:\n        /* \"#utility.yul\":23290:23308   */\n      0xffffffffffffffff\n        /* \"#utility.yul\":23282:23288   */\n      dup2\n        /* \"#utility.yul\":23279:23309   */\n      gt\n        /* \"#utility.yul\":23276:23332   */\n      iszero\n      tag_433\n      jumpi\n        /* \"#utility.yul\":23312:23330   */\n      tag_434\n      tag_177\n      jump\t// in\n    tag_434:\n        /* \"#utility.yul\":23276:23332   */\n    tag_433:\n        /* \"#utility.yul\":23356:23394   */\n      tag_435\n        /* \"#utility.yul\":23388:23392   */\n      dup3\n        /* \"#utility.yul\":23382:23393   */\n      sload\n        /* \"#utility.yul\":23356:23394   */\n      tag_62\n      jump\t// in\n    tag_435:\n        /* \"#utility.yul\":23441:23508   */\n      tag_436\n        /* \"#utility.yul\":23501:23507   */\n      dup3\n        /* \"#utility.yul\":23493:23499   */\n      dup3\n        /* \"#utility.yul\":23487:23491   */\n      dup6\n        /* \"#utility.yul\":23441:23508   */\n      tag_206\n      jump\t// in\n    tag_436:\n        /* \"#utility.yul\":23535:23536   */\n      0x00\n        /* \"#utility.yul\":23559:23563   */\n      0x20\n        /* \"#utility.yul\":23546:23563   */\n      swap1\n      pop\n        /* \"#utility.yul\":23591:23593   */\n      0x1f\n        /* \"#utility.yul\":23583:23589   */\n      dup4\n        /* \"#utility.yul\":23580:23594   */\n      gt\n        /* \"#utility.yul\":23608:23609   */\n      0x01\n        /* \"#utility.yul\":23603:24221   */\n      dup2\n      eq\n      tag_438\n      jumpi\n        /* \"#utility.yul\":24265:24266   */\n      0x00\n        /* \"#utility.yul\":24282:24288   */\n      dup5\n        /* \"#utility.yul\":24279:24356   */\n      iszero\n      tag_439\n      jumpi\n        /* \"#utility.yul\":24331:24340   */\n      dup3\n        /* \"#utility.yul\":24326:24329   */\n      dup8\n        /* \"#utility.yul\":24322:24341   */\n      add\n        /* \"#utility.yul\":24316:24342   */\n      mload\n        /* \"#utility.yul\":24307:24342   */\n      swap1\n      pop\n        /* \"#utility.yul\":24279:24356   */\n    tag_439:\n        /* \"#utility.yul\":24382:24449   */\n      tag_440\n        /* \"#utility.yul\":24442:24448   */\n      dup6\n        /* \"#utility.yul\":24435:24440   */\n      dup3\n        /* \"#utility.yul\":24382:24449   */\n      tag_209\n      jump\t// in\n    tag_440:\n        /* \"#utility.yul\":24376:24380   */\n      dup7\n        /* \"#utility.yul\":24369:24450   */\n      sstore\n        /* \"#utility.yul\":24238:24460   */\n      pop\n        /* \"#utility.yul\":23573:24460   */\n      jump(tag_437)\n        /* \"#utility.yul\":23603:24221   */\n    tag_438:\n        /* \"#utility.yul\":23655:23659   */\n      0x1f\n        /* \"#utility.yul\":23651:23660   */\n      not\n        /* \"#utility.yul\":23643:23649   */\n      dup5\n        /* \"#utility.yul\":23639:23661   */\n      and\n        /* \"#utility.yul\":23689:23726   */\n      tag_441\n        /* \"#utility.yul\":23721:23725   */\n      dup7\n        /* \"#utility.yul\":23689:23726   */\n      tag_195\n      jump\t// in\n    tag_441:\n        /* \"#utility.yul\":23748:23749   */\n      0x00\n        /* \"#utility.yul\":23762:23970   */\n    tag_442:\n        /* \"#utility.yul\":23776:23783   */\n      dup3\n        /* \"#utility.yul\":23773:23774   */\n      dup2\n        /* \"#utility.yul\":23770:23784   */\n      lt\n        /* \"#utility.yul\":23762:23970   */\n      iszero\n      tag_444\n      jumpi\n        /* \"#utility.yul\":23855:23864   */\n      dup5\n        /* \"#utility.yul\":23850:23853   */\n      dup10\n        /* \"#utility.yul\":23846:23865   */\n      add\n        /* \"#utility.yul\":23840:23866   */\n      mload\n        /* \"#utility.yul\":23832:23838   */\n      dup3\n        /* \"#utility.yul\":23825:23867   */\n      sstore\n        /* \"#utility.yul\":23906:23907   */\n      0x01\n        /* \"#utility.yul\":23898:23904   */\n      dup3\n        /* \"#utility.yul\":23894:23908   */\n      add\n        /* \"#utility.yul\":23884:23908   */\n      swap2\n      pop\n        /* \"#utility.yul\":23953:23955   */\n      0x20\n        /* \"#utility.yul\":23942:23951   */\n      dup6\n        /* \"#utility.yul\":23938:23956   */\n      add\n        /* \"#utility.yul\":23925:23956   */\n      swap5\n      pop\n        /* \"#utility.yul\":23799:23803   */\n      0x20\n        /* \"#utility.yul\":23796:23797   */\n      dup2\n        /* \"#utility.yul\":23792:23804   */\n      add\n        /* \"#utility.yul\":23787:23804   */\n      swap1\n      pop\n        /* \"#utility.yul\":23762:23970   */\n      jump(tag_442)\n    tag_444:\n        /* \"#utility.yul\":23998:24004   */\n      dup7\n        /* \"#utility.yul\":23989:23996   */\n      dup4\n        /* \"#utility.yul\":23986:24005   */\n      lt\n        /* \"#utility.yul\":23983:24162   */\n      iszero\n      tag_445\n      jumpi\n        /* \"#utility.yul\":24056:24065   */\n      dup5\n        /* \"#utility.yul\":24051:24054   */\n      dup10\n        /* \"#utility.yul\":24047:24066   */\n      add\n        /* \"#utility.yul\":24041:24067   */\n      mload\n        /* \"#utility.yul\":24099:24147   */\n      tag_446\n        /* \"#utility.yul\":24141:24145   */\n      0x1f\n        /* \"#utility.yul\":24133:24139   */\n      dup10\n        /* \"#utility.yul\":24129:24146   */\n      and\n        /* \"#utility.yul\":24118:24127   */\n      dup3\n        /* \"#utility.yul\":24099:24147   */\n      tag_208\n      jump\t// in\n    tag_446:\n        /* \"#utility.yul\":24091:24097   */\n      dup4\n        /* \"#utility.yul\":24084:24148   */\n      sstore\n        /* \"#utility.yul\":24006:24162   */\n      pop\n        /* \"#utility.yul\":23983:24162   */\n    tag_445:\n        /* \"#utility.yul\":24208:24209   */\n      0x01\n        /* \"#utility.yul\":24204:24205   */\n      0x02\n        /* \"#utility.yul\":24196:24202   */\n      dup9\n        /* \"#utility.yul\":24192:24206   */\n      mul\n        /* \"#utility.yul\":24188:24210   */\n      add\n        /* \"#utility.yul\":24182:24186   */\n      dup9\n        /* \"#utility.yul\":24175:24211   */\n      sstore\n        /* \"#utility.yul\":23610:24221   */\n      pop\n      pop\n      pop\n        /* \"#utility.yul\":23573:24460   */\n    tag_437:\n      pop\n        /* \"#utility.yul\":23163:24466   */\n      pop\n      pop\n      pop\n        /* \"#utility.yul\":23071:24466   */\n      pop\n      pop\n      jump\t// out\n        /* \"#utility.yul\":24472:25116   */\n    tag_122:\n        /* \"#utility.yul\":24669:24673   */\n      0x00\n        /* \"#utility.yul\":24707:24710   */\n      0x80\n        /* \"#utility.yul\":24696:24705   */\n      dup3\n        /* \"#utility.yul\":24692:24711   */\n      add\n        /* \"#utility.yul\":24684:24711   */\n      swap1\n      pop\n        /* \"#utility.yul\":24721:24792   */\n      tag_448\n        /* \"#utility.yul\":24789:24790   */\n      0x00\n        /* \"#utility.yul\":24778:24787   */\n      dup4\n        /* \"#utility.yul\":24774:24791   */\n      add\n        /* \"#utility.yul\":24765:24771   */\n      dup8\n        /* \"#utility.yul\":24721:24792   */\n      tag_153\n      jump\t// in\n    tag_448:\n        /* \"#utility.yul\":24802:24874   */\n      tag_449\n        /* \"#utility.yul\":24870:24872   */\n      0x20\n        /* \"#utility.yul\":24859:24868   */\n      dup4\n        /* \"#utility.yul\":24855:24873   */\n      add\n        /* \"#utility.yul\":24846:24852   */\n      dup7\n        /* \"#utility.yul\":24802:24874   */\n      tag_154\n      jump\t// in\n    tag_449:\n        /* \"#utility.yul\":24921:24930   */\n      dup2\n        /* \"#utility.yul\":24915:24919   */\n      dup2\n        /* \"#utility.yul\":24911:24931   */\n      sub\n        /* \"#utility.yul\":24906:24908   */\n      0x40\n        /* \"#utility.yul\":24895:24904   */\n      dup4\n        /* \"#utility.yul\":24891:24909   */\n      add\n        /* \"#utility.yul\":24884:24932   */\n      mstore\n        /* \"#utility.yul\":24949:25027   */\n      tag_450\n        /* \"#utility.yul\":25022:25026   */\n      dup2\n        /* \"#utility.yul\":25013:25019   */\n      dup6\n        /* \"#utility.yul\":24949:25027   */\n      tag_159\n      jump\t// in\n    tag_450:\n        /* \"#utility.yul\":24941:25027   */\n      swap1\n      pop\n        /* \"#utility.yul\":25037:25109   */\n      tag_451\n        /* \"#utility.yul\":25105:25107   */\n      0x60\n        /* \"#utility.yul\":25094:25103   */\n      dup4\n        /* \"#utility.yul\":25090:25108   */\n      add\n        /* \"#utility.yul\":25081:25087   */\n      dup5\n        /* \"#utility.yul\":25037:25109   */\n      tag_153\n      jump\t// in\n    tag_451:\n        /* \"#utility.yul\":24472:25116   */\n      swap6\n      swap5\n      pop\n      pop\n      pop\n      pop\n      pop\n      jump\t// out\n        /* \"#utility.yul\":25122:25313   */\n    tag_131:\n        /* \"#utility.yul\":25162:25165   */\n      0x00\n        /* \"#utility.yul\":25181:25201   */\n      tag_453\n        /* \"#utility.yul\":25199:25200   */\n      dup3\n        /* \"#utility.yul\":25181:25201   */\n      tag_150\n      jump\t// in\n    tag_453:\n        /* \"#utility.yul\":25176:25201   */\n      swap2\n      pop\n        /* \"#utility.yul\":25215:25235   */\n      tag_454\n        /* \"#utility.yul\":25233:25234   */\n      dup4\n        /* \"#utility.yul\":25215:25235   */\n      tag_150\n      jump\t// in\n    tag_454:\n        /* \"#utility.yul\":25210:25235   */\n      swap3\n      pop\n        /* \"#utility.yul\":25258:25259   */\n      dup3\n        /* \"#utility.yul\":25255:25256   */\n      dup3\n        /* \"#utility.yul\":25251:25260   */\n      add\n        /* \"#utility.yul\":25244:25260   */\n      swap1\n      pop\n        /* \"#utility.yul\":25279:25282   */\n      dup1\n        /* \"#utility.yul\":25276:25277   */\n      dup3\n        /* \"#utility.yul\":25273:25283   */\n      gt\n        /* \"#utility.yul\":25270:25306   */\n      iszero\n      tag_455\n      jumpi\n        /* \"#utility.yul\":25286:25304   */\n      tag_456\n      tag_190\n      jump\t// in\n    tag_456:\n        /* \"#utility.yul\":25270:25306   */\n    tag_455:\n        /* \"#utility.yul\":25122:25313   */\n      swap3\n      swap2\n      pop\n      pop\n      jump\t// out\n\n    auxdata: 0xa2646970667358221220248fceed5d64e2b507c30412e74b45cda8164df8fed183710247ce8f86db209864736f6c634300081a0033\n}\n",
				"bytecode": {
					"linkReferences": {},
					"object": "60806040526101185f806101000a81548161ffff021916908361ffff160217905550348015602b575f80fd5b503360025f6101000a81548173ffffffffffffffffffffffffffffffffffffffff021916908373ffffffffffffffffffffffffffffffffffffffff160217905550611a89806100795f395ff3fe608060405234801561000f575f80fd5b506004361061009c575f3560e01c80636eb10797116100645780636eb10797146101585780637c9cd2bc14610176578063820785cc146101925780638da5cb5b146101c2578063c3ad5ecb146101e05761009c565b806305a1b4a9146100a057806312e7ee1c146100d45780633d9b569f1461010457806358bfa4ab14610120578063633782161461013c575b5f80fd5b6100ba60048036038101906100b59190610e72565b610210565b6040516100cb959493929190610f3e565b60405180910390f35b6100ee60048036038101906100e99190610f96565b610301565b6040516100fb9190611155565b60405180910390f35b61011e60048036038101906101199190610e72565b61049c565b005b61013a600480360381019061013591906111ac565b6106d0565b005b61015660048036038101906101519190610e72565b61077d565b005b610160610911565b60405161016d91906111e6565b60405180910390f35b610190600480360381019061018b919061132b565b610922565b005b6101ac60048036038101906101a79190610f96565b610b25565b6040516101b99190611372565b60405180910390f35b6101ca610bf7565b6040516101d7919061138b565b60405180910390f35b6101fa60048036038101906101f591906113a4565b610c1c565b6040516102079190611442565b60405180910390f35b6001602052815f5260405f208181548110610229575f80fd5b905f5260205f2090600502015f9150915050805f015490806001015f9054906101000a900473ffffffffffffffffffffffffffffffffffffffff16908060020180546102749061148f565b80601f01602080910402602001604051908101604052809291908181526020018280546102a09061148f565b80156102eb5780601f106102c2576101008083540402835291602001916102eb565b820191905f5260205f20905b8154815290600101906020018083116102ce57829003601f168201915b5050505050908060030154908060040154905085565b606060015f8373ffffffffffffffffffffffffffffffffffffffff1673ffffffffffffffffffffffffffffffffffffffff1681526020019081526020015f20805480602002602001604051908101604052809291908181526020015f905b82821015610491578382905f5260205f2090600502016040518060a00160405290815f8201548152602001600182015f9054906101000a900473ffffffffffffffffffffffffffffffffffffffff1673ffffffffffffffffffffffffffffffffffffffff1673ffffffffffffffffffffffffffffffffffffffff1681526020016002820180546103ee9061148f565b80601f016020809104026020016040519081016040528092919081815260200182805461041a9061148f565b80156104655780601f1061043c57610100808354040283529160200191610465565b820191905f5260205f20905b81548152906001019060200180831161044857829003601f168201915b50505050508152602001600382015481526020016004820154815250508152602001906001019061035f565b505050509050919050565b60015f8373ffffffffffffffffffffffffffffffffffffffff1673ffffffffffffffffffffffffffffffffffffffff1681526020019081526020015f2080549050811061051e576040517f08c379a000000000000000000000000000000000000000000000000000000000815260040161051590611509565b60405180910390fd5b5f60015f8473ffffffffffffffffffffffffffffffffffffffff1673ffffffffffffffffffffffffffffffffffffffff1681526020019081526020015f20828154811061056e5761056d611527565b5b905f5260205f20906005020160040154116105be576040517f08c379a00000000000000000000000000000000000000000000000000000000081526004016105b59061159e565b60405180910390fd5b60015f8373ffffffffffffffffffffffffffffffffffffffff1673ffffffffffffffffffffffffffffffffffffffff1681526020019081526020015f20818154811061060d5761060c611527565b5b905f5260205f2090600502016004015f81548092919061062c906115e9565b91905055507f762c2616349603ac16eba0de8e6141b79129a07ab63bd99e0a80b3a47171694333838360015f8773ffffffffffffffffffffffffffffffffffffffff1673ffffffffffffffffffffffffffffffffffffffff1681526020019081526020015f2085815481106106a4576106a3611527565b5b905f5260205f209060050201600401546040516106c49493929190611610565b60405180910390a15050565b60025f9054906101000a900473ffffffffffffffffffffffffffffffffffffffff1673ffffffffffffffffffffffffffffffffffffffff163373ffffffffffffffffffffffffffffffffffffffff161461075f576040517f08c379a00000000000000000000000000000000000000000000000000000000081526004016107569061169d565b60405180910390fd5b805f806101000a81548161ffff021916908361ffff16021790555050565b60015f8373ffffffffffffffffffffffffffffffffffffffff1673ffffffffffffffffffffffffffffffffffffffff1681526020019081526020015f208054905081106107ff576040517f08c379a00000000000000000000000000000000000000000000000000000000081526004016107f690611509565b60405180910390fd5b60015f8373ffffffffffffffffffffffffffffffffffffffff1673ffffffffffffffffffffffffffffffffffffffff1681526020019081526020015f20818154811061084e5761084d611527565b5b905f5260205f2090600502016004015f81548092919061086d906116bb565b91905055507fe8a76fc0f16d11a00d1e93b689b63d76cf60af914dd3d915375dc41d01a0c3c833838360015f8773ffffffffffffffffffffffffffffffffffffffff1673ffffffffffffffffffffffffffffffffffffffff1681526020019081526020015f2085815481106108e5576108e4611527565b5b905f5260205f209060050201600401546040516109059493929190611610565b60405180910390a15050565b5f8054906101000a900461ffff1681565b5f8054906101000a900461ffff1661ffff1681511115610977576040517f08c379a000000000000000000000000000000000000000000000000000000000815260040161096e9061174c565b60405180910390fd5b5f6040518060a0016040528060015f3373ffffffffffffffffffffffffffffffffffffffff1673ffffffffffffffffffffffffffffffffffffffff1681526020019081526020015f208054905081526020013373ffffffffffffffffffffffffffffffffffffffff1681526020018381526020014281526020015f815250905060015f3373ffffffffffffffffffffffffffffffffffffffff1673ffffffffffffffffffffffffffffffffffffffff1681526020019081526020015f2081908060018154018082558091505060019003905f5260205f2090600502015f909190919091505f820151815f01556020820151816001015f6101000a81548173ffffffffffffffffffffffffffffffffffffffff021916908373ffffffffffffffffffffffffffffffffffffffff1602179055506040820151816002019081610abe9190611907565b50606082015181600301556080820151816004015550507f16fd3c13e9d46923e0a8bce11c7b473ec508a72e6c96cd2404b29ce972afc29e815f0151826020015183604001518460600151604051610b1994939291906119d6565b60405180910390a15050565b5f805f90505f5b60015f8573ffffffffffffffffffffffffffffffffffffffff1673ffffffffffffffffffffffffffffffffffffffff1681526020019081526020015f2080549050811015610bed5760015f8573ffffffffffffffffffffffffffffffffffffffff1673ffffffffffffffffffffffffffffffffffffffff1681526020019081526020015f208181548110610bc357610bc2611527565b5b905f5260205f2090600502016004015482610bde9190611a20565b91508080600101915050610b2c565b5080915050919050565b60025f9054906101000a900473ffffffffffffffffffffffffffffffffffffffff1681565b610c24610d93565b60015f3373ffffffffffffffffffffffffffffffffffffffff1673ffffffffffffffffffffffffffffffffffffffff1681526020019081526020015f208281548110610c7357610c72611527565b5b905f5260205f2090600502016040518060a00160405290815f8201548152602001600182015f9054906101000a900473ffffffffffffffffffffffffffffffffffffffff1673ffffffffffffffffffffffffffffffffffffffff1673ffffffffffffffffffffffffffffffffffffffff168152602001600282018054610cf89061148f565b80601f0160208091040260200160405190810160405280929190818152602001828054610d249061148f565b8015610d6f5780601f10610d4657610100808354040283529160200191610d6f565b820191905f5260205f20905b815481529060010190602001808311610d5257829003601f168201915b50505050508152602001600382015481526020016004820154815250509050919050565b6040518060a001604052805f81526020015f73ffffffffffffffffffffffffffffffffffffffff168152602001606081526020015f81526020015f81525090565b5f604051905090565b5f80fd5b5f80fd5b5f73ffffffffffffffffffffffffffffffffffffffff82169050919050565b5f610e0e82610de5565b9050919050565b610e1e81610e04565b8114610e28575f80fd5b50565b5f81359050610e3981610e15565b92915050565b5f819050919050565b610e5181610e3f565b8114610e5b575f80fd5b50565b5f81359050610e6c81610e48565b92915050565b5f8060408385031215610e8857610e87610ddd565b5b5f610e9585828601610e2b565b9250506020610ea685828601610e5e565b9150509250929050565b610eb981610e3f565b82525050565b610ec881610e04565b82525050565b5f81519050919050565b5f82825260208201905092915050565b8281835e5f83830152505050565b5f601f19601f8301169050919050565b5f610f1082610ece565b610f1a8185610ed8565b9350610f2a818560208601610ee8565b610f3381610ef6565b840191505092915050565b5f60a082019050610f515f830188610eb0565b610f5e6020830187610ebf565b8181036040830152610f708186610f06565b9050610f7f6060830185610eb0565b610f8c6080830184610eb0565b9695505050505050565b5f60208284031215610fab57610faa610ddd565b5b5f610fb884828501610e2b565b91505092915050565b5f81519050919050565b5f82825260208201905092915050565b5f819050602082019050919050565b610ff381610e3f565b82525050565b61100281610e04565b82525050565b5f82825260208201905092915050565b5f61102282610ece565b61102c8185611008565b935061103c818560208601610ee8565b61104581610ef6565b840191505092915050565b5f60a083015f8301516110655f860182610fea565b5060208301516110786020860182610ff9565b50604083015184820360408601526110908282611018565b91505060608301516110a56060860182610fea565b5060808301516110b86080860182610fea565b508091505092915050565b5f6110ce8383611050565b905092915050565b5f602082019050919050565b5f6110ec82610fc1565b6110f68185610fcb565b93508360208202850161110885610fdb565b805f5b85811015611143578484038952815161112485826110c3565b945061112f836110d6565b925060208a0199505060018101905061110b565b50829750879550505050505092915050565b5f6020820190508181035f83015261116d81846110e2565b905092915050565b5f61ffff82169050919050565b61118b81611175565b8114611195575f80fd5b50565b5f813590506111a681611182565b92915050565b5f602082840312156111c1576111c0610ddd565b5b5f6111ce84828501611198565b91505092915050565b6111e081611175565b82525050565b5f6020820190506111f95f8301846111d7565b92915050565b5f80fd5b5f80fd5b7f4e487b71000000000000000000000000000000000000000000000000000000005f52604160045260245ffd5b61123d82610ef6565b810181811067ffffffffffffffff8211171561125c5761125b611207565b5b80604052505050565b5f61126e610dd4565b905061127a8282611234565b919050565b5f67ffffffffffffffff82111561129957611298611207565b5b6112a282610ef6565b9050602081019050919050565b828183375f83830152505050565b5f6112cf6112ca8461127f565b611265565b9050828152602081018484840111156112eb576112ea611203565b5b6112f68482856112af565b509392505050565b5f82601f830112611312576113116111ff565b5b81356113228482602086016112bd565b91505092915050565b5f602082840312156113405761133f610ddd565b5b5f82013567ffffffffffffffff81111561135d5761135c610de1565b5b611369848285016112fe565b91505092915050565b5f6020820190506113855f830184610eb0565b92915050565b5f60208201905061139e5f830184610ebf565b92915050565b5f602082840312156113b9576113b8610ddd565b5b5f6113c684828501610e5e565b91505092915050565b5f60a083015f8301516113e45f860182610fea565b5060208301516113f76020860182610ff9565b506040830151848203604086015261140f8282611018565b91505060608301516114246060860182610fea565b5060808301516114376080860182610fea565b508091505092915050565b5f6020820190508181035f83015261145a81846113cf565b905092915050565b7f4e487b71000000000000000000000000000000000000000000000000000000005f52602260045260245ffd5b5f60028204905060018216806114a657607f821691505b6020821081036114b9576114b8611462565b5b50919050565b7f545745455420444f4553204e4f542045584953540000000000000000000000005f82015250565b5f6114f3601483610ed8565b91506114fe826114bf565b602082019050919050565b5f6020820190508181035f830152611520816114e7565b9050919050565b7f4e487b71000000000000000000000000000000000000000000000000000000005f52603260045260245ffd5b7f545745455420484153204e4f204c494b455300000000000000000000000000005f82015250565b5f611588601283610ed8565b915061159382611554565b602082019050919050565b5f6020820190508181035f8301526115b58161157c565b9050919050565b7f4e487b71000000000000000000000000000000000000000000000000000000005f52601160045260245ffd5b5f6115f382610e3f565b91505f8203611605576116046115bc565b5b600182039050919050565b5f6080820190506116235f830187610ebf565b6116306020830186610ebf565b61163d6040830185610eb0565b61164a6060830184610eb0565b95945050505050565b7f594f5520415245204e4f5420544845204f574e455221000000000000000000005f82015250565b5f611687601683610ed8565b915061169282611653565b602082019050919050565b5f6020820190508181035f8301526116b48161167b565b9050919050565b5f6116c582610e3f565b91507fffffffffffffffffffffffffffffffffffffffffffffffffffffffffffffffff82036116f7576116f66115bc565b5b600182019050919050565b7f547765657420697320746f6f206c6f6e672100000000000000000000000000005f82015250565b5f611736601283610ed8565b915061174182611702565b602082019050919050565b5f6020820190508181035f8301526117638161172a565b9050919050565b5f819050815f5260205f209050919050565b5f6020601f8301049050919050565b5f82821b905092915050565b5f600883026117c67fffffffffffffffffffffffffffffffffffffffffffffffffffffffffffffffff8261178b565b6117d0868361178b565b95508019841693508086168417925050509392505050565b5f819050919050565b5f61180b61180661180184610e3f565b6117e8565b610e3f565b9050919050565b5f819050919050565b611824836117f1565b61183861183082611812565b848454611797565b825550505050565b5f90565b61184c611840565b61185781848461181b565b505050565b5b8181101561187a5761186f5f82611844565b60018101905061185d565b5050565b601f8211156118bf576118908161176a565b6118998461177c565b810160208510156118a8578190505b6118bc6118b48561177c565b83018261185c565b50505b505050565b5f82821c905092915050565b5f6118df5f19846008026118c4565b1980831691505092915050565b5f6118f783836118d0565b9150826002028217905092915050565b61191082610ece565b67ffffffffffffffff81111561192957611928611207565b5b611933825461148f565b61193e82828561187e565b5f60209050601f83116001811461196f575f841561195d578287015190505b61196785826118ec565b8655506119ce565b601f19841661197d8661176a565b5f5b828110156119a45784890151825560018201915060208501945060208101905061197f565b868310156119c157848901516119bd601f8916826118d0565b8355505b6001600288020188555050505b505050505050565b5f6080820190506119e95f830187610eb0565b6119f66020830186610ebf565b8181036040830152611a088185610f06565b9050611a176060830184610eb0565b95945050505050565b5f611a2a82610e3f565b9150611a3583610e3f565b9250828201905080821115611a4d57611a4c6115bc565b5b9291505056fea2646970667358221220248fceed5d64e2b507c30412e74b45cda8164df8fed183710247ce8f86db209864736f6c634300081a0033",
					"opcodes": "PUSH1 0x80 PUSH1 0x40 MSTORE PUSH2 0x118 PUSH0 DUP1 PUSH2 0x100 EXP DUP2 SLOAD DUP2 PUSH2 0xFFFF MUL NOT AND SWAP1 DUP4 PUSH2 0xFFFF AND MUL OR SWAP1 SSTORE POP CALLVALUE DUP1 ISZERO PUSH1 0x2B JUMPI PUSH0 DUP1 REVERT JUMPDEST POP CALLER PUSH1 0x2 PUSH0 PUSH2 0x100 EXP DUP2 SLOAD DUP2 PUSH20 0xFFFFFFFFFFFFFFFFFFFFFFFFFFFFFFFFFFFFFFFF MUL NOT AND SWAP1 DUP4 PUSH20 0xFFFFFFFFFFFFFFFFFFFFFFFFFFFFFFFFFFFFFFFF AND MUL OR SWAP1 SSTORE POP PUSH2 0x1A89 DUP1 PUSH2 0x79 PUSH0 CODECOPY PUSH0 RETURN INVALID PUSH1 0x80 PUSH1 0x40 MSTORE CALLVALUE DUP1 ISZERO PUSH2 0xF JUMPI PUSH0 DUP1 REVERT JUMPDEST POP PUSH1 0x4 CALLDATASIZE LT PUSH2 0x9C JUMPI PUSH0 CALLDATALOAD PUSH1 0xE0 SHR DUP1 PUSH4 0x6EB10797 GT PUSH2 0x64 JUMPI DUP1 PUSH4 0x6EB10797 EQ PUSH2 0x158 JUMPI DUP1 PUSH4 0x7C9CD2BC EQ PUSH2 0x176 JUMPI DUP1 PUSH4 0x820785CC EQ PUSH2 0x192 JUMPI DUP1 PUSH4 0x8DA5CB5B EQ PUSH2 0x1C2 JUMPI DUP1 PUSH4 0xC3AD5ECB EQ PUSH2 0x1E0 JUMPI PUSH2 0x9C JUMP JUMPDEST DUP1 PUSH4 0x5A1B4A9 EQ PUSH2 0xA0 JUMPI DUP1 PUSH4 0x12E7EE1C EQ PUSH2 0xD4 JUMPI DUP1 PUSH4 0x3D9B569F EQ PUSH2 0x104 JUMPI DUP1 PUSH4 0x58BFA4AB EQ PUSH2 0x120 JUMPI DUP1 PUSH4 0x63378216 EQ PUSH2 0x13C JUMPI JUMPDEST PUSH0 DUP1 REVERT JUMPDEST PUSH2 0xBA PUSH1 0x4 DUP1 CALLDATASIZE SUB DUP2 ADD SWAP1 PUSH2 0xB5 SWAP2 SWAP1 PUSH2 0xE72 JUMP JUMPDEST PUSH2 0x210 JUMP JUMPDEST PUSH1 0x40 MLOAD PUSH2 0xCB SWAP6 SWAP5 SWAP4 SWAP3 SWAP2 SWAP1 PUSH2 0xF3E JUMP JUMPDEST PUSH1 0x40 MLOAD DUP1 SWAP2 SUB SWAP1 RETURN JUMPDEST PUSH2 0xEE PUSH1 0x4 DUP1 CALLDATASIZE SUB DUP2 ADD SWAP1 PUSH2 0xE9 SWAP2 SWAP1 PUSH2 0xF96 JUMP JUMPDEST PUSH2 0x301 JUMP JUMPDEST PUSH1 0x40 MLOAD PUSH2 0xFB SWAP2 SWAP1 PUSH2 0x1155 JUMP JUMPDEST PUSH1 0x40 MLOAD DUP1 SWAP2 SUB SWAP1 RETURN JUMPDEST PUSH2 0x11E PUSH1 0x4 DUP1 CALLDATASIZE SUB DUP2 ADD SWAP1 PUSH2 0x119 SWAP2 SWAP1 PUSH2 0xE72 JUMP JUMPDEST PUSH2 0x49C JUMP JUMPDEST STOP JUMPDEST PUSH2 0x13A PUSH1 0x4 DUP1 CALLDATASIZE SUB DUP2 ADD SWAP1 PUSH2 0x135 SWAP2 SWAP1 PUSH2 0x11AC JUMP JUMPDEST PUSH2 0x6D0 JUMP JUMPDEST STOP JUMPDEST PUSH2 0x156 PUSH1 0x4 DUP1 CALLDATASIZE SUB DUP2 ADD SWAP1 PUSH2 0x151 SWAP2 SWAP1 PUSH2 0xE72 JUMP JUMPDEST PUSH2 0x77D JUMP JUMPDEST STOP JUMPDEST PUSH2 0x160 PUSH2 0x911 JUMP JUMPDEST PUSH1 0x40 MLOAD PUSH2 0x16D SWAP2 SWAP1 PUSH2 0x11E6 JUMP JUMPDEST PUSH1 0x40 MLOAD DUP1 SWAP2 SUB SWAP1 RETURN JUMPDEST PUSH2 0x190 PUSH1 0x4 DUP1 CALLDATASIZE SUB DUP2 ADD SWAP1 PUSH2 0x18B SWAP2 SWAP1 PUSH2 0x132B JUMP JUMPDEST PUSH2 0x922 JUMP JUMPDEST STOP JUMPDEST PUSH2 0x1AC PUSH1 0x4 DUP1 CALLDATASIZE SUB DUP2 ADD SWAP1 PUSH2 0x1A7 SWAP2 SWAP1 PUSH2 0xF96 JUMP JUMPDEST PUSH2 0xB25 JUMP JUMPDEST PUSH1 0x40 MLOAD PUSH2 0x1B9 SWAP2 SWAP1 PUSH2 0x1372 JUMP JUMPDEST PUSH1 0x40 MLOAD DUP1 SWAP2 SUB SWAP1 RETURN JUMPDEST PUSH2 0x1CA PUSH2 0xBF7 JUMP JUMPDEST PUSH1 0x40 MLOAD PUSH2 0x1D7 SWAP2 SWAP1 PUSH2 0x138B JUMP JUMPDEST PUSH1 0x40 MLOAD DUP1 SWAP2 SUB SWAP1 RETURN JUMPDEST PUSH2 0x1FA PUSH1 0x4 DUP1 CALLDATASIZE SUB DUP2 ADD SWAP1 PUSH2 0x1F5 SWAP2 SWAP1 PUSH2 0x13A4 JUMP JUMPDEST PUSH2 0xC1C JUMP JUMPDEST PUSH1 0x40 MLOAD PUSH2 0x207 SWAP2 SWAP1 PUSH2 0x1442 JUMP JUMPDEST PUSH1 0x40 MLOAD DUP1 SWAP2 SUB SWAP1 RETURN JUMPDEST PUSH1 0x1 PUSH1 0x20 MSTORE DUP2 PUSH0 MSTORE PUSH1 0x40 PUSH0 KECCAK256 DUP2 DUP2 SLOAD DUP2 LT PUSH2 0x229 JUMPI PUSH0 DUP1 REVERT JUMPDEST SWAP1 PUSH0 MSTORE PUSH1 0x20 PUSH0 KECCAK256 SWAP1 PUSH1 0x5 MUL ADD PUSH0 SWAP2 POP SWAP2 POP POP DUP1 PUSH0 ADD SLOAD SWAP1 DUP1 PUSH1 0x1 ADD PUSH0 SWAP1 SLOAD SWAP1 PUSH2 0x100 EXP SWAP1 DIV PUSH20 0xFFFFFFFFFFFFFFFFFFFFFFFFFFFFFFFFFFFFFFFF AND SWAP1 DUP1 PUSH1 0x2 ADD DUP1 SLOAD PUSH2 0x274 SWAP1 PUSH2 0x148F JUMP JUMPDEST DUP1 PUSH1 0x1F ADD PUSH1 0x20 DUP1 SWAP2 DIV MUL PUSH1 0x20 ADD PUSH1 0x40 MLOAD SWAP1 DUP2 ADD PUSH1 0x40 MSTORE DUP1 SWAP3 SWAP2 SWAP1 DUP2 DUP2 MSTORE PUSH1 0x20 ADD DUP3 DUP1 SLOAD PUSH2 0x2A0 SWAP1 PUSH2 0x148F JUMP JUMPDEST DUP1 ISZERO PUSH2 0x2EB JUMPI DUP1 PUSH1 0x1F LT PUSH2 0x2C2 JUMPI PUSH2 0x100 DUP1 DUP4 SLOAD DIV MUL DUP4 MSTORE SWAP2 PUSH1 0x20 ADD SWAP2 PUSH2 0x2EB JUMP JUMPDEST DUP3 ADD SWAP2 SWAP1 PUSH0 MSTORE PUSH1 0x20 PUSH0 KECCAK256 SWAP1 JUMPDEST DUP2 SLOAD DUP2 MSTORE SWAP1 PUSH1 0x1 ADD SWAP1 PUSH1 0x20 ADD DUP1 DUP4 GT PUSH2 0x2CE JUMPI DUP3 SWAP1 SUB PUSH1 0x1F AND DUP3 ADD SWAP2 JUMPDEST POP POP POP POP POP SWAP1 DUP1 PUSH1 0x3 ADD SLOAD SWAP1 DUP1 PUSH1 0x4 ADD SLOAD SWAP1 POP DUP6 JUMP JUMPDEST PUSH1 0x60 PUSH1 0x1 PUSH0 DUP4 PUSH20 0xFFFFFFFFFFFFFFFFFFFFFFFFFFFFFFFFFFFFFFFF AND PUSH20 0xFFFFFFFFFFFFFFFFFFFFFFFFFFFFFFFFFFFFFFFF AND DUP2 MSTORE PUSH1 0x20 ADD SWAP1 DUP2 MSTORE PUSH1 0x20 ADD PUSH0 KECCAK256 DUP1 SLOAD DUP1 PUSH1 0x20 MUL PUSH1 0x20 ADD PUSH1 0x40 MLOAD SWAP1 DUP2 ADD PUSH1 0x40 MSTORE DUP1 SWAP3 SWAP2 SWAP1 DUP2 DUP2 MSTORE PUSH1 0x20 ADD PUSH0 SWAP1 JUMPDEST DUP3 DUP3 LT ISZERO PUSH2 0x491 JUMPI DUP4 DUP3 SWAP1 PUSH0 MSTORE PUSH1 0x20 PUSH0 KECCAK256 SWAP1 PUSH1 0x5 MUL ADD PUSH1 0x40 MLOAD DUP1 PUSH1 0xA0 ADD PUSH1 0x40 MSTORE SWAP1 DUP2 PUSH0 DUP3 ADD SLOAD DUP2 MSTORE PUSH1 0x20 ADD PUSH1 0x1 DUP3 ADD PUSH0 SWAP1 SLOAD SWAP1 PUSH2 0x100 EXP SWAP1 DIV PUSH20 0xFFFFFFFFFFFFFFFFFFFFFFFFFFFFFFFFFFFFFFFF AND PUSH20 0xFFFFFFFFFFFFFFFFFFFFFFFFFFFFFFFFFFFFFFFF AND PUSH20 0xFFFFFFFFFFFFFFFFFFFFFFFFFFFFFFFFFFFFFFFF AND DUP2 MSTORE PUSH1 0x20 ADD PUSH1 0x2 DUP3 ADD DUP1 SLOAD PUSH2 0x3EE SWAP1 PUSH2 0x148F JUMP JUMPDEST DUP1 PUSH1 0x1F ADD PUSH1 0x20 DUP1 SWAP2 DIV MUL PUSH1 0x20 ADD PUSH1 0x40 MLOAD SWAP1 DUP2 ADD PUSH1 0x40 MSTORE DUP1 SWAP3 SWAP2 SWAP1 DUP2 DUP2 MSTORE PUSH1 0x20 ADD DUP3 DUP1 SLOAD PUSH2 0x41A SWAP1 PUSH2 0x148F JUMP JUMPDEST DUP1 ISZERO PUSH2 0x465 JUMPI DUP1 PUSH1 0x1F LT PUSH2 0x43C JUMPI PUSH2 0x100 DUP1 DUP4 SLOAD DIV MUL DUP4 MSTORE SWAP2 PUSH1 0x20 ADD SWAP2 PUSH2 0x465 JUMP JUMPDEST DUP3 ADD SWAP2 SWAP1 PUSH0 MSTORE PUSH1 0x20 PUSH0 KECCAK256 SWAP1 JUMPDEST DUP2 SLOAD DUP2 MSTORE SWAP1 PUSH1 0x1 ADD SWAP1 PUSH1 0x20 ADD DUP1 DUP4 GT PUSH2 0x448 JUMPI DUP3 SWAP1 SUB PUSH1 0x1F AND DUP3 ADD SWAP2 JUMPDEST POP POP POP POP POP DUP2 MSTORE PUSH1 0x20 ADD PUSH1 0x3 DUP3 ADD SLOAD DUP2 MSTORE PUSH1 0x20 ADD PUSH1 0x4 DUP3 ADD SLOAD DUP2 MSTORE POP POP DUP2 MSTORE PUSH1 0x20 ADD SWAP1 PUSH1 0x1 ADD SWAP1 PUSH2 0x35F JUMP JUMPDEST POP POP POP POP SWAP1 POP SWAP2 SWAP1 POP JUMP JUMPDEST PUSH1 0x1 PUSH0 DUP4 PUSH20 0xFFFFFFFFFFFFFFFFFFFFFFFFFFFFFFFFFFFFFFFF AND PUSH20 0xFFFFFFFFFFFFFFFFFFFFFFFFFFFFFFFFFFFFFFFF AND DUP2 MSTORE PUSH1 0x20 ADD SWAP1 DUP2 MSTORE PUSH1 0x20 ADD PUSH0 KECCAK256 DUP1 SLOAD SWAP1 POP DUP2 LT PUSH2 0x51E JUMPI PUSH1 0x40 MLOAD PUSH32 0x8C379A000000000000000000000000000000000000000000000000000000000 DUP2 MSTORE PUSH1 0x4 ADD PUSH2 0x515 SWAP1 PUSH2 0x1509 JUMP JUMPDEST PUSH1 0x40 MLOAD DUP1 SWAP2 SUB SWAP1 REVERT JUMPDEST PUSH0 PUSH1 0x1 PUSH0 DUP5 PUSH20 0xFFFFFFFFFFFFFFFFFFFFFFFFFFFFFFFFFFFFFFFF AND PUSH20 0xFFFFFFFFFFFFFFFFFFFFFFFFFFFFFFFFFFFFFFFF AND DUP2 MSTORE PUSH1 0x20 ADD SWAP1 DUP2 MSTORE PUSH1 0x20 ADD PUSH0 KECCAK256 DUP3 DUP2 SLOAD DUP2 LT PUSH2 0x56E JUMPI PUSH2 0x56D PUSH2 0x1527 JUMP JUMPDEST JUMPDEST SWAP1 PUSH0 MSTORE PUSH1 0x20 PUSH0 KECCAK256 SWAP1 PUSH1 0x5 MUL ADD PUSH1 0x4 ADD SLOAD GT PUSH2 0x5BE JUMPI PUSH1 0x40 MLOAD PUSH32 0x8C379A000000000000000000000000000000000000000000000000000000000 DUP2 MSTORE PUSH1 0x4 ADD PUSH2 0x5B5 SWAP1 PUSH2 0x159E JUMP JUMPDEST PUSH1 0x40 MLOAD DUP1 SWAP2 SUB SWAP1 REVERT JUMPDEST PUSH1 0x1 PUSH0 DUP4 PUSH20 0xFFFFFFFFFFFFFFFFFFFFFFFFFFFFFFFFFFFFFFFF AND PUSH20 0xFFFFFFFFFFFFFFFFFFFFFFFFFFFFFFFFFFFFFFFF AND DUP2 MSTORE PUSH1 0x20 ADD SWAP1 DUP2 MSTORE PUSH1 0x20 ADD PUSH0 KECCAK256 DUP2 DUP2 SLOAD DUP2 LT PUSH2 0x60D JUMPI PUSH2 0x60C PUSH2 0x1527 JUMP JUMPDEST JUMPDEST SWAP1 PUSH0 MSTORE PUSH1 0x20 PUSH0 KECCAK256 SWAP1 PUSH1 0x5 MUL ADD PUSH1 0x4 ADD PUSH0 DUP2 SLOAD DUP1 SWAP3 SWAP2 SWAP1 PUSH2 0x62C SWAP1 PUSH2 0x15E9 JUMP JUMPDEST SWAP2 SWAP1 POP SSTORE POP PUSH32 0x762C2616349603AC16EBA0DE8E6141B79129A07AB63BD99E0A80B3A471716943 CALLER DUP4 DUP4 PUSH1 0x1 PUSH0 DUP8 PUSH20 0xFFFFFFFFFFFFFFFFFFFFFFFFFFFFFFFFFFFFFFFF AND PUSH20 0xFFFFFFFFFFFFFFFFFFFFFFFFFFFFFFFFFFFFFFFF AND DUP2 MSTORE PUSH1 0x20 ADD SWAP1 DUP2 MSTORE PUSH1 0x20 ADD PUSH0 KECCAK256 DUP6 DUP2 SLOAD DUP2 LT PUSH2 0x6A4 JUMPI PUSH2 0x6A3 PUSH2 0x1527 JUMP JUMPDEST JUMPDEST SWAP1 PUSH0 MSTORE PUSH1 0x20 PUSH0 KECCAK256 SWAP1 PUSH1 0x5 MUL ADD PUSH1 0x4 ADD SLOAD PUSH1 0x40 MLOAD PUSH2 0x6C4 SWAP5 SWAP4 SWAP3 SWAP2 SWAP1 PUSH2 0x1610 JUMP JUMPDEST PUSH1 0x40 MLOAD DUP1 SWAP2 SUB SWAP1 LOG1 POP POP JUMP JUMPDEST PUSH1 0x2 PUSH0 SWAP1 SLOAD SWAP1 PUSH2 0x100 EXP SWAP1 DIV PUSH20 0xFFFFFFFFFFFFFFFFFFFFFFFFFFFFFFFFFFFFFFFF AND PUSH20 0xFFFFFFFFFFFFFFFFFFFFFFFFFFFFFFFFFFFFFFFF AND CALLER PUSH20 0xFFFFFFFFFFFFFFFFFFFFFFFFFFFFFFFFFFFFFFFF AND EQ PUSH2 0x75F JUMPI PUSH1 0x40 MLOAD PUSH32 0x8C379A000000000000000000000000000000000000000000000000000000000 DUP2 MSTORE PUSH1 0x4 ADD PUSH2 0x756 SWAP1 PUSH2 0x169D JUMP JUMPDEST PUSH1 0x40 MLOAD DUP1 SWAP2 SUB SWAP1 REVERT JUMPDEST DUP1 PUSH0 DUP1 PUSH2 0x100 EXP DUP2 SLOAD DUP2 PUSH2 0xFFFF MUL NOT AND SWAP1 DUP4 PUSH2 0xFFFF AND MUL OR SWAP1 SSTORE POP POP JUMP JUMPDEST PUSH1 0x1 PUSH0 DUP4 PUSH20 0xFFFFFFFFFFFFFFFFFFFFFFFFFFFFFFFFFFFFFFFF AND PUSH20 0xFFFFFFFFFFFFFFFFFFFFFFFFFFFFFFFFFFFFFFFF AND DUP2 MSTORE PUSH1 0x20 ADD SWAP1 DUP2 MSTORE PUSH1 0x20 ADD PUSH0 KECCAK256 DUP1 SLOAD SWAP1 POP DUP2 LT PUSH2 0x7FF JUMPI PUSH1 0x40 MLOAD PUSH32 0x8C379A000000000000000000000000000000000000000000000000000000000 DUP2 MSTORE PUSH1 0x4 ADD PUSH2 0x7F6 SWAP1 PUSH2 0x1509 JUMP JUMPDEST PUSH1 0x40 MLOAD DUP1 SWAP2 SUB SWAP1 REVERT JUMPDEST PUSH1 0x1 PUSH0 DUP4 PUSH20 0xFFFFFFFFFFFFFFFFFFFFFFFFFFFFFFFFFFFFFFFF AND PUSH20 0xFFFFFFFFFFFFFFFFFFFFFFFFFFFFFFFFFFFFFFFF AND DUP2 MSTORE PUSH1 0x20 ADD SWAP1 DUP2 MSTORE PUSH1 0x20 ADD PUSH0 KECCAK256 DUP2 DUP2 SLOAD DUP2 LT PUSH2 0x84E JUMPI PUSH2 0x84D PUSH2 0x1527 JUMP JUMPDEST JUMPDEST SWAP1 PUSH0 MSTORE PUSH1 0x20 PUSH0 KECCAK256 SWAP1 PUSH1 0x5 MUL ADD PUSH1 0x4 ADD PUSH0 DUP2 SLOAD DUP1 SWAP3 SWAP2 SWAP1 PUSH2 0x86D SWAP1 PUSH2 0x16BB JUMP JUMPDEST SWAP2 SWAP1 POP SSTORE POP PUSH32 0xE8A76FC0F16D11A00D1E93B689B63D76CF60AF914DD3D915375DC41D01A0C3C8 CALLER DUP4 DUP4 PUSH1 0x1 PUSH0 DUP8 PUSH20 0xFFFFFFFFFFFFFFFFFFFFFFFFFFFFFFFFFFFFFFFF AND PUSH20 0xFFFFFFFFFFFFFFFFFFFFFFFFFFFFFFFFFFFFFFFF AND DUP2 MSTORE PUSH1 0x20 ADD SWAP1 DUP2 MSTORE PUSH1 0x20 ADD PUSH0 KECCAK256 DUP6 DUP2 SLOAD DUP2 LT PUSH2 0x8E5 JUMPI PUSH2 0x8E4 PUSH2 0x1527 JUMP JUMPDEST JUMPDEST SWAP1 PUSH0 MSTORE PUSH1 0x20 PUSH0 KECCAK256 SWAP1 PUSH1 0x5 MUL ADD PUSH1 0x4 ADD SLOAD PUSH1 0x40 MLOAD PUSH2 0x905 SWAP5 SWAP4 SWAP3 SWAP2 SWAP1 PUSH2 0x1610 JUMP JUMPDEST PUSH1 0x40 MLOAD DUP1 SWAP2 SUB SWAP1 LOG1 POP POP JUMP JUMPDEST PUSH0 DUP1 SLOAD SWAP1 PUSH2 0x100 EXP SWAP1 DIV PUSH2 0xFFFF AND DUP2 JUMP JUMPDEST PUSH0 DUP1 SLOAD SWAP1 PUSH2 0x100 EXP SWAP1 DIV PUSH2 0xFFFF AND PUSH2 0xFFFF AND DUP2 MLOAD GT ISZERO PUSH2 0x977 JUMPI PUSH1 0x40 MLOAD PUSH32 0x8C379A000000000000000000000000000000000000000000000000000000000 DUP2 MSTORE PUSH1 0x4 ADD PUSH2 0x96E SWAP1 PUSH2 0x174C JUMP JUMPDEST PUSH1 0x40 MLOAD DUP1 SWAP2 SUB SWAP1 REVERT JUMPDEST PUSH0 PUSH1 0x40 MLOAD DUP1 PUSH1 0xA0 ADD PUSH1 0x40 MSTORE DUP1 PUSH1 0x1 PUSH0 CALLER PUSH20 0xFFFFFFFFFFFFFFFFFFFFFFFFFFFFFFFFFFFFFFFF AND PUSH20 0xFFFFFFFFFFFFFFFFFFFFFFFFFFFFFFFFFFFFFFFF AND DUP2 MSTORE PUSH1 0x20 ADD SWAP1 DUP2 MSTORE PUSH1 0x20 ADD PUSH0 KECCAK256 DUP1 SLOAD SWAP1 POP DUP2 MSTORE PUSH1 0x20 ADD CALLER PUSH20 0xFFFFFFFFFFFFFFFFFFFFFFFFFFFFFFFFFFFFFFFF AND DUP2 MSTORE PUSH1 0x20 ADD DUP4 DUP2 MSTORE PUSH1 0x20 ADD TIMESTAMP DUP2 MSTORE PUSH1 0x20 ADD PUSH0 DUP2 MSTORE POP SWAP1 POP PUSH1 0x1 PUSH0 CALLER PUSH20 0xFFFFFFFFFFFFFFFFFFFFFFFFFFFFFFFFFFFFFFFF AND PUSH20 0xFFFFFFFFFFFFFFFFFFFFFFFFFFFFFFFFFFFFFFFF AND DUP2 MSTORE PUSH1 0x20 ADD SWAP1 DUP2 MSTORE PUSH1 0x20 ADD PUSH0 KECCAK256 DUP2 SWAP1 DUP1 PUSH1 0x1 DUP2 SLOAD ADD DUP1 DUP3 SSTORE DUP1 SWAP2 POP POP PUSH1 0x1 SWAP1 SUB SWAP1 PUSH0 MSTORE PUSH1 0x20 PUSH0 KECCAK256 SWAP1 PUSH1 0x5 MUL ADD PUSH0 SWAP1 SWAP2 SWAP1 SWAP2 SWAP1 SWAP2 POP PUSH0 DUP3 ADD MLOAD DUP2 PUSH0 ADD SSTORE PUSH1 0x20 DUP3 ADD MLOAD DUP2 PUSH1 0x1 ADD PUSH0 PUSH2 0x100 EXP DUP2 SLOAD DUP2 PUSH20 0xFFFFFFFFFFFFFFFFFFFFFFFFFFFFFFFFFFFFFFFF MUL NOT AND SWAP1 DUP4 PUSH20 0xFFFFFFFFFFFFFFFFFFFFFFFFFFFFFFFFFFFFFFFF AND MUL OR SWAP1 SSTORE POP PUSH1 0x40 DUP3 ADD MLOAD DUP2 PUSH1 0x2 ADD SWAP1 DUP2 PUSH2 0xABE SWAP2 SWAP1 PUSH2 0x1907 JUMP JUMPDEST POP PUSH1 0x60 DUP3 ADD MLOAD DUP2 PUSH1 0x3 ADD SSTORE PUSH1 0x80 DUP3 ADD MLOAD DUP2 PUSH1 0x4 ADD SSTORE POP POP PUSH32 0x16FD3C13E9D46923E0A8BCE11C7B473EC508A72E6C96CD2404B29CE972AFC29E DUP2 PUSH0 ADD MLOAD DUP3 PUSH1 0x20 ADD MLOAD DUP4 PUSH1 0x40 ADD MLOAD DUP5 PUSH1 0x60 ADD MLOAD PUSH1 0x40 MLOAD PUSH2 0xB19 SWAP5 SWAP4 SWAP3 SWAP2 SWAP1 PUSH2 0x19D6 JUMP JUMPDEST PUSH1 0x40 MLOAD DUP1 SWAP2 SUB SWAP1 LOG1 POP POP JUMP JUMPDEST PUSH0 DUP1 PUSH0 SWAP1 POP PUSH0 JUMPDEST PUSH1 0x1 PUSH0 DUP6 PUSH20 0xFFFFFFFFFFFFFFFFFFFFFFFFFFFFFFFFFFFFFFFF AND PUSH20 0xFFFFFFFFFFFFFFFFFFFFFFFFFFFFFFFFFFFFFFFF AND DUP2 MSTORE PUSH1 0x20 ADD SWAP1 DUP2 MSTORE PUSH1 0x20 ADD PUSH0 KECCAK256 DUP1 SLOAD SWAP1 POP DUP2 LT ISZERO PUSH2 0xBED JUMPI PUSH1 0x1 PUSH0 DUP6 PUSH20 0xFFFFFFFFFFFFFFFFFFFFFFFFFFFFFFFFFFFFFFFF AND PUSH20 0xFFFFFFFFFFFFFFFFFFFFFFFFFFFFFFFFFFFFFFFF AND DUP2 MSTORE PUSH1 0x20 ADD SWAP1 DUP2 MSTORE PUSH1 0x20 ADD PUSH0 KECCAK256 DUP2 DUP2 SLOAD DUP2 LT PUSH2 0xBC3 JUMPI PUSH2 0xBC2 PUSH2 0x1527 JUMP JUMPDEST JUMPDEST SWAP1 PUSH0 MSTORE PUSH1 0x20 PUSH0 KECCAK256 SWAP1 PUSH1 0x5 MUL ADD PUSH1 0x4 ADD SLOAD DUP3 PUSH2 0xBDE SWAP2 SWAP1 PUSH2 0x1A20 JUMP JUMPDEST SWAP2 POP DUP1 DUP1 PUSH1 0x1 ADD SWAP2 POP POP PUSH2 0xB2C JUMP JUMPDEST POP DUP1 SWAP2 POP POP SWAP2 SWAP1 POP JUMP JUMPDEST PUSH1 0x2 PUSH0 SWAP1 SLOAD SWAP1 PUSH2 0x100 EXP SWAP1 DIV PUSH20 0xFFFFFFFFFFFFFFFFFFFFFFFFFFFFFFFFFFFFFFFF AND DUP2 JUMP JUMPDEST PUSH2 0xC24 PUSH2 0xD93 JUMP JUMPDEST PUSH1 0x1 PUSH0 CALLER PUSH20 0xFFFFFFFFFFFFFFFFFFFFFFFFFFFFFFFFFFFFFFFF AND PUSH20 0xFFFFFFFFFFFFFFFFFFFFFFFFFFFFFFFFFFFFFFFF AND DUP2 MSTORE PUSH1 0x20 ADD SWAP1 DUP2 MSTORE PUSH1 0x20 ADD PUSH0 KECCAK256 DUP3 DUP2 SLOAD DUP2 LT PUSH2 0xC73 JUMPI PUSH2 0xC72 PUSH2 0x1527 JUMP JUMPDEST JUMPDEST SWAP1 PUSH0 MSTORE PUSH1 0x20 PUSH0 KECCAK256 SWAP1 PUSH1 0x5 MUL ADD PUSH1 0x40 MLOAD DUP1 PUSH1 0xA0 ADD PUSH1 0x40 MSTORE SWAP1 DUP2 PUSH0 DUP3 ADD SLOAD DUP2 MSTORE PUSH1 0x20 ADD PUSH1 0x1 DUP3 ADD PUSH0 SWAP1 SLOAD SWAP1 PUSH2 0x100 EXP SWAP1 DIV PUSH20 0xFFFFFFFFFFFFFFFFFFFFFFFFFFFFFFFFFFFFFFFF AND PUSH20 0xFFFFFFFFFFFFFFFFFFFFFFFFFFFFFFFFFFFFFFFF AND PUSH20 0xFFFFFFFFFFFFFFFFFFFFFFFFFFFFFFFFFFFFFFFF AND DUP2 MSTORE PUSH1 0x20 ADD PUSH1 0x2 DUP3 ADD DUP1 SLOAD PUSH2 0xCF8 SWAP1 PUSH2 0x148F JUMP JUMPDEST DUP1 PUSH1 0x1F ADD PUSH1 0x20 DUP1 SWAP2 DIV MUL PUSH1 0x20 ADD PUSH1 0x40 MLOAD SWAP1 DUP2 ADD PUSH1 0x40 MSTORE DUP1 SWAP3 SWAP2 SWAP1 DUP2 DUP2 MSTORE PUSH1 0x20 ADD DUP3 DUP1 SLOAD PUSH2 0xD24 SWAP1 PUSH2 0x148F JUMP JUMPDEST DUP1 ISZERO PUSH2 0xD6F JUMPI DUP1 PUSH1 0x1F LT PUSH2 0xD46 JUMPI PUSH2 0x100 DUP1 DUP4 SLOAD DIV MUL DUP4 MSTORE SWAP2 PUSH1 0x20 ADD SWAP2 PUSH2 0xD6F JUMP JUMPDEST DUP3 ADD SWAP2 SWAP1 PUSH0 MSTORE PUSH1 0x20 PUSH0 KECCAK256 SWAP1 JUMPDEST DUP2 SLOAD DUP2 MSTORE SWAP1 PUSH1 0x1 ADD SWAP1 PUSH1 0x20 ADD DUP1 DUP4 GT PUSH2 0xD52 JUMPI DUP3 SWAP1 SUB PUSH1 0x1F AND DUP3 ADD SWAP2 JUMPDEST POP POP POP POP POP DUP2 MSTORE PUSH1 0x20 ADD PUSH1 0x3 DUP3 ADD SLOAD DUP2 MSTORE PUSH1 0x20 ADD PUSH1 0x4 DUP3 ADD SLOAD DUP2 MSTORE POP POP SWAP1 POP SWAP2 SWAP1 POP JUMP JUMPDEST PUSH1 0x40 MLOAD DUP1 PUSH1 0xA0 ADD PUSH1 0x40 MSTORE DUP1 PUSH0 DUP2 MSTORE PUSH1 0x20 ADD PUSH0 PUSH20 0xFFFFFFFFFFFFFFFFFFFFFFFFFFFFFFFFFFFFFFFF AND DUP2 MSTORE PUSH1 0x20 ADD PUSH1 0x60 DUP2 MSTORE PUSH1 0x20 ADD PUSH0 DUP2 MSTORE PUSH1 0x20 ADD PUSH0 DUP2 MSTORE POP SWAP1 JUMP JUMPDEST PUSH0 PUSH1 0x40 MLOAD SWAP1 POP SWAP1 JUMP JUMPDEST PUSH0 DUP1 REVERT JUMPDEST PUSH0 DUP1 REVERT JUMPDEST PUSH0 PUSH20 0xFFFFFFFFFFFFFFFFFFFFFFFFFFFFFFFFFFFFFFFF DUP3 AND SWAP1 POP SWAP2 SWAP1 POP JUMP JUMPDEST PUSH0 PUSH2 0xE0E DUP3 PUSH2 0xDE5 JUMP JUMPDEST SWAP1 POP SWAP2 SWAP1 POP JUMP JUMPDEST PUSH2 0xE1E DUP2 PUSH2 0xE04 JUMP JUMPDEST DUP2 EQ PUSH2 0xE28 JUMPI PUSH0 DUP1 REVERT JUMPDEST POP JUMP JUMPDEST PUSH0 DUP2 CALLDATALOAD SWAP1 POP PUSH2 0xE39 DUP2 PUSH2 0xE15 JUMP JUMPDEST SWAP3 SWAP2 POP POP JUMP JUMPDEST PUSH0 DUP2 SWAP1 POP SWAP2 SWAP1 POP JUMP JUMPDEST PUSH2 0xE51 DUP2 PUSH2 0xE3F JUMP JUMPDEST DUP2 EQ PUSH2 0xE5B JUMPI PUSH0 DUP1 REVERT JUMPDEST POP JUMP JUMPDEST PUSH0 DUP2 CALLDATALOAD SWAP1 POP PUSH2 0xE6C DUP2 PUSH2 0xE48 JUMP JUMPDEST SWAP3 SWAP2 POP POP JUMP JUMPDEST PUSH0 DUP1 PUSH1 0x40 DUP4 DUP6 SUB SLT ISZERO PUSH2 0xE88 JUMPI PUSH2 0xE87 PUSH2 0xDDD JUMP JUMPDEST JUMPDEST PUSH0 PUSH2 0xE95 DUP6 DUP3 DUP7 ADD PUSH2 0xE2B JUMP JUMPDEST SWAP3 POP POP PUSH1 0x20 PUSH2 0xEA6 DUP6 DUP3 DUP7 ADD PUSH2 0xE5E JUMP JUMPDEST SWAP2 POP POP SWAP3 POP SWAP3 SWAP1 POP JUMP JUMPDEST PUSH2 0xEB9 DUP2 PUSH2 0xE3F JUMP JUMPDEST DUP3 MSTORE POP POP JUMP JUMPDEST PUSH2 0xEC8 DUP2 PUSH2 0xE04 JUMP JUMPDEST DUP3 MSTORE POP POP JUMP JUMPDEST PUSH0 DUP2 MLOAD SWAP1 POP SWAP2 SWAP1 POP JUMP JUMPDEST PUSH0 DUP3 DUP3 MSTORE PUSH1 0x20 DUP3 ADD SWAP1 POP SWAP3 SWAP2 POP POP JUMP JUMPDEST DUP3 DUP2 DUP4 MCOPY PUSH0 DUP4 DUP4 ADD MSTORE POP POP POP JUMP JUMPDEST PUSH0 PUSH1 0x1F NOT PUSH1 0x1F DUP4 ADD AND SWAP1 POP SWAP2 SWAP1 POP JUMP JUMPDEST PUSH0 PUSH2 0xF10 DUP3 PUSH2 0xECE JUMP JUMPDEST PUSH2 0xF1A DUP2 DUP6 PUSH2 0xED8 JUMP JUMPDEST SWAP4 POP PUSH2 0xF2A DUP2 DUP6 PUSH1 0x20 DUP7 ADD PUSH2 0xEE8 JUMP JUMPDEST PUSH2 0xF33 DUP2 PUSH2 0xEF6 JUMP JUMPDEST DUP5 ADD SWAP2 POP POP SWAP3 SWAP2 POP POP JUMP JUMPDEST PUSH0 PUSH1 0xA0 DUP3 ADD SWAP1 POP PUSH2 0xF51 PUSH0 DUP4 ADD DUP9 PUSH2 0xEB0 JUMP JUMPDEST PUSH2 0xF5E PUSH1 0x20 DUP4 ADD DUP8 PUSH2 0xEBF JUMP JUMPDEST DUP2 DUP2 SUB PUSH1 0x40 DUP4 ADD MSTORE PUSH2 0xF70 DUP2 DUP7 PUSH2 0xF06 JUMP JUMPDEST SWAP1 POP PUSH2 0xF7F PUSH1 0x60 DUP4 ADD DUP6 PUSH2 0xEB0 JUMP JUMPDEST PUSH2 0xF8C PUSH1 0x80 DUP4 ADD DUP5 PUSH2 0xEB0 JUMP JUMPDEST SWAP7 SWAP6 POP POP POP POP POP POP JUMP JUMPDEST PUSH0 PUSH1 0x20 DUP3 DUP5 SUB SLT ISZERO PUSH2 0xFAB JUMPI PUSH2 0xFAA PUSH2 0xDDD JUMP JUMPDEST JUMPDEST PUSH0 PUSH2 0xFB8 DUP5 DUP3 DUP6 ADD PUSH2 0xE2B JUMP JUMPDEST SWAP2 POP POP SWAP3 SWAP2 POP POP JUMP JUMPDEST PUSH0 DUP2 MLOAD SWAP1 POP SWAP2 SWAP1 POP JUMP JUMPDEST PUSH0 DUP3 DUP3 MSTORE PUSH1 0x20 DUP3 ADD SWAP1 POP SWAP3 SWAP2 POP POP JUMP JUMPDEST PUSH0 DUP2 SWAP1 POP PUSH1 0x20 DUP3 ADD SWAP1 POP SWAP2 SWAP1 POP JUMP JUMPDEST PUSH2 0xFF3 DUP2 PUSH2 0xE3F JUMP JUMPDEST DUP3 MSTORE POP POP JUMP JUMPDEST PUSH2 0x1002 DUP2 PUSH2 0xE04 JUMP JUMPDEST DUP3 MSTORE POP POP JUMP JUMPDEST PUSH0 DUP3 DUP3 MSTORE PUSH1 0x20 DUP3 ADD SWAP1 POP SWAP3 SWAP2 POP POP JUMP JUMPDEST PUSH0 PUSH2 0x1022 DUP3 PUSH2 0xECE JUMP JUMPDEST PUSH2 0x102C DUP2 DUP6 PUSH2 0x1008 JUMP JUMPDEST SWAP4 POP PUSH2 0x103C DUP2 DUP6 PUSH1 0x20 DUP7 ADD PUSH2 0xEE8 JUMP JUMPDEST PUSH2 0x1045 DUP2 PUSH2 0xEF6 JUMP JUMPDEST DUP5 ADD SWAP2 POP POP SWAP3 SWAP2 POP POP JUMP JUMPDEST PUSH0 PUSH1 0xA0 DUP4 ADD PUSH0 DUP4 ADD MLOAD PUSH2 0x1065 PUSH0 DUP7 ADD DUP3 PUSH2 0xFEA JUMP JUMPDEST POP PUSH1 0x20 DUP4 ADD MLOAD PUSH2 0x1078 PUSH1 0x20 DUP7 ADD DUP3 PUSH2 0xFF9 JUMP JUMPDEST POP PUSH1 0x40 DUP4 ADD MLOAD DUP5 DUP3 SUB PUSH1 0x40 DUP7 ADD MSTORE PUSH2 0x1090 DUP3 DUP3 PUSH2 0x1018 JUMP JUMPDEST SWAP2 POP POP PUSH1 0x60 DUP4 ADD MLOAD PUSH2 0x10A5 PUSH1 0x60 DUP7 ADD DUP3 PUSH2 0xFEA JUMP JUMPDEST POP PUSH1 0x80 DUP4 ADD MLOAD PUSH2 0x10B8 PUSH1 0x80 DUP7 ADD DUP3 PUSH2 0xFEA JUMP JUMPDEST POP DUP1 SWAP2 POP POP SWAP3 SWAP2 POP POP JUMP JUMPDEST PUSH0 PUSH2 0x10CE DUP4 DUP4 PUSH2 0x1050 JUMP JUMPDEST SWAP1 POP SWAP3 SWAP2 POP POP JUMP JUMPDEST PUSH0 PUSH1 0x20 DUP3 ADD SWAP1 POP SWAP2 SWAP1 POP JUMP JUMPDEST PUSH0 PUSH2 0x10EC DUP3 PUSH2 0xFC1 JUMP JUMPDEST PUSH2 0x10F6 DUP2 DUP6 PUSH2 0xFCB JUMP JUMPDEST SWAP4 POP DUP4 PUSH1 0x20 DUP3 MUL DUP6 ADD PUSH2 0x1108 DUP6 PUSH2 0xFDB JUMP JUMPDEST DUP1 PUSH0 JUMPDEST DUP6 DUP2 LT ISZERO PUSH2 0x1143 JUMPI DUP5 DUP5 SUB DUP10 MSTORE DUP2 MLOAD PUSH2 0x1124 DUP6 DUP3 PUSH2 0x10C3 JUMP JUMPDEST SWAP5 POP PUSH2 0x112F DUP4 PUSH2 0x10D6 JUMP JUMPDEST SWAP3 POP PUSH1 0x20 DUP11 ADD SWAP10 POP POP PUSH1 0x1 DUP2 ADD SWAP1 POP PUSH2 0x110B JUMP JUMPDEST POP DUP3 SWAP8 POP DUP8 SWAP6 POP POP POP POP POP POP SWAP3 SWAP2 POP POP JUMP JUMPDEST PUSH0 PUSH1 0x20 DUP3 ADD SWAP1 POP DUP2 DUP2 SUB PUSH0 DUP4 ADD MSTORE PUSH2 0x116D DUP2 DUP5 PUSH2 0x10E2 JUMP JUMPDEST SWAP1 POP SWAP3 SWAP2 POP POP JUMP JUMPDEST PUSH0 PUSH2 0xFFFF DUP3 AND SWAP1 POP SWAP2 SWAP1 POP JUMP JUMPDEST PUSH2 0x118B DUP2 PUSH2 0x1175 JUMP JUMPDEST DUP2 EQ PUSH2 0x1195 JUMPI PUSH0 DUP1 REVERT JUMPDEST POP JUMP JUMPDEST PUSH0 DUP2 CALLDATALOAD SWAP1 POP PUSH2 0x11A6 DUP2 PUSH2 0x1182 JUMP JUMPDEST SWAP3 SWAP2 POP POP JUMP JUMPDEST PUSH0 PUSH1 0x20 DUP3 DUP5 SUB SLT ISZERO PUSH2 0x11C1 JUMPI PUSH2 0x11C0 PUSH2 0xDDD JUMP JUMPDEST JUMPDEST PUSH0 PUSH2 0x11CE DUP5 DUP3 DUP6 ADD PUSH2 0x1198 JUMP JUMPDEST SWAP2 POP POP SWAP3 SWAP2 POP POP JUMP JUMPDEST PUSH2 0x11E0 DUP2 PUSH2 0x1175 JUMP JUMPDEST DUP3 MSTORE POP POP JUMP JUMPDEST PUSH0 PUSH1 0x20 DUP3 ADD SWAP1 POP PUSH2 0x11F9 PUSH0 DUP4 ADD DUP5 PUSH2 0x11D7 JUMP JUMPDEST SWAP3 SWAP2 POP POP JUMP JUMPDEST PUSH0 DUP1 REVERT JUMPDEST PUSH0 DUP1 REVERT JUMPDEST PUSH32 0x4E487B7100000000000000000000000000000000000000000000000000000000 PUSH0 MSTORE PUSH1 0x41 PUSH1 0x4 MSTORE PUSH1 0x24 PUSH0 REVERT JUMPDEST PUSH2 0x123D DUP3 PUSH2 0xEF6 JUMP JUMPDEST DUP2 ADD DUP2 DUP2 LT PUSH8 0xFFFFFFFFFFFFFFFF DUP3 GT OR ISZERO PUSH2 0x125C JUMPI PUSH2 0x125B PUSH2 0x1207 JUMP JUMPDEST JUMPDEST DUP1 PUSH1 0x40 MSTORE POP POP POP JUMP JUMPDEST PUSH0 PUSH2 0x126E PUSH2 0xDD4 JUMP JUMPDEST SWAP1 POP PUSH2 0x127A DUP3 DUP3 PUSH2 0x1234 JUMP JUMPDEST SWAP2 SWAP1 POP JUMP JUMPDEST PUSH0 PUSH8 0xFFFFFFFFFFFFFFFF DUP3 GT ISZERO PUSH2 0x1299 JUMPI PUSH2 0x1298 PUSH2 0x1207 JUMP JUMPDEST JUMPDEST PUSH2 0x12A2 DUP3 PUSH2 0xEF6 JUMP JUMPDEST SWAP1 POP PUSH1 0x20 DUP2 ADD SWAP1 POP SWAP2 SWAP1 POP JUMP JUMPDEST DUP3 DUP2 DUP4 CALLDATACOPY PUSH0 DUP4 DUP4 ADD MSTORE POP POP POP JUMP JUMPDEST PUSH0 PUSH2 0x12CF PUSH2 0x12CA DUP5 PUSH2 0x127F JUMP JUMPDEST PUSH2 0x1265 JUMP JUMPDEST SWAP1 POP DUP3 DUP2 MSTORE PUSH1 0x20 DUP2 ADD DUP5 DUP5 DUP5 ADD GT ISZERO PUSH2 0x12EB JUMPI PUSH2 0x12EA PUSH2 0x1203 JUMP JUMPDEST JUMPDEST PUSH2 0x12F6 DUP5 DUP3 DUP6 PUSH2 0x12AF JUMP JUMPDEST POP SWAP4 SWAP3 POP POP POP JUMP JUMPDEST PUSH0 DUP3 PUSH1 0x1F DUP4 ADD SLT PUSH2 0x1312 JUMPI PUSH2 0x1311 PUSH2 0x11FF JUMP JUMPDEST JUMPDEST DUP2 CALLDATALOAD PUSH2 0x1322 DUP5 DUP3 PUSH1 0x20 DUP7 ADD PUSH2 0x12BD JUMP JUMPDEST SWAP2 POP POP SWAP3 SWAP2 POP POP JUMP JUMPDEST PUSH0 PUSH1 0x20 DUP3 DUP5 SUB SLT ISZERO PUSH2 0x1340 JUMPI PUSH2 0x133F PUSH2 0xDDD JUMP JUMPDEST JUMPDEST PUSH0 DUP3 ADD CALLDATALOAD PUSH8 0xFFFFFFFFFFFFFFFF DUP2 GT ISZERO PUSH2 0x135D JUMPI PUSH2 0x135C PUSH2 0xDE1 JUMP JUMPDEST JUMPDEST PUSH2 0x1369 DUP5 DUP3 DUP6 ADD PUSH2 0x12FE JUMP JUMPDEST SWAP2 POP POP SWAP3 SWAP2 POP POP JUMP JUMPDEST PUSH0 PUSH1 0x20 DUP3 ADD SWAP1 POP PUSH2 0x1385 PUSH0 DUP4 ADD DUP5 PUSH2 0xEB0 JUMP JUMPDEST SWAP3 SWAP2 POP POP JUMP JUMPDEST PUSH0 PUSH1 0x20 DUP3 ADD SWAP1 POP PUSH2 0x139E PUSH0 DUP4 ADD DUP5 PUSH2 0xEBF JUMP JUMPDEST SWAP3 SWAP2 POP POP JUMP JUMPDEST PUSH0 PUSH1 0x20 DUP3 DUP5 SUB SLT ISZERO PUSH2 0x13B9 JUMPI PUSH2 0x13B8 PUSH2 0xDDD JUMP JUMPDEST JUMPDEST PUSH0 PUSH2 0x13C6 DUP5 DUP3 DUP6 ADD PUSH2 0xE5E JUMP JUMPDEST SWAP2 POP POP SWAP3 SWAP2 POP POP JUMP JUMPDEST PUSH0 PUSH1 0xA0 DUP4 ADD PUSH0 DUP4 ADD MLOAD PUSH2 0x13E4 PUSH0 DUP7 ADD DUP3 PUSH2 0xFEA JUMP JUMPDEST POP PUSH1 0x20 DUP4 ADD MLOAD PUSH2 0x13F7 PUSH1 0x20 DUP7 ADD DUP3 PUSH2 0xFF9 JUMP JUMPDEST POP PUSH1 0x40 DUP4 ADD MLOAD DUP5 DUP3 SUB PUSH1 0x40 DUP7 ADD MSTORE PUSH2 0x140F DUP3 DUP3 PUSH2 0x1018 JUMP JUMPDEST SWAP2 POP POP PUSH1 0x60 DUP4 ADD MLOAD PUSH2 0x1424 PUSH1 0x60 DUP7 ADD DUP3 PUSH2 0xFEA JUMP JUMPDEST POP PUSH1 0x80 DUP4 ADD MLOAD PUSH2 0x1437 PUSH1 0x80 DUP7 ADD DUP3 PUSH2 0xFEA JUMP JUMPDEST POP DUP1 SWAP2 POP POP SWAP3 SWAP2 POP POP JUMP JUMPDEST PUSH0 PUSH1 0x20 DUP3 ADD SWAP1 POP DUP2 DUP2 SUB PUSH0 DUP4 ADD MSTORE PUSH2 0x145A DUP2 DUP5 PUSH2 0x13CF JUMP JUMPDEST SWAP1 POP SWAP3 SWAP2 POP POP JUMP JUMPDEST PUSH32 0x4E487B7100000000000000000000000000000000000000000000000000000000 PUSH0 MSTORE PUSH1 0x22 PUSH1 0x4 MSTORE PUSH1 0x24 PUSH0 REVERT JUMPDEST PUSH0 PUSH1 0x2 DUP3 DIV SWAP1 POP PUSH1 0x1 DUP3 AND DUP1 PUSH2 0x14A6 JUMPI PUSH1 0x7F DUP3 AND SWAP2 POP JUMPDEST PUSH1 0x20 DUP3 LT DUP2 SUB PUSH2 0x14B9 JUMPI PUSH2 0x14B8 PUSH2 0x1462 JUMP JUMPDEST JUMPDEST POP SWAP2 SWAP1 POP JUMP JUMPDEST PUSH32 0x545745455420444F4553204E4F54204558495354000000000000000000000000 PUSH0 DUP3 ADD MSTORE POP JUMP JUMPDEST PUSH0 PUSH2 0x14F3 PUSH1 0x14 DUP4 PUSH2 0xED8 JUMP JUMPDEST SWAP2 POP PUSH2 0x14FE DUP3 PUSH2 0x14BF JUMP JUMPDEST PUSH1 0x20 DUP3 ADD SWAP1 POP SWAP2 SWAP1 POP JUMP JUMPDEST PUSH0 PUSH1 0x20 DUP3 ADD SWAP1 POP DUP2 DUP2 SUB PUSH0 DUP4 ADD MSTORE PUSH2 0x1520 DUP2 PUSH2 0x14E7 JUMP JUMPDEST SWAP1 POP SWAP2 SWAP1 POP JUMP JUMPDEST PUSH32 0x4E487B7100000000000000000000000000000000000000000000000000000000 PUSH0 MSTORE PUSH1 0x32 PUSH1 0x4 MSTORE PUSH1 0x24 PUSH0 REVERT JUMPDEST PUSH32 0x545745455420484153204E4F204C494B45530000000000000000000000000000 PUSH0 DUP3 ADD MSTORE POP JUMP JUMPDEST PUSH0 PUSH2 0x1588 PUSH1 0x12 DUP4 PUSH2 0xED8 JUMP JUMPDEST SWAP2 POP PUSH2 0x1593 DUP3 PUSH2 0x1554 JUMP JUMPDEST PUSH1 0x20 DUP3 ADD SWAP1 POP SWAP2 SWAP1 POP JUMP JUMPDEST PUSH0 PUSH1 0x20 DUP3 ADD SWAP1 POP DUP2 DUP2 SUB PUSH0 DUP4 ADD MSTORE PUSH2 0x15B5 DUP2 PUSH2 0x157C JUMP JUMPDEST SWAP1 POP SWAP2 SWAP1 POP JUMP JUMPDEST PUSH32 0x4E487B7100000000000000000000000000000000000000000000000000000000 PUSH0 MSTORE PUSH1 0x11 PUSH1 0x4 MSTORE PUSH1 0x24 PUSH0 REVERT JUMPDEST PUSH0 PUSH2 0x15F3 DUP3 PUSH2 0xE3F JUMP JUMPDEST SWAP2 POP PUSH0 DUP3 SUB PUSH2 0x1605 JUMPI PUSH2 0x1604 PUSH2 0x15BC JUMP JUMPDEST JUMPDEST PUSH1 0x1 DUP3 SUB SWAP1 POP SWAP2 SWAP1 POP JUMP JUMPDEST PUSH0 PUSH1 0x80 DUP3 ADD SWAP1 POP PUSH2 0x1623 PUSH0 DUP4 ADD DUP8 PUSH2 0xEBF JUMP JUMPDEST PUSH2 0x1630 PUSH1 0x20 DUP4 ADD DUP7 PUSH2 0xEBF JUMP JUMPDEST PUSH2 0x163D PUSH1 0x40 DUP4 ADD DUP6 PUSH2 0xEB0 JUMP JUMPDEST PUSH2 0x164A PUSH1 0x60 DUP4 ADD DUP5 PUSH2 0xEB0 JUMP JUMPDEST SWAP6 SWAP5 POP POP POP POP POP JUMP JUMPDEST PUSH32 0x594F5520415245204E4F5420544845204F574E45522100000000000000000000 PUSH0 DUP3 ADD MSTORE POP JUMP JUMPDEST PUSH0 PUSH2 0x1687 PUSH1 0x16 DUP4 PUSH2 0xED8 JUMP JUMPDEST SWAP2 POP PUSH2 0x1692 DUP3 PUSH2 0x1653 JUMP JUMPDEST PUSH1 0x20 DUP3 ADD SWAP1 POP SWAP2 SWAP1 POP JUMP JUMPDEST PUSH0 PUSH1 0x20 DUP3 ADD SWAP1 POP DUP2 DUP2 SUB PUSH0 DUP4 ADD MSTORE PUSH2 0x16B4 DUP2 PUSH2 0x167B JUMP JUMPDEST SWAP1 POP SWAP2 SWAP1 POP JUMP JUMPDEST PUSH0 PUSH2 0x16C5 DUP3 PUSH2 0xE3F JUMP JUMPDEST SWAP2 POP PUSH32 0xFFFFFFFFFFFFFFFFFFFFFFFFFFFFFFFFFFFFFFFFFFFFFFFFFFFFFFFFFFFFFFFF DUP3 SUB PUSH2 0x16F7 JUMPI PUSH2 0x16F6 PUSH2 0x15BC JUMP JUMPDEST JUMPDEST PUSH1 0x1 DUP3 ADD SWAP1 POP SWAP2 SWAP1 POP JUMP JUMPDEST PUSH32 0x547765657420697320746F6F206C6F6E67210000000000000000000000000000 PUSH0 DUP3 ADD MSTORE POP JUMP JUMPDEST PUSH0 PUSH2 0x1736 PUSH1 0x12 DUP4 PUSH2 0xED8 JUMP JUMPDEST SWAP2 POP PUSH2 0x1741 DUP3 PUSH2 0x1702 JUMP JUMPDEST PUSH1 0x20 DUP3 ADD SWAP1 POP SWAP2 SWAP1 POP JUMP JUMPDEST PUSH0 PUSH1 0x20 DUP3 ADD SWAP1 POP DUP2 DUP2 SUB PUSH0 DUP4 ADD MSTORE PUSH2 0x1763 DUP2 PUSH2 0x172A JUMP JUMPDEST SWAP1 POP SWAP2 SWAP1 POP JUMP JUMPDEST PUSH0 DUP2 SWAP1 POP DUP2 PUSH0 MSTORE PUSH1 0x20 PUSH0 KECCAK256 SWAP1 POP SWAP2 SWAP1 POP JUMP JUMPDEST PUSH0 PUSH1 0x20 PUSH1 0x1F DUP4 ADD DIV SWAP1 POP SWAP2 SWAP1 POP JUMP JUMPDEST PUSH0 DUP3 DUP3 SHL SWAP1 POP SWAP3 SWAP2 POP POP JUMP JUMPDEST PUSH0 PUSH1 0x8 DUP4 MUL PUSH2 0x17C6 PUSH32 0xFFFFFFFFFFFFFFFFFFFFFFFFFFFFFFFFFFFFFFFFFFFFFFFFFFFFFFFFFFFFFFFF DUP3 PUSH2 0x178B JUMP JUMPDEST PUSH2 0x17D0 DUP7 DUP4 PUSH2 0x178B JUMP JUMPDEST SWAP6 POP DUP1 NOT DUP5 AND SWAP4 POP DUP1 DUP7 AND DUP5 OR SWAP3 POP POP POP SWAP4 SWAP3 POP POP POP JUMP JUMPDEST PUSH0 DUP2 SWAP1 POP SWAP2 SWAP1 POP JUMP JUMPDEST PUSH0 PUSH2 0x180B PUSH2 0x1806 PUSH2 0x1801 DUP5 PUSH2 0xE3F JUMP JUMPDEST PUSH2 0x17E8 JUMP JUMPDEST PUSH2 0xE3F JUMP JUMPDEST SWAP1 POP SWAP2 SWAP1 POP JUMP JUMPDEST PUSH0 DUP2 SWAP1 POP SWAP2 SWAP1 POP JUMP JUMPDEST PUSH2 0x1824 DUP4 PUSH2 0x17F1 JUMP JUMPDEST PUSH2 0x1838 PUSH2 0x1830 DUP3 PUSH2 0x1812 JUMP JUMPDEST DUP5 DUP5 SLOAD PUSH2 0x1797 JUMP JUMPDEST DUP3 SSTORE POP POP POP POP JUMP JUMPDEST PUSH0 SWAP1 JUMP JUMPDEST PUSH2 0x184C PUSH2 0x1840 JUMP JUMPDEST PUSH2 0x1857 DUP2 DUP5 DUP5 PUSH2 0x181B JUMP JUMPDEST POP POP POP JUMP JUMPDEST JUMPDEST DUP2 DUP2 LT ISZERO PUSH2 0x187A JUMPI PUSH2 0x186F PUSH0 DUP3 PUSH2 0x1844 JUMP JUMPDEST PUSH1 0x1 DUP2 ADD SWAP1 POP PUSH2 0x185D JUMP JUMPDEST POP POP JUMP JUMPDEST PUSH1 0x1F DUP3 GT ISZERO PUSH2 0x18BF JUMPI PUSH2 0x1890 DUP2 PUSH2 0x176A JUMP JUMPDEST PUSH2 0x1899 DUP5 PUSH2 0x177C JUMP JUMPDEST DUP2 ADD PUSH1 0x20 DUP6 LT ISZERO PUSH2 0x18A8 JUMPI DUP2 SWAP1 POP JUMPDEST PUSH2 0x18BC PUSH2 0x18B4 DUP6 PUSH2 0x177C JUMP JUMPDEST DUP4 ADD DUP3 PUSH2 0x185C JUMP JUMPDEST POP POP JUMPDEST POP POP POP JUMP JUMPDEST PUSH0 DUP3 DUP3 SHR SWAP1 POP SWAP3 SWAP2 POP POP JUMP JUMPDEST PUSH0 PUSH2 0x18DF PUSH0 NOT DUP5 PUSH1 0x8 MUL PUSH2 0x18C4 JUMP JUMPDEST NOT DUP1 DUP4 AND SWAP2 POP POP SWAP3 SWAP2 POP POP JUMP JUMPDEST PUSH0 PUSH2 0x18F7 DUP4 DUP4 PUSH2 0x18D0 JUMP JUMPDEST SWAP2 POP DUP3 PUSH1 0x2 MUL DUP3 OR SWAP1 POP SWAP3 SWAP2 POP POP JUMP JUMPDEST PUSH2 0x1910 DUP3 PUSH2 0xECE JUMP JUMPDEST PUSH8 0xFFFFFFFFFFFFFFFF DUP2 GT ISZERO PUSH2 0x1929 JUMPI PUSH2 0x1928 PUSH2 0x1207 JUMP JUMPDEST JUMPDEST PUSH2 0x1933 DUP3 SLOAD PUSH2 0x148F JUMP JUMPDEST PUSH2 0x193E DUP3 DUP3 DUP6 PUSH2 0x187E JUMP JUMPDEST PUSH0 PUSH1 0x20 SWAP1 POP PUSH1 0x1F DUP4 GT PUSH1 0x1 DUP2 EQ PUSH2 0x196F JUMPI PUSH0 DUP5 ISZERO PUSH2 0x195D JUMPI DUP3 DUP8 ADD MLOAD SWAP1 POP JUMPDEST PUSH2 0x1967 DUP6 DUP3 PUSH2 0x18EC JUMP JUMPDEST DUP7 SSTORE POP PUSH2 0x19CE JUMP JUMPDEST PUSH1 0x1F NOT DUP5 AND PUSH2 0x197D DUP7 PUSH2 0x176A JUMP JUMPDEST PUSH0 JUMPDEST DUP3 DUP2 LT ISZERO PUSH2 0x19A4 JUMPI DUP5 DUP10 ADD MLOAD DUP3 SSTORE PUSH1 0x1 DUP3 ADD SWAP2 POP PUSH1 0x20 DUP6 ADD SWAP5 POP PUSH1 0x20 DUP2 ADD SWAP1 POP PUSH2 0x197F JUMP JUMPDEST DUP7 DUP4 LT ISZERO PUSH2 0x19C1 JUMPI DUP5 DUP10 ADD MLOAD PUSH2 0x19BD PUSH1 0x1F DUP10 AND DUP3 PUSH2 0x18D0 JUMP JUMPDEST DUP4 SSTORE POP JUMPDEST PUSH1 0x1 PUSH1 0x2 DUP9 MUL ADD DUP9 SSTORE POP POP POP JUMPDEST POP POP POP POP POP POP JUMP JUMPDEST PUSH0 PUSH1 0x80 DUP3 ADD SWAP1 POP PUSH2 0x19E9 PUSH0 DUP4 ADD DUP8 PUSH2 0xEB0 JUMP JUMPDEST PUSH2 0x19F6 PUSH1 0x20 DUP4 ADD DUP7 PUSH2 0xEBF JUMP JUMPDEST DUP2 DUP2 SUB PUSH1 0x40 DUP4 ADD MSTORE PUSH2 0x1A08 DUP2 DUP6 PUSH2 0xF06 JUMP JUMPDEST SWAP1 POP PUSH2 0x1A17 PUSH1 0x60 DUP4 ADD DUP5 PUSH2 0xEB0 JUMP JUMPDEST SWAP6 SWAP5 POP POP POP POP POP JUMP JUMPDEST PUSH0 PUSH2 0x1A2A DUP3 PUSH2 0xE3F JUMP JUMPDEST SWAP2 POP PUSH2 0x1A35 DUP4 PUSH2 0xE3F JUMP JUMPDEST SWAP3 POP DUP3 DUP3 ADD SWAP1 POP DUP1 DUP3 GT ISZERO PUSH2 0x1A4D JUMPI PUSH2 0x1A4C PUSH2 0x15BC JUMP JUMPDEST JUMPDEST SWAP3 SWAP2 POP POP JUMP INVALID LOG2 PUSH5 0x6970667358 0x22 SLT KECCAK256 0x24 DUP16 0xCE 0xED TSTORE PUSH5 0xE2B507C304 SLT 0xE7 0x4B GASLIMIT 0xCD 0xA8 AND 0x4D 0xF8 INVALID 0xD1 DUP4 PUSH18 0x247CE8F86DB209864736F6C634300081A00 CALLER "
				},
				"gasEstimates": {
					"creation": {
						"codeDepositCost": "1358600",
						"executionCost": "49946",
						"totalCost": "1408546"
					},
					"external": {
						"MAX_TWEET_LENGTH()": "2463",
						"changeTweetLength(uint16)": "26909",
						"createTweet(string)": "infinite",
						"getAllTweets(address)": "infinite",
						"getTotalLikes(address)": "infinite",
						"getTweet(uint256)": "infinite",
						"likeTweet(address,uint256)": "infinite",
						"owner()": "2574",
						"tweets(address,uint256)": "infinite",
						"unlikeTweet(address,uint256)": "infinite"
					}
				},
				"methodIdentifiers": {
					"MAX_TWEET_LENGTH()": "6eb10797",
					"changeTweetLength(uint16)": "58bfa4ab",
					"createTweet(string)": "7c9cd2bc",
					"getAllTweets(address)": "12e7ee1c",
					"getTotalLikes(address)": "820785cc",
					"getTweet(uint256)": "c3ad5ecb",
					"likeTweet(address,uint256)": "63378216",
					"owner()": "8da5cb5b",
					"tweets(address,uint256)": "05a1b4a9",
					"unlikeTweet(address,uint256)": "3d9b569f"
				}
			},
			"storageLayout": {
				"storage": [
					{
						"astId": 4,
						"contract": "contracts/Twitter-GetTotalLikes-Exercise.sol:Twitter",
						"label": "MAX_TWEET_LENGTH",
						"offset": 0,
						"slot": "0",
						"type": "t_uint16"
					},
					{
						"astId": 21,
						"contract": "contracts/Twitter-GetTotalLikes-Exercise.sol:Twitter",
						"label": "tweets",
						"offset": 0,
						"slot": "1",
						"type": "t_mapping(t_address,t_array(t_struct(Tweet)15_storage)dyn_storage)"
					},
					{
						"astId": 23,
						"contract": "contracts/Twitter-GetTotalLikes-Exercise.sol:Twitter",
						"label": "owner",
						"offset": 0,
						"slot": "2",
						"type": "t_address"
					}
				],
				"types": {
					"t_address": {
						"encoding": "inplace",
						"label": "address",
						"numberOfBytes": "20"
					},
					"t_array(t_struct(Tweet)15_storage)dyn_storage": {
						"base": "t_struct(Tweet)15_storage",
						"encoding": "dynamic_array",
						"label": "struct Twitter.Tweet[]",
						"numberOfBytes": "32"
					},
					"t_mapping(t_address,t_array(t_struct(Tweet)15_storage)dyn_storage)": {
						"encoding": "mapping",
						"key": "t_address",
						"label": "mapping(address => struct Twitter.Tweet[])",
						"numberOfBytes": "32",
						"value": "t_array(t_struct(Tweet)15_storage)dyn_storage"
					},
					"t_string_storage": {
						"encoding": "bytes",
						"label": "string",
						"numberOfBytes": "32"
					},
					"t_struct(Tweet)15_storage": {
						"encoding": "inplace",
						"label": "struct Twitter.Tweet",
						"members": [
							{
								"astId": 6,
								"contract": "contracts/Twitter-GetTotalLikes-Exercise.sol:Twitter",
								"label": "id",
								"offset": 0,
								"slot": "0",
								"type": "t_uint256"
							},
							{
								"astId": 8,
								"contract": "contracts/Twitter-GetTotalLikes-Exercise.sol:Twitter",
								"label": "author",
								"offset": 0,
								"slot": "1",
								"type": "t_address"
							},
							{
								"astId": 10,
								"contract": "contracts/Twitter-GetTotalLikes-Exercise.sol:Twitter",
								"label": "content",
								"offset": 0,
								"slot": "2",
								"type": "t_string_storage"
							},
							{
								"astId": 12,
								"contract": "contracts/Twitter-GetTotalLikes-Exercise.sol:Twitter",
								"label": "timestamp",
								"offset": 0,
								"slot": "3",
								"type": "t_uint256"
							},
							{
								"astId": 14,
								"contract": "contracts/Twitter-GetTotalLikes-Exercise.sol:Twitter",
								"label": "likes",
								"offset": 0,
								"slot": "4",
								"type": "t_uint256"
							}
						],
						"numberOfBytes": "160"
					},
					"t_uint16": {
						"encoding": "inplace",
						"label": "uint16",
						"numberOfBytes": "2"
					},
					"t_uint256": {
						"encoding": "inplace",
						"label": "uint256",
						"numberOfBytes": "32"
					}
				}
			},
			"userdoc": {
				"kind": "user",
				"methods": {},
				"version": 1
			}
		}
	}
}